{
	"SimpleStorage.sol": {
		"SimpleStorage": {
			"abi": [
				{
					"inputs": [
						{
							"internalType": "string",
							"name": "_Name",
							"type": "string"
						},
						{
							"internalType": "uint256",
							"name": "_favoriteNumber",
							"type": "uint256"
						}
					],
					"name": "AddPeople",
					"outputs": [],
					"stateMutability": "nonpayable",
					"type": "function"
				},
				{
					"inputs": [
						{
							"internalType": "uint256",
							"name": "",
							"type": "uint256"
						}
					],
					"name": "listOfPeople",
					"outputs": [
						{
							"internalType": "string",
							"name": "Name",
							"type": "string"
						},
						{
							"internalType": "uint256",
							"name": "favoriteNumber",
							"type": "uint256"
						}
					],
					"stateMutability": "view",
					"type": "function"
				},
				{
					"inputs": [
						{
							"internalType": "string",
							"name": "_Name",
							"type": "string"
						}
					],
					"name": "retriveData",
					"outputs": [
						{
							"internalType": "uint256",
							"name": "",
							"type": "uint256"
						}
					],
					"stateMutability": "view",
					"type": "function"
				}
			],
			"devdoc": {
				"kind": "dev",
				"methods": {},
				"version": 1
			},
			"evm": {
				"assembly": "    /* \"SimpleStorage.sol\":141:836  contract SimpleStorage {... */\n  mstore(0x40, 0x80)\n  callvalue\n  dup1\n  iszero\n  tag_1\n  jumpi\n  revert(0x00, 0x00)\ntag_1:\n  pop\n  dataSize(sub_0)\n  dup1\n  dataOffset(sub_0)\n  0x00\n  codecopy\n  0x00\n  return\nstop\n\nsub_0: assembly {\n        /* \"SimpleStorage.sol\":141:836  contract SimpleStorage {... */\n      mstore(0x40, 0x80)\n      callvalue\n      dup1\n      iszero\n      tag_1\n      jumpi\n      revert(0x00, 0x00)\n    tag_1:\n      pop\n      jumpi(tag_2, lt(calldatasize, 0x04))\n      shr(0xe0, calldataload(0x00))\n      dup1\n      0x2ebce631\n      eq\n      tag_3\n      jumpi\n      dup1\n      0x35d0aac1\n      eq\n      tag_4\n      jumpi\n      dup1\n      0x5b5f9748\n      eq\n      tag_5\n      jumpi\n    tag_2:\n      revert(0x00, 0x00)\n        /* \"SimpleStorage.sol\":249:277  Person[] public listOfPeople */\n    tag_3:\n      tag_6\n      0x04\n      dup1\n      calldatasize\n      sub\n      dup2\n      add\n      swap1\n      tag_7\n      swap2\n      swap1\n      tag_8\n      jump\t// in\n    tag_7:\n      tag_9\n      jump\t// in\n    tag_6:\n      mload(0x40)\n      tag_10\n      swap3\n      swap2\n      swap1\n      tag_11\n      jump\t// in\n    tag_10:\n      mload(0x40)\n      dup1\n      swap2\n      sub\n      swap1\n      return\n        /* \"SimpleStorage.sol\":283:490  function AddPeople(string memory _Name, uint256 _favoriteNumber) public {... */\n    tag_4:\n      tag_12\n      0x04\n      dup1\n      calldatasize\n      sub\n      dup2\n      add\n      swap1\n      tag_13\n      swap2\n      swap1\n      tag_14\n      jump\t// in\n    tag_13:\n      tag_15\n      jump\t// in\n    tag_12:\n      stop\n        /* \"SimpleStorage.sol\":496:834  function retriveData(string memory _Name) public view returns(uint256) {... */\n    tag_5:\n      tag_16\n      0x04\n      dup1\n      calldatasize\n      sub\n      dup2\n      add\n      swap1\n      tag_17\n      swap2\n      swap1\n      tag_18\n      jump\t// in\n    tag_17:\n      tag_19\n      jump\t// in\n    tag_16:\n      mload(0x40)\n      tag_20\n      swap2\n      swap1\n      tag_21\n      jump\t// in\n    tag_20:\n      mload(0x40)\n      dup1\n      swap2\n      sub\n      swap1\n      return\n        /* \"SimpleStorage.sol\":249:277  Person[] public listOfPeople */\n    tag_9:\n      0x00\n      dup2\n      dup2\n      sload\n      dup2\n      lt\n      tag_22\n      jumpi\n      0x00\n      dup1\n      revert\n    tag_22:\n      swap1\n      0x00\n      mstore\n      keccak256(0x00, 0x20)\n      swap1\n      0x02\n      mul\n      add\n      0x00\n      swap2\n      pop\n      swap1\n      pop\n      dup1\n      0x00\n      add\n      dup1\n      sload\n      tag_24\n      swap1\n      tag_25\n      jump\t// in\n    tag_24:\n      dup1\n      0x1f\n      add\n      0x20\n      dup1\n      swap2\n      div\n      mul\n      0x20\n      add\n      mload(0x40)\n      swap1\n      dup2\n      add\n      0x40\n      mstore\n      dup1\n      swap3\n      swap2\n      swap1\n      dup2\n      dup2\n      mstore\n      0x20\n      add\n      dup3\n      dup1\n      sload\n      tag_26\n      swap1\n      tag_25\n      jump\t// in\n    tag_26:\n      dup1\n      iszero\n      tag_27\n      jumpi\n      dup1\n      0x1f\n      lt\n      tag_28\n      jumpi\n      0x0100\n      dup1\n      dup4\n      sload\n      div\n      mul\n      dup4\n      mstore\n      swap2\n      0x20\n      add\n      swap2\n      jump(tag_27)\n    tag_28:\n      dup3\n      add\n      swap2\n      swap1\n      0x00\n      mstore\n      keccak256(0x00, 0x20)\n      swap1\n    tag_29:\n      dup2\n      sload\n      dup2\n      mstore\n      swap1\n      0x01\n      add\n      swap1\n      0x20\n      add\n      dup1\n      dup4\n      gt\n      tag_29\n      jumpi\n      dup3\n      swap1\n      sub\n      0x1f\n      and\n      dup3\n      add\n      swap2\n    tag_27:\n      pop\n      pop\n      pop\n      pop\n      pop\n      swap1\n      dup1\n      0x01\n      add\n      sload\n      swap1\n      pop\n      dup3\n      jump\t// out\n        /* \"SimpleStorage.sol\":283:490  function AddPeople(string memory _Name, uint256 _favoriteNumber) public {... */\n    tag_15:\n        /* \"SimpleStorage.sol\":365:388  Person memory Newperson */\n      0x00\n        /* \"SimpleStorage.sol\":391:445  Person({Name : _Name,favoriteNumber: _favoriteNumber}) */\n      mload(0x40)\n      dup1\n      0x40\n      add\n      0x40\n      mstore\n      dup1\n        /* \"SimpleStorage.sol\":406:411  _Name */\n      dup5\n        /* \"SimpleStorage.sol\":391:445  Person({Name : _Name,favoriteNumber: _favoriteNumber}) */\n      dup2\n      mstore\n      0x20\n      add\n        /* \"SimpleStorage.sol\":428:443  _favoriteNumber */\n      dup4\n        /* \"SimpleStorage.sol\":391:445  Person({Name : _Name,favoriteNumber: _favoriteNumber}) */\n      dup2\n      mstore\n      pop\n        /* \"SimpleStorage.sol\":365:445  Person memory Newperson = Person({Name : _Name,favoriteNumber: _favoriteNumber}) */\n      swap1\n      pop\n        /* \"SimpleStorage.sol\":455:467  listOfPeople */\n      0x00\n        /* \"SimpleStorage.sol\":473:482  Newperson */\n      dup2\n        /* \"SimpleStorage.sol\":455:483  listOfPeople.push(Newperson) */\n      swap1\n      dup1\n      0x01\n      dup2\n      sload\n      add\n      dup1\n      dup3\n      sstore\n      dup1\n      swap2\n      pop\n      pop\n      0x01\n      swap1\n      sub\n      swap1\n      0x00\n      mstore\n      keccak256(0x00, 0x20)\n      swap1\n      0x02\n      mul\n      add\n      0x00\n      swap1\n      swap2\n      swap1\n      swap2\n      swap1\n      swap2\n      pop\n      0x00\n      dup3\n      add\n      mload\n      dup2\n      0x00\n      add\n      swap1\n      dup2\n      tag_32\n      swap2\n      swap1\n      tag_33\n      jump\t// in\n    tag_32:\n      pop\n      0x20\n      dup3\n      add\n      mload\n      dup2\n      0x01\n      add\n      sstore\n      pop\n      pop\n        /* \"SimpleStorage.sol\":355:490  {... */\n      pop\n        /* \"SimpleStorage.sol\":283:490  function AddPeople(string memory _Name, uint256 _favoriteNumber) public {... */\n      pop\n      pop\n      jump\t// out\n        /* \"SimpleStorage.sol\":496:834  function retriveData(string memory _Name) public view returns(uint256) {... */\n    tag_19:\n        /* \"SimpleStorage.sol\":558:565  uint256 */\n      0x00\n        /* \"SimpleStorage.sol\":582:591  uint256 i */\n      0x00\n        /* \"SimpleStorage.sol\":594:595  0 */\n      0x00\n        /* \"SimpleStorage.sol\":582:595  uint256 i = 0 */\n      swap1\n      pop\n        /* \"SimpleStorage.sol\":577:792  for (uint256 i = 0; i < listOfPeople.length; i++) {... */\n    tag_35:\n        /* \"SimpleStorage.sol\":601:613  listOfPeople */\n      0x00\n        /* \"SimpleStorage.sol\":601:620  listOfPeople.length */\n      dup1\n      sload\n      swap1\n      pop\n        /* \"SimpleStorage.sol\":597:598  i */\n      dup2\n        /* \"SimpleStorage.sol\":597:620  i < listOfPeople.length */\n      lt\n        /* \"SimpleStorage.sol\":577:792  for (uint256 i = 0; i < listOfPeople.length; i++) {... */\n      iszero\n      tag_36\n      jumpi\n        /* \"SimpleStorage.sol\":703:708  _Name */\n      dup3\n        /* \"SimpleStorage.sol\":687:710  keccak256(bytes(_Name)) */\n      dup1\n      mload\n      swap1\n      0x20\n      add\n      keccak256\n        /* \"SimpleStorage.sol\":661:673  listOfPeople */\n      0x00\n        /* \"SimpleStorage.sol\":674:675  i */\n      dup3\n        /* \"SimpleStorage.sol\":661:676  listOfPeople[i] */\n      dup2\n      sload\n      dup2\n      lt\n      tag_38\n      jumpi\n      tag_39\n      tag_40\n      jump\t// in\n    tag_39:\n    tag_38:\n      swap1\n      0x00\n      mstore\n      keccak256(0x00, 0x20)\n      swap1\n      0x02\n      mul\n      add\n        /* \"SimpleStorage.sol\":661:681  listOfPeople[i].Name */\n      0x00\n      add\n        /* \"SimpleStorage.sol\":645:683  keccak256(bytes(listOfPeople[i].Name)) */\n      mload(0x40)\n      tag_42\n      swap2\n      swap1\n      tag_43\n      jump\t// in\n    tag_42:\n      mload(0x40)\n      dup1\n      swap2\n      sub\n      swap1\n      keccak256\n        /* \"SimpleStorage.sol\":645:710  keccak256(bytes(listOfPeople[i].Name)) == keccak256(bytes(_Name)) */\n      sub\n        /* \"SimpleStorage.sol\":641:782  if (keccak256(bytes(listOfPeople[i].Name)) == keccak256(bytes(_Name))) {... */\n      tag_44\n      jumpi\n        /* \"SimpleStorage.sol\":737:749  listOfPeople */\n      0x00\n        /* \"SimpleStorage.sol\":750:751  i */\n      dup2\n        /* \"SimpleStorage.sol\":737:752  listOfPeople[i] */\n      dup2\n      sload\n      dup2\n      lt\n      tag_45\n      jumpi\n      tag_46\n      tag_40\n      jump\t// in\n    tag_46:\n    tag_45:\n      swap1\n      0x00\n      mstore\n      keccak256(0x00, 0x20)\n      swap1\n      0x02\n      mul\n      add\n        /* \"SimpleStorage.sol\":737:767  listOfPeople[i].favoriteNumber */\n      0x01\n      add\n      sload\n        /* \"SimpleStorage.sol\":730:767  return listOfPeople[i].favoriteNumber */\n      swap2\n      pop\n      pop\n      jump(tag_34)\n        /* \"SimpleStorage.sol\":641:782  if (keccak256(bytes(listOfPeople[i].Name)) == keccak256(bytes(_Name))) {... */\n    tag_44:\n        /* \"SimpleStorage.sol\":622:625  i++ */\n      dup1\n      dup1\n      0x01\n      add\n      swap2\n      pop\n      pop\n        /* \"SimpleStorage.sol\":577:792  for (uint256 i = 0; i < listOfPeople.length; i++) {... */\n      jump(tag_35)\n    tag_36:\n      pop\n        /* \"SimpleStorage.sol\":801:827  revert(\"person NOT found\") */\n      mload(0x40)\n      0x08c379a000000000000000000000000000000000000000000000000000000000\n      dup2\n      mstore\n      0x04\n      add\n      tag_48\n      swap1\n      tag_49\n      jump\t// in\n    tag_48:\n      mload(0x40)\n      dup1\n      swap2\n      sub\n      swap1\n      revert\n        /* \"SimpleStorage.sol\":496:834  function retriveData(string memory _Name) public view returns(uint256) {... */\n    tag_34:\n      swap2\n      swap1\n      pop\n      jump\t// out\n        /* \"#utility.yul\":7:82   */\n    tag_50:\n        /* \"#utility.yul\":40:46   */\n      0x00\n        /* \"#utility.yul\":73:75   */\n      0x40\n        /* \"#utility.yul\":67:76   */\n      mload\n        /* \"#utility.yul\":57:76   */\n      swap1\n      pop\n        /* \"#utility.yul\":7:82   */\n      swap1\n      jump\t// out\n        /* \"#utility.yul\":88:205   */\n    tag_51:\n        /* \"#utility.yul\":197:198   */\n      0x00\n        /* \"#utility.yul\":194:195   */\n      0x00\n        /* \"#utility.yul\":187:199   */\n      revert\n        /* \"#utility.yul\":211:328   */\n    tag_52:\n        /* \"#utility.yul\":320:321   */\n      0x00\n        /* \"#utility.yul\":317:318   */\n      0x00\n        /* \"#utility.yul\":310:322   */\n      revert\n        /* \"#utility.yul\":334:411   */\n    tag_53:\n        /* \"#utility.yul\":371:378   */\n      0x00\n        /* \"#utility.yul\":400:405   */\n      dup2\n        /* \"#utility.yul\":389:405   */\n      swap1\n      pop\n        /* \"#utility.yul\":334:411   */\n      swap2\n      swap1\n      pop\n      jump\t// out\n        /* \"#utility.yul\":417:539   */\n    tag_54:\n        /* \"#utility.yul\":490:514   */\n      tag_98\n        /* \"#utility.yul\":508:513   */\n      dup2\n        /* \"#utility.yul\":490:514   */\n      tag_53\n      jump\t// in\n    tag_98:\n        /* \"#utility.yul\":483:488   */\n      dup2\n        /* \"#utility.yul\":480:515   */\n      eq\n        /* \"#utility.yul\":470:533   */\n      tag_99\n      jumpi\n        /* \"#utility.yul\":529:530   */\n      0x00\n        /* \"#utility.yul\":526:527   */\n      0x00\n        /* \"#utility.yul\":519:531   */\n      revert\n        /* \"#utility.yul\":470:533   */\n    tag_99:\n        /* \"#utility.yul\":417:539   */\n      pop\n      jump\t// out\n        /* \"#utility.yul\":545:684   */\n    tag_55:\n        /* \"#utility.yul\":591:596   */\n      0x00\n        /* \"#utility.yul\":629:635   */\n      dup2\n        /* \"#utility.yul\":616:636   */\n      calldataload\n        /* \"#utility.yul\":607:636   */\n      swap1\n      pop\n        /* \"#utility.yul\":645:678   */\n      tag_101\n        /* \"#utility.yul\":672:677   */\n      dup2\n        /* \"#utility.yul\":645:678   */\n      tag_54\n      jump\t// in\n    tag_101:\n        /* \"#utility.yul\":545:684   */\n      swap3\n      swap2\n      pop\n      pop\n      jump\t// out\n        /* \"#utility.yul\":690:1019   */\n    tag_8:\n        /* \"#utility.yul\":749:755   */\n      0x00\n        /* \"#utility.yul\":798:800   */\n      0x20\n        /* \"#utility.yul\":786:795   */\n      dup3\n        /* \"#utility.yul\":777:784   */\n      dup5\n        /* \"#utility.yul\":773:796   */\n      sub\n        /* \"#utility.yul\":769:801   */\n      slt\n        /* \"#utility.yul\":766:885   */\n      iszero\n      tag_103\n      jumpi\n        /* \"#utility.yul\":804:883   */\n      tag_104\n      tag_51\n      jump\t// in\n    tag_104:\n        /* \"#utility.yul\":766:885   */\n    tag_103:\n        /* \"#utility.yul\":924:925   */\n      0x00\n        /* \"#utility.yul\":949:1002   */\n      tag_105\n        /* \"#utility.yul\":994:1001   */\n      dup5\n        /* \"#utility.yul\":985:991   */\n      dup3\n        /* \"#utility.yul\":974:983   */\n      dup6\n        /* \"#utility.yul\":970:992   */\n      add\n        /* \"#utility.yul\":949:1002   */\n      tag_55\n      jump\t// in\n    tag_105:\n        /* \"#utility.yul\":939:1002   */\n      swap2\n      pop\n        /* \"#utility.yul\":895:1012   */\n      pop\n        /* \"#utility.yul\":690:1019   */\n      swap3\n      swap2\n      pop\n      pop\n      jump\t// out\n        /* \"#utility.yul\":1025:1124   */\n    tag_56:\n        /* \"#utility.yul\":1077:1083   */\n      0x00\n        /* \"#utility.yul\":1111:1116   */\n      dup2\n        /* \"#utility.yul\":1105:1117   */\n      mload\n        /* \"#utility.yul\":1095:1117   */\n      swap1\n      pop\n        /* \"#utility.yul\":1025:1124   */\n      swap2\n      swap1\n      pop\n      jump\t// out\n        /* \"#utility.yul\":1130:1299   */\n    tag_57:\n        /* \"#utility.yul\":1214:1225   */\n      0x00\n        /* \"#utility.yul\":1248:1254   */\n      dup3\n        /* \"#utility.yul\":1243:1246   */\n      dup3\n        /* \"#utility.yul\":1236:1255   */\n      mstore\n        /* \"#utility.yul\":1288:1292   */\n      0x20\n        /* \"#utility.yul\":1283:1286   */\n      dup3\n        /* \"#utility.yul\":1279:1293   */\n      add\n        /* \"#utility.yul\":1264:1293   */\n      swap1\n      pop\n        /* \"#utility.yul\":1130:1299   */\n      swap3\n      swap2\n      pop\n      pop\n      jump\t// out\n        /* \"#utility.yul\":1305:1444   */\n    tag_58:\n        /* \"#utility.yul\":1394:1400   */\n      dup3\n        /* \"#utility.yul\":1389:1392   */\n      dup2\n        /* \"#utility.yul\":1384:1387   */\n      dup4\n        /* \"#utility.yul\":1378:1401   */\n      mcopy\n        /* \"#utility.yul\":1435:1436   */\n      0x00\n        /* \"#utility.yul\":1426:1432   */\n      dup4\n        /* \"#utility.yul\":1421:1424   */\n      dup4\n        /* \"#utility.yul\":1417:1433   */\n      add\n        /* \"#utility.yul\":1410:1437   */\n      mstore\n        /* \"#utility.yul\":1305:1444   */\n      pop\n      pop\n      pop\n      jump\t// out\n        /* \"#utility.yul\":1450:1552   */\n    tag_59:\n        /* \"#utility.yul\":1491:1497   */\n      0x00\n        /* \"#utility.yul\":1542:1544   */\n      0x1f\n        /* \"#utility.yul\":1538:1545   */\n      not\n        /* \"#utility.yul\":1533:1535   */\n      0x1f\n        /* \"#utility.yul\":1526:1531   */\n      dup4\n        /* \"#utility.yul\":1522:1536   */\n      add\n        /* \"#utility.yul\":1518:1546   */\n      and\n        /* \"#utility.yul\":1508:1546   */\n      swap1\n      pop\n        /* \"#utility.yul\":1450:1552   */\n      swap2\n      swap1\n      pop\n      jump\t// out\n        /* \"#utility.yul\":1558:1935   */\n    tag_60:\n        /* \"#utility.yul\":1646:1649   */\n      0x00\n        /* \"#utility.yul\":1674:1713   */\n      tag_111\n        /* \"#utility.yul\":1707:1712   */\n      dup3\n        /* \"#utility.yul\":1674:1713   */\n      tag_56\n      jump\t// in\n    tag_111:\n        /* \"#utility.yul\":1729:1800   */\n      tag_112\n        /* \"#utility.yul\":1793:1799   */\n      dup2\n        /* \"#utility.yul\":1788:1791   */\n      dup6\n        /* \"#utility.yul\":1729:1800   */\n      tag_57\n      jump\t// in\n    tag_112:\n        /* \"#utility.yul\":1722:1800   */\n      swap4\n      pop\n        /* \"#utility.yul\":1809:1874   */\n      tag_113\n        /* \"#utility.yul\":1867:1873   */\n      dup2\n        /* \"#utility.yul\":1862:1865   */\n      dup6\n        /* \"#utility.yul\":1855:1859   */\n      0x20\n        /* \"#utility.yul\":1848:1853   */\n      dup7\n        /* \"#utility.yul\":1844:1860   */\n      add\n        /* \"#utility.yul\":1809:1874   */\n      tag_58\n      jump\t// in\n    tag_113:\n        /* \"#utility.yul\":1899:1928   */\n      tag_114\n        /* \"#utility.yul\":1921:1927   */\n      dup2\n        /* \"#utility.yul\":1899:1928   */\n      tag_59\n      jump\t// in\n    tag_114:\n        /* \"#utility.yul\":1894:1897   */\n      dup5\n        /* \"#utility.yul\":1890:1929   */\n      add\n        /* \"#utility.yul\":1883:1929   */\n      swap2\n      pop\n        /* \"#utility.yul\":1650:1935   */\n      pop\n        /* \"#utility.yul\":1558:1935   */\n      swap3\n      swap2\n      pop\n      pop\n      jump\t// out\n        /* \"#utility.yul\":1941:2059   */\n    tag_61:\n        /* \"#utility.yul\":2028:2052   */\n      tag_116\n        /* \"#utility.yul\":2046:2051   */\n      dup2\n        /* \"#utility.yul\":2028:2052   */\n      tag_53\n      jump\t// in\n    tag_116:\n        /* \"#utility.yul\":2023:2026   */\n      dup3\n        /* \"#utility.yul\":2016:2053   */\n      mstore\n        /* \"#utility.yul\":1941:2059   */\n      pop\n      pop\n      jump\t// out\n        /* \"#utility.yul\":2065:2488   */\n    tag_11:\n        /* \"#utility.yul\":2206:2210   */\n      0x00\n        /* \"#utility.yul\":2244:2246   */\n      0x40\n        /* \"#utility.yul\":2233:2242   */\n      dup3\n        /* \"#utility.yul\":2229:2247   */\n      add\n        /* \"#utility.yul\":2221:2247   */\n      swap1\n      pop\n        /* \"#utility.yul\":2293:2302   */\n      dup2\n        /* \"#utility.yul\":2287:2291   */\n      dup2\n        /* \"#utility.yul\":2283:2303   */\n      sub\n        /* \"#utility.yul\":2279:2280   */\n      0x00\n        /* \"#utility.yul\":2268:2277   */\n      dup4\n        /* \"#utility.yul\":2264:2281   */\n      add\n        /* \"#utility.yul\":2257:2304   */\n      mstore\n        /* \"#utility.yul\":2321:2399   */\n      tag_118\n        /* \"#utility.yul\":2394:2398   */\n      dup2\n        /* \"#utility.yul\":2385:2391   */\n      dup6\n        /* \"#utility.yul\":2321:2399   */\n      tag_60\n      jump\t// in\n    tag_118:\n        /* \"#utility.yul\":2313:2399   */\n      swap1\n      pop\n        /* \"#utility.yul\":2409:2481   */\n      tag_119\n        /* \"#utility.yul\":2477:2479   */\n      0x20\n        /* \"#utility.yul\":2466:2475   */\n      dup4\n        /* \"#utility.yul\":2462:2480   */\n      add\n        /* \"#utility.yul\":2453:2459   */\n      dup5\n        /* \"#utility.yul\":2409:2481   */\n      tag_61\n      jump\t// in\n    tag_119:\n        /* \"#utility.yul\":2065:2488   */\n      swap4\n      swap3\n      pop\n      pop\n      pop\n      jump\t// out\n        /* \"#utility.yul\":2494:2611   */\n    tag_62:\n        /* \"#utility.yul\":2603:2604   */\n      0x00\n        /* \"#utility.yul\":2600:2601   */\n      0x00\n        /* \"#utility.yul\":2593:2605   */\n      revert\n        /* \"#utility.yul\":2617:2734   */\n    tag_63:\n        /* \"#utility.yul\":2726:2727   */\n      0x00\n        /* \"#utility.yul\":2723:2724   */\n      0x00\n        /* \"#utility.yul\":2716:2728   */\n      revert\n        /* \"#utility.yul\":2740:2920   */\n    tag_64:\n        /* \"#utility.yul\":2788:2865   */\n      0x4e487b7100000000000000000000000000000000000000000000000000000000\n        /* \"#utility.yul\":2785:2786   */\n      0x00\n        /* \"#utility.yul\":2778:2866   */\n      mstore\n        /* \"#utility.yul\":2885:2889   */\n      0x41\n        /* \"#utility.yul\":2882:2883   */\n      0x04\n        /* \"#utility.yul\":2875:2890   */\n      mstore\n        /* \"#utility.yul\":2909:2913   */\n      0x24\n        /* \"#utility.yul\":2906:2907   */\n      0x00\n        /* \"#utility.yul\":2899:2914   */\n      revert\n        /* \"#utility.yul\":2926:3207   */\n    tag_65:\n        /* \"#utility.yul\":3009:3036   */\n      tag_124\n        /* \"#utility.yul\":3031:3035   */\n      dup3\n        /* \"#utility.yul\":3009:3036   */\n      tag_59\n      jump\t// in\n    tag_124:\n        /* \"#utility.yul\":3001:3007   */\n      dup2\n        /* \"#utility.yul\":2997:3037   */\n      add\n        /* \"#utility.yul\":3139:3145   */\n      dup2\n        /* \"#utility.yul\":3127:3137   */\n      dup2\n        /* \"#utility.yul\":3124:3146   */\n      lt\n        /* \"#utility.yul\":3103:3121   */\n      0xffffffffffffffff\n        /* \"#utility.yul\":3091:3101   */\n      dup3\n        /* \"#utility.yul\":3088:3122   */\n      gt\n        /* \"#utility.yul\":3085:3147   */\n      or\n        /* \"#utility.yul\":3082:3170   */\n      iszero\n      tag_125\n      jumpi\n        /* \"#utility.yul\":3150:3168   */\n      tag_126\n      tag_64\n      jump\t// in\n    tag_126:\n        /* \"#utility.yul\":3082:3170   */\n    tag_125:\n        /* \"#utility.yul\":3190:3200   */\n      dup1\n        /* \"#utility.yul\":3186:3188   */\n      0x40\n        /* \"#utility.yul\":3179:3201   */\n      mstore\n        /* \"#utility.yul\":2969:3207   */\n      pop\n        /* \"#utility.yul\":2926:3207   */\n      pop\n      pop\n      jump\t// out\n        /* \"#utility.yul\":3213:3342   */\n    tag_66:\n        /* \"#utility.yul\":3247:3253   */\n      0x00\n        /* \"#utility.yul\":3274:3294   */\n      tag_128\n      tag_50\n      jump\t// in\n    tag_128:\n        /* \"#utility.yul\":3264:3294   */\n      swap1\n      pop\n        /* \"#utility.yul\":3303:3336   */\n      tag_129\n        /* \"#utility.yul\":3331:3335   */\n      dup3\n        /* \"#utility.yul\":3323:3329   */\n      dup3\n        /* \"#utility.yul\":3303:3336   */\n      tag_65\n      jump\t// in\n    tag_129:\n        /* \"#utility.yul\":3213:3342   */\n      swap2\n      swap1\n      pop\n      jump\t// out\n        /* \"#utility.yul\":3348:3656   */\n    tag_67:\n        /* \"#utility.yul\":3410:3414   */\n      0x00\n        /* \"#utility.yul\":3500:3518   */\n      0xffffffffffffffff\n        /* \"#utility.yul\":3492:3498   */\n      dup3\n        /* \"#utility.yul\":3489:3519   */\n      gt\n        /* \"#utility.yul\":3486:3542   */\n      iszero\n      tag_131\n      jumpi\n        /* \"#utility.yul\":3522:3540   */\n      tag_132\n      tag_64\n      jump\t// in\n    tag_132:\n        /* \"#utility.yul\":3486:3542   */\n    tag_131:\n        /* \"#utility.yul\":3560:3589   */\n      tag_133\n        /* \"#utility.yul\":3582:3588   */\n      dup3\n        /* \"#utility.yul\":3560:3589   */\n      tag_59\n      jump\t// in\n    tag_133:\n        /* \"#utility.yul\":3552:3589   */\n      swap1\n      pop\n        /* \"#utility.yul\":3644:3648   */\n      0x20\n        /* \"#utility.yul\":3638:3642   */\n      dup2\n        /* \"#utility.yul\":3634:3649   */\n      add\n        /* \"#utility.yul\":3626:3649   */\n      swap1\n      pop\n        /* \"#utility.yul\":3348:3656   */\n      swap2\n      swap1\n      pop\n      jump\t// out\n        /* \"#utility.yul\":3662:3810   */\n    tag_68:\n        /* \"#utility.yul\":3760:3766   */\n      dup3\n        /* \"#utility.yul\":3755:3758   */\n      dup2\n        /* \"#utility.yul\":3750:3753   */\n      dup4\n        /* \"#utility.yul\":3737:3767   */\n      calldatacopy\n        /* \"#utility.yul\":3801:3802   */\n      0x00\n        /* \"#utility.yul\":3792:3798   */\n      dup4\n        /* \"#utility.yul\":3787:3790   */\n      dup4\n        /* \"#utility.yul\":3783:3799   */\n      add\n        /* \"#utility.yul\":3776:3803   */\n      mstore\n        /* \"#utility.yul\":3662:3810   */\n      pop\n      pop\n      pop\n      jump\t// out\n        /* \"#utility.yul\":3816:4241   */\n    tag_69:\n        /* \"#utility.yul\":3894:3899   */\n      0x00\n        /* \"#utility.yul\":3919:3985   */\n      tag_136\n        /* \"#utility.yul\":3935:3984   */\n      tag_137\n        /* \"#utility.yul\":3977:3983   */\n      dup5\n        /* \"#utility.yul\":3935:3984   */\n      tag_67\n      jump\t// in\n    tag_137:\n        /* \"#utility.yul\":3919:3985   */\n      tag_66\n      jump\t// in\n    tag_136:\n        /* \"#utility.yul\":3910:3985   */\n      swap1\n      pop\n        /* \"#utility.yul\":4008:4014   */\n      dup3\n        /* \"#utility.yul\":4001:4006   */\n      dup2\n        /* \"#utility.yul\":3994:4015   */\n      mstore\n        /* \"#utility.yul\":4046:4050   */\n      0x20\n        /* \"#utility.yul\":4039:4044   */\n      dup2\n        /* \"#utility.yul\":4035:4051   */\n      add\n        /* \"#utility.yul\":4084:4087   */\n      dup5\n        /* \"#utility.yul\":4075:4081   */\n      dup5\n        /* \"#utility.yul\":4070:4073   */\n      dup5\n        /* \"#utility.yul\":4066:4082   */\n      add\n        /* \"#utility.yul\":4063:4088   */\n      gt\n        /* \"#utility.yul\":4060:4172   */\n      iszero\n      tag_138\n      jumpi\n        /* \"#utility.yul\":4091:4170   */\n      tag_139\n      tag_63\n      jump\t// in\n    tag_139:\n        /* \"#utility.yul\":4060:4172   */\n    tag_138:\n        /* \"#utility.yul\":4181:4235   */\n      tag_140\n        /* \"#utility.yul\":4228:4234   */\n      dup5\n        /* \"#utility.yul\":4223:4226   */\n      dup3\n        /* \"#utility.yul\":4218:4221   */\n      dup6\n        /* \"#utility.yul\":4181:4235   */\n      tag_68\n      jump\t// in\n    tag_140:\n        /* \"#utility.yul\":3900:4241   */\n      pop\n        /* \"#utility.yul\":3816:4241   */\n      swap4\n      swap3\n      pop\n      pop\n      pop\n      jump\t// out\n        /* \"#utility.yul\":4261:4601   */\n    tag_70:\n        /* \"#utility.yul\":4317:4322   */\n      0x00\n        /* \"#utility.yul\":4366:4369   */\n      dup3\n        /* \"#utility.yul\":4359:4363   */\n      0x1f\n        /* \"#utility.yul\":4351:4357   */\n      dup4\n        /* \"#utility.yul\":4347:4364   */\n      add\n        /* \"#utility.yul\":4343:4370   */\n      slt\n        /* \"#utility.yul\":4333:4455   */\n      tag_142\n      jumpi\n        /* \"#utility.yul\":4374:4453   */\n      tag_143\n      tag_62\n      jump\t// in\n    tag_143:\n        /* \"#utility.yul\":4333:4455   */\n    tag_142:\n        /* \"#utility.yul\":4491:4497   */\n      dup2\n        /* \"#utility.yul\":4478:4498   */\n      calldataload\n        /* \"#utility.yul\":4516:4595   */\n      tag_144\n        /* \"#utility.yul\":4591:4594   */\n      dup5\n        /* \"#utility.yul\":4583:4589   */\n      dup3\n        /* \"#utility.yul\":4576:4580   */\n      0x20\n        /* \"#utility.yul\":4568:4574   */\n      dup7\n        /* \"#utility.yul\":4564:4581   */\n      add\n        /* \"#utility.yul\":4516:4595   */\n      tag_69\n      jump\t// in\n    tag_144:\n        /* \"#utility.yul\":4507:4595   */\n      swap2\n      pop\n        /* \"#utility.yul\":4323:4601   */\n      pop\n        /* \"#utility.yul\":4261:4601   */\n      swap3\n      swap2\n      pop\n      pop\n      jump\t// out\n        /* \"#utility.yul\":4607:5261   */\n    tag_14:\n        /* \"#utility.yul\":4685:4691   */\n      0x00\n        /* \"#utility.yul\":4693:4699   */\n      0x00\n        /* \"#utility.yul\":4742:4744   */\n      0x40\n        /* \"#utility.yul\":4730:4739   */\n      dup4\n        /* \"#utility.yul\":4721:4728   */\n      dup6\n        /* \"#utility.yul\":4717:4740   */\n      sub\n        /* \"#utility.yul\":4713:4745   */\n      slt\n        /* \"#utility.yul\":4710:4829   */\n      iszero\n      tag_146\n      jumpi\n        /* \"#utility.yul\":4748:4827   */\n      tag_147\n      tag_51\n      jump\t// in\n    tag_147:\n        /* \"#utility.yul\":4710:4829   */\n    tag_146:\n        /* \"#utility.yul\":4896:4897   */\n      0x00\n        /* \"#utility.yul\":4885:4894   */\n      dup4\n        /* \"#utility.yul\":4881:4898   */\n      add\n        /* \"#utility.yul\":4868:4899   */\n      calldataload\n        /* \"#utility.yul\":4926:4944   */\n      0xffffffffffffffff\n        /* \"#utility.yul\":4918:4924   */\n      dup2\n        /* \"#utility.yul\":4915:4945   */\n      gt\n        /* \"#utility.yul\":4912:5029   */\n      iszero\n      tag_148\n      jumpi\n        /* \"#utility.yul\":4948:5027   */\n      tag_149\n      tag_52\n      jump\t// in\n    tag_149:\n        /* \"#utility.yul\":4912:5029   */\n    tag_148:\n        /* \"#utility.yul\":5053:5116   */\n      tag_150\n        /* \"#utility.yul\":5108:5115   */\n      dup6\n        /* \"#utility.yul\":5099:5105   */\n      dup3\n        /* \"#utility.yul\":5088:5097   */\n      dup7\n        /* \"#utility.yul\":5084:5106   */\n      add\n        /* \"#utility.yul\":5053:5116   */\n      tag_70\n      jump\t// in\n    tag_150:\n        /* \"#utility.yul\":5043:5116   */\n      swap3\n      pop\n        /* \"#utility.yul\":4839:5126   */\n      pop\n        /* \"#utility.yul\":5165:5167   */\n      0x20\n        /* \"#utility.yul\":5191:5244   */\n      tag_151\n        /* \"#utility.yul\":5236:5243   */\n      dup6\n        /* \"#utility.yul\":5227:5233   */\n      dup3\n        /* \"#utility.yul\":5216:5225   */\n      dup7\n        /* \"#utility.yul\":5212:5234   */\n      add\n        /* \"#utility.yul\":5191:5244   */\n      tag_55\n      jump\t// in\n    tag_151:\n        /* \"#utility.yul\":5181:5244   */\n      swap2\n      pop\n        /* \"#utility.yul\":5136:5254   */\n      pop\n        /* \"#utility.yul\":4607:5261   */\n      swap3\n      pop\n      swap3\n      swap1\n      pop\n      jump\t// out\n        /* \"#utility.yul\":5267:5776   */\n    tag_18:\n        /* \"#utility.yul\":5336:5342   */\n      0x00\n        /* \"#utility.yul\":5385:5387   */\n      0x20\n        /* \"#utility.yul\":5373:5382   */\n      dup3\n        /* \"#utility.yul\":5364:5371   */\n      dup5\n        /* \"#utility.yul\":5360:5383   */\n      sub\n        /* \"#utility.yul\":5356:5388   */\n      slt\n        /* \"#utility.yul\":5353:5472   */\n      iszero\n      tag_153\n      jumpi\n        /* \"#utility.yul\":5391:5470   */\n      tag_154\n      tag_51\n      jump\t// in\n    tag_154:\n        /* \"#utility.yul\":5353:5472   */\n    tag_153:\n        /* \"#utility.yul\":5539:5540   */\n      0x00\n        /* \"#utility.yul\":5528:5537   */\n      dup3\n        /* \"#utility.yul\":5524:5541   */\n      add\n        /* \"#utility.yul\":5511:5542   */\n      calldataload\n        /* \"#utility.yul\":5569:5587   */\n      0xffffffffffffffff\n        /* \"#utility.yul\":5561:5567   */\n      dup2\n        /* \"#utility.yul\":5558:5588   */\n      gt\n        /* \"#utility.yul\":5555:5672   */\n      iszero\n      tag_155\n      jumpi\n        /* \"#utility.yul\":5591:5670   */\n      tag_156\n      tag_52\n      jump\t// in\n    tag_156:\n        /* \"#utility.yul\":5555:5672   */\n    tag_155:\n        /* \"#utility.yul\":5696:5759   */\n      tag_157\n        /* \"#utility.yul\":5751:5758   */\n      dup5\n        /* \"#utility.yul\":5742:5748   */\n      dup3\n        /* \"#utility.yul\":5731:5740   */\n      dup6\n        /* \"#utility.yul\":5727:5749   */\n      add\n        /* \"#utility.yul\":5696:5759   */\n      tag_70\n      jump\t// in\n    tag_157:\n        /* \"#utility.yul\":5686:5759   */\n      swap2\n      pop\n        /* \"#utility.yul\":5482:5769   */\n      pop\n        /* \"#utility.yul\":5267:5776   */\n      swap3\n      swap2\n      pop\n      pop\n      jump\t// out\n        /* \"#utility.yul\":5782:6004   */\n    tag_21:\n        /* \"#utility.yul\":5875:5879   */\n      0x00\n        /* \"#utility.yul\":5913:5915   */\n      0x20\n        /* \"#utility.yul\":5902:5911   */\n      dup3\n        /* \"#utility.yul\":5898:5916   */\n      add\n        /* \"#utility.yul\":5890:5916   */\n      swap1\n      pop\n        /* \"#utility.yul\":5926:5997   */\n      tag_159\n        /* \"#utility.yul\":5994:5995   */\n      0x00\n        /* \"#utility.yul\":5983:5992   */\n      dup4\n        /* \"#utility.yul\":5979:5996   */\n      add\n        /* \"#utility.yul\":5970:5976   */\n      dup5\n        /* \"#utility.yul\":5926:5997   */\n      tag_61\n      jump\t// in\n    tag_159:\n        /* \"#utility.yul\":5782:6004   */\n      swap3\n      swap2\n      pop\n      pop\n      jump\t// out\n        /* \"#utility.yul\":6010:6190   */\n    tag_71:\n        /* \"#utility.yul\":6058:6135   */\n      0x4e487b7100000000000000000000000000000000000000000000000000000000\n        /* \"#utility.yul\":6055:6056   */\n      0x00\n        /* \"#utility.yul\":6048:6136   */\n      mstore\n        /* \"#utility.yul\":6155:6159   */\n      0x22\n        /* \"#utility.yul\":6152:6153   */\n      0x04\n        /* \"#utility.yul\":6145:6160   */\n      mstore\n        /* \"#utility.yul\":6179:6183   */\n      0x24\n        /* \"#utility.yul\":6176:6177   */\n      0x00\n        /* \"#utility.yul\":6169:6184   */\n      revert\n        /* \"#utility.yul\":6196:6516   */\n    tag_25:\n        /* \"#utility.yul\":6240:6246   */\n      0x00\n        /* \"#utility.yul\":6277:6278   */\n      0x02\n        /* \"#utility.yul\":6271:6275   */\n      dup3\n        /* \"#utility.yul\":6267:6279   */\n      div\n        /* \"#utility.yul\":6257:6279   */\n      swap1\n      pop\n        /* \"#utility.yul\":6324:6325   */\n      0x01\n        /* \"#utility.yul\":6318:6322   */\n      dup3\n        /* \"#utility.yul\":6314:6326   */\n      and\n        /* \"#utility.yul\":6345:6363   */\n      dup1\n        /* \"#utility.yul\":6335:6416   */\n      tag_162\n      jumpi\n        /* \"#utility.yul\":6401:6405   */\n      0x7f\n        /* \"#utility.yul\":6393:6399   */\n      dup3\n        /* \"#utility.yul\":6389:6406   */\n      and\n        /* \"#utility.yul\":6379:6406   */\n      swap2\n      pop\n        /* \"#utility.yul\":6335:6416   */\n    tag_162:\n        /* \"#utility.yul\":6463:6465   */\n      0x20\n        /* \"#utility.yul\":6455:6461   */\n      dup3\n        /* \"#utility.yul\":6452:6466   */\n      lt\n        /* \"#utility.yul\":6432:6450   */\n      dup2\n        /* \"#utility.yul\":6429:6467   */\n      sub\n        /* \"#utility.yul\":6426:6510   */\n      tag_163\n      jumpi\n        /* \"#utility.yul\":6482:6500   */\n      tag_164\n      tag_71\n      jump\t// in\n    tag_164:\n        /* \"#utility.yul\":6426:6510   */\n    tag_163:\n        /* \"#utility.yul\":6247:6516   */\n      pop\n        /* \"#utility.yul\":6196:6516   */\n      swap2\n      swap1\n      pop\n      jump\t// out\n        /* \"#utility.yul\":6522:6663   */\n    tag_72:\n        /* \"#utility.yul\":6571:6575   */\n      0x00\n        /* \"#utility.yul\":6594:6597   */\n      dup2\n        /* \"#utility.yul\":6586:6597   */\n      swap1\n      pop\n        /* \"#utility.yul\":6617:6620   */\n      dup2\n        /* \"#utility.yul\":6614:6615   */\n      0x00\n        /* \"#utility.yul\":6607:6621   */\n      mstore\n        /* \"#utility.yul\":6651:6655   */\n      0x20\n        /* \"#utility.yul\":6648:6649   */\n      0x00\n        /* \"#utility.yul\":6638:6656   */\n      keccak256\n        /* \"#utility.yul\":6630:6656   */\n      swap1\n      pop\n        /* \"#utility.yul\":6522:6663   */\n      swap2\n      swap1\n      pop\n      jump\t// out\n        /* \"#utility.yul\":6669:6762   */\n    tag_73:\n        /* \"#utility.yul\":6706:6712   */\n      0x00\n        /* \"#utility.yul\":6753:6755   */\n      0x20\n        /* \"#utility.yul\":6748:6750   */\n      0x1f\n        /* \"#utility.yul\":6741:6746   */\n      dup4\n        /* \"#utility.yul\":6737:6751   */\n      add\n        /* \"#utility.yul\":6733:6756   */\n      div\n        /* \"#utility.yul\":6723:6756   */\n      swap1\n      pop\n        /* \"#utility.yul\":6669:6762   */\n      swap2\n      swap1\n      pop\n      jump\t// out\n        /* \"#utility.yul\":6768:6875   */\n    tag_74:\n        /* \"#utility.yul\":6812:6820   */\n      0x00\n        /* \"#utility.yul\":6862:6867   */\n      dup3\n        /* \"#utility.yul\":6856:6860   */\n      dup3\n        /* \"#utility.yul\":6852:6868   */\n      shl\n        /* \"#utility.yul\":6831:6868   */\n      swap1\n      pop\n        /* \"#utility.yul\":6768:6875   */\n      swap3\n      swap2\n      pop\n      pop\n      jump\t// out\n        /* \"#utility.yul\":6881:7274   */\n    tag_75:\n        /* \"#utility.yul\":6950:6956   */\n      0x00\n        /* \"#utility.yul\":7000:7001   */\n      0x08\n        /* \"#utility.yul\":6988:6998   */\n      dup4\n        /* \"#utility.yul\":6984:7002   */\n      mul\n        /* \"#utility.yul\":7023:7120   */\n      tag_169\n        /* \"#utility.yul\":7053:7119   */\n      0xffffffffffffffffffffffffffffffffffffffffffffffffffffffffffffffff\n        /* \"#utility.yul\":7042:7051   */\n      dup3\n        /* \"#utility.yul\":7023:7120   */\n      tag_74\n      jump\t// in\n    tag_169:\n        /* \"#utility.yul\":7141:7180   */\n      tag_170\n        /* \"#utility.yul\":7171:7179   */\n      dup7\n        /* \"#utility.yul\":7160:7169   */\n      dup4\n        /* \"#utility.yul\":7141:7180   */\n      tag_74\n      jump\t// in\n    tag_170:\n        /* \"#utility.yul\":7129:7180   */\n      swap6\n      pop\n        /* \"#utility.yul\":7213:7217   */\n      dup1\n        /* \"#utility.yul\":7209:7218   */\n      not\n        /* \"#utility.yul\":7202:7207   */\n      dup5\n        /* \"#utility.yul\":7198:7219   */\n      and\n        /* \"#utility.yul\":7189:7219   */\n      swap4\n      pop\n        /* \"#utility.yul\":7262:7266   */\n      dup1\n        /* \"#utility.yul\":7252:7260   */\n      dup7\n        /* \"#utility.yul\":7248:7267   */\n      and\n        /* \"#utility.yul\":7241:7246   */\n      dup5\n        /* \"#utility.yul\":7238:7268   */\n      or\n        /* \"#utility.yul\":7228:7268   */\n      swap3\n      pop\n        /* \"#utility.yul\":6957:7274   */\n      pop\n      pop\n        /* \"#utility.yul\":6881:7274   */\n      swap4\n      swap3\n      pop\n      pop\n      pop\n      jump\t// out\n        /* \"#utility.yul\":7280:7340   */\n    tag_76:\n        /* \"#utility.yul\":7308:7311   */\n      0x00\n        /* \"#utility.yul\":7329:7334   */\n      dup2\n        /* \"#utility.yul\":7322:7334   */\n      swap1\n      pop\n        /* \"#utility.yul\":7280:7340   */\n      swap2\n      swap1\n      pop\n      jump\t// out\n        /* \"#utility.yul\":7346:7488   */\n    tag_77:\n        /* \"#utility.yul\":7396:7405   */\n      0x00\n        /* \"#utility.yul\":7429:7482   */\n      tag_173\n        /* \"#utility.yul\":7447:7481   */\n      tag_174\n        /* \"#utility.yul\":7456:7480   */\n      tag_175\n        /* \"#utility.yul\":7474:7479   */\n      dup5\n        /* \"#utility.yul\":7456:7480   */\n      tag_53\n      jump\t// in\n    tag_175:\n        /* \"#utility.yul\":7447:7481   */\n      tag_76\n      jump\t// in\n    tag_174:\n        /* \"#utility.yul\":7429:7482   */\n      tag_53\n      jump\t// in\n    tag_173:\n        /* \"#utility.yul\":7416:7482   */\n      swap1\n      pop\n        /* \"#utility.yul\":7346:7488   */\n      swap2\n      swap1\n      pop\n      jump\t// out\n        /* \"#utility.yul\":7494:7569   */\n    tag_78:\n        /* \"#utility.yul\":7537:7540   */\n      0x00\n        /* \"#utility.yul\":7558:7563   */\n      dup2\n        /* \"#utility.yul\":7551:7563   */\n      swap1\n      pop\n        /* \"#utility.yul\":7494:7569   */\n      swap2\n      swap1\n      pop\n      jump\t// out\n        /* \"#utility.yul\":7575:7844   */\n    tag_79:\n        /* \"#utility.yul\":7685:7724   */\n      tag_178\n        /* \"#utility.yul\":7716:7723   */\n      dup4\n        /* \"#utility.yul\":7685:7724   */\n      tag_77\n      jump\t// in\n    tag_178:\n        /* \"#utility.yul\":7746:7837   */\n      tag_179\n        /* \"#utility.yul\":7795:7836   */\n      tag_180\n        /* \"#utility.yul\":7819:7835   */\n      dup3\n        /* \"#utility.yul\":7795:7836   */\n      tag_78\n      jump\t// in\n    tag_180:\n        /* \"#utility.yul\":7787:7793   */\n      dup5\n        /* \"#utility.yul\":7780:7784   */\n      dup5\n        /* \"#utility.yul\":7774:7785   */\n      sload\n        /* \"#utility.yul\":7746:7837   */\n      tag_75\n      jump\t// in\n    tag_179:\n        /* \"#utility.yul\":7740:7744   */\n      dup3\n        /* \"#utility.yul\":7733:7838   */\n      sstore\n        /* \"#utility.yul\":7651:7844   */\n      pop\n        /* \"#utility.yul\":7575:7844   */\n      pop\n      pop\n      pop\n      jump\t// out\n        /* \"#utility.yul\":7850:7923   */\n    tag_80:\n        /* \"#utility.yul\":7895:7898   */\n      0x00\n        /* \"#utility.yul\":7916:7917   */\n      0x00\n        /* \"#utility.yul\":7909:7917   */\n      swap1\n      pop\n        /* \"#utility.yul\":7850:7923   */\n      swap1\n      jump\t// out\n        /* \"#utility.yul\":7929:8118   */\n    tag_81:\n        /* \"#utility.yul\":8006:8038   */\n      tag_183\n      tag_80\n      jump\t// in\n    tag_183:\n        /* \"#utility.yul\":8047:8112   */\n      tag_184\n        /* \"#utility.yul\":8105:8111   */\n      dup2\n        /* \"#utility.yul\":8097:8103   */\n      dup5\n        /* \"#utility.yul\":8091:8095   */\n      dup5\n        /* \"#utility.yul\":8047:8112   */\n      tag_79\n      jump\t// in\n    tag_184:\n        /* \"#utility.yul\":7982:8118   */\n      pop\n        /* \"#utility.yul\":7929:8118   */\n      pop\n      pop\n      jump\t// out\n        /* \"#utility.yul\":8124:8310   */\n    tag_82:\n        /* \"#utility.yul\":8184:8304   */\n    tag_186:\n        /* \"#utility.yul\":8201:8204   */\n      dup2\n        /* \"#utility.yul\":8194:8199   */\n      dup2\n        /* \"#utility.yul\":8191:8205   */\n      lt\n        /* \"#utility.yul\":8184:8304   */\n      iszero\n      tag_188\n      jumpi\n        /* \"#utility.yul\":8255:8294   */\n      tag_189\n        /* \"#utility.yul\":8292:8293   */\n      0x00\n        /* \"#utility.yul\":8285:8290   */\n      dup3\n        /* \"#utility.yul\":8255:8294   */\n      tag_81\n      jump\t// in\n    tag_189:\n        /* \"#utility.yul\":8228:8229   */\n      0x01\n        /* \"#utility.yul\":8221:8226   */\n      dup2\n        /* \"#utility.yul\":8217:8230   */\n      add\n        /* \"#utility.yul\":8208:8230   */\n      swap1\n      pop\n        /* \"#utility.yul\":8184:8304   */\n      jump(tag_186)\n    tag_188:\n        /* \"#utility.yul\":8124:8310   */\n      pop\n      pop\n      jump\t// out\n        /* \"#utility.yul\":8316:8859   */\n    tag_83:\n        /* \"#utility.yul\":8417:8419   */\n      0x1f\n        /* \"#utility.yul\":8412:8415   */\n      dup3\n        /* \"#utility.yul\":8409:8420   */\n      gt\n        /* \"#utility.yul\":8406:8852   */\n      iszero\n      tag_191\n      jumpi\n        /* \"#utility.yul\":8451:8489   */\n      tag_192\n        /* \"#utility.yul\":8483:8488   */\n      dup2\n        /* \"#utility.yul\":8451:8489   */\n      tag_72\n      jump\t// in\n    tag_192:\n        /* \"#utility.yul\":8535:8564   */\n      tag_193\n        /* \"#utility.yul\":8553:8563   */\n      dup5\n        /* \"#utility.yul\":8535:8564   */\n      tag_73\n      jump\t// in\n    tag_193:\n        /* \"#utility.yul\":8525:8533   */\n      dup2\n        /* \"#utility.yul\":8521:8565   */\n      add\n        /* \"#utility.yul\":8718:8720   */\n      0x20\n        /* \"#utility.yul\":8706:8716   */\n      dup6\n        /* \"#utility.yul\":8703:8721   */\n      lt\n        /* \"#utility.yul\":8700:8749   */\n      iszero\n      tag_194\n      jumpi\n        /* \"#utility.yul\":8739:8747   */\n      dup2\n        /* \"#utility.yul\":8724:8747   */\n      swap1\n      pop\n        /* \"#utility.yul\":8700:8749   */\n    tag_194:\n        /* \"#utility.yul\":8762:8842   */\n      tag_195\n        /* \"#utility.yul\":8818:8840   */\n      tag_196\n        /* \"#utility.yul\":8836:8839   */\n      dup6\n        /* \"#utility.yul\":8818:8840   */\n      tag_73\n      jump\t// in\n    tag_196:\n        /* \"#utility.yul\":8808:8816   */\n      dup4\n        /* \"#utility.yul\":8804:8841   */\n      add\n        /* \"#utility.yul\":8791:8802   */\n      dup3\n        /* \"#utility.yul\":8762:8842   */\n      tag_82\n      jump\t// in\n    tag_195:\n        /* \"#utility.yul\":8421:8852   */\n      pop\n      pop\n        /* \"#utility.yul\":8406:8852   */\n    tag_191:\n        /* \"#utility.yul\":8316:8859   */\n      pop\n      pop\n      pop\n      jump\t// out\n        /* \"#utility.yul\":8865:8982   */\n    tag_84:\n        /* \"#utility.yul\":8919:8927   */\n      0x00\n        /* \"#utility.yul\":8969:8974   */\n      dup3\n        /* \"#utility.yul\":8963:8967   */\n      dup3\n        /* \"#utility.yul\":8959:8975   */\n      shr\n        /* \"#utility.yul\":8938:8975   */\n      swap1\n      pop\n        /* \"#utility.yul\":8865:8982   */\n      swap3\n      swap2\n      pop\n      pop\n      jump\t// out\n        /* \"#utility.yul\":8988:9157   */\n    tag_85:\n        /* \"#utility.yul\":9032:9038   */\n      0x00\n        /* \"#utility.yul\":9065:9116   */\n      tag_199\n        /* \"#utility.yul\":9113:9114   */\n      0x00\n        /* \"#utility.yul\":9109:9115   */\n      not\n        /* \"#utility.yul\":9101:9106   */\n      dup5\n        /* \"#utility.yul\":9098:9099   */\n      0x08\n        /* \"#utility.yul\":9094:9107   */\n      mul\n        /* \"#utility.yul\":9065:9116   */\n      tag_84\n      jump\t// in\n    tag_199:\n        /* \"#utility.yul\":9061:9117   */\n      not\n        /* \"#utility.yul\":9146:9150   */\n      dup1\n        /* \"#utility.yul\":9140:9144   */\n      dup4\n        /* \"#utility.yul\":9136:9151   */\n      and\n        /* \"#utility.yul\":9126:9151   */\n      swap2\n      pop\n        /* \"#utility.yul\":9039:9157   */\n      pop\n        /* \"#utility.yul\":8988:9157   */\n      swap3\n      swap2\n      pop\n      pop\n      jump\t// out\n        /* \"#utility.yul\":9162:9457   */\n    tag_86:\n        /* \"#utility.yul\":9238:9242   */\n      0x00\n        /* \"#utility.yul\":9384:9413   */\n      tag_201\n        /* \"#utility.yul\":9409:9412   */\n      dup4\n        /* \"#utility.yul\":9403:9407   */\n      dup4\n        /* \"#utility.yul\":9384:9413   */\n      tag_85\n      jump\t// in\n    tag_201:\n        /* \"#utility.yul\":9376:9413   */\n      swap2\n      pop\n        /* \"#utility.yul\":9446:9449   */\n      dup3\n        /* \"#utility.yul\":9443:9444   */\n      0x02\n        /* \"#utility.yul\":9439:9450   */\n      mul\n        /* \"#utility.yul\":9433:9437   */\n      dup3\n        /* \"#utility.yul\":9430:9451   */\n      or\n        /* \"#utility.yul\":9422:9451   */\n      swap1\n      pop\n        /* \"#utility.yul\":9162:9457   */\n      swap3\n      swap2\n      pop\n      pop\n      jump\t// out\n        /* \"#utility.yul\":9462:10857   */\n    tag_33:\n        /* \"#utility.yul\":9579:9616   */\n      tag_203\n        /* \"#utility.yul\":9612:9615   */\n      dup3\n        /* \"#utility.yul\":9579:9616   */\n      tag_56\n      jump\t// in\n    tag_203:\n        /* \"#utility.yul\":9681:9699   */\n      0xffffffffffffffff\n        /* \"#utility.yul\":9673:9679   */\n      dup2\n        /* \"#utility.yul\":9670:9700   */\n      gt\n        /* \"#utility.yul\":9667:9723   */\n      iszero\n      tag_204\n      jumpi\n        /* \"#utility.yul\":9703:9721   */\n      tag_205\n      tag_64\n      jump\t// in\n    tag_205:\n        /* \"#utility.yul\":9667:9723   */\n    tag_204:\n        /* \"#utility.yul\":9747:9785   */\n      tag_206\n        /* \"#utility.yul\":9779:9783   */\n      dup3\n        /* \"#utility.yul\":9773:9784   */\n      sload\n        /* \"#utility.yul\":9747:9785   */\n      tag_25\n      jump\t// in\n    tag_206:\n        /* \"#utility.yul\":9832:9899   */\n      tag_207\n        /* \"#utility.yul\":9892:9898   */\n      dup3\n        /* \"#utility.yul\":9884:9890   */\n      dup3\n        /* \"#utility.yul\":9878:9882   */\n      dup6\n        /* \"#utility.yul\":9832:9899   */\n      tag_83\n      jump\t// in\n    tag_207:\n        /* \"#utility.yul\":9926:9927   */\n      0x00\n        /* \"#utility.yul\":9950:9954   */\n      0x20\n        /* \"#utility.yul\":9937:9954   */\n      swap1\n      pop\n        /* \"#utility.yul\":9982:9984   */\n      0x1f\n        /* \"#utility.yul\":9974:9980   */\n      dup4\n        /* \"#utility.yul\":9971:9985   */\n      gt\n        /* \"#utility.yul\":9999:10000   */\n      0x01\n        /* \"#utility.yul\":9994:10612   */\n      dup2\n      eq\n      tag_209\n      jumpi\n        /* \"#utility.yul\":10656:10657   */\n      0x00\n        /* \"#utility.yul\":10673:10679   */\n      dup5\n        /* \"#utility.yul\":10670:10747   */\n      iszero\n      tag_210\n      jumpi\n        /* \"#utility.yul\":10722:10731   */\n      dup3\n        /* \"#utility.yul\":10717:10720   */\n      dup8\n        /* \"#utility.yul\":10713:10732   */\n      add\n        /* \"#utility.yul\":10707:10733   */\n      mload\n        /* \"#utility.yul\":10698:10733   */\n      swap1\n      pop\n        /* \"#utility.yul\":10670:10747   */\n    tag_210:\n        /* \"#utility.yul\":10773:10840   */\n      tag_211\n        /* \"#utility.yul\":10833:10839   */\n      dup6\n        /* \"#utility.yul\":10826:10831   */\n      dup3\n        /* \"#utility.yul\":10773:10840   */\n      tag_86\n      jump\t// in\n    tag_211:\n        /* \"#utility.yul\":10767:10771   */\n      dup7\n        /* \"#utility.yul\":10760:10841   */\n      sstore\n        /* \"#utility.yul\":10629:10851   */\n      pop\n        /* \"#utility.yul\":9964:10851   */\n      jump(tag_208)\n        /* \"#utility.yul\":9994:10612   */\n    tag_209:\n        /* \"#utility.yul\":10046:10050   */\n      0x1f\n        /* \"#utility.yul\":10042:10051   */\n      not\n        /* \"#utility.yul\":10034:10040   */\n      dup5\n        /* \"#utility.yul\":10030:10052   */\n      and\n        /* \"#utility.yul\":10080:10117   */\n      tag_212\n        /* \"#utility.yul\":10112:10116   */\n      dup7\n        /* \"#utility.yul\":10080:10117   */\n      tag_72\n      jump\t// in\n    tag_212:\n        /* \"#utility.yul\":10139:10140   */\n      0x00\n        /* \"#utility.yul\":10153:10361   */\n    tag_213:\n        /* \"#utility.yul\":10167:10174   */\n      dup3\n        /* \"#utility.yul\":10164:10165   */\n      dup2\n        /* \"#utility.yul\":10161:10175   */\n      lt\n        /* \"#utility.yul\":10153:10361   */\n      iszero\n      tag_215\n      jumpi\n        /* \"#utility.yul\":10246:10255   */\n      dup5\n        /* \"#utility.yul\":10241:10244   */\n      dup10\n        /* \"#utility.yul\":10237:10256   */\n      add\n        /* \"#utility.yul\":10231:10257   */\n      mload\n        /* \"#utility.yul\":10223:10229   */\n      dup3\n        /* \"#utility.yul\":10216:10258   */\n      sstore\n        /* \"#utility.yul\":10297:10298   */\n      0x01\n        /* \"#utility.yul\":10289:10295   */\n      dup3\n        /* \"#utility.yul\":10285:10299   */\n      add\n        /* \"#utility.yul\":10275:10299   */\n      swap2\n      pop\n        /* \"#utility.yul\":10344:10346   */\n      0x20\n        /* \"#utility.yul\":10333:10342   */\n      dup6\n        /* \"#utility.yul\":10329:10347   */\n      add\n        /* \"#utility.yul\":10316:10347   */\n      swap5\n      pop\n        /* \"#utility.yul\":10190:10194   */\n      0x20\n        /* \"#utility.yul\":10187:10188   */\n      dup2\n        /* \"#utility.yul\":10183:10195   */\n      add\n        /* \"#utility.yul\":10178:10195   */\n      swap1\n      pop\n        /* \"#utility.yul\":10153:10361   */\n      jump(tag_213)\n    tag_215:\n        /* \"#utility.yul\":10389:10395   */\n      dup7\n        /* \"#utility.yul\":10380:10387   */\n      dup4\n        /* \"#utility.yul\":10377:10396   */\n      lt\n        /* \"#utility.yul\":10374:10553   */\n      iszero\n      tag_216\n      jumpi\n        /* \"#utility.yul\":10447:10456   */\n      dup5\n        /* \"#utility.yul\":10442:10445   */\n      dup10\n        /* \"#utility.yul\":10438:10457   */\n      add\n        /* \"#utility.yul\":10432:10458   */\n      mload\n        /* \"#utility.yul\":10490:10538   */\n      tag_217\n        /* \"#utility.yul\":10532:10536   */\n      0x1f\n        /* \"#utility.yul\":10524:10530   */\n      dup10\n        /* \"#utility.yul\":10520:10537   */\n      and\n        /* \"#utility.yul\":10509:10518   */\n      dup3\n        /* \"#utility.yul\":10490:10538   */\n      tag_85\n      jump\t// in\n    tag_217:\n        /* \"#utility.yul\":10482:10488   */\n      dup4\n        /* \"#utility.yul\":10475:10539   */\n      sstore\n        /* \"#utility.yul\":10397:10553   */\n      pop\n        /* \"#utility.yul\":10374:10553   */\n    tag_216:\n        /* \"#utility.yul\":10599:10600   */\n      0x01\n        /* \"#utility.yul\":10595:10596   */\n      0x02\n        /* \"#utility.yul\":10587:10593   */\n      dup9\n        /* \"#utility.yul\":10583:10597   */\n      mul\n        /* \"#utility.yul\":10579:10601   */\n      add\n        /* \"#utility.yul\":10573:10577   */\n      dup9\n        /* \"#utility.yul\":10566:10602   */\n      sstore\n        /* \"#utility.yul\":10001:10612   */\n      pop\n      pop\n      pop\n        /* \"#utility.yul\":9964:10851   */\n    tag_208:\n      pop\n        /* \"#utility.yul\":9554:10857   */\n      pop\n      pop\n      pop\n        /* \"#utility.yul\":9462:10857   */\n      pop\n      pop\n      jump\t// out\n        /* \"#utility.yul\":10863:11043   */\n    tag_40:\n        /* \"#utility.yul\":10911:10988   */\n      0x4e487b7100000000000000000000000000000000000000000000000000000000\n        /* \"#utility.yul\":10908:10909   */\n      0x00\n        /* \"#utility.yul\":10901:10989   */\n      mstore\n        /* \"#utility.yul\":11008:11012   */\n      0x32\n        /* \"#utility.yul\":11005:11006   */\n      0x04\n        /* \"#utility.yul\":10998:11013   */\n      mstore\n        /* \"#utility.yul\":11032:11036   */\n      0x24\n        /* \"#utility.yul\":11029:11030   */\n      0x00\n        /* \"#utility.yul\":11022:11037   */\n      revert\n        /* \"#utility.yul\":11049:11196   */\n    tag_87:\n        /* \"#utility.yul\":11150:11161   */\n      0x00\n        /* \"#utility.yul\":11187:11190   */\n      dup2\n        /* \"#utility.yul\":11172:11190   */\n      swap1\n      pop\n        /* \"#utility.yul\":11049:11196   */\n      swap3\n      swap2\n      pop\n      pop\n      jump\t// out\n        /* \"#utility.yul\":11202:11346   */\n    tag_88:\n        /* \"#utility.yul\":11254:11258   */\n      0x00\n        /* \"#utility.yul\":11277:11280   */\n      dup2\n        /* \"#utility.yul\":11269:11280   */\n      swap1\n      pop\n        /* \"#utility.yul\":11300:11303   */\n      dup2\n        /* \"#utility.yul\":11297:11298   */\n      0x00\n        /* \"#utility.yul\":11290:11304   */\n      mstore\n        /* \"#utility.yul\":11334:11338   */\n      0x20\n        /* \"#utility.yul\":11331:11332   */\n      0x00\n        /* \"#utility.yul\":11321:11339   */\n      keccak256\n        /* \"#utility.yul\":11313:11339   */\n      swap1\n      pop\n        /* \"#utility.yul\":11202:11346   */\n      swap2\n      swap1\n      pop\n      jump\t// out\n        /* \"#utility.yul\":11374:12252   */\n    tag_89:\n        /* \"#utility.yul\":11479:11482   */\n      0x00\n        /* \"#utility.yul\":11516:11521   */\n      dup2\n        /* \"#utility.yul\":11510:11522   */\n      sload\n        /* \"#utility.yul\":11545:11581   */\n      tag_222\n        /* \"#utility.yul\":11571:11580   */\n      dup2\n        /* \"#utility.yul\":11545:11581   */\n      tag_25\n      jump\t// in\n    tag_222:\n        /* \"#utility.yul\":11597:11685   */\n      tag_223\n        /* \"#utility.yul\":11678:11684   */\n      dup2\n        /* \"#utility.yul\":11673:11676   */\n      dup7\n        /* \"#utility.yul\":11597:11685   */\n      tag_87\n      jump\t// in\n    tag_223:\n        /* \"#utility.yul\":11590:11685   */\n      swap5\n      pop\n        /* \"#utility.yul\":11716:11717   */\n      0x01\n        /* \"#utility.yul\":11705:11714   */\n      dup3\n        /* \"#utility.yul\":11701:11718   */\n      and\n        /* \"#utility.yul\":11732:11733   */\n      0x00\n        /* \"#utility.yul\":11727:11893   */\n      dup2\n      eq\n      tag_225\n      jumpi\n        /* \"#utility.yul\":11907:11908   */\n      0x01\n        /* \"#utility.yul\":11902:12246   */\n      dup2\n      eq\n      tag_226\n      jumpi\n        /* \"#utility.yul\":11694:12246   */\n      jump(tag_224)\n        /* \"#utility.yul\":11727:11893   */\n    tag_225:\n        /* \"#utility.yul\":11811:11815   */\n      0xff\n        /* \"#utility.yul\":11807:11816   */\n      not\n        /* \"#utility.yul\":11796:11805   */\n      dup4\n        /* \"#utility.yul\":11792:11817   */\n      and\n        /* \"#utility.yul\":11787:11790   */\n      dup7\n        /* \"#utility.yul\":11780:11818   */\n      mstore\n        /* \"#utility.yul\":11873:11879   */\n      dup2\n        /* \"#utility.yul\":11866:11880   */\n      iszero\n        /* \"#utility.yul\":11859:11881   */\n      iszero\n        /* \"#utility.yul\":11851:11857   */\n      dup3\n        /* \"#utility.yul\":11847:11882   */\n      mul\n        /* \"#utility.yul\":11842:11845   */\n      dup7\n        /* \"#utility.yul\":11838:11883   */\n      add\n        /* \"#utility.yul\":11831:11883   */\n      swap4\n      pop\n        /* \"#utility.yul\":11727:11893   */\n      jump(tag_224)\n        /* \"#utility.yul\":11902:12246   */\n    tag_226:\n        /* \"#utility.yul\":11969:12010   */\n      tag_227\n        /* \"#utility.yul\":12004:12009   */\n      dup6\n        /* \"#utility.yul\":11969:12010   */\n      tag_88\n      jump\t// in\n    tag_227:\n        /* \"#utility.yul\":12032:12033   */\n      0x00\n        /* \"#utility.yul\":12046:12200   */\n    tag_228:\n        /* \"#utility.yul\":12060:12066   */\n      dup4\n        /* \"#utility.yul\":12057:12058   */\n      dup2\n        /* \"#utility.yul\":12054:12067   */\n      lt\n        /* \"#utility.yul\":12046:12200   */\n      iszero\n      tag_230\n      jumpi\n        /* \"#utility.yul\":12134:12141   */\n      dup2\n        /* \"#utility.yul\":12128:12142   */\n      sload\n        /* \"#utility.yul\":12124:12125   */\n      dup2\n        /* \"#utility.yul\":12119:12122   */\n      dup10\n        /* \"#utility.yul\":12115:12126   */\n      add\n        /* \"#utility.yul\":12108:12143   */\n      mstore\n        /* \"#utility.yul\":12184:12185   */\n      0x01\n        /* \"#utility.yul\":12175:12182   */\n      dup3\n        /* \"#utility.yul\":12171:12186   */\n      add\n        /* \"#utility.yul\":12160:12186   */\n      swap2\n      pop\n        /* \"#utility.yul\":12082:12086   */\n      0x20\n        /* \"#utility.yul\":12079:12080   */\n      dup2\n        /* \"#utility.yul\":12075:12087   */\n      add\n        /* \"#utility.yul\":12070:12087   */\n      swap1\n      pop\n        /* \"#utility.yul\":12046:12200   */\n      jump(tag_228)\n    tag_230:\n        /* \"#utility.yul\":12229:12235   */\n      dup4\n        /* \"#utility.yul\":12224:12227   */\n      dup9\n        /* \"#utility.yul\":12220:12236   */\n      add\n        /* \"#utility.yul\":12213:12236   */\n      swap6\n      pop\n        /* \"#utility.yul\":11909:12246   */\n      pop\n      pop\n        /* \"#utility.yul\":11694:12246   */\n    tag_224:\n      pop\n        /* \"#utility.yul\":11483:12252   */\n      pop\n      pop\n        /* \"#utility.yul\":11374:12252   */\n      swap3\n      swap2\n      pop\n      pop\n      jump\t// out\n        /* \"#utility.yul\":12258:12531   */\n    tag_43:\n        /* \"#utility.yul\":12389:12392   */\n      0x00\n        /* \"#utility.yul\":12411:12505   */\n      tag_232\n        /* \"#utility.yul\":12501:12504   */\n      dup3\n        /* \"#utility.yul\":12492:12498   */\n      dup5\n        /* \"#utility.yul\":12411:12505   */\n      tag_89\n      jump\t// in\n    tag_232:\n        /* \"#utility.yul\":12404:12505   */\n      swap2\n      pop\n        /* \"#utility.yul\":12522:12525   */\n      dup2\n        /* \"#utility.yul\":12515:12525   */\n      swap1\n      pop\n        /* \"#utility.yul\":12258:12531   */\n      swap3\n      swap2\n      pop\n      pop\n      jump\t// out\n        /* \"#utility.yul\":12537:12703   */\n    tag_90:\n        /* \"#utility.yul\":12677:12695   */\n      0x706572736f6e204e4f5420666f756e6400000000000000000000000000000000\n        /* \"#utility.yul\":12673:12674   */\n      0x00\n        /* \"#utility.yul\":12665:12671   */\n      dup3\n        /* \"#utility.yul\":12661:12675   */\n      add\n        /* \"#utility.yul\":12654:12696   */\n      mstore\n        /* \"#utility.yul\":12537:12703   */\n      pop\n      jump\t// out\n        /* \"#utility.yul\":12709:13075   */\n    tag_91:\n        /* \"#utility.yul\":12851:12854   */\n      0x00\n        /* \"#utility.yul\":12872:12939   */\n      tag_235\n        /* \"#utility.yul\":12936:12938   */\n      0x10\n        /* \"#utility.yul\":12931:12934   */\n      dup4\n        /* \"#utility.yul\":12872:12939   */\n      tag_57\n      jump\t// in\n    tag_235:\n        /* \"#utility.yul\":12865:12939   */\n      swap2\n      pop\n        /* \"#utility.yul\":12948:13041   */\n      tag_236\n        /* \"#utility.yul\":13037:13040   */\n      dup3\n        /* \"#utility.yul\":12948:13041   */\n      tag_90\n      jump\t// in\n    tag_236:\n        /* \"#utility.yul\":13066:13068   */\n      0x20\n        /* \"#utility.yul\":13061:13064   */\n      dup3\n        /* \"#utility.yul\":13057:13069   */\n      add\n        /* \"#utility.yul\":13050:13069   */\n      swap1\n      pop\n        /* \"#utility.yul\":12709:13075   */\n      swap2\n      swap1\n      pop\n      jump\t// out\n        /* \"#utility.yul\":13081:13500   */\n    tag_49:\n        /* \"#utility.yul\":13247:13251   */\n      0x00\n        /* \"#utility.yul\":13285:13287   */\n      0x20\n        /* \"#utility.yul\":13274:13283   */\n      dup3\n        /* \"#utility.yul\":13270:13288   */\n      add\n        /* \"#utility.yul\":13262:13288   */\n      swap1\n      pop\n        /* \"#utility.yul\":13334:13343   */\n      dup2\n        /* \"#utility.yul\":13328:13332   */\n      dup2\n        /* \"#utility.yul\":13324:13344   */\n      sub\n        /* \"#utility.yul\":13320:13321   */\n      0x00\n        /* \"#utility.yul\":13309:13318   */\n      dup4\n        /* \"#utility.yul\":13305:13322   */\n      add\n        /* \"#utility.yul\":13298:13345   */\n      mstore\n        /* \"#utility.yul\":13362:13493   */\n      tag_238\n        /* \"#utility.yul\":13488:13492   */\n      dup2\n        /* \"#utility.yul\":13362:13493   */\n      tag_91\n      jump\t// in\n    tag_238:\n        /* \"#utility.yul\":13354:13493   */\n      swap1\n      pop\n        /* \"#utility.yul\":13081:13500   */\n      swap2\n      swap1\n      pop\n      jump\t// out\n\n    auxdata: 0xa26469706673582212203ef7a5be88aa0b603a70c3713d1323dbf530d6c63d92001be11cfa39dfe0567b64736f6c634300081c0033\n}\n",
				"bytecode": {
					"linkReferences": {},
					"object": "6080604052348015600e575f5ffd5b506109f28061001c5f395ff3fe608060405234801561000f575f5ffd5b506004361061003f575f3560e01c80632ebce6311461004357806335d0aac1146100745780635b5f974814610090575b5f5ffd5b61005d600480360381019061005891906102eb565b6100c0565b60405161006b929190610395565b60405180910390f35b61008e600480360381019061008991906104ef565b610174565b005b6100aa60048036038101906100a59190610549565b6101d9565b6040516100b79190610590565b60405180910390f35b5f81815481106100ce575f80fd5b905f5260205f2090600202015f91509050805f0180546100ed906105d6565b80601f0160208091040260200160405190810160405280929190818152602001828054610119906105d6565b80156101645780601f1061013b57610100808354040283529160200191610164565b820191905f5260205f20905b81548152906001019060200180831161014757829003601f168201915b5050505050908060010154905082565b5f60405180604001604052808481526020018381525090505f81908060018154018082558091505060019003905f5260205f2090600202015f909190919091505f820151815f0190816101c791906107a6565b50602082015181600101555050505050565b5f5f5f90505b5f805490508110156102665782805190602001205f828154811061020657610205610875565b5b905f5260205f2090600202015f01604051610221919061093e565b604051809103902003610259575f818154811061024157610240610875565b5b905f5260205f209060020201600101549150506102a2565b80806001019150506101df565b506040517f08c379a00000000000000000000000000000000000000000000000000000000081526004016102999061099e565b60405180910390fd5b919050565b5f604051905090565b5f5ffd5b5f5ffd5b5f819050919050565b6102ca816102b8565b81146102d4575f5ffd5b50565b5f813590506102e5816102c1565b92915050565b5f60208284031215610300576102ff6102b0565b5b5f61030d848285016102d7565b91505092915050565b5f81519050919050565b5f82825260208201905092915050565b8281835e5f83830152505050565b5f601f19601f8301169050919050565b5f61035882610316565b6103628185610320565b9350610372818560208601610330565b61037b8161033e565b840191505092915050565b61038f816102b8565b82525050565b5f6040820190508181035f8301526103ad818561034e565b90506103bc6020830184610386565b9392505050565b5f5ffd5b5f5ffd5b7f4e487b71000000000000000000000000000000000000000000000000000000005f52604160045260245ffd5b6104018261033e565b810181811067ffffffffffffffff821117156104205761041f6103cb565b5b80604052505050565b5f6104326102a7565b905061043e82826103f8565b919050565b5f67ffffffffffffffff82111561045d5761045c6103cb565b5b6104668261033e565b9050602081019050919050565b828183375f83830152505050565b5f61049361048e84610443565b610429565b9050828152602081018484840111156104af576104ae6103c7565b5b6104ba848285610473565b509392505050565b5f82601f8301126104d6576104d56103c3565b5b81356104e6848260208601610481565b91505092915050565b5f5f60408385031215610505576105046102b0565b5b5f83013567ffffffffffffffff811115610522576105216102b4565b5b61052e858286016104c2565b925050602061053f858286016102d7565b9150509250929050565b5f6020828403121561055e5761055d6102b0565b5b5f82013567ffffffffffffffff81111561057b5761057a6102b4565b5b610587848285016104c2565b91505092915050565b5f6020820190506105a35f830184610386565b92915050565b7f4e487b71000000000000000000000000000000000000000000000000000000005f52602260045260245ffd5b5f60028204905060018216806105ed57607f821691505b602082108103610600576105ff6105a9565b5b50919050565b5f819050815f5260205f209050919050565b5f6020601f8301049050919050565b5f82821b905092915050565b5f600883026106627fffffffffffffffffffffffffffffffffffffffffffffffffffffffffffffffff82610627565b61066c8683610627565b95508019841693508086168417925050509392505050565b5f819050919050565b5f6106a76106a261069d846102b8565b610684565b6102b8565b9050919050565b5f819050919050565b6106c08361068d565b6106d46106cc826106ae565b848454610633565b825550505050565b5f5f905090565b6106eb6106dc565b6106f68184846106b7565b505050565b5b818110156107195761070e5f826106e3565b6001810190506106fc565b5050565b601f82111561075e5761072f81610606565b61073884610618565b81016020851015610747578190505b61075b61075385610618565b8301826106fb565b50505b505050565b5f82821c905092915050565b5f61077e5f1984600802610763565b1980831691505092915050565b5f610796838361076f565b9150826002028217905092915050565b6107af82610316565b67ffffffffffffffff8111156107c8576107c76103cb565b5b6107d282546105d6565b6107dd82828561071d565b5f60209050601f83116001811461080e575f84156107fc578287015190505b610806858261078b565b86555061086d565b601f19841661081c86610606565b5f5b828110156108435784890151825560018201915060208501945060208101905061081e565b86831015610860578489015161085c601f89168261076f565b8355505b6001600288020188555050505b505050505050565b7f4e487b71000000000000000000000000000000000000000000000000000000005f52603260045260245ffd5b5f81905092915050565b5f819050815f5260205f209050919050565b5f81546108ca816105d6565b6108d481866108a2565b9450600182165f81146108ee576001811461090357610935565b60ff1983168652811515820286019350610935565b61090c856108ac565b5f5b8381101561092d5781548189015260018201915060208101905061090e565b838801955050505b50505092915050565b5f61094982846108be565b915081905092915050565b7f706572736f6e204e4f5420666f756e64000000000000000000000000000000005f82015250565b5f610988601083610320565b915061099382610954565b602082019050919050565b5f6020820190508181035f8301526109b58161097c565b905091905056fea26469706673582212203ef7a5be88aa0b603a70c3713d1323dbf530d6c63d92001be11cfa39dfe0567b64736f6c634300081c0033",
					"opcodes": "PUSH1 0x80 PUSH1 0x40 MSTORE CALLVALUE DUP1 ISZERO PUSH1 0xE JUMPI PUSH0 PUSH0 REVERT JUMPDEST POP PUSH2 0x9F2 DUP1 PUSH2 0x1C PUSH0 CODECOPY PUSH0 RETURN INVALID PUSH1 0x80 PUSH1 0x40 MSTORE CALLVALUE DUP1 ISZERO PUSH2 0xF JUMPI PUSH0 PUSH0 REVERT JUMPDEST POP PUSH1 0x4 CALLDATASIZE LT PUSH2 0x3F JUMPI PUSH0 CALLDATALOAD PUSH1 0xE0 SHR DUP1 PUSH4 0x2EBCE631 EQ PUSH2 0x43 JUMPI DUP1 PUSH4 0x35D0AAC1 EQ PUSH2 0x74 JUMPI DUP1 PUSH4 0x5B5F9748 EQ PUSH2 0x90 JUMPI JUMPDEST PUSH0 PUSH0 REVERT JUMPDEST PUSH2 0x5D PUSH1 0x4 DUP1 CALLDATASIZE SUB DUP2 ADD SWAP1 PUSH2 0x58 SWAP2 SWAP1 PUSH2 0x2EB JUMP JUMPDEST PUSH2 0xC0 JUMP JUMPDEST PUSH1 0x40 MLOAD PUSH2 0x6B SWAP3 SWAP2 SWAP1 PUSH2 0x395 JUMP JUMPDEST PUSH1 0x40 MLOAD DUP1 SWAP2 SUB SWAP1 RETURN JUMPDEST PUSH2 0x8E PUSH1 0x4 DUP1 CALLDATASIZE SUB DUP2 ADD SWAP1 PUSH2 0x89 SWAP2 SWAP1 PUSH2 0x4EF JUMP JUMPDEST PUSH2 0x174 JUMP JUMPDEST STOP JUMPDEST PUSH2 0xAA PUSH1 0x4 DUP1 CALLDATASIZE SUB DUP2 ADD SWAP1 PUSH2 0xA5 SWAP2 SWAP1 PUSH2 0x549 JUMP JUMPDEST PUSH2 0x1D9 JUMP JUMPDEST PUSH1 0x40 MLOAD PUSH2 0xB7 SWAP2 SWAP1 PUSH2 0x590 JUMP JUMPDEST PUSH1 0x40 MLOAD DUP1 SWAP2 SUB SWAP1 RETURN JUMPDEST PUSH0 DUP2 DUP2 SLOAD DUP2 LT PUSH2 0xCE JUMPI PUSH0 DUP1 REVERT JUMPDEST SWAP1 PUSH0 MSTORE PUSH1 0x20 PUSH0 KECCAK256 SWAP1 PUSH1 0x2 MUL ADD PUSH0 SWAP2 POP SWAP1 POP DUP1 PUSH0 ADD DUP1 SLOAD PUSH2 0xED SWAP1 PUSH2 0x5D6 JUMP JUMPDEST DUP1 PUSH1 0x1F ADD PUSH1 0x20 DUP1 SWAP2 DIV MUL PUSH1 0x20 ADD PUSH1 0x40 MLOAD SWAP1 DUP2 ADD PUSH1 0x40 MSTORE DUP1 SWAP3 SWAP2 SWAP1 DUP2 DUP2 MSTORE PUSH1 0x20 ADD DUP3 DUP1 SLOAD PUSH2 0x119 SWAP1 PUSH2 0x5D6 JUMP JUMPDEST DUP1 ISZERO PUSH2 0x164 JUMPI DUP1 PUSH1 0x1F LT PUSH2 0x13B JUMPI PUSH2 0x100 DUP1 DUP4 SLOAD DIV MUL DUP4 MSTORE SWAP2 PUSH1 0x20 ADD SWAP2 PUSH2 0x164 JUMP JUMPDEST DUP3 ADD SWAP2 SWAP1 PUSH0 MSTORE PUSH1 0x20 PUSH0 KECCAK256 SWAP1 JUMPDEST DUP2 SLOAD DUP2 MSTORE SWAP1 PUSH1 0x1 ADD SWAP1 PUSH1 0x20 ADD DUP1 DUP4 GT PUSH2 0x147 JUMPI DUP3 SWAP1 SUB PUSH1 0x1F AND DUP3 ADD SWAP2 JUMPDEST POP POP POP POP POP SWAP1 DUP1 PUSH1 0x1 ADD SLOAD SWAP1 POP DUP3 JUMP JUMPDEST PUSH0 PUSH1 0x40 MLOAD DUP1 PUSH1 0x40 ADD PUSH1 0x40 MSTORE DUP1 DUP5 DUP2 MSTORE PUSH1 0x20 ADD DUP4 DUP2 MSTORE POP SWAP1 POP PUSH0 DUP2 SWAP1 DUP1 PUSH1 0x1 DUP2 SLOAD ADD DUP1 DUP3 SSTORE DUP1 SWAP2 POP POP PUSH1 0x1 SWAP1 SUB SWAP1 PUSH0 MSTORE PUSH1 0x20 PUSH0 KECCAK256 SWAP1 PUSH1 0x2 MUL ADD PUSH0 SWAP1 SWAP2 SWAP1 SWAP2 SWAP1 SWAP2 POP PUSH0 DUP3 ADD MLOAD DUP2 PUSH0 ADD SWAP1 DUP2 PUSH2 0x1C7 SWAP2 SWAP1 PUSH2 0x7A6 JUMP JUMPDEST POP PUSH1 0x20 DUP3 ADD MLOAD DUP2 PUSH1 0x1 ADD SSTORE POP POP POP POP POP JUMP JUMPDEST PUSH0 PUSH0 PUSH0 SWAP1 POP JUMPDEST PUSH0 DUP1 SLOAD SWAP1 POP DUP2 LT ISZERO PUSH2 0x266 JUMPI DUP3 DUP1 MLOAD SWAP1 PUSH1 0x20 ADD KECCAK256 PUSH0 DUP3 DUP2 SLOAD DUP2 LT PUSH2 0x206 JUMPI PUSH2 0x205 PUSH2 0x875 JUMP JUMPDEST JUMPDEST SWAP1 PUSH0 MSTORE PUSH1 0x20 PUSH0 KECCAK256 SWAP1 PUSH1 0x2 MUL ADD PUSH0 ADD PUSH1 0x40 MLOAD PUSH2 0x221 SWAP2 SWAP1 PUSH2 0x93E JUMP JUMPDEST PUSH1 0x40 MLOAD DUP1 SWAP2 SUB SWAP1 KECCAK256 SUB PUSH2 0x259 JUMPI PUSH0 DUP2 DUP2 SLOAD DUP2 LT PUSH2 0x241 JUMPI PUSH2 0x240 PUSH2 0x875 JUMP JUMPDEST JUMPDEST SWAP1 PUSH0 MSTORE PUSH1 0x20 PUSH0 KECCAK256 SWAP1 PUSH1 0x2 MUL ADD PUSH1 0x1 ADD SLOAD SWAP2 POP POP PUSH2 0x2A2 JUMP JUMPDEST DUP1 DUP1 PUSH1 0x1 ADD SWAP2 POP POP PUSH2 0x1DF JUMP JUMPDEST POP PUSH1 0x40 MLOAD PUSH32 0x8C379A000000000000000000000000000000000000000000000000000000000 DUP2 MSTORE PUSH1 0x4 ADD PUSH2 0x299 SWAP1 PUSH2 0x99E JUMP JUMPDEST PUSH1 0x40 MLOAD DUP1 SWAP2 SUB SWAP1 REVERT JUMPDEST SWAP2 SWAP1 POP JUMP JUMPDEST PUSH0 PUSH1 0x40 MLOAD SWAP1 POP SWAP1 JUMP JUMPDEST PUSH0 PUSH0 REVERT JUMPDEST PUSH0 PUSH0 REVERT JUMPDEST PUSH0 DUP2 SWAP1 POP SWAP2 SWAP1 POP JUMP JUMPDEST PUSH2 0x2CA DUP2 PUSH2 0x2B8 JUMP JUMPDEST DUP2 EQ PUSH2 0x2D4 JUMPI PUSH0 PUSH0 REVERT JUMPDEST POP JUMP JUMPDEST PUSH0 DUP2 CALLDATALOAD SWAP1 POP PUSH2 0x2E5 DUP2 PUSH2 0x2C1 JUMP JUMPDEST SWAP3 SWAP2 POP POP JUMP JUMPDEST PUSH0 PUSH1 0x20 DUP3 DUP5 SUB SLT ISZERO PUSH2 0x300 JUMPI PUSH2 0x2FF PUSH2 0x2B0 JUMP JUMPDEST JUMPDEST PUSH0 PUSH2 0x30D DUP5 DUP3 DUP6 ADD PUSH2 0x2D7 JUMP JUMPDEST SWAP2 POP POP SWAP3 SWAP2 POP POP JUMP JUMPDEST PUSH0 DUP2 MLOAD SWAP1 POP SWAP2 SWAP1 POP JUMP JUMPDEST PUSH0 DUP3 DUP3 MSTORE PUSH1 0x20 DUP3 ADD SWAP1 POP SWAP3 SWAP2 POP POP JUMP JUMPDEST DUP3 DUP2 DUP4 MCOPY PUSH0 DUP4 DUP4 ADD MSTORE POP POP POP JUMP JUMPDEST PUSH0 PUSH1 0x1F NOT PUSH1 0x1F DUP4 ADD AND SWAP1 POP SWAP2 SWAP1 POP JUMP JUMPDEST PUSH0 PUSH2 0x358 DUP3 PUSH2 0x316 JUMP JUMPDEST PUSH2 0x362 DUP2 DUP6 PUSH2 0x320 JUMP JUMPDEST SWAP4 POP PUSH2 0x372 DUP2 DUP6 PUSH1 0x20 DUP7 ADD PUSH2 0x330 JUMP JUMPDEST PUSH2 0x37B DUP2 PUSH2 0x33E JUMP JUMPDEST DUP5 ADD SWAP2 POP POP SWAP3 SWAP2 POP POP JUMP JUMPDEST PUSH2 0x38F DUP2 PUSH2 0x2B8 JUMP JUMPDEST DUP3 MSTORE POP POP JUMP JUMPDEST PUSH0 PUSH1 0x40 DUP3 ADD SWAP1 POP DUP2 DUP2 SUB PUSH0 DUP4 ADD MSTORE PUSH2 0x3AD DUP2 DUP6 PUSH2 0x34E JUMP JUMPDEST SWAP1 POP PUSH2 0x3BC PUSH1 0x20 DUP4 ADD DUP5 PUSH2 0x386 JUMP JUMPDEST SWAP4 SWAP3 POP POP POP JUMP JUMPDEST PUSH0 PUSH0 REVERT JUMPDEST PUSH0 PUSH0 REVERT JUMPDEST PUSH32 0x4E487B7100000000000000000000000000000000000000000000000000000000 PUSH0 MSTORE PUSH1 0x41 PUSH1 0x4 MSTORE PUSH1 0x24 PUSH0 REVERT JUMPDEST PUSH2 0x401 DUP3 PUSH2 0x33E JUMP JUMPDEST DUP2 ADD DUP2 DUP2 LT PUSH8 0xFFFFFFFFFFFFFFFF DUP3 GT OR ISZERO PUSH2 0x420 JUMPI PUSH2 0x41F PUSH2 0x3CB JUMP JUMPDEST JUMPDEST DUP1 PUSH1 0x40 MSTORE POP POP POP JUMP JUMPDEST PUSH0 PUSH2 0x432 PUSH2 0x2A7 JUMP JUMPDEST SWAP1 POP PUSH2 0x43E DUP3 DUP3 PUSH2 0x3F8 JUMP JUMPDEST SWAP2 SWAP1 POP JUMP JUMPDEST PUSH0 PUSH8 0xFFFFFFFFFFFFFFFF DUP3 GT ISZERO PUSH2 0x45D JUMPI PUSH2 0x45C PUSH2 0x3CB JUMP JUMPDEST JUMPDEST PUSH2 0x466 DUP3 PUSH2 0x33E JUMP JUMPDEST SWAP1 POP PUSH1 0x20 DUP2 ADD SWAP1 POP SWAP2 SWAP1 POP JUMP JUMPDEST DUP3 DUP2 DUP4 CALLDATACOPY PUSH0 DUP4 DUP4 ADD MSTORE POP POP POP JUMP JUMPDEST PUSH0 PUSH2 0x493 PUSH2 0x48E DUP5 PUSH2 0x443 JUMP JUMPDEST PUSH2 0x429 JUMP JUMPDEST SWAP1 POP DUP3 DUP2 MSTORE PUSH1 0x20 DUP2 ADD DUP5 DUP5 DUP5 ADD GT ISZERO PUSH2 0x4AF JUMPI PUSH2 0x4AE PUSH2 0x3C7 JUMP JUMPDEST JUMPDEST PUSH2 0x4BA DUP5 DUP3 DUP6 PUSH2 0x473 JUMP JUMPDEST POP SWAP4 SWAP3 POP POP POP JUMP JUMPDEST PUSH0 DUP3 PUSH1 0x1F DUP4 ADD SLT PUSH2 0x4D6 JUMPI PUSH2 0x4D5 PUSH2 0x3C3 JUMP JUMPDEST JUMPDEST DUP2 CALLDATALOAD PUSH2 0x4E6 DUP5 DUP3 PUSH1 0x20 DUP7 ADD PUSH2 0x481 JUMP JUMPDEST SWAP2 POP POP SWAP3 SWAP2 POP POP JUMP JUMPDEST PUSH0 PUSH0 PUSH1 0x40 DUP4 DUP6 SUB SLT ISZERO PUSH2 0x505 JUMPI PUSH2 0x504 PUSH2 0x2B0 JUMP JUMPDEST JUMPDEST PUSH0 DUP4 ADD CALLDATALOAD PUSH8 0xFFFFFFFFFFFFFFFF DUP2 GT ISZERO PUSH2 0x522 JUMPI PUSH2 0x521 PUSH2 0x2B4 JUMP JUMPDEST JUMPDEST PUSH2 0x52E DUP6 DUP3 DUP7 ADD PUSH2 0x4C2 JUMP JUMPDEST SWAP3 POP POP PUSH1 0x20 PUSH2 0x53F DUP6 DUP3 DUP7 ADD PUSH2 0x2D7 JUMP JUMPDEST SWAP2 POP POP SWAP3 POP SWAP3 SWAP1 POP JUMP JUMPDEST PUSH0 PUSH1 0x20 DUP3 DUP5 SUB SLT ISZERO PUSH2 0x55E JUMPI PUSH2 0x55D PUSH2 0x2B0 JUMP JUMPDEST JUMPDEST PUSH0 DUP3 ADD CALLDATALOAD PUSH8 0xFFFFFFFFFFFFFFFF DUP2 GT ISZERO PUSH2 0x57B JUMPI PUSH2 0x57A PUSH2 0x2B4 JUMP JUMPDEST JUMPDEST PUSH2 0x587 DUP5 DUP3 DUP6 ADD PUSH2 0x4C2 JUMP JUMPDEST SWAP2 POP POP SWAP3 SWAP2 POP POP JUMP JUMPDEST PUSH0 PUSH1 0x20 DUP3 ADD SWAP1 POP PUSH2 0x5A3 PUSH0 DUP4 ADD DUP5 PUSH2 0x386 JUMP JUMPDEST SWAP3 SWAP2 POP POP JUMP JUMPDEST PUSH32 0x4E487B7100000000000000000000000000000000000000000000000000000000 PUSH0 MSTORE PUSH1 0x22 PUSH1 0x4 MSTORE PUSH1 0x24 PUSH0 REVERT JUMPDEST PUSH0 PUSH1 0x2 DUP3 DIV SWAP1 POP PUSH1 0x1 DUP3 AND DUP1 PUSH2 0x5ED JUMPI PUSH1 0x7F DUP3 AND SWAP2 POP JUMPDEST PUSH1 0x20 DUP3 LT DUP2 SUB PUSH2 0x600 JUMPI PUSH2 0x5FF PUSH2 0x5A9 JUMP JUMPDEST JUMPDEST POP SWAP2 SWAP1 POP JUMP JUMPDEST PUSH0 DUP2 SWAP1 POP DUP2 PUSH0 MSTORE PUSH1 0x20 PUSH0 KECCAK256 SWAP1 POP SWAP2 SWAP1 POP JUMP JUMPDEST PUSH0 PUSH1 0x20 PUSH1 0x1F DUP4 ADD DIV SWAP1 POP SWAP2 SWAP1 POP JUMP JUMPDEST PUSH0 DUP3 DUP3 SHL SWAP1 POP SWAP3 SWAP2 POP POP JUMP JUMPDEST PUSH0 PUSH1 0x8 DUP4 MUL PUSH2 0x662 PUSH32 0xFFFFFFFFFFFFFFFFFFFFFFFFFFFFFFFFFFFFFFFFFFFFFFFFFFFFFFFFFFFFFFFF DUP3 PUSH2 0x627 JUMP JUMPDEST PUSH2 0x66C DUP7 DUP4 PUSH2 0x627 JUMP JUMPDEST SWAP6 POP DUP1 NOT DUP5 AND SWAP4 POP DUP1 DUP7 AND DUP5 OR SWAP3 POP POP POP SWAP4 SWAP3 POP POP POP JUMP JUMPDEST PUSH0 DUP2 SWAP1 POP SWAP2 SWAP1 POP JUMP JUMPDEST PUSH0 PUSH2 0x6A7 PUSH2 0x6A2 PUSH2 0x69D DUP5 PUSH2 0x2B8 JUMP JUMPDEST PUSH2 0x684 JUMP JUMPDEST PUSH2 0x2B8 JUMP JUMPDEST SWAP1 POP SWAP2 SWAP1 POP JUMP JUMPDEST PUSH0 DUP2 SWAP1 POP SWAP2 SWAP1 POP JUMP JUMPDEST PUSH2 0x6C0 DUP4 PUSH2 0x68D JUMP JUMPDEST PUSH2 0x6D4 PUSH2 0x6CC DUP3 PUSH2 0x6AE JUMP JUMPDEST DUP5 DUP5 SLOAD PUSH2 0x633 JUMP JUMPDEST DUP3 SSTORE POP POP POP POP JUMP JUMPDEST PUSH0 PUSH0 SWAP1 POP SWAP1 JUMP JUMPDEST PUSH2 0x6EB PUSH2 0x6DC JUMP JUMPDEST PUSH2 0x6F6 DUP2 DUP5 DUP5 PUSH2 0x6B7 JUMP JUMPDEST POP POP POP JUMP JUMPDEST JUMPDEST DUP2 DUP2 LT ISZERO PUSH2 0x719 JUMPI PUSH2 0x70E PUSH0 DUP3 PUSH2 0x6E3 JUMP JUMPDEST PUSH1 0x1 DUP2 ADD SWAP1 POP PUSH2 0x6FC JUMP JUMPDEST POP POP JUMP JUMPDEST PUSH1 0x1F DUP3 GT ISZERO PUSH2 0x75E JUMPI PUSH2 0x72F DUP2 PUSH2 0x606 JUMP JUMPDEST PUSH2 0x738 DUP5 PUSH2 0x618 JUMP JUMPDEST DUP2 ADD PUSH1 0x20 DUP6 LT ISZERO PUSH2 0x747 JUMPI DUP2 SWAP1 POP JUMPDEST PUSH2 0x75B PUSH2 0x753 DUP6 PUSH2 0x618 JUMP JUMPDEST DUP4 ADD DUP3 PUSH2 0x6FB JUMP JUMPDEST POP POP JUMPDEST POP POP POP JUMP JUMPDEST PUSH0 DUP3 DUP3 SHR SWAP1 POP SWAP3 SWAP2 POP POP JUMP JUMPDEST PUSH0 PUSH2 0x77E PUSH0 NOT DUP5 PUSH1 0x8 MUL PUSH2 0x763 JUMP JUMPDEST NOT DUP1 DUP4 AND SWAP2 POP POP SWAP3 SWAP2 POP POP JUMP JUMPDEST PUSH0 PUSH2 0x796 DUP4 DUP4 PUSH2 0x76F JUMP JUMPDEST SWAP2 POP DUP3 PUSH1 0x2 MUL DUP3 OR SWAP1 POP SWAP3 SWAP2 POP POP JUMP JUMPDEST PUSH2 0x7AF DUP3 PUSH2 0x316 JUMP JUMPDEST PUSH8 0xFFFFFFFFFFFFFFFF DUP2 GT ISZERO PUSH2 0x7C8 JUMPI PUSH2 0x7C7 PUSH2 0x3CB JUMP JUMPDEST JUMPDEST PUSH2 0x7D2 DUP3 SLOAD PUSH2 0x5D6 JUMP JUMPDEST PUSH2 0x7DD DUP3 DUP3 DUP6 PUSH2 0x71D JUMP JUMPDEST PUSH0 PUSH1 0x20 SWAP1 POP PUSH1 0x1F DUP4 GT PUSH1 0x1 DUP2 EQ PUSH2 0x80E JUMPI PUSH0 DUP5 ISZERO PUSH2 0x7FC JUMPI DUP3 DUP8 ADD MLOAD SWAP1 POP JUMPDEST PUSH2 0x806 DUP6 DUP3 PUSH2 0x78B JUMP JUMPDEST DUP7 SSTORE POP PUSH2 0x86D JUMP JUMPDEST PUSH1 0x1F NOT DUP5 AND PUSH2 0x81C DUP7 PUSH2 0x606 JUMP JUMPDEST PUSH0 JUMPDEST DUP3 DUP2 LT ISZERO PUSH2 0x843 JUMPI DUP5 DUP10 ADD MLOAD DUP3 SSTORE PUSH1 0x1 DUP3 ADD SWAP2 POP PUSH1 0x20 DUP6 ADD SWAP5 POP PUSH1 0x20 DUP2 ADD SWAP1 POP PUSH2 0x81E JUMP JUMPDEST DUP7 DUP4 LT ISZERO PUSH2 0x860 JUMPI DUP5 DUP10 ADD MLOAD PUSH2 0x85C PUSH1 0x1F DUP10 AND DUP3 PUSH2 0x76F JUMP JUMPDEST DUP4 SSTORE POP JUMPDEST PUSH1 0x1 PUSH1 0x2 DUP9 MUL ADD DUP9 SSTORE POP POP POP JUMPDEST POP POP POP POP POP POP JUMP JUMPDEST PUSH32 0x4E487B7100000000000000000000000000000000000000000000000000000000 PUSH0 MSTORE PUSH1 0x32 PUSH1 0x4 MSTORE PUSH1 0x24 PUSH0 REVERT JUMPDEST PUSH0 DUP2 SWAP1 POP SWAP3 SWAP2 POP POP JUMP JUMPDEST PUSH0 DUP2 SWAP1 POP DUP2 PUSH0 MSTORE PUSH1 0x20 PUSH0 KECCAK256 SWAP1 POP SWAP2 SWAP1 POP JUMP JUMPDEST PUSH0 DUP2 SLOAD PUSH2 0x8CA DUP2 PUSH2 0x5D6 JUMP JUMPDEST PUSH2 0x8D4 DUP2 DUP7 PUSH2 0x8A2 JUMP JUMPDEST SWAP5 POP PUSH1 0x1 DUP3 AND PUSH0 DUP2 EQ PUSH2 0x8EE JUMPI PUSH1 0x1 DUP2 EQ PUSH2 0x903 JUMPI PUSH2 0x935 JUMP JUMPDEST PUSH1 0xFF NOT DUP4 AND DUP7 MSTORE DUP2 ISZERO ISZERO DUP3 MUL DUP7 ADD SWAP4 POP PUSH2 0x935 JUMP JUMPDEST PUSH2 0x90C DUP6 PUSH2 0x8AC JUMP JUMPDEST PUSH0 JUMPDEST DUP4 DUP2 LT ISZERO PUSH2 0x92D JUMPI DUP2 SLOAD DUP2 DUP10 ADD MSTORE PUSH1 0x1 DUP3 ADD SWAP2 POP PUSH1 0x20 DUP2 ADD SWAP1 POP PUSH2 0x90E JUMP JUMPDEST DUP4 DUP9 ADD SWAP6 POP POP POP JUMPDEST POP POP POP SWAP3 SWAP2 POP POP JUMP JUMPDEST PUSH0 PUSH2 0x949 DUP3 DUP5 PUSH2 0x8BE JUMP JUMPDEST SWAP2 POP DUP2 SWAP1 POP SWAP3 SWAP2 POP POP JUMP JUMPDEST PUSH32 0x706572736F6E204E4F5420666F756E6400000000000000000000000000000000 PUSH0 DUP3 ADD MSTORE POP JUMP JUMPDEST PUSH0 PUSH2 0x988 PUSH1 0x10 DUP4 PUSH2 0x320 JUMP JUMPDEST SWAP2 POP PUSH2 0x993 DUP3 PUSH2 0x954 JUMP JUMPDEST PUSH1 0x20 DUP3 ADD SWAP1 POP SWAP2 SWAP1 POP JUMP JUMPDEST PUSH0 PUSH1 0x20 DUP3 ADD SWAP1 POP DUP2 DUP2 SUB PUSH0 DUP4 ADD MSTORE PUSH2 0x9B5 DUP2 PUSH2 0x97C JUMP JUMPDEST SWAP1 POP SWAP2 SWAP1 POP JUMP INVALID LOG2 PUSH5 0x6970667358 0x22 SLT KECCAK256 RETURNDATACOPY 0xF7 0xA5 0xBE DUP9 0xAA SIGNEXTEND PUSH1 0x3A PUSH17 0xC3713D1323DBF530D6C63D92001BE11CFA CODECOPY 0xDF 0xE0 JUMP PUSH28 0x64736F6C634300081C00330000000000000000000000000000000000 "
				},
				"gasEstimates": {
					"creation": {
						"codeDepositCost": "509200",
						"executionCost": "541",
						"totalCost": "509741"
					},
					"external": {
						"AddPeople(string,uint256)": "infinite",
						"listOfPeople(uint256)": "infinite",
						"retriveData(string)": "infinite"
					}
				},
				"methodIdentifiers": {
					"AddPeople(string,uint256)": "35d0aac1",
					"listOfPeople(uint256)": "2ebce631",
					"retriveData(string)": "5b5f9748"
				}
			},
			"storageLayout": {
				"storage": [
					{
						"astId": 10,
						"contract": "SimpleStorage.sol:SimpleStorage",
						"label": "listOfPeople",
						"offset": 0,
						"slot": "0",
						"type": "t_array(t_struct(Person)6_storage)dyn_storage"
					}
				],
				"types": {
					"t_array(t_struct(Person)6_storage)dyn_storage": {
						"base": "t_struct(Person)6_storage",
						"encoding": "dynamic_array",
						"label": "struct SimpleStorage.Person[]",
						"numberOfBytes": "32"
					},
					"t_string_storage": {
						"encoding": "bytes",
						"label": "string",
						"numberOfBytes": "32"
					},
					"t_struct(Person)6_storage": {
						"encoding": "inplace",
						"label": "struct SimpleStorage.Person",
						"members": [
							{
								"astId": 3,
								"contract": "SimpleStorage.sol:SimpleStorage",
								"label": "Name",
								"offset": 0,
								"slot": "0",
								"type": "t_string_storage"
							},
							{
								"astId": 5,
								"contract": "SimpleStorage.sol:SimpleStorage",
								"label": "favoriteNumber",
								"offset": 0,
								"slot": "1",
								"type": "t_uint256"
							}
						],
						"numberOfBytes": "64"
					},
					"t_uint256": {
						"encoding": "inplace",
						"label": "uint256",
						"numberOfBytes": "32"
					}
				}
			},
			"userdoc": {
				"kind": "user",
				"methods": {},
				"version": 1
			}
		}
	}
}