{
	"SimpleStorage.sol": {
		"SimpleStorage": {
			"abi": [
				{
					"inputs": [
						{
							"internalType": "string",
							"name": "_Name",
							"type": "string"
						},
						{
							"internalType": "uint256",
							"name": "_favoriteNumber",
							"type": "uint256"
						}
					],
					"name": "AddPeople",
					"outputs": [],
					"stateMutability": "nonpayable",
					"type": "function"
				},
				{
					"inputs": [
						{
							"internalType": "uint256",
							"name": "",
							"type": "uint256"
						}
					],
					"name": "listOfPeople",
					"outputs": [
						{
							"internalType": "string",
							"name": "Name",
							"type": "string"
						},
						{
							"internalType": "uint256",
							"name": "favoriteNumber",
							"type": "uint256"
						}
					],
					"stateMutability": "view",
					"type": "function"
				},
				{
					"inputs": [
						{
							"internalType": "string",
							"name": "_Name",
							"type": "string"
						}
					],
					"name": "retreiveData",
					"outputs": [
						{
							"internalType": "uint256",
							"name": "",
							"type": "uint256"
						}
					],
					"stateMutability": "view",
					"type": "function"
				},
				{
					"inputs": [
						{
							"internalType": "string",
							"name": "",
							"type": "string"
						}
					],
					"name": "stringToFavoriteNumber",
					"outputs": [
						{
							"internalType": "uint256",
							"name": "",
							"type": "uint256"
						}
					],
					"stateMutability": "view",
					"type": "function"
				}
			],
			"devdoc": {
				"kind": "dev",
				"methods": {},
				"version": 1
			},
			"evm": {
				"assembly": "    /* \"SimpleStorage.sol\":141:786  contract SimpleStorage {... */\n  mstore(0x40, 0x80)\n  callvalue\n  dup1\n  iszero\n  tag_1\n  jumpi\n  revert(0x00, 0x00)\ntag_1:\n  pop\n  dataSize(sub_0)\n  dup1\n  dataOffset(sub_0)\n  0x00\n  codecopy\n  0x00\n  return\nstop\n\nsub_0: assembly {\n        /* \"SimpleStorage.sol\":141:786  contract SimpleStorage {... */\n      mstore(0x40, 0x80)\n      callvalue\n      dup1\n      iszero\n      tag_1\n      jumpi\n      revert(0x00, 0x00)\n    tag_1:\n      pop\n      jumpi(tag_2, lt(calldatasize, 0x04))\n      shr(0xe0, calldataload(0x00))\n      dup1\n      0x0d9843d4\n      eq\n      tag_3\n      jumpi\n      dup1\n      0x18b50f2d\n      eq\n      tag_4\n      jumpi\n      dup1\n      0x2ebce631\n      eq\n      tag_5\n      jumpi\n      dup1\n      0x35d0aac1\n      eq\n      tag_6\n      jumpi\n    tag_2:\n      revert(0x00, 0x00)\n        /* \"SimpleStorage.sol\":659:784  function retreiveData(string memory _Name) public view returns(uint256) {... */\n    tag_3:\n      tag_7\n      0x04\n      dup1\n      calldatasize\n      sub\n      dup2\n      add\n      swap1\n      tag_8\n      swap2\n      swap1\n      tag_9\n      jump\t// in\n    tag_8:\n      tag_10\n      jump\t// in\n    tag_7:\n      mload(0x40)\n      tag_11\n      swap2\n      swap1\n      tag_12\n      jump\t// in\n    tag_11:\n      mload(0x40)\n      dup1\n      swap2\n      sub\n      swap1\n      return\n        /* \"SimpleStorage.sol\":249:305  mapping(string => uint256) public stringToFavoriteNumber */\n    tag_4:\n      tag_13\n      0x04\n      dup1\n      calldatasize\n      sub\n      dup2\n      add\n      swap1\n      tag_14\n      swap2\n      swap1\n      tag_9\n      jump\t// in\n    tag_14:\n      tag_15\n      jump\t// in\n    tag_13:\n      mload(0x40)\n      tag_16\n      swap2\n      swap1\n      tag_12\n      jump\t// in\n    tag_16:\n      mload(0x40)\n      dup1\n      swap2\n      sub\n      swap1\n      return\n        /* \"SimpleStorage.sol\":355:383  Person[] public listOfPeople */\n    tag_5:\n      tag_17\n      0x04\n      dup1\n      calldatasize\n      sub\n      dup2\n      add\n      swap1\n      tag_18\n      swap2\n      swap1\n      tag_19\n      jump\t// in\n    tag_18:\n      tag_20\n      jump\t// in\n    tag_17:\n      mload(0x40)\n      tag_21\n      swap3\n      swap2\n      swap1\n      tag_22\n      jump\t// in\n    tag_21:\n      mload(0x40)\n      dup1\n      swap2\n      sub\n      swap1\n      return\n        /* \"SimpleStorage.sol\":389:653  function AddPeople(string memory _Name, uint256 _favoriteNumber) public {... */\n    tag_6:\n      tag_23\n      0x04\n      dup1\n      calldatasize\n      sub\n      dup2\n      add\n      swap1\n      tag_24\n      swap2\n      swap1\n      tag_25\n      jump\t// in\n    tag_24:\n      tag_26\n      jump\t// in\n    tag_23:\n      stop\n        /* \"SimpleStorage.sol\":659:784  function retreiveData(string memory _Name) public view returns(uint256) {... */\n    tag_10:\n        /* \"SimpleStorage.sol\":722:729  uint256 */\n      0x00\n        /* \"SimpleStorage.sol\":748:770  stringToFavoriteNumber */\n      0x00\n        /* \"SimpleStorage.sol\":771:776  _Name */\n      dup3\n        /* \"SimpleStorage.sol\":748:777  stringToFavoriteNumber[_Name] */\n      mload(0x40)\n      tag_28\n      swap2\n      swap1\n      tag_29\n      jump\t// in\n    tag_28:\n      swap1\n      dup2\n      mstore\n      0x20\n      add\n      mload(0x40)\n      dup1\n      swap2\n      sub\n      swap1\n      keccak256\n      sload\n        /* \"SimpleStorage.sol\":741:777  return stringToFavoriteNumber[_Name] */\n      swap1\n      pop\n        /* \"SimpleStorage.sol\":659:784  function retreiveData(string memory _Name) public view returns(uint256) {... */\n      swap2\n      swap1\n      pop\n      jump\t// out\n        /* \"SimpleStorage.sol\":249:305  mapping(string => uint256) public stringToFavoriteNumber */\n    tag_15:\n      0x00\n      dup2\n      dup1\n      mload\n      0x20\n      dup2\n      add\n      dup3\n      add\n      dup1\n      mload\n      dup5\n      dup3\n      mstore\n      0x20\n      dup4\n      add\n      0x20\n      dup6\n      add\n      keccak256\n      dup2\n      dup4\n      mstore\n      dup1\n      swap6\n      pop\n      pop\n      pop\n      pop\n      pop\n      pop\n      0x00\n      swap2\n      pop\n      swap1\n      pop\n      sload\n      dup2\n      jump\t// out\n        /* \"SimpleStorage.sol\":355:383  Person[] public listOfPeople */\n    tag_20:\n      0x01\n      dup2\n      dup2\n      sload\n      dup2\n      lt\n      tag_30\n      jumpi\n      0x00\n      dup1\n      revert\n    tag_30:\n      swap1\n      0x00\n      mstore\n      keccak256(0x00, 0x20)\n      swap1\n      0x02\n      mul\n      add\n      0x00\n      swap2\n      pop\n      swap1\n      pop\n      dup1\n      0x00\n      add\n      dup1\n      sload\n      tag_32\n      swap1\n      tag_33\n      jump\t// in\n    tag_32:\n      dup1\n      0x1f\n      add\n      0x20\n      dup1\n      swap2\n      div\n      mul\n      0x20\n      add\n      mload(0x40)\n      swap1\n      dup2\n      add\n      0x40\n      mstore\n      dup1\n      swap3\n      swap2\n      swap1\n      dup2\n      dup2\n      mstore\n      0x20\n      add\n      dup3\n      dup1\n      sload\n      tag_34\n      swap1\n      tag_33\n      jump\t// in\n    tag_34:\n      dup1\n      iszero\n      tag_35\n      jumpi\n      dup1\n      0x1f\n      lt\n      tag_36\n      jumpi\n      0x0100\n      dup1\n      dup4\n      sload\n      div\n      mul\n      dup4\n      mstore\n      swap2\n      0x20\n      add\n      swap2\n      jump(tag_35)\n    tag_36:\n      dup3\n      add\n      swap2\n      swap1\n      0x00\n      mstore\n      keccak256(0x00, 0x20)\n      swap1\n    tag_37:\n      dup2\n      sload\n      dup2\n      mstore\n      swap1\n      0x01\n      add\n      swap1\n      0x20\n      add\n      dup1\n      dup4\n      gt\n      tag_37\n      jumpi\n      dup3\n      swap1\n      sub\n      0x1f\n      and\n      dup3\n      add\n      swap2\n    tag_35:\n      pop\n      pop\n      pop\n      pop\n      pop\n      swap1\n      dup1\n      0x01\n      add\n      sload\n      swap1\n      pop\n      dup3\n      jump\t// out\n        /* \"SimpleStorage.sol\":389:653  function AddPeople(string memory _Name, uint256 _favoriteNumber) public {... */\n    tag_26:\n        /* \"SimpleStorage.sol\":471:494  Person memory Newperson */\n      0x00\n        /* \"SimpleStorage.sol\":497:551  Person({Name : _Name,favoriteNumber: _favoriteNumber}) */\n      mload(0x40)\n      dup1\n      0x40\n      add\n      0x40\n      mstore\n      dup1\n        /* \"SimpleStorage.sol\":512:517  _Name */\n      dup5\n        /* \"SimpleStorage.sol\":497:551  Person({Name : _Name,favoriteNumber: _favoriteNumber}) */\n      dup2\n      mstore\n      0x20\n      add\n        /* \"SimpleStorage.sol\":534:549  _favoriteNumber */\n      dup4\n        /* \"SimpleStorage.sol\":497:551  Person({Name : _Name,favoriteNumber: _favoriteNumber}) */\n      dup2\n      mstore\n      pop\n        /* \"SimpleStorage.sol\":471:551  Person memory Newperson = Person({Name : _Name,favoriteNumber: _favoriteNumber}) */\n      swap1\n      pop\n        /* \"SimpleStorage.sol\":561:573  listOfPeople */\n      0x01\n        /* \"SimpleStorage.sol\":579:588  Newperson */\n      dup2\n        /* \"SimpleStorage.sol\":561:589  listOfPeople.push(Newperson) */\n      swap1\n      dup1\n      0x01\n      dup2\n      sload\n      add\n      dup1\n      dup3\n      sstore\n      dup1\n      swap2\n      pop\n      pop\n      0x01\n      swap1\n      sub\n      swap1\n      0x00\n      mstore\n      keccak256(0x00, 0x20)\n      swap1\n      0x02\n      mul\n      add\n      0x00\n      swap1\n      swap2\n      swap1\n      swap2\n      swap1\n      swap2\n      pop\n      0x00\n      dup3\n      add\n      mload\n      dup2\n      0x00\n      add\n      swap1\n      dup2\n      tag_40\n      swap2\n      swap1\n      tag_41\n      jump\t// in\n    tag_40:\n      pop\n      0x20\n      dup3\n      add\n      mload\n      dup2\n      0x01\n      add\n      sstore\n      pop\n      pop\n        /* \"SimpleStorage.sol\":631:646  _favoriteNumber */\n      dup2\n        /* \"SimpleStorage.sol\":599:621  stringToFavoriteNumber */\n      0x00\n        /* \"SimpleStorage.sol\":622:627  _Name */\n      dup5\n        /* \"SimpleStorage.sol\":599:628  stringToFavoriteNumber[_Name] */\n      mload(0x40)\n      tag_42\n      swap2\n      swap1\n      tag_29\n      jump\t// in\n    tag_42:\n      swap1\n      dup2\n      mstore\n      0x20\n      add\n      mload(0x40)\n      dup1\n      swap2\n      sub\n      swap1\n      keccak256\n        /* \"SimpleStorage.sol\":599:646  stringToFavoriteNumber[_Name] = _favoriteNumber */\n      dup2\n      swap1\n      sstore\n      pop\n        /* \"SimpleStorage.sol\":461:653  {... */\n      pop\n        /* \"SimpleStorage.sol\":389:653  function AddPeople(string memory _Name, uint256 _favoriteNumber) public {... */\n      pop\n      pop\n      jump\t// out\n        /* \"#utility.yul\":7:82   */\n    tag_43:\n        /* \"#utility.yul\":40:46   */\n      0x00\n        /* \"#utility.yul\":73:75   */\n      0x40\n        /* \"#utility.yul\":67:76   */\n      mload\n        /* \"#utility.yul\":57:76   */\n      swap1\n      pop\n        /* \"#utility.yul\":7:82   */\n      swap1\n      jump\t// out\n        /* \"#utility.yul\":88:205   */\n    tag_44:\n        /* \"#utility.yul\":197:198   */\n      0x00\n        /* \"#utility.yul\":194:195   */\n      0x00\n        /* \"#utility.yul\":187:199   */\n      revert\n        /* \"#utility.yul\":211:328   */\n    tag_45:\n        /* \"#utility.yul\":320:321   */\n      0x00\n        /* \"#utility.yul\":317:318   */\n      0x00\n        /* \"#utility.yul\":310:322   */\n      revert\n        /* \"#utility.yul\":334:451   */\n    tag_46:\n        /* \"#utility.yul\":443:444   */\n      0x00\n        /* \"#utility.yul\":440:441   */\n      0x00\n        /* \"#utility.yul\":433:445   */\n      revert\n        /* \"#utility.yul\":457:574   */\n    tag_47:\n        /* \"#utility.yul\":566:567   */\n      0x00\n        /* \"#utility.yul\":563:564   */\n      0x00\n        /* \"#utility.yul\":556:568   */\n      revert\n        /* \"#utility.yul\":580:682   */\n    tag_48:\n        /* \"#utility.yul\":621:627   */\n      0x00\n        /* \"#utility.yul\":672:674   */\n      0x1f\n        /* \"#utility.yul\":668:675   */\n      not\n        /* \"#utility.yul\":663:665   */\n      0x1f\n        /* \"#utility.yul\":656:661   */\n      dup4\n        /* \"#utility.yul\":652:666   */\n      add\n        /* \"#utility.yul\":648:676   */\n      and\n        /* \"#utility.yul\":638:676   */\n      swap1\n      pop\n        /* \"#utility.yul\":580:682   */\n      swap2\n      swap1\n      pop\n      jump\t// out\n        /* \"#utility.yul\":688:868   */\n    tag_49:\n        /* \"#utility.yul\":736:813   */\n      0x4e487b7100000000000000000000000000000000000000000000000000000000\n        /* \"#utility.yul\":733:734   */\n      0x00\n        /* \"#utility.yul\":726:814   */\n      mstore\n        /* \"#utility.yul\":833:837   */\n      0x41\n        /* \"#utility.yul\":830:831   */\n      0x04\n        /* \"#utility.yul\":823:838   */\n      mstore\n        /* \"#utility.yul\":857:861   */\n      0x24\n        /* \"#utility.yul\":854:855   */\n      0x00\n        /* \"#utility.yul\":847:862   */\n      revert\n        /* \"#utility.yul\":874:1155   */\n    tag_50:\n        /* \"#utility.yul\":957:984   */\n      tag_91\n        /* \"#utility.yul\":979:983   */\n      dup3\n        /* \"#utility.yul\":957:984   */\n      tag_48\n      jump\t// in\n    tag_91:\n        /* \"#utility.yul\":949:955   */\n      dup2\n        /* \"#utility.yul\":945:985   */\n      add\n        /* \"#utility.yul\":1087:1093   */\n      dup2\n        /* \"#utility.yul\":1075:1085   */\n      dup2\n        /* \"#utility.yul\":1072:1094   */\n      lt\n        /* \"#utility.yul\":1051:1069   */\n      0xffffffffffffffff\n        /* \"#utility.yul\":1039:1049   */\n      dup3\n        /* \"#utility.yul\":1036:1070   */\n      gt\n        /* \"#utility.yul\":1033:1095   */\n      or\n        /* \"#utility.yul\":1030:1118   */\n      iszero\n      tag_92\n      jumpi\n        /* \"#utility.yul\":1098:1116   */\n      tag_93\n      tag_49\n      jump\t// in\n    tag_93:\n        /* \"#utility.yul\":1030:1118   */\n    tag_92:\n        /* \"#utility.yul\":1138:1148   */\n      dup1\n        /* \"#utility.yul\":1134:1136   */\n      0x40\n        /* \"#utility.yul\":1127:1149   */\n      mstore\n        /* \"#utility.yul\":917:1155   */\n      pop\n        /* \"#utility.yul\":874:1155   */\n      pop\n      pop\n      jump\t// out\n        /* \"#utility.yul\":1161:1290   */\n    tag_51:\n        /* \"#utility.yul\":1195:1201   */\n      0x00\n        /* \"#utility.yul\":1222:1242   */\n      tag_95\n      tag_43\n      jump\t// in\n    tag_95:\n        /* \"#utility.yul\":1212:1242   */\n      swap1\n      pop\n        /* \"#utility.yul\":1251:1284   */\n      tag_96\n        /* \"#utility.yul\":1279:1283   */\n      dup3\n        /* \"#utility.yul\":1271:1277   */\n      dup3\n        /* \"#utility.yul\":1251:1284   */\n      tag_50\n      jump\t// in\n    tag_96:\n        /* \"#utility.yul\":1161:1290   */\n      swap2\n      swap1\n      pop\n      jump\t// out\n        /* \"#utility.yul\":1296:1604   */\n    tag_52:\n        /* \"#utility.yul\":1358:1362   */\n      0x00\n        /* \"#utility.yul\":1448:1466   */\n      0xffffffffffffffff\n        /* \"#utility.yul\":1440:1446   */\n      dup3\n        /* \"#utility.yul\":1437:1467   */\n      gt\n        /* \"#utility.yul\":1434:1490   */\n      iszero\n      tag_98\n      jumpi\n        /* \"#utility.yul\":1470:1488   */\n      tag_99\n      tag_49\n      jump\t// in\n    tag_99:\n        /* \"#utility.yul\":1434:1490   */\n    tag_98:\n        /* \"#utility.yul\":1508:1537   */\n      tag_100\n        /* \"#utility.yul\":1530:1536   */\n      dup3\n        /* \"#utility.yul\":1508:1537   */\n      tag_48\n      jump\t// in\n    tag_100:\n        /* \"#utility.yul\":1500:1537   */\n      swap1\n      pop\n        /* \"#utility.yul\":1592:1596   */\n      0x20\n        /* \"#utility.yul\":1586:1590   */\n      dup2\n        /* \"#utility.yul\":1582:1597   */\n      add\n        /* \"#utility.yul\":1574:1597   */\n      swap1\n      pop\n        /* \"#utility.yul\":1296:1604   */\n      swap2\n      swap1\n      pop\n      jump\t// out\n        /* \"#utility.yul\":1610:1758   */\n    tag_53:\n        /* \"#utility.yul\":1708:1714   */\n      dup3\n        /* \"#utility.yul\":1703:1706   */\n      dup2\n        /* \"#utility.yul\":1698:1701   */\n      dup4\n        /* \"#utility.yul\":1685:1715   */\n      calldatacopy\n        /* \"#utility.yul\":1749:1750   */\n      0x00\n        /* \"#utility.yul\":1740:1746   */\n      dup4\n        /* \"#utility.yul\":1735:1738   */\n      dup4\n        /* \"#utility.yul\":1731:1747   */\n      add\n        /* \"#utility.yul\":1724:1751   */\n      mstore\n        /* \"#utility.yul\":1610:1758   */\n      pop\n      pop\n      pop\n      jump\t// out\n        /* \"#utility.yul\":1764:2189   */\n    tag_54:\n        /* \"#utility.yul\":1842:1847   */\n      0x00\n        /* \"#utility.yul\":1867:1933   */\n      tag_103\n        /* \"#utility.yul\":1883:1932   */\n      tag_104\n        /* \"#utility.yul\":1925:1931   */\n      dup5\n        /* \"#utility.yul\":1883:1932   */\n      tag_52\n      jump\t// in\n    tag_104:\n        /* \"#utility.yul\":1867:1933   */\n      tag_51\n      jump\t// in\n    tag_103:\n        /* \"#utility.yul\":1858:1933   */\n      swap1\n      pop\n        /* \"#utility.yul\":1956:1962   */\n      dup3\n        /* \"#utility.yul\":1949:1954   */\n      dup2\n        /* \"#utility.yul\":1942:1963   */\n      mstore\n        /* \"#utility.yul\":1994:1998   */\n      0x20\n        /* \"#utility.yul\":1987:1992   */\n      dup2\n        /* \"#utility.yul\":1983:1999   */\n      add\n        /* \"#utility.yul\":2032:2035   */\n      dup5\n        /* \"#utility.yul\":2023:2029   */\n      dup5\n        /* \"#utility.yul\":2018:2021   */\n      dup5\n        /* \"#utility.yul\":2014:2030   */\n      add\n        /* \"#utility.yul\":2011:2036   */\n      gt\n        /* \"#utility.yul\":2008:2120   */\n      iszero\n      tag_105\n      jumpi\n        /* \"#utility.yul\":2039:2118   */\n      tag_106\n      tag_47\n      jump\t// in\n    tag_106:\n        /* \"#utility.yul\":2008:2120   */\n    tag_105:\n        /* \"#utility.yul\":2129:2183   */\n      tag_107\n        /* \"#utility.yul\":2176:2182   */\n      dup5\n        /* \"#utility.yul\":2171:2174   */\n      dup3\n        /* \"#utility.yul\":2166:2169   */\n      dup6\n        /* \"#utility.yul\":2129:2183   */\n      tag_53\n      jump\t// in\n    tag_107:\n        /* \"#utility.yul\":1848:2189   */\n      pop\n        /* \"#utility.yul\":1764:2189   */\n      swap4\n      swap3\n      pop\n      pop\n      pop\n      jump\t// out\n        /* \"#utility.yul\":2209:2549   */\n    tag_55:\n        /* \"#utility.yul\":2265:2270   */\n      0x00\n        /* \"#utility.yul\":2314:2317   */\n      dup3\n        /* \"#utility.yul\":2307:2311   */\n      0x1f\n        /* \"#utility.yul\":2299:2305   */\n      dup4\n        /* \"#utility.yul\":2295:2312   */\n      add\n        /* \"#utility.yul\":2291:2318   */\n      slt\n        /* \"#utility.yul\":2281:2403   */\n      tag_109\n      jumpi\n        /* \"#utility.yul\":2322:2401   */\n      tag_110\n      tag_46\n      jump\t// in\n    tag_110:\n        /* \"#utility.yul\":2281:2403   */\n    tag_109:\n        /* \"#utility.yul\":2439:2445   */\n      dup2\n        /* \"#utility.yul\":2426:2446   */\n      calldataload\n        /* \"#utility.yul\":2464:2543   */\n      tag_111\n        /* \"#utility.yul\":2539:2542   */\n      dup5\n        /* \"#utility.yul\":2531:2537   */\n      dup3\n        /* \"#utility.yul\":2524:2528   */\n      0x20\n        /* \"#utility.yul\":2516:2522   */\n      dup7\n        /* \"#utility.yul\":2512:2529   */\n      add\n        /* \"#utility.yul\":2464:2543   */\n      tag_54\n      jump\t// in\n    tag_111:\n        /* \"#utility.yul\":2455:2543   */\n      swap2\n      pop\n        /* \"#utility.yul\":2271:2549   */\n      pop\n        /* \"#utility.yul\":2209:2549   */\n      swap3\n      swap2\n      pop\n      pop\n      jump\t// out\n        /* \"#utility.yul\":2555:3064   */\n    tag_9:\n        /* \"#utility.yul\":2624:2630   */\n      0x00\n        /* \"#utility.yul\":2673:2675   */\n      0x20\n        /* \"#utility.yul\":2661:2670   */\n      dup3\n        /* \"#utility.yul\":2652:2659   */\n      dup5\n        /* \"#utility.yul\":2648:2671   */\n      sub\n        /* \"#utility.yul\":2644:2676   */\n      slt\n        /* \"#utility.yul\":2641:2760   */\n      iszero\n      tag_113\n      jumpi\n        /* \"#utility.yul\":2679:2758   */\n      tag_114\n      tag_44\n      jump\t// in\n    tag_114:\n        /* \"#utility.yul\":2641:2760   */\n    tag_113:\n        /* \"#utility.yul\":2827:2828   */\n      0x00\n        /* \"#utility.yul\":2816:2825   */\n      dup3\n        /* \"#utility.yul\":2812:2829   */\n      add\n        /* \"#utility.yul\":2799:2830   */\n      calldataload\n        /* \"#utility.yul\":2857:2875   */\n      0xffffffffffffffff\n        /* \"#utility.yul\":2849:2855   */\n      dup2\n        /* \"#utility.yul\":2846:2876   */\n      gt\n        /* \"#utility.yul\":2843:2960   */\n      iszero\n      tag_115\n      jumpi\n        /* \"#utility.yul\":2879:2958   */\n      tag_116\n      tag_45\n      jump\t// in\n    tag_116:\n        /* \"#utility.yul\":2843:2960   */\n    tag_115:\n        /* \"#utility.yul\":2984:3047   */\n      tag_117\n        /* \"#utility.yul\":3039:3046   */\n      dup5\n        /* \"#utility.yul\":3030:3036   */\n      dup3\n        /* \"#utility.yul\":3019:3028   */\n      dup6\n        /* \"#utility.yul\":3015:3037   */\n      add\n        /* \"#utility.yul\":2984:3047   */\n      tag_55\n      jump\t// in\n    tag_117:\n        /* \"#utility.yul\":2974:3047   */\n      swap2\n      pop\n        /* \"#utility.yul\":2770:3057   */\n      pop\n        /* \"#utility.yul\":2555:3064   */\n      swap3\n      swap2\n      pop\n      pop\n      jump\t// out\n        /* \"#utility.yul\":3070:3147   */\n    tag_56:\n        /* \"#utility.yul\":3107:3114   */\n      0x00\n        /* \"#utility.yul\":3136:3141   */\n      dup2\n        /* \"#utility.yul\":3125:3141   */\n      swap1\n      pop\n        /* \"#utility.yul\":3070:3147   */\n      swap2\n      swap1\n      pop\n      jump\t// out\n        /* \"#utility.yul\":3153:3271   */\n    tag_57:\n        /* \"#utility.yul\":3240:3264   */\n      tag_120\n        /* \"#utility.yul\":3258:3263   */\n      dup2\n        /* \"#utility.yul\":3240:3264   */\n      tag_56\n      jump\t// in\n    tag_120:\n        /* \"#utility.yul\":3235:3238   */\n      dup3\n        /* \"#utility.yul\":3228:3265   */\n      mstore\n        /* \"#utility.yul\":3153:3271   */\n      pop\n      pop\n      jump\t// out\n        /* \"#utility.yul\":3277:3499   */\n    tag_12:\n        /* \"#utility.yul\":3370:3374   */\n      0x00\n        /* \"#utility.yul\":3408:3410   */\n      0x20\n        /* \"#utility.yul\":3397:3406   */\n      dup3\n        /* \"#utility.yul\":3393:3411   */\n      add\n        /* \"#utility.yul\":3385:3411   */\n      swap1\n      pop\n        /* \"#utility.yul\":3421:3492   */\n      tag_122\n        /* \"#utility.yul\":3489:3490   */\n      0x00\n        /* \"#utility.yul\":3478:3487   */\n      dup4\n        /* \"#utility.yul\":3474:3491   */\n      add\n        /* \"#utility.yul\":3465:3471   */\n      dup5\n        /* \"#utility.yul\":3421:3492   */\n      tag_57\n      jump\t// in\n    tag_122:\n        /* \"#utility.yul\":3277:3499   */\n      swap3\n      swap2\n      pop\n      pop\n      jump\t// out\n        /* \"#utility.yul\":3505:3627   */\n    tag_58:\n        /* \"#utility.yul\":3578:3602   */\n      tag_124\n        /* \"#utility.yul\":3596:3601   */\n      dup2\n        /* \"#utility.yul\":3578:3602   */\n      tag_56\n      jump\t// in\n    tag_124:\n        /* \"#utility.yul\":3571:3576   */\n      dup2\n        /* \"#utility.yul\":3568:3603   */\n      eq\n        /* \"#utility.yul\":3558:3621   */\n      tag_125\n      jumpi\n        /* \"#utility.yul\":3617:3618   */\n      0x00\n        /* \"#utility.yul\":3614:3615   */\n      0x00\n        /* \"#utility.yul\":3607:3619   */\n      revert\n        /* \"#utility.yul\":3558:3621   */\n    tag_125:\n        /* \"#utility.yul\":3505:3627   */\n      pop\n      jump\t// out\n        /* \"#utility.yul\":3633:3772   */\n    tag_59:\n        /* \"#utility.yul\":3679:3684   */\n      0x00\n        /* \"#utility.yul\":3717:3723   */\n      dup2\n        /* \"#utility.yul\":3704:3724   */\n      calldataload\n        /* \"#utility.yul\":3695:3724   */\n      swap1\n      pop\n        /* \"#utility.yul\":3733:3766   */\n      tag_127\n        /* \"#utility.yul\":3760:3765   */\n      dup2\n        /* \"#utility.yul\":3733:3766   */\n      tag_58\n      jump\t// in\n    tag_127:\n        /* \"#utility.yul\":3633:3772   */\n      swap3\n      swap2\n      pop\n      pop\n      jump\t// out\n        /* \"#utility.yul\":3778:4107   */\n    tag_19:\n        /* \"#utility.yul\":3837:3843   */\n      0x00\n        /* \"#utility.yul\":3886:3888   */\n      0x20\n        /* \"#utility.yul\":3874:3883   */\n      dup3\n        /* \"#utility.yul\":3865:3872   */\n      dup5\n        /* \"#utility.yul\":3861:3884   */\n      sub\n        /* \"#utility.yul\":3857:3889   */\n      slt\n        /* \"#utility.yul\":3854:3973   */\n      iszero\n      tag_129\n      jumpi\n        /* \"#utility.yul\":3892:3971   */\n      tag_130\n      tag_44\n      jump\t// in\n    tag_130:\n        /* \"#utility.yul\":3854:3973   */\n    tag_129:\n        /* \"#utility.yul\":4012:4013   */\n      0x00\n        /* \"#utility.yul\":4037:4090   */\n      tag_131\n        /* \"#utility.yul\":4082:4089   */\n      dup5\n        /* \"#utility.yul\":4073:4079   */\n      dup3\n        /* \"#utility.yul\":4062:4071   */\n      dup6\n        /* \"#utility.yul\":4058:4080   */\n      add\n        /* \"#utility.yul\":4037:4090   */\n      tag_59\n      jump\t// in\n    tag_131:\n        /* \"#utility.yul\":4027:4090   */\n      swap2\n      pop\n        /* \"#utility.yul\":3983:4100   */\n      pop\n        /* \"#utility.yul\":3778:4107   */\n      swap3\n      swap2\n      pop\n      pop\n      jump\t// out\n        /* \"#utility.yul\":4113:4212   */\n    tag_60:\n        /* \"#utility.yul\":4165:4171   */\n      0x00\n        /* \"#utility.yul\":4199:4204   */\n      dup2\n        /* \"#utility.yul\":4193:4205   */\n      mload\n        /* \"#utility.yul\":4183:4205   */\n      swap1\n      pop\n        /* \"#utility.yul\":4113:4212   */\n      swap2\n      swap1\n      pop\n      jump\t// out\n        /* \"#utility.yul\":4218:4387   */\n    tag_61:\n        /* \"#utility.yul\":4302:4313   */\n      0x00\n        /* \"#utility.yul\":4336:4342   */\n      dup3\n        /* \"#utility.yul\":4331:4334   */\n      dup3\n        /* \"#utility.yul\":4324:4343   */\n      mstore\n        /* \"#utility.yul\":4376:4380   */\n      0x20\n        /* \"#utility.yul\":4371:4374   */\n      dup3\n        /* \"#utility.yul\":4367:4381   */\n      add\n        /* \"#utility.yul\":4352:4381   */\n      swap1\n      pop\n        /* \"#utility.yul\":4218:4387   */\n      swap3\n      swap2\n      pop\n      pop\n      jump\t// out\n        /* \"#utility.yul\":4393:4532   */\n    tag_62:\n        /* \"#utility.yul\":4482:4488   */\n      dup3\n        /* \"#utility.yul\":4477:4480   */\n      dup2\n        /* \"#utility.yul\":4472:4475   */\n      dup4\n        /* \"#utility.yul\":4466:4489   */\n      mcopy\n        /* \"#utility.yul\":4523:4524   */\n      0x00\n        /* \"#utility.yul\":4514:4520   */\n      dup4\n        /* \"#utility.yul\":4509:4512   */\n      dup4\n        /* \"#utility.yul\":4505:4521   */\n      add\n        /* \"#utility.yul\":4498:4525   */\n      mstore\n        /* \"#utility.yul\":4393:4532   */\n      pop\n      pop\n      pop\n      jump\t// out\n        /* \"#utility.yul\":4538:4915   */\n    tag_63:\n        /* \"#utility.yul\":4626:4629   */\n      0x00\n        /* \"#utility.yul\":4654:4693   */\n      tag_136\n        /* \"#utility.yul\":4687:4692   */\n      dup3\n        /* \"#utility.yul\":4654:4693   */\n      tag_60\n      jump\t// in\n    tag_136:\n        /* \"#utility.yul\":4709:4780   */\n      tag_137\n        /* \"#utility.yul\":4773:4779   */\n      dup2\n        /* \"#utility.yul\":4768:4771   */\n      dup6\n        /* \"#utility.yul\":4709:4780   */\n      tag_61\n      jump\t// in\n    tag_137:\n        /* \"#utility.yul\":4702:4780   */\n      swap4\n      pop\n        /* \"#utility.yul\":4789:4854   */\n      tag_138\n        /* \"#utility.yul\":4847:4853   */\n      dup2\n        /* \"#utility.yul\":4842:4845   */\n      dup6\n        /* \"#utility.yul\":4835:4839   */\n      0x20\n        /* \"#utility.yul\":4828:4833   */\n      dup7\n        /* \"#utility.yul\":4824:4840   */\n      add\n        /* \"#utility.yul\":4789:4854   */\n      tag_62\n      jump\t// in\n    tag_138:\n        /* \"#utility.yul\":4879:4908   */\n      tag_139\n        /* \"#utility.yul\":4901:4907   */\n      dup2\n        /* \"#utility.yul\":4879:4908   */\n      tag_48\n      jump\t// in\n    tag_139:\n        /* \"#utility.yul\":4874:4877   */\n      dup5\n        /* \"#utility.yul\":4870:4909   */\n      add\n        /* \"#utility.yul\":4863:4909   */\n      swap2\n      pop\n        /* \"#utility.yul\":4630:4915   */\n      pop\n        /* \"#utility.yul\":4538:4915   */\n      swap3\n      swap2\n      pop\n      pop\n      jump\t// out\n        /* \"#utility.yul\":4921:5344   */\n    tag_22:\n        /* \"#utility.yul\":5062:5066   */\n      0x00\n        /* \"#utility.yul\":5100:5102   */\n      0x40\n        /* \"#utility.yul\":5089:5098   */\n      dup3\n        /* \"#utility.yul\":5085:5103   */\n      add\n        /* \"#utility.yul\":5077:5103   */\n      swap1\n      pop\n        /* \"#utility.yul\":5149:5158   */\n      dup2\n        /* \"#utility.yul\":5143:5147   */\n      dup2\n        /* \"#utility.yul\":5139:5159   */\n      sub\n        /* \"#utility.yul\":5135:5136   */\n      0x00\n        /* \"#utility.yul\":5124:5133   */\n      dup4\n        /* \"#utility.yul\":5120:5137   */\n      add\n        /* \"#utility.yul\":5113:5160   */\n      mstore\n        /* \"#utility.yul\":5177:5255   */\n      tag_141\n        /* \"#utility.yul\":5250:5254   */\n      dup2\n        /* \"#utility.yul\":5241:5247   */\n      dup6\n        /* \"#utility.yul\":5177:5255   */\n      tag_63\n      jump\t// in\n    tag_141:\n        /* \"#utility.yul\":5169:5255   */\n      swap1\n      pop\n        /* \"#utility.yul\":5265:5337   */\n      tag_142\n        /* \"#utility.yul\":5333:5335   */\n      0x20\n        /* \"#utility.yul\":5322:5331   */\n      dup4\n        /* \"#utility.yul\":5318:5336   */\n      add\n        /* \"#utility.yul\":5309:5315   */\n      dup5\n        /* \"#utility.yul\":5265:5337   */\n      tag_57\n      jump\t// in\n    tag_142:\n        /* \"#utility.yul\":4921:5344   */\n      swap4\n      swap3\n      pop\n      pop\n      pop\n      jump\t// out\n        /* \"#utility.yul\":5350:6004   */\n    tag_25:\n        /* \"#utility.yul\":5428:5434   */\n      0x00\n        /* \"#utility.yul\":5436:5442   */\n      0x00\n        /* \"#utility.yul\":5485:5487   */\n      0x40\n        /* \"#utility.yul\":5473:5482   */\n      dup4\n        /* \"#utility.yul\":5464:5471   */\n      dup6\n        /* \"#utility.yul\":5460:5483   */\n      sub\n        /* \"#utility.yul\":5456:5488   */\n      slt\n        /* \"#utility.yul\":5453:5572   */\n      iszero\n      tag_144\n      jumpi\n        /* \"#utility.yul\":5491:5570   */\n      tag_145\n      tag_44\n      jump\t// in\n    tag_145:\n        /* \"#utility.yul\":5453:5572   */\n    tag_144:\n        /* \"#utility.yul\":5639:5640   */\n      0x00\n        /* \"#utility.yul\":5628:5637   */\n      dup4\n        /* \"#utility.yul\":5624:5641   */\n      add\n        /* \"#utility.yul\":5611:5642   */\n      calldataload\n        /* \"#utility.yul\":5669:5687   */\n      0xffffffffffffffff\n        /* \"#utility.yul\":5661:5667   */\n      dup2\n        /* \"#utility.yul\":5658:5688   */\n      gt\n        /* \"#utility.yul\":5655:5772   */\n      iszero\n      tag_146\n      jumpi\n        /* \"#utility.yul\":5691:5770   */\n      tag_147\n      tag_45\n      jump\t// in\n    tag_147:\n        /* \"#utility.yul\":5655:5772   */\n    tag_146:\n        /* \"#utility.yul\":5796:5859   */\n      tag_148\n        /* \"#utility.yul\":5851:5858   */\n      dup6\n        /* \"#utility.yul\":5842:5848   */\n      dup3\n        /* \"#utility.yul\":5831:5840   */\n      dup7\n        /* \"#utility.yul\":5827:5849   */\n      add\n        /* \"#utility.yul\":5796:5859   */\n      tag_55\n      jump\t// in\n    tag_148:\n        /* \"#utility.yul\":5786:5859   */\n      swap3\n      pop\n        /* \"#utility.yul\":5582:5869   */\n      pop\n        /* \"#utility.yul\":5908:5910   */\n      0x20\n        /* \"#utility.yul\":5934:5987   */\n      tag_149\n        /* \"#utility.yul\":5979:5986   */\n      dup6\n        /* \"#utility.yul\":5970:5976   */\n      dup3\n        /* \"#utility.yul\":5959:5968   */\n      dup7\n        /* \"#utility.yul\":5955:5977   */\n      add\n        /* \"#utility.yul\":5934:5987   */\n      tag_59\n      jump\t// in\n    tag_149:\n        /* \"#utility.yul\":5924:5987   */\n      swap2\n      pop\n        /* \"#utility.yul\":5879:5997   */\n      pop\n        /* \"#utility.yul\":5350:6004   */\n      swap3\n      pop\n      swap3\n      swap1\n      pop\n      jump\t// out\n        /* \"#utility.yul\":6010:6158   */\n    tag_64:\n        /* \"#utility.yul\":6112:6123   */\n      0x00\n        /* \"#utility.yul\":6149:6152   */\n      dup2\n        /* \"#utility.yul\":6134:6152   */\n      swap1\n      pop\n        /* \"#utility.yul\":6010:6158   */\n      swap3\n      swap2\n      pop\n      pop\n      jump\t// out\n        /* \"#utility.yul\":6164:6554   */\n    tag_65:\n        /* \"#utility.yul\":6270:6273   */\n      0x00\n        /* \"#utility.yul\":6298:6337   */\n      tag_152\n        /* \"#utility.yul\":6331:6336   */\n      dup3\n        /* \"#utility.yul\":6298:6337   */\n      tag_60\n      jump\t// in\n    tag_152:\n        /* \"#utility.yul\":6353:6442   */\n      tag_153\n        /* \"#utility.yul\":6435:6441   */\n      dup2\n        /* \"#utility.yul\":6430:6433   */\n      dup6\n        /* \"#utility.yul\":6353:6442   */\n      tag_64\n      jump\t// in\n    tag_153:\n        /* \"#utility.yul\":6346:6442   */\n      swap4\n      pop\n        /* \"#utility.yul\":6451:6516   */\n      tag_154\n        /* \"#utility.yul\":6509:6515   */\n      dup2\n        /* \"#utility.yul\":6504:6507   */\n      dup6\n        /* \"#utility.yul\":6497:6501   */\n      0x20\n        /* \"#utility.yul\":6490:6495   */\n      dup7\n        /* \"#utility.yul\":6486:6502   */\n      add\n        /* \"#utility.yul\":6451:6516   */\n      tag_62\n      jump\t// in\n    tag_154:\n        /* \"#utility.yul\":6541:6547   */\n      dup1\n        /* \"#utility.yul\":6536:6539   */\n      dup5\n        /* \"#utility.yul\":6532:6548   */\n      add\n        /* \"#utility.yul\":6525:6548   */\n      swap2\n      pop\n        /* \"#utility.yul\":6274:6554   */\n      pop\n        /* \"#utility.yul\":6164:6554   */\n      swap3\n      swap2\n      pop\n      pop\n      jump\t// out\n        /* \"#utility.yul\":6560:6835   */\n    tag_29:\n        /* \"#utility.yul\":6692:6695   */\n      0x00\n        /* \"#utility.yul\":6714:6809   */\n      tag_156\n        /* \"#utility.yul\":6805:6808   */\n      dup3\n        /* \"#utility.yul\":6796:6802   */\n      dup5\n        /* \"#utility.yul\":6714:6809   */\n      tag_65\n      jump\t// in\n    tag_156:\n        /* \"#utility.yul\":6707:6809   */\n      swap2\n      pop\n        /* \"#utility.yul\":6826:6829   */\n      dup2\n        /* \"#utility.yul\":6819:6829   */\n      swap1\n      pop\n        /* \"#utility.yul\":6560:6835   */\n      swap3\n      swap2\n      pop\n      pop\n      jump\t// out\n        /* \"#utility.yul\":6841:7021   */\n    tag_66:\n        /* \"#utility.yul\":6889:6966   */\n      0x4e487b7100000000000000000000000000000000000000000000000000000000\n        /* \"#utility.yul\":6886:6887   */\n      0x00\n        /* \"#utility.yul\":6879:6967   */\n      mstore\n        /* \"#utility.yul\":6986:6990   */\n      0x22\n        /* \"#utility.yul\":6983:6984   */\n      0x04\n        /* \"#utility.yul\":6976:6991   */\n      mstore\n        /* \"#utility.yul\":7010:7014   */\n      0x24\n        /* \"#utility.yul\":7007:7008   */\n      0x00\n        /* \"#utility.yul\":7000:7015   */\n      revert\n        /* \"#utility.yul\":7027:7347   */\n    tag_33:\n        /* \"#utility.yul\":7071:7077   */\n      0x00\n        /* \"#utility.yul\":7108:7109   */\n      0x02\n        /* \"#utility.yul\":7102:7106   */\n      dup3\n        /* \"#utility.yul\":7098:7110   */\n      div\n        /* \"#utility.yul\":7088:7110   */\n      swap1\n      pop\n        /* \"#utility.yul\":7155:7156   */\n      0x01\n        /* \"#utility.yul\":7149:7153   */\n      dup3\n        /* \"#utility.yul\":7145:7157   */\n      and\n        /* \"#utility.yul\":7176:7194   */\n      dup1\n        /* \"#utility.yul\":7166:7247   */\n      tag_159\n      jumpi\n        /* \"#utility.yul\":7232:7236   */\n      0x7f\n        /* \"#utility.yul\":7224:7230   */\n      dup3\n        /* \"#utility.yul\":7220:7237   */\n      and\n        /* \"#utility.yul\":7210:7237   */\n      swap2\n      pop\n        /* \"#utility.yul\":7166:7247   */\n    tag_159:\n        /* \"#utility.yul\":7294:7296   */\n      0x20\n        /* \"#utility.yul\":7286:7292   */\n      dup3\n        /* \"#utility.yul\":7283:7297   */\n      lt\n        /* \"#utility.yul\":7263:7281   */\n      dup2\n        /* \"#utility.yul\":7260:7298   */\n      sub\n        /* \"#utility.yul\":7257:7341   */\n      tag_160\n      jumpi\n        /* \"#utility.yul\":7313:7331   */\n      tag_161\n      tag_66\n      jump\t// in\n    tag_161:\n        /* \"#utility.yul\":7257:7341   */\n    tag_160:\n        /* \"#utility.yul\":7078:7347   */\n      pop\n        /* \"#utility.yul\":7027:7347   */\n      swap2\n      swap1\n      pop\n      jump\t// out\n        /* \"#utility.yul\":7353:7494   */\n    tag_67:\n        /* \"#utility.yul\":7402:7406   */\n      0x00\n        /* \"#utility.yul\":7425:7428   */\n      dup2\n        /* \"#utility.yul\":7417:7428   */\n      swap1\n      pop\n        /* \"#utility.yul\":7448:7451   */\n      dup2\n        /* \"#utility.yul\":7445:7446   */\n      0x00\n        /* \"#utility.yul\":7438:7452   */\n      mstore\n        /* \"#utility.yul\":7482:7486   */\n      0x20\n        /* \"#utility.yul\":7479:7480   */\n      0x00\n        /* \"#utility.yul\":7469:7487   */\n      keccak256\n        /* \"#utility.yul\":7461:7487   */\n      swap1\n      pop\n        /* \"#utility.yul\":7353:7494   */\n      swap2\n      swap1\n      pop\n      jump\t// out\n        /* \"#utility.yul\":7500:7593   */\n    tag_68:\n        /* \"#utility.yul\":7537:7543   */\n      0x00\n        /* \"#utility.yul\":7584:7586   */\n      0x20\n        /* \"#utility.yul\":7579:7581   */\n      0x1f\n        /* \"#utility.yul\":7572:7577   */\n      dup4\n        /* \"#utility.yul\":7568:7582   */\n      add\n        /* \"#utility.yul\":7564:7587   */\n      div\n        /* \"#utility.yul\":7554:7587   */\n      swap1\n      pop\n        /* \"#utility.yul\":7500:7593   */\n      swap2\n      swap1\n      pop\n      jump\t// out\n        /* \"#utility.yul\":7599:7706   */\n    tag_69:\n        /* \"#utility.yul\":7643:7651   */\n      0x00\n        /* \"#utility.yul\":7693:7698   */\n      dup3\n        /* \"#utility.yul\":7687:7691   */\n      dup3\n        /* \"#utility.yul\":7683:7699   */\n      shl\n        /* \"#utility.yul\":7662:7699   */\n      swap1\n      pop\n        /* \"#utility.yul\":7599:7706   */\n      swap3\n      swap2\n      pop\n      pop\n      jump\t// out\n        /* \"#utility.yul\":7712:8105   */\n    tag_70:\n        /* \"#utility.yul\":7781:7787   */\n      0x00\n        /* \"#utility.yul\":7831:7832   */\n      0x08\n        /* \"#utility.yul\":7819:7829   */\n      dup4\n        /* \"#utility.yul\":7815:7833   */\n      mul\n        /* \"#utility.yul\":7854:7951   */\n      tag_166\n        /* \"#utility.yul\":7884:7950   */\n      0xffffffffffffffffffffffffffffffffffffffffffffffffffffffffffffffff\n        /* \"#utility.yul\":7873:7882   */\n      dup3\n        /* \"#utility.yul\":7854:7951   */\n      tag_69\n      jump\t// in\n    tag_166:\n        /* \"#utility.yul\":7972:8011   */\n      tag_167\n        /* \"#utility.yul\":8002:8010   */\n      dup7\n        /* \"#utility.yul\":7991:8000   */\n      dup4\n        /* \"#utility.yul\":7972:8011   */\n      tag_69\n      jump\t// in\n    tag_167:\n        /* \"#utility.yul\":7960:8011   */\n      swap6\n      pop\n        /* \"#utility.yul\":8044:8048   */\n      dup1\n        /* \"#utility.yul\":8040:8049   */\n      not\n        /* \"#utility.yul\":8033:8038   */\n      dup5\n        /* \"#utility.yul\":8029:8050   */\n      and\n        /* \"#utility.yul\":8020:8050   */\n      swap4\n      pop\n        /* \"#utility.yul\":8093:8097   */\n      dup1\n        /* \"#utility.yul\":8083:8091   */\n      dup7\n        /* \"#utility.yul\":8079:8098   */\n      and\n        /* \"#utility.yul\":8072:8077   */\n      dup5\n        /* \"#utility.yul\":8069:8099   */\n      or\n        /* \"#utility.yul\":8059:8099   */\n      swap3\n      pop\n        /* \"#utility.yul\":7788:8105   */\n      pop\n      pop\n        /* \"#utility.yul\":7712:8105   */\n      swap4\n      swap3\n      pop\n      pop\n      pop\n      jump\t// out\n        /* \"#utility.yul\":8111:8171   */\n    tag_71:\n        /* \"#utility.yul\":8139:8142   */\n      0x00\n        /* \"#utility.yul\":8160:8165   */\n      dup2\n        /* \"#utility.yul\":8153:8165   */\n      swap1\n      pop\n        /* \"#utility.yul\":8111:8171   */\n      swap2\n      swap1\n      pop\n      jump\t// out\n        /* \"#utility.yul\":8177:8319   */\n    tag_72:\n        /* \"#utility.yul\":8227:8236   */\n      0x00\n        /* \"#utility.yul\":8260:8313   */\n      tag_170\n        /* \"#utility.yul\":8278:8312   */\n      tag_171\n        /* \"#utility.yul\":8287:8311   */\n      tag_172\n        /* \"#utility.yul\":8305:8310   */\n      dup5\n        /* \"#utility.yul\":8287:8311   */\n      tag_56\n      jump\t// in\n    tag_172:\n        /* \"#utility.yul\":8278:8312   */\n      tag_71\n      jump\t// in\n    tag_171:\n        /* \"#utility.yul\":8260:8313   */\n      tag_56\n      jump\t// in\n    tag_170:\n        /* \"#utility.yul\":8247:8313   */\n      swap1\n      pop\n        /* \"#utility.yul\":8177:8319   */\n      swap2\n      swap1\n      pop\n      jump\t// out\n        /* \"#utility.yul\":8325:8400   */\n    tag_73:\n        /* \"#utility.yul\":8368:8371   */\n      0x00\n        /* \"#utility.yul\":8389:8394   */\n      dup2\n        /* \"#utility.yul\":8382:8394   */\n      swap1\n      pop\n        /* \"#utility.yul\":8325:8400   */\n      swap2\n      swap1\n      pop\n      jump\t// out\n        /* \"#utility.yul\":8406:8675   */\n    tag_74:\n        /* \"#utility.yul\":8516:8555   */\n      tag_175\n        /* \"#utility.yul\":8547:8554   */\n      dup4\n        /* \"#utility.yul\":8516:8555   */\n      tag_72\n      jump\t// in\n    tag_175:\n        /* \"#utility.yul\":8577:8668   */\n      tag_176\n        /* \"#utility.yul\":8626:8667   */\n      tag_177\n        /* \"#utility.yul\":8650:8666   */\n      dup3\n        /* \"#utility.yul\":8626:8667   */\n      tag_73\n      jump\t// in\n    tag_177:\n        /* \"#utility.yul\":8618:8624   */\n      dup5\n        /* \"#utility.yul\":8611:8615   */\n      dup5\n        /* \"#utility.yul\":8605:8616   */\n      sload\n        /* \"#utility.yul\":8577:8668   */\n      tag_70\n      jump\t// in\n    tag_176:\n        /* \"#utility.yul\":8571:8575   */\n      dup3\n        /* \"#utility.yul\":8564:8669   */\n      sstore\n        /* \"#utility.yul\":8482:8675   */\n      pop\n        /* \"#utility.yul\":8406:8675   */\n      pop\n      pop\n      pop\n      jump\t// out\n        /* \"#utility.yul\":8681:8754   */\n    tag_75:\n        /* \"#utility.yul\":8726:8729   */\n      0x00\n        /* \"#utility.yul\":8747:8748   */\n      0x00\n        /* \"#utility.yul\":8740:8748   */\n      swap1\n      pop\n        /* \"#utility.yul\":8681:8754   */\n      swap1\n      jump\t// out\n        /* \"#utility.yul\":8760:8949   */\n    tag_76:\n        /* \"#utility.yul\":8837:8869   */\n      tag_180\n      tag_75\n      jump\t// in\n    tag_180:\n        /* \"#utility.yul\":8878:8943   */\n      tag_181\n        /* \"#utility.yul\":8936:8942   */\n      dup2\n        /* \"#utility.yul\":8928:8934   */\n      dup5\n        /* \"#utility.yul\":8922:8926   */\n      dup5\n        /* \"#utility.yul\":8878:8943   */\n      tag_74\n      jump\t// in\n    tag_181:\n        /* \"#utility.yul\":8813:8949   */\n      pop\n        /* \"#utility.yul\":8760:8949   */\n      pop\n      pop\n      jump\t// out\n        /* \"#utility.yul\":8955:9141   */\n    tag_77:\n        /* \"#utility.yul\":9015:9135   */\n    tag_183:\n        /* \"#utility.yul\":9032:9035   */\n      dup2\n        /* \"#utility.yul\":9025:9030   */\n      dup2\n        /* \"#utility.yul\":9022:9036   */\n      lt\n        /* \"#utility.yul\":9015:9135   */\n      iszero\n      tag_185\n      jumpi\n        /* \"#utility.yul\":9086:9125   */\n      tag_186\n        /* \"#utility.yul\":9123:9124   */\n      0x00\n        /* \"#utility.yul\":9116:9121   */\n      dup3\n        /* \"#utility.yul\":9086:9125   */\n      tag_76\n      jump\t// in\n    tag_186:\n        /* \"#utility.yul\":9059:9060   */\n      0x01\n        /* \"#utility.yul\":9052:9057   */\n      dup2\n        /* \"#utility.yul\":9048:9061   */\n      add\n        /* \"#utility.yul\":9039:9061   */\n      swap1\n      pop\n        /* \"#utility.yul\":9015:9135   */\n      jump(tag_183)\n    tag_185:\n        /* \"#utility.yul\":8955:9141   */\n      pop\n      pop\n      jump\t// out\n        /* \"#utility.yul\":9147:9690   */\n    tag_78:\n        /* \"#utility.yul\":9248:9250   */\n      0x1f\n        /* \"#utility.yul\":9243:9246   */\n      dup3\n        /* \"#utility.yul\":9240:9251   */\n      gt\n        /* \"#utility.yul\":9237:9683   */\n      iszero\n      tag_188\n      jumpi\n        /* \"#utility.yul\":9282:9320   */\n      tag_189\n        /* \"#utility.yul\":9314:9319   */\n      dup2\n        /* \"#utility.yul\":9282:9320   */\n      tag_67\n      jump\t// in\n    tag_189:\n        /* \"#utility.yul\":9366:9395   */\n      tag_190\n        /* \"#utility.yul\":9384:9394   */\n      dup5\n        /* \"#utility.yul\":9366:9395   */\n      tag_68\n      jump\t// in\n    tag_190:\n        /* \"#utility.yul\":9356:9364   */\n      dup2\n        /* \"#utility.yul\":9352:9396   */\n      add\n        /* \"#utility.yul\":9549:9551   */\n      0x20\n        /* \"#utility.yul\":9537:9547   */\n      dup6\n        /* \"#utility.yul\":9534:9552   */\n      lt\n        /* \"#utility.yul\":9531:9580   */\n      iszero\n      tag_191\n      jumpi\n        /* \"#utility.yul\":9570:9578   */\n      dup2\n        /* \"#utility.yul\":9555:9578   */\n      swap1\n      pop\n        /* \"#utility.yul\":9531:9580   */\n    tag_191:\n        /* \"#utility.yul\":9593:9673   */\n      tag_192\n        /* \"#utility.yul\":9649:9671   */\n      tag_193\n        /* \"#utility.yul\":9667:9670   */\n      dup6\n        /* \"#utility.yul\":9649:9671   */\n      tag_68\n      jump\t// in\n    tag_193:\n        /* \"#utility.yul\":9639:9647   */\n      dup4\n        /* \"#utility.yul\":9635:9672   */\n      add\n        /* \"#utility.yul\":9622:9633   */\n      dup3\n        /* \"#utility.yul\":9593:9673   */\n      tag_77\n      jump\t// in\n    tag_192:\n        /* \"#utility.yul\":9252:9683   */\n      pop\n      pop\n        /* \"#utility.yul\":9237:9683   */\n    tag_188:\n        /* \"#utility.yul\":9147:9690   */\n      pop\n      pop\n      pop\n      jump\t// out\n        /* \"#utility.yul\":9696:9813   */\n    tag_79:\n        /* \"#utility.yul\":9750:9758   */\n      0x00\n        /* \"#utility.yul\":9800:9805   */\n      dup3\n        /* \"#utility.yul\":9794:9798   */\n      dup3\n        /* \"#utility.yul\":9790:9806   */\n      shr\n        /* \"#utility.yul\":9769:9806   */\n      swap1\n      pop\n        /* \"#utility.yul\":9696:9813   */\n      swap3\n      swap2\n      pop\n      pop\n      jump\t// out\n        /* \"#utility.yul\":9819:9988   */\n    tag_80:\n        /* \"#utility.yul\":9863:9869   */\n      0x00\n        /* \"#utility.yul\":9896:9947   */\n      tag_196\n        /* \"#utility.yul\":9944:9945   */\n      0x00\n        /* \"#utility.yul\":9940:9946   */\n      not\n        /* \"#utility.yul\":9932:9937   */\n      dup5\n        /* \"#utility.yul\":9929:9930   */\n      0x08\n        /* \"#utility.yul\":9925:9938   */\n      mul\n        /* \"#utility.yul\":9896:9947   */\n      tag_79\n      jump\t// in\n    tag_196:\n        /* \"#utility.yul\":9892:9948   */\n      not\n        /* \"#utility.yul\":9977:9981   */\n      dup1\n        /* \"#utility.yul\":9971:9975   */\n      dup4\n        /* \"#utility.yul\":9967:9982   */\n      and\n        /* \"#utility.yul\":9957:9982   */\n      swap2\n      pop\n        /* \"#utility.yul\":9870:9988   */\n      pop\n        /* \"#utility.yul\":9819:9988   */\n      swap3\n      swap2\n      pop\n      pop\n      jump\t// out\n        /* \"#utility.yul\":9993:10288   */\n    tag_81:\n        /* \"#utility.yul\":10069:10073   */\n      0x00\n        /* \"#utility.yul\":10215:10244   */\n      tag_198\n        /* \"#utility.yul\":10240:10243   */\n      dup4\n        /* \"#utility.yul\":10234:10238   */\n      dup4\n        /* \"#utility.yul\":10215:10244   */\n      tag_80\n      jump\t// in\n    tag_198:\n        /* \"#utility.yul\":10207:10244   */\n      swap2\n      pop\n        /* \"#utility.yul\":10277:10280   */\n      dup3\n        /* \"#utility.yul\":10274:10275   */\n      0x02\n        /* \"#utility.yul\":10270:10281   */\n      mul\n        /* \"#utility.yul\":10264:10268   */\n      dup3\n        /* \"#utility.yul\":10261:10282   */\n      or\n        /* \"#utility.yul\":10253:10282   */\n      swap1\n      pop\n        /* \"#utility.yul\":9993:10288   */\n      swap3\n      swap2\n      pop\n      pop\n      jump\t// out\n        /* \"#utility.yul\":10293:11688   */\n    tag_41:\n        /* \"#utility.yul\":10410:10447   */\n      tag_200\n        /* \"#utility.yul\":10443:10446   */\n      dup3\n        /* \"#utility.yul\":10410:10447   */\n      tag_60\n      jump\t// in\n    tag_200:\n        /* \"#utility.yul\":10512:10530   */\n      0xffffffffffffffff\n        /* \"#utility.yul\":10504:10510   */\n      dup2\n        /* \"#utility.yul\":10501:10531   */\n      gt\n        /* \"#utility.yul\":10498:10554   */\n      iszero\n      tag_201\n      jumpi\n        /* \"#utility.yul\":10534:10552   */\n      tag_202\n      tag_49\n      jump\t// in\n    tag_202:\n        /* \"#utility.yul\":10498:10554   */\n    tag_201:\n        /* \"#utility.yul\":10578:10616   */\n      tag_203\n        /* \"#utility.yul\":10610:10614   */\n      dup3\n        /* \"#utility.yul\":10604:10615   */\n      sload\n        /* \"#utility.yul\":10578:10616   */\n      tag_33\n      jump\t// in\n    tag_203:\n        /* \"#utility.yul\":10663:10730   */\n      tag_204\n        /* \"#utility.yul\":10723:10729   */\n      dup3\n        /* \"#utility.yul\":10715:10721   */\n      dup3\n        /* \"#utility.yul\":10709:10713   */\n      dup6\n        /* \"#utility.yul\":10663:10730   */\n      tag_78\n      jump\t// in\n    tag_204:\n        /* \"#utility.yul\":10757:10758   */\n      0x00\n        /* \"#utility.yul\":10781:10785   */\n      0x20\n        /* \"#utility.yul\":10768:10785   */\n      swap1\n      pop\n        /* \"#utility.yul\":10813:10815   */\n      0x1f\n        /* \"#utility.yul\":10805:10811   */\n      dup4\n        /* \"#utility.yul\":10802:10816   */\n      gt\n        /* \"#utility.yul\":10830:10831   */\n      0x01\n        /* \"#utility.yul\":10825:11443   */\n      dup2\n      eq\n      tag_206\n      jumpi\n        /* \"#utility.yul\":11487:11488   */\n      0x00\n        /* \"#utility.yul\":11504:11510   */\n      dup5\n        /* \"#utility.yul\":11501:11578   */\n      iszero\n      tag_207\n      jumpi\n        /* \"#utility.yul\":11553:11562   */\n      dup3\n        /* \"#utility.yul\":11548:11551   */\n      dup8\n        /* \"#utility.yul\":11544:11563   */\n      add\n        /* \"#utility.yul\":11538:11564   */\n      mload\n        /* \"#utility.yul\":11529:11564   */\n      swap1\n      pop\n        /* \"#utility.yul\":11501:11578   */\n    tag_207:\n        /* \"#utility.yul\":11604:11671   */\n      tag_208\n        /* \"#utility.yul\":11664:11670   */\n      dup6\n        /* \"#utility.yul\":11657:11662   */\n      dup3\n        /* \"#utility.yul\":11604:11671   */\n      tag_81\n      jump\t// in\n    tag_208:\n        /* \"#utility.yul\":11598:11602   */\n      dup7\n        /* \"#utility.yul\":11591:11672   */\n      sstore\n        /* \"#utility.yul\":11460:11682   */\n      pop\n        /* \"#utility.yul\":10795:11682   */\n      jump(tag_205)\n        /* \"#utility.yul\":10825:11443   */\n    tag_206:\n        /* \"#utility.yul\":10877:10881   */\n      0x1f\n        /* \"#utility.yul\":10873:10882   */\n      not\n        /* \"#utility.yul\":10865:10871   */\n      dup5\n        /* \"#utility.yul\":10861:10883   */\n      and\n        /* \"#utility.yul\":10911:10948   */\n      tag_209\n        /* \"#utility.yul\":10943:10947   */\n      dup7\n        /* \"#utility.yul\":10911:10948   */\n      tag_67\n      jump\t// in\n    tag_209:\n        /* \"#utility.yul\":10970:10971   */\n      0x00\n        /* \"#utility.yul\":10984:11192   */\n    tag_210:\n        /* \"#utility.yul\":10998:11005   */\n      dup3\n        /* \"#utility.yul\":10995:10996   */\n      dup2\n        /* \"#utility.yul\":10992:11006   */\n      lt\n        /* \"#utility.yul\":10984:11192   */\n      iszero\n      tag_212\n      jumpi\n        /* \"#utility.yul\":11077:11086   */\n      dup5\n        /* \"#utility.yul\":11072:11075   */\n      dup10\n        /* \"#utility.yul\":11068:11087   */\n      add\n        /* \"#utility.yul\":11062:11088   */\n      mload\n        /* \"#utility.yul\":11054:11060   */\n      dup3\n        /* \"#utility.yul\":11047:11089   */\n      sstore\n        /* \"#utility.yul\":11128:11129   */\n      0x01\n        /* \"#utility.yul\":11120:11126   */\n      dup3\n        /* \"#utility.yul\":11116:11130   */\n      add\n        /* \"#utility.yul\":11106:11130   */\n      swap2\n      pop\n        /* \"#utility.yul\":11175:11177   */\n      0x20\n        /* \"#utility.yul\":11164:11173   */\n      dup6\n        /* \"#utility.yul\":11160:11178   */\n      add\n        /* \"#utility.yul\":11147:11178   */\n      swap5\n      pop\n        /* \"#utility.yul\":11021:11025   */\n      0x20\n        /* \"#utility.yul\":11018:11019   */\n      dup2\n        /* \"#utility.yul\":11014:11026   */\n      add\n        /* \"#utility.yul\":11009:11026   */\n      swap1\n      pop\n        /* \"#utility.yul\":10984:11192   */\n      jump(tag_210)\n    tag_212:\n        /* \"#utility.yul\":11220:11226   */\n      dup7\n        /* \"#utility.yul\":11211:11218   */\n      dup4\n        /* \"#utility.yul\":11208:11227   */\n      lt\n        /* \"#utility.yul\":11205:11384   */\n      iszero\n      tag_213\n      jumpi\n        /* \"#utility.yul\":11278:11287   */\n      dup5\n        /* \"#utility.yul\":11273:11276   */\n      dup10\n        /* \"#utility.yul\":11269:11288   */\n      add\n        /* \"#utility.yul\":11263:11289   */\n      mload\n        /* \"#utility.yul\":11321:11369   */\n      tag_214\n        /* \"#utility.yul\":11363:11367   */\n      0x1f\n        /* \"#utility.yul\":11355:11361   */\n      dup10\n        /* \"#utility.yul\":11351:11368   */\n      and\n        /* \"#utility.yul\":11340:11349   */\n      dup3\n        /* \"#utility.yul\":11321:11369   */\n      tag_80\n      jump\t// in\n    tag_214:\n        /* \"#utility.yul\":11313:11319   */\n      dup4\n        /* \"#utility.yul\":11306:11370   */\n      sstore\n        /* \"#utility.yul\":11228:11384   */\n      pop\n        /* \"#utility.yul\":11205:11384   */\n    tag_213:\n        /* \"#utility.yul\":11430:11431   */\n      0x01\n        /* \"#utility.yul\":11426:11427   */\n      0x02\n        /* \"#utility.yul\":11418:11424   */\n      dup9\n        /* \"#utility.yul\":11414:11428   */\n      mul\n        /* \"#utility.yul\":11410:11432   */\n      add\n        /* \"#utility.yul\":11404:11408   */\n      dup9\n        /* \"#utility.yul\":11397:11433   */\n      sstore\n        /* \"#utility.yul\":10832:11443   */\n      pop\n      pop\n      pop\n        /* \"#utility.yul\":10795:11682   */\n    tag_205:\n      pop\n        /* \"#utility.yul\":10385:11688   */\n      pop\n      pop\n      pop\n        /* \"#utility.yul\":10293:11688   */\n      pop\n      pop\n      jump\t// out\n\n    auxdata: 0xa2646970667358221220ecc3db214f958cc1343a1ef92eccb970726220658d4b4bd84acc8ca0c4211bb764736f6c634300081c0033\n}\n",
				"bytecode": {
					"linkReferences": {},
					"object": "6080604052348015600e575f5ffd5b506108de8061001c5f395ff3fe608060405234801561000f575f5ffd5b506004361061004a575f3560e01c80630d9843d41461004e57806318b50f2d1461007e5780632ebce631146100ae57806335d0aac1146100df575b5f5ffd5b610068600480360381019061006391906103d7565b6100fb565b6040516100759190610436565b60405180910390f35b610098600480360381019061009391906103d7565b610121565b6040516100a59190610436565b60405180910390f35b6100c860048036038101906100c39190610479565b61014d565b6040516100d6929190610504565b60405180910390f35b6100f960048036038101906100f49190610532565b610202565b005b5f5f8260405161010b91906105c6565b9081526020016040518091039020549050919050565b5f818051602081018201805184825260208301602085012081835280955050505050505f915090505481565b6001818154811061015c575f80fd5b905f5260205f2090600202015f91509050805f01805461017b90610609565b80601f01602080910402602001604051908101604052809291908181526020018280546101a790610609565b80156101f25780601f106101c9576101008083540402835291602001916101f2565b820191905f5260205f20905b8154815290600101906020018083116101d557829003601f168201915b5050505050908060010154905082565b5f6040518060400160405280848152602001838152509050600181908060018154018082558091505060019003905f5260205f2090600202015f909190919091505f820151815f01908161025691906107d9565b50602082015181600101555050815f8460405161027391906105c6565b908152602001604051809103902081905550505050565b5f604051905090565b5f5ffd5b5f5ffd5b5f5ffd5b5f5ffd5b5f601f19601f8301169050919050565b7f4e487b71000000000000000000000000000000000000000000000000000000005f52604160045260245ffd5b6102e9826102a3565b810181811067ffffffffffffffff82111715610308576103076102b3565b5b80604052505050565b5f61031a61028a565b905061032682826102e0565b919050565b5f67ffffffffffffffff821115610345576103446102b3565b5b61034e826102a3565b9050602081019050919050565b828183375f83830152505050565b5f61037b6103768461032b565b610311565b9050828152602081018484840111156103975761039661029f565b5b6103a284828561035b565b509392505050565b5f82601f8301126103be576103bd61029b565b5b81356103ce848260208601610369565b91505092915050565b5f602082840312156103ec576103eb610293565b5b5f82013567ffffffffffffffff81111561040957610408610297565b5b610415848285016103aa565b91505092915050565b5f819050919050565b6104308161041e565b82525050565b5f6020820190506104495f830184610427565b92915050565b6104588161041e565b8114610462575f5ffd5b50565b5f813590506104738161044f565b92915050565b5f6020828403121561048e5761048d610293565b5b5f61049b84828501610465565b91505092915050565b5f81519050919050565b5f82825260208201905092915050565b8281835e5f83830152505050565b5f6104d6826104a4565b6104e081856104ae565b93506104f08185602086016104be565b6104f9816102a3565b840191505092915050565b5f6040820190508181035f83015261051c81856104cc565b905061052b6020830184610427565b9392505050565b5f5f6040838503121561054857610547610293565b5b5f83013567ffffffffffffffff81111561056557610564610297565b5b610571858286016103aa565b925050602061058285828601610465565b9150509250929050565b5f81905092915050565b5f6105a0826104a4565b6105aa818561058c565b93506105ba8185602086016104be565b80840191505092915050565b5f6105d18284610596565b915081905092915050565b7f4e487b71000000000000000000000000000000000000000000000000000000005f52602260045260245ffd5b5f600282049050600182168061062057607f821691505b602082108103610633576106326105dc565b5b50919050565b5f819050815f5260205f209050919050565b5f6020601f8301049050919050565b5f82821b905092915050565b5f600883026106957fffffffffffffffffffffffffffffffffffffffffffffffffffffffffffffffff8261065a565b61069f868361065a565b95508019841693508086168417925050509392505050565b5f819050919050565b5f6106da6106d56106d08461041e565b6106b7565b61041e565b9050919050565b5f819050919050565b6106f3836106c0565b6107076106ff826106e1565b848454610666565b825550505050565b5f5f905090565b61071e61070f565b6107298184846106ea565b505050565b5b8181101561074c576107415f82610716565b60018101905061072f565b5050565b601f8211156107915761076281610639565b61076b8461064b565b8101602085101561077a578190505b61078e6107868561064b565b83018261072e565b50505b505050565b5f82821c905092915050565b5f6107b15f1984600802610796565b1980831691505092915050565b5f6107c983836107a2565b9150826002028217905092915050565b6107e2826104a4565b67ffffffffffffffff8111156107fb576107fa6102b3565b5b6108058254610609565b610810828285610750565b5f60209050601f831160018114610841575f841561082f578287015190505b61083985826107be565b8655506108a0565b601f19841661084f86610639565b5f5b8281101561087657848901518255600182019150602085019450602081019050610851565b86831015610893578489015161088f601f8916826107a2565b8355505b6001600288020188555050505b50505050505056fea2646970667358221220ecc3db214f958cc1343a1ef92eccb970726220658d4b4bd84acc8ca0c4211bb764736f6c634300081c0033",
					"opcodes": "PUSH1 0x80 PUSH1 0x40 MSTORE CALLVALUE DUP1 ISZERO PUSH1 0xE JUMPI PUSH0 PUSH0 REVERT JUMPDEST POP PUSH2 0x8DE DUP1 PUSH2 0x1C PUSH0 CODECOPY PUSH0 RETURN INVALID PUSH1 0x80 PUSH1 0x40 MSTORE CALLVALUE DUP1 ISZERO PUSH2 0xF JUMPI PUSH0 PUSH0 REVERT JUMPDEST POP PUSH1 0x4 CALLDATASIZE LT PUSH2 0x4A JUMPI PUSH0 CALLDATALOAD PUSH1 0xE0 SHR DUP1 PUSH4 0xD9843D4 EQ PUSH2 0x4E JUMPI DUP1 PUSH4 0x18B50F2D EQ PUSH2 0x7E JUMPI DUP1 PUSH4 0x2EBCE631 EQ PUSH2 0xAE JUMPI DUP1 PUSH4 0x35D0AAC1 EQ PUSH2 0xDF JUMPI JUMPDEST PUSH0 PUSH0 REVERT JUMPDEST PUSH2 0x68 PUSH1 0x4 DUP1 CALLDATASIZE SUB DUP2 ADD SWAP1 PUSH2 0x63 SWAP2 SWAP1 PUSH2 0x3D7 JUMP JUMPDEST PUSH2 0xFB JUMP JUMPDEST PUSH1 0x40 MLOAD PUSH2 0x75 SWAP2 SWAP1 PUSH2 0x436 JUMP JUMPDEST PUSH1 0x40 MLOAD DUP1 SWAP2 SUB SWAP1 RETURN JUMPDEST PUSH2 0x98 PUSH1 0x4 DUP1 CALLDATASIZE SUB DUP2 ADD SWAP1 PUSH2 0x93 SWAP2 SWAP1 PUSH2 0x3D7 JUMP JUMPDEST PUSH2 0x121 JUMP JUMPDEST PUSH1 0x40 MLOAD PUSH2 0xA5 SWAP2 SWAP1 PUSH2 0x436 JUMP JUMPDEST PUSH1 0x40 MLOAD DUP1 SWAP2 SUB SWAP1 RETURN JUMPDEST PUSH2 0xC8 PUSH1 0x4 DUP1 CALLDATASIZE SUB DUP2 ADD SWAP1 PUSH2 0xC3 SWAP2 SWAP1 PUSH2 0x479 JUMP JUMPDEST PUSH2 0x14D JUMP JUMPDEST PUSH1 0x40 MLOAD PUSH2 0xD6 SWAP3 SWAP2 SWAP1 PUSH2 0x504 JUMP JUMPDEST PUSH1 0x40 MLOAD DUP1 SWAP2 SUB SWAP1 RETURN JUMPDEST PUSH2 0xF9 PUSH1 0x4 DUP1 CALLDATASIZE SUB DUP2 ADD SWAP1 PUSH2 0xF4 SWAP2 SWAP1 PUSH2 0x532 JUMP JUMPDEST PUSH2 0x202 JUMP JUMPDEST STOP JUMPDEST PUSH0 PUSH0 DUP3 PUSH1 0x40 MLOAD PUSH2 0x10B SWAP2 SWAP1 PUSH2 0x5C6 JUMP JUMPDEST SWAP1 DUP2 MSTORE PUSH1 0x20 ADD PUSH1 0x40 MLOAD DUP1 SWAP2 SUB SWAP1 KECCAK256 SLOAD SWAP1 POP SWAP2 SWAP1 POP JUMP JUMPDEST PUSH0 DUP2 DUP1 MLOAD PUSH1 0x20 DUP2 ADD DUP3 ADD DUP1 MLOAD DUP5 DUP3 MSTORE PUSH1 0x20 DUP4 ADD PUSH1 0x20 DUP6 ADD KECCAK256 DUP2 DUP4 MSTORE DUP1 SWAP6 POP POP POP POP POP POP PUSH0 SWAP2 POP SWAP1 POP SLOAD DUP2 JUMP JUMPDEST PUSH1 0x1 DUP2 DUP2 SLOAD DUP2 LT PUSH2 0x15C JUMPI PUSH0 DUP1 REVERT JUMPDEST SWAP1 PUSH0 MSTORE PUSH1 0x20 PUSH0 KECCAK256 SWAP1 PUSH1 0x2 MUL ADD PUSH0 SWAP2 POP SWAP1 POP DUP1 PUSH0 ADD DUP1 SLOAD PUSH2 0x17B SWAP1 PUSH2 0x609 JUMP JUMPDEST DUP1 PUSH1 0x1F ADD PUSH1 0x20 DUP1 SWAP2 DIV MUL PUSH1 0x20 ADD PUSH1 0x40 MLOAD SWAP1 DUP2 ADD PUSH1 0x40 MSTORE DUP1 SWAP3 SWAP2 SWAP1 DUP2 DUP2 MSTORE PUSH1 0x20 ADD DUP3 DUP1 SLOAD PUSH2 0x1A7 SWAP1 PUSH2 0x609 JUMP JUMPDEST DUP1 ISZERO PUSH2 0x1F2 JUMPI DUP1 PUSH1 0x1F LT PUSH2 0x1C9 JUMPI PUSH2 0x100 DUP1 DUP4 SLOAD DIV MUL DUP4 MSTORE SWAP2 PUSH1 0x20 ADD SWAP2 PUSH2 0x1F2 JUMP JUMPDEST DUP3 ADD SWAP2 SWAP1 PUSH0 MSTORE PUSH1 0x20 PUSH0 KECCAK256 SWAP1 JUMPDEST DUP2 SLOAD DUP2 MSTORE SWAP1 PUSH1 0x1 ADD SWAP1 PUSH1 0x20 ADD DUP1 DUP4 GT PUSH2 0x1D5 JUMPI DUP3 SWAP1 SUB PUSH1 0x1F AND DUP3 ADD SWAP2 JUMPDEST POP POP POP POP POP SWAP1 DUP1 PUSH1 0x1 ADD SLOAD SWAP1 POP DUP3 JUMP JUMPDEST PUSH0 PUSH1 0x40 MLOAD DUP1 PUSH1 0x40 ADD PUSH1 0x40 MSTORE DUP1 DUP5 DUP2 MSTORE PUSH1 0x20 ADD DUP4 DUP2 MSTORE POP SWAP1 POP PUSH1 0x1 DUP2 SWAP1 DUP1 PUSH1 0x1 DUP2 SLOAD ADD DUP1 DUP3 SSTORE DUP1 SWAP2 POP POP PUSH1 0x1 SWAP1 SUB SWAP1 PUSH0 MSTORE PUSH1 0x20 PUSH0 KECCAK256 SWAP1 PUSH1 0x2 MUL ADD PUSH0 SWAP1 SWAP2 SWAP1 SWAP2 SWAP1 SWAP2 POP PUSH0 DUP3 ADD MLOAD DUP2 PUSH0 ADD SWAP1 DUP2 PUSH2 0x256 SWAP2 SWAP1 PUSH2 0x7D9 JUMP JUMPDEST POP PUSH1 0x20 DUP3 ADD MLOAD DUP2 PUSH1 0x1 ADD SSTORE POP POP DUP2 PUSH0 DUP5 PUSH1 0x40 MLOAD PUSH2 0x273 SWAP2 SWAP1 PUSH2 0x5C6 JUMP JUMPDEST SWAP1 DUP2 MSTORE PUSH1 0x20 ADD PUSH1 0x40 MLOAD DUP1 SWAP2 SUB SWAP1 KECCAK256 DUP2 SWAP1 SSTORE POP POP POP POP JUMP JUMPDEST PUSH0 PUSH1 0x40 MLOAD SWAP1 POP SWAP1 JUMP JUMPDEST PUSH0 PUSH0 REVERT JUMPDEST PUSH0 PUSH0 REVERT JUMPDEST PUSH0 PUSH0 REVERT JUMPDEST PUSH0 PUSH0 REVERT JUMPDEST PUSH0 PUSH1 0x1F NOT PUSH1 0x1F DUP4 ADD AND SWAP1 POP SWAP2 SWAP1 POP JUMP JUMPDEST PUSH32 0x4E487B7100000000000000000000000000000000000000000000000000000000 PUSH0 MSTORE PUSH1 0x41 PUSH1 0x4 MSTORE PUSH1 0x24 PUSH0 REVERT JUMPDEST PUSH2 0x2E9 DUP3 PUSH2 0x2A3 JUMP JUMPDEST DUP2 ADD DUP2 DUP2 LT PUSH8 0xFFFFFFFFFFFFFFFF DUP3 GT OR ISZERO PUSH2 0x308 JUMPI PUSH2 0x307 PUSH2 0x2B3 JUMP JUMPDEST JUMPDEST DUP1 PUSH1 0x40 MSTORE POP POP POP JUMP JUMPDEST PUSH0 PUSH2 0x31A PUSH2 0x28A JUMP JUMPDEST SWAP1 POP PUSH2 0x326 DUP3 DUP3 PUSH2 0x2E0 JUMP JUMPDEST SWAP2 SWAP1 POP JUMP JUMPDEST PUSH0 PUSH8 0xFFFFFFFFFFFFFFFF DUP3 GT ISZERO PUSH2 0x345 JUMPI PUSH2 0x344 PUSH2 0x2B3 JUMP JUMPDEST JUMPDEST PUSH2 0x34E DUP3 PUSH2 0x2A3 JUMP JUMPDEST SWAP1 POP PUSH1 0x20 DUP2 ADD SWAP1 POP SWAP2 SWAP1 POP JUMP JUMPDEST DUP3 DUP2 DUP4 CALLDATACOPY PUSH0 DUP4 DUP4 ADD MSTORE POP POP POP JUMP JUMPDEST PUSH0 PUSH2 0x37B PUSH2 0x376 DUP5 PUSH2 0x32B JUMP JUMPDEST PUSH2 0x311 JUMP JUMPDEST SWAP1 POP DUP3 DUP2 MSTORE PUSH1 0x20 DUP2 ADD DUP5 DUP5 DUP5 ADD GT ISZERO PUSH2 0x397 JUMPI PUSH2 0x396 PUSH2 0x29F JUMP JUMPDEST JUMPDEST PUSH2 0x3A2 DUP5 DUP3 DUP6 PUSH2 0x35B JUMP JUMPDEST POP SWAP4 SWAP3 POP POP POP JUMP JUMPDEST PUSH0 DUP3 PUSH1 0x1F DUP4 ADD SLT PUSH2 0x3BE JUMPI PUSH2 0x3BD PUSH2 0x29B JUMP JUMPDEST JUMPDEST DUP2 CALLDATALOAD PUSH2 0x3CE DUP5 DUP3 PUSH1 0x20 DUP7 ADD PUSH2 0x369 JUMP JUMPDEST SWAP2 POP POP SWAP3 SWAP2 POP POP JUMP JUMPDEST PUSH0 PUSH1 0x20 DUP3 DUP5 SUB SLT ISZERO PUSH2 0x3EC JUMPI PUSH2 0x3EB PUSH2 0x293 JUMP JUMPDEST JUMPDEST PUSH0 DUP3 ADD CALLDATALOAD PUSH8 0xFFFFFFFFFFFFFFFF DUP2 GT ISZERO PUSH2 0x409 JUMPI PUSH2 0x408 PUSH2 0x297 JUMP JUMPDEST JUMPDEST PUSH2 0x415 DUP5 DUP3 DUP6 ADD PUSH2 0x3AA JUMP JUMPDEST SWAP2 POP POP SWAP3 SWAP2 POP POP JUMP JUMPDEST PUSH0 DUP2 SWAP1 POP SWAP2 SWAP1 POP JUMP JUMPDEST PUSH2 0x430 DUP2 PUSH2 0x41E JUMP JUMPDEST DUP3 MSTORE POP POP JUMP JUMPDEST PUSH0 PUSH1 0x20 DUP3 ADD SWAP1 POP PUSH2 0x449 PUSH0 DUP4 ADD DUP5 PUSH2 0x427 JUMP JUMPDEST SWAP3 SWAP2 POP POP JUMP JUMPDEST PUSH2 0x458 DUP2 PUSH2 0x41E JUMP JUMPDEST DUP2 EQ PUSH2 0x462 JUMPI PUSH0 PUSH0 REVERT JUMPDEST POP JUMP JUMPDEST PUSH0 DUP2 CALLDATALOAD SWAP1 POP PUSH2 0x473 DUP2 PUSH2 0x44F JUMP JUMPDEST SWAP3 SWAP2 POP POP JUMP JUMPDEST PUSH0 PUSH1 0x20 DUP3 DUP5 SUB SLT ISZERO PUSH2 0x48E JUMPI PUSH2 0x48D PUSH2 0x293 JUMP JUMPDEST JUMPDEST PUSH0 PUSH2 0x49B DUP5 DUP3 DUP6 ADD PUSH2 0x465 JUMP JUMPDEST SWAP2 POP POP SWAP3 SWAP2 POP POP JUMP JUMPDEST PUSH0 DUP2 MLOAD SWAP1 POP SWAP2 SWAP1 POP JUMP JUMPDEST PUSH0 DUP3 DUP3 MSTORE PUSH1 0x20 DUP3 ADD SWAP1 POP SWAP3 SWAP2 POP POP JUMP JUMPDEST DUP3 DUP2 DUP4 MCOPY PUSH0 DUP4 DUP4 ADD MSTORE POP POP POP JUMP JUMPDEST PUSH0 PUSH2 0x4D6 DUP3 PUSH2 0x4A4 JUMP JUMPDEST PUSH2 0x4E0 DUP2 DUP6 PUSH2 0x4AE JUMP JUMPDEST SWAP4 POP PUSH2 0x4F0 DUP2 DUP6 PUSH1 0x20 DUP7 ADD PUSH2 0x4BE JUMP JUMPDEST PUSH2 0x4F9 DUP2 PUSH2 0x2A3 JUMP JUMPDEST DUP5 ADD SWAP2 POP POP SWAP3 SWAP2 POP POP JUMP JUMPDEST PUSH0 PUSH1 0x40 DUP3 ADD SWAP1 POP DUP2 DUP2 SUB PUSH0 DUP4 ADD MSTORE PUSH2 0x51C DUP2 DUP6 PUSH2 0x4CC JUMP JUMPDEST SWAP1 POP PUSH2 0x52B PUSH1 0x20 DUP4 ADD DUP5 PUSH2 0x427 JUMP JUMPDEST SWAP4 SWAP3 POP POP POP JUMP JUMPDEST PUSH0 PUSH0 PUSH1 0x40 DUP4 DUP6 SUB SLT ISZERO PUSH2 0x548 JUMPI PUSH2 0x547 PUSH2 0x293 JUMP JUMPDEST JUMPDEST PUSH0 DUP4 ADD CALLDATALOAD PUSH8 0xFFFFFFFFFFFFFFFF DUP2 GT ISZERO PUSH2 0x565 JUMPI PUSH2 0x564 PUSH2 0x297 JUMP JUMPDEST JUMPDEST PUSH2 0x571 DUP6 DUP3 DUP7 ADD PUSH2 0x3AA JUMP JUMPDEST SWAP3 POP POP PUSH1 0x20 PUSH2 0x582 DUP6 DUP3 DUP7 ADD PUSH2 0x465 JUMP JUMPDEST SWAP2 POP POP SWAP3 POP SWAP3 SWAP1 POP JUMP JUMPDEST PUSH0 DUP2 SWAP1 POP SWAP3 SWAP2 POP POP JUMP JUMPDEST PUSH0 PUSH2 0x5A0 DUP3 PUSH2 0x4A4 JUMP JUMPDEST PUSH2 0x5AA DUP2 DUP6 PUSH2 0x58C JUMP JUMPDEST SWAP4 POP PUSH2 0x5BA DUP2 DUP6 PUSH1 0x20 DUP7 ADD PUSH2 0x4BE JUMP JUMPDEST DUP1 DUP5 ADD SWAP2 POP POP SWAP3 SWAP2 POP POP JUMP JUMPDEST PUSH0 PUSH2 0x5D1 DUP3 DUP5 PUSH2 0x596 JUMP JUMPDEST SWAP2 POP DUP2 SWAP1 POP SWAP3 SWAP2 POP POP JUMP JUMPDEST PUSH32 0x4E487B7100000000000000000000000000000000000000000000000000000000 PUSH0 MSTORE PUSH1 0x22 PUSH1 0x4 MSTORE PUSH1 0x24 PUSH0 REVERT JUMPDEST PUSH0 PUSH1 0x2 DUP3 DIV SWAP1 POP PUSH1 0x1 DUP3 AND DUP1 PUSH2 0x620 JUMPI PUSH1 0x7F DUP3 AND SWAP2 POP JUMPDEST PUSH1 0x20 DUP3 LT DUP2 SUB PUSH2 0x633 JUMPI PUSH2 0x632 PUSH2 0x5DC JUMP JUMPDEST JUMPDEST POP SWAP2 SWAP1 POP JUMP JUMPDEST PUSH0 DUP2 SWAP1 POP DUP2 PUSH0 MSTORE PUSH1 0x20 PUSH0 KECCAK256 SWAP1 POP SWAP2 SWAP1 POP JUMP JUMPDEST PUSH0 PUSH1 0x20 PUSH1 0x1F DUP4 ADD DIV SWAP1 POP SWAP2 SWAP1 POP JUMP JUMPDEST PUSH0 DUP3 DUP3 SHL SWAP1 POP SWAP3 SWAP2 POP POP JUMP JUMPDEST PUSH0 PUSH1 0x8 DUP4 MUL PUSH2 0x695 PUSH32 0xFFFFFFFFFFFFFFFFFFFFFFFFFFFFFFFFFFFFFFFFFFFFFFFFFFFFFFFFFFFFFFFF DUP3 PUSH2 0x65A JUMP JUMPDEST PUSH2 0x69F DUP7 DUP4 PUSH2 0x65A JUMP JUMPDEST SWAP6 POP DUP1 NOT DUP5 AND SWAP4 POP DUP1 DUP7 AND DUP5 OR SWAP3 POP POP POP SWAP4 SWAP3 POP POP POP JUMP JUMPDEST PUSH0 DUP2 SWAP1 POP SWAP2 SWAP1 POP JUMP JUMPDEST PUSH0 PUSH2 0x6DA PUSH2 0x6D5 PUSH2 0x6D0 DUP5 PUSH2 0x41E JUMP JUMPDEST PUSH2 0x6B7 JUMP JUMPDEST PUSH2 0x41E JUMP JUMPDEST SWAP1 POP SWAP2 SWAP1 POP JUMP JUMPDEST PUSH0 DUP2 SWAP1 POP SWAP2 SWAP1 POP JUMP JUMPDEST PUSH2 0x6F3 DUP4 PUSH2 0x6C0 JUMP JUMPDEST PUSH2 0x707 PUSH2 0x6FF DUP3 PUSH2 0x6E1 JUMP JUMPDEST DUP5 DUP5 SLOAD PUSH2 0x666 JUMP JUMPDEST DUP3 SSTORE POP POP POP POP JUMP JUMPDEST PUSH0 PUSH0 SWAP1 POP SWAP1 JUMP JUMPDEST PUSH2 0x71E PUSH2 0x70F JUMP JUMPDEST PUSH2 0x729 DUP2 DUP5 DUP5 PUSH2 0x6EA JUMP JUMPDEST POP POP POP JUMP JUMPDEST JUMPDEST DUP2 DUP2 LT ISZERO PUSH2 0x74C JUMPI PUSH2 0x741 PUSH0 DUP3 PUSH2 0x716 JUMP JUMPDEST PUSH1 0x1 DUP2 ADD SWAP1 POP PUSH2 0x72F JUMP JUMPDEST POP POP JUMP JUMPDEST PUSH1 0x1F DUP3 GT ISZERO PUSH2 0x791 JUMPI PUSH2 0x762 DUP2 PUSH2 0x639 JUMP JUMPDEST PUSH2 0x76B DUP5 PUSH2 0x64B JUMP JUMPDEST DUP2 ADD PUSH1 0x20 DUP6 LT ISZERO PUSH2 0x77A JUMPI DUP2 SWAP1 POP JUMPDEST PUSH2 0x78E PUSH2 0x786 DUP6 PUSH2 0x64B JUMP JUMPDEST DUP4 ADD DUP3 PUSH2 0x72E JUMP JUMPDEST POP POP JUMPDEST POP POP POP JUMP JUMPDEST PUSH0 DUP3 DUP3 SHR SWAP1 POP SWAP3 SWAP2 POP POP JUMP JUMPDEST PUSH0 PUSH2 0x7B1 PUSH0 NOT DUP5 PUSH1 0x8 MUL PUSH2 0x796 JUMP JUMPDEST NOT DUP1 DUP4 AND SWAP2 POP POP SWAP3 SWAP2 POP POP JUMP JUMPDEST PUSH0 PUSH2 0x7C9 DUP4 DUP4 PUSH2 0x7A2 JUMP JUMPDEST SWAP2 POP DUP3 PUSH1 0x2 MUL DUP3 OR SWAP1 POP SWAP3 SWAP2 POP POP JUMP JUMPDEST PUSH2 0x7E2 DUP3 PUSH2 0x4A4 JUMP JUMPDEST PUSH8 0xFFFFFFFFFFFFFFFF DUP2 GT ISZERO PUSH2 0x7FB JUMPI PUSH2 0x7FA PUSH2 0x2B3 JUMP JUMPDEST JUMPDEST PUSH2 0x805 DUP3 SLOAD PUSH2 0x609 JUMP JUMPDEST PUSH2 0x810 DUP3 DUP3 DUP6 PUSH2 0x750 JUMP JUMPDEST PUSH0 PUSH1 0x20 SWAP1 POP PUSH1 0x1F DUP4 GT PUSH1 0x1 DUP2 EQ PUSH2 0x841 JUMPI PUSH0 DUP5 ISZERO PUSH2 0x82F JUMPI DUP3 DUP8 ADD MLOAD SWAP1 POP JUMPDEST PUSH2 0x839 DUP6 DUP3 PUSH2 0x7BE JUMP JUMPDEST DUP7 SSTORE POP PUSH2 0x8A0 JUMP JUMPDEST PUSH1 0x1F NOT DUP5 AND PUSH2 0x84F DUP7 PUSH2 0x639 JUMP JUMPDEST PUSH0 JUMPDEST DUP3 DUP2 LT ISZERO PUSH2 0x876 JUMPI DUP5 DUP10 ADD MLOAD DUP3 SSTORE PUSH1 0x1 DUP3 ADD SWAP2 POP PUSH1 0x20 DUP6 ADD SWAP5 POP PUSH1 0x20 DUP2 ADD SWAP1 POP PUSH2 0x851 JUMP JUMPDEST DUP7 DUP4 LT ISZERO PUSH2 0x893 JUMPI DUP5 DUP10 ADD MLOAD PUSH2 0x88F PUSH1 0x1F DUP10 AND DUP3 PUSH2 0x7A2 JUMP JUMPDEST DUP4 SSTORE POP JUMPDEST PUSH1 0x1 PUSH1 0x2 DUP9 MUL ADD DUP9 SSTORE POP POP POP JUMPDEST POP POP POP POP POP POP JUMP INVALID LOG2 PUSH5 0x6970667358 0x22 SLT KECCAK256 0xEC 0xC3 0xDB 0x21 0x4F SWAP6 DUP13 0xC1 CALLVALUE GASPRICE 0x1E 0xF9 0x2E 0xCC 0xB9 PUSH17 0x726220658D4B4BD84ACC8CA0C4211BB764 PUSH20 0x6F6C634300081C00330000000000000000000000 "
				},
				"gasEstimates": {
					"creation": {
						"codeDepositCost": "454000",
						"executionCost": "484",
						"totalCost": "454484"
					},
					"external": {
						"AddPeople(string,uint256)": "infinite",
						"listOfPeople(uint256)": "infinite",
						"retreiveData(string)": "infinite",
						"stringToFavoriteNumber(string)": "infinite"
					}
				},
				"methodIdentifiers": {
					"AddPeople(string,uint256)": "35d0aac1",
					"listOfPeople(uint256)": "2ebce631",
					"retreiveData(string)": "0d9843d4",
					"stringToFavoriteNumber(string)": "18b50f2d"
				}
			},
			"storageLayout": {
				"storage": [
					{
						"astId": 10,
						"contract": "SimpleStorage.sol:SimpleStorage",
						"label": "stringToFavoriteNumber",
						"offset": 0,
						"slot": "0",
						"type": "t_mapping(t_string_memory_ptr,t_uint256)"
					},
					{
						"astId": 14,
						"contract": "SimpleStorage.sol:SimpleStorage",
						"label": "listOfPeople",
						"offset": 0,
						"slot": "1",
						"type": "t_array(t_struct(Person)6_storage)dyn_storage"
					}
				],
				"types": {
					"t_array(t_struct(Person)6_storage)dyn_storage": {
						"base": "t_struct(Person)6_storage",
						"encoding": "dynamic_array",
						"label": "struct SimpleStorage.Person[]",
						"numberOfBytes": "32"
					},
					"t_mapping(t_string_memory_ptr,t_uint256)": {
						"encoding": "mapping",
						"key": "t_string_memory_ptr",
						"label": "mapping(string => uint256)",
						"numberOfBytes": "32",
						"value": "t_uint256"
					},
					"t_string_memory_ptr": {
						"encoding": "bytes",
						"label": "string",
						"numberOfBytes": "32"
					},
					"t_string_storage": {
						"encoding": "bytes",
						"label": "string",
						"numberOfBytes": "32"
					},
					"t_struct(Person)6_storage": {
						"encoding": "inplace",
						"label": "struct SimpleStorage.Person",
						"members": [
							{
								"astId": 3,
								"contract": "SimpleStorage.sol:SimpleStorage",
								"label": "Name",
								"offset": 0,
								"slot": "0",
								"type": "t_string_storage"
							},
							{
								"astId": 5,
								"contract": "SimpleStorage.sol:SimpleStorage",
								"label": "favoriteNumber",
								"offset": 0,
								"slot": "1",
								"type": "t_uint256"
							}
						],
						"numberOfBytes": "64"
					},
					"t_uint256": {
						"encoding": "inplace",
						"label": "uint256",
						"numberOfBytes": "32"
					}
				}
			},
			"userdoc": {
				"kind": "user",
				"methods": {},
				"version": 1
			}
		}
	}
}