{
	"fundme.sol": {
		"Fundme": {
			"abi": [
				{
					"inputs": [],
					"stateMutability": "nonpayable",
					"type": "constructor"
				},
				{
					"inputs": [
						{
							"internalType": "uint256",
							"name": "",
							"type": "uint256"
						}
					],
					"name": "Funders",
					"outputs": [
						{
							"internalType": "address",
							"name": "",
							"type": "address"
						}
					],
					"stateMutability": "view",
					"type": "function"
				},
				{
					"inputs": [],
					"name": "Withdraw",
					"outputs": [],
					"stateMutability": "nonpayable",
					"type": "function"
				},
				{
					"inputs": [],
					"name": "fund",
					"outputs": [],
					"stateMutability": "payable",
					"type": "function"
				},
				{
					"inputs": [],
					"name": "minimumUSD",
					"outputs": [
						{
							"internalType": "uint256",
							"name": "",
							"type": "uint256"
						}
					],
					"stateMutability": "view",
					"type": "function"
				},
				{
					"inputs": [],
					"name": "owner",
					"outputs": [
						{
							"internalType": "address",
							"name": "",
							"type": "address"
						}
					],
					"stateMutability": "view",
					"type": "function"
				}
			],
			"devdoc": {
				"kind": "dev",
				"methods": {},
				"version": 1
			},
			"evm": {
				"assembly": "    /* \"fundme.sol\":115:1414  contract Fundme {... */\n  mstore(0x40, 0x80)\n    /* \"fundme.sol\":285:293  5 * 1e18 */\n  0x4563918244f40000\n    /* \"fundme.sol\":257:293  uint256 public minimumUSD = 5 * 1e18 */\n  0x01\n  sstore\n    /* \"fundme.sol\":164:213  constructor() {... */\n  callvalue\n  dup1\n  iszero\n  tag_1\n  jumpi\n  revert(0x00, 0x00)\ntag_1:\n  pop\n    /* \"fundme.sol\":196:206  msg.sender */\n  caller\n    /* \"fundme.sol\":188:193  owner */\n  0x00\n  0x00\n    /* \"fundme.sol\":188:206  owner = msg.sender */\n  0x0100\n  exp\n  dup2\n  sload\n  dup2\n  0xffffffffffffffffffffffffffffffffffffffff\n  mul\n  not\n  and\n  swap1\n  dup4\n  0xffffffffffffffffffffffffffffffffffffffff\n  and\n  mul\n  or\n  swap1\n  sstore\n  pop\n    /* \"fundme.sol\":115:1414  contract Fundme {... */\n  dataSize(sub_0)\n  dup1\n  dataOffset(sub_0)\n  0x00\n  codecopy\n  0x00\n  return\nstop\n\nsub_0: assembly {\n        /* \"fundme.sol\":115:1414  contract Fundme {... */\n      mstore(0x40, 0x80)\n      jumpi(tag_1, lt(calldatasize, 0x04))\n      shr(0xe0, calldataload(0x00))\n      dup1\n      0x3430a88c\n      eq\n      tag_2\n      jumpi\n      dup1\n      0x48e2f81b\n      eq\n      tag_3\n      jumpi\n      dup1\n      0x57ea89b6\n      eq\n      tag_4\n      jumpi\n      dup1\n      0x8da5cb5b\n      eq\n      tag_5\n      jumpi\n      dup1\n      0xb60d4288\n      eq\n      tag_6\n      jumpi\n    tag_1:\n      revert(0x00, 0x00)\n        /* \"fundme.sol\":257:293  uint256 public minimumUSD = 5 * 1e18 */\n    tag_2:\n      callvalue\n      dup1\n      iszero\n      tag_7\n      jumpi\n      revert(0x00, 0x00)\n    tag_7:\n      pop\n      tag_8\n      tag_9\n      jump\t// in\n    tag_8:\n      mload(0x40)\n      tag_10\n      swap2\n      swap1\n      tag_11\n      jump\t// in\n    tag_10:\n      mload(0x40)\n      dup1\n      swap2\n      sub\n      swap1\n      return\n        /* \"fundme.sol\":299:323  address[] public Funders */\n    tag_3:\n      callvalue\n      dup1\n      iszero\n      tag_12\n      jumpi\n      revert(0x00, 0x00)\n    tag_12:\n      pop\n      tag_13\n      0x04\n      dup1\n      calldatasize\n      sub\n      dup2\n      add\n      swap1\n      tag_14\n      swap2\n      swap1\n      tag_15\n      jump\t// in\n    tag_14:\n      tag_16\n      jump\t// in\n    tag_13:\n      mload(0x40)\n      tag_17\n      swap2\n      swap1\n      tag_18\n      jump\t// in\n    tag_17:\n      mload(0x40)\n      dup1\n      swap2\n      sub\n      swap1\n      return\n        /* \"fundme.sol\":643:1303  function Withdraw() public OnlyOwner {... */\n    tag_4:\n      callvalue\n      dup1\n      iszero\n      tag_19\n      jumpi\n      revert(0x00, 0x00)\n    tag_19:\n      pop\n      tag_20\n      tag_21\n      jump\t// in\n    tag_20:\n      stop\n        /* \"fundme.sol\":137:157  address public owner */\n    tag_5:\n      callvalue\n      dup1\n      iszero\n      tag_22\n      jumpi\n      revert(0x00, 0x00)\n    tag_22:\n      pop\n      tag_23\n      tag_24\n      jump\t// in\n    tag_23:\n      mload(0x40)\n      tag_25\n      swap2\n      swap1\n      tag_18\n      jump\t// in\n    tag_25:\n      mload(0x40)\n      dup1\n      swap2\n      sub\n      swap1\n      return\n        /* \"fundme.sol\":396:637  function fund() public payable {... */\n    tag_6:\n      tag_26\n      tag_27\n      jump\t// in\n    tag_26:\n      stop\n        /* \"fundme.sol\":257:293  uint256 public minimumUSD = 5 * 1e18 */\n    tag_9:\n      sload(0x01)\n      dup2\n      jump\t// out\n        /* \"fundme.sol\":299:323  address[] public Funders */\n    tag_16:\n      0x02\n      dup2\n      dup2\n      sload\n      dup2\n      lt\n      tag_28\n      jumpi\n      0x00\n      dup1\n      revert\n    tag_28:\n      swap1\n      0x00\n      mstore\n      keccak256(0x00, 0x20)\n      add\n      0x00\n      swap2\n      pop\n      sload\n      swap1\n      0x0100\n      exp\n      swap1\n      div\n      0xffffffffffffffffffffffffffffffffffffffff\n      and\n      dup2\n      jump\t// out\n        /* \"fundme.sol\":643:1303  function Withdraw() public OnlyOwner {... */\n    tag_21:\n        /* \"fundme.sol\":1360:1365  owner */\n      0x00\n      0x00\n      swap1\n      sload\n      swap1\n      0x0100\n      exp\n      swap1\n      div\n      0xffffffffffffffffffffffffffffffffffffffff\n      and\n        /* \"fundme.sol\":1346:1365  msg.sender == owner */\n      0xffffffffffffffffffffffffffffffffffffffff\n      and\n        /* \"fundme.sol\":1346:1356  msg.sender */\n      caller\n        /* \"fundme.sol\":1346:1365  msg.sender == owner */\n      0xffffffffffffffffffffffffffffffffffffffff\n      and\n      eq\n        /* \"fundme.sol\":1338:1389  require(msg.sender == owner, \"sender is NOT Onwer\") */\n      tag_31\n      jumpi\n      mload(0x40)\n      0x08c379a000000000000000000000000000000000000000000000000000000000\n      dup2\n      mstore\n      0x04\n      add\n      tag_32\n      swap1\n      tag_33\n      jump\t// in\n    tag_32:\n      mload(0x40)\n      dup1\n      swap2\n      sub\n      swap1\n      revert\n    tag_31:\n        /* \"fundme.sol\":695:714  uint256 funderIndex */\n      0x00\n        /* \"fundme.sol\":717:718  0 */\n      0x00\n        /* \"fundme.sol\":695:718  uint256 funderIndex = 0 */\n      swap1\n      pop\n        /* \"fundme.sol\":690:885  for (uint256 funderIndex = 0; funderIndex < Funders.length; funderIndex++) {... */\n    tag_35:\n        /* \"fundme.sol\":734:741  Funders */\n      0x02\n        /* \"fundme.sol\":734:748  Funders.length */\n      dup1\n      sload\n      swap1\n      pop\n        /* \"fundme.sol\":720:731  funderIndex */\n      dup2\n        /* \"fundme.sol\":720:748  funderIndex < Funders.length */\n      lt\n        /* \"fundme.sol\":690:885  for (uint256 funderIndex = 0; funderIndex < Funders.length; funderIndex++) {... */\n      iszero\n      tag_36\n      jumpi\n        /* \"fundme.sol\":779:800  address currentFunder */\n      0x00\n        /* \"fundme.sol\":803:810  Funders */\n      0x02\n        /* \"fundme.sol\":811:822  funderIndex */\n      dup3\n        /* \"fundme.sol\":803:823  Funders[funderIndex] */\n      dup2\n      sload\n      dup2\n      lt\n      tag_38\n      jumpi\n      tag_39\n      tag_40\n      jump\t// in\n    tag_39:\n    tag_38:\n      swap1\n      0x00\n      mstore\n      keccak256(0x00, 0x20)\n      add\n      0x00\n      swap1\n      sload\n      swap1\n      0x0100\n      exp\n      swap1\n      div\n      0xffffffffffffffffffffffffffffffffffffffff\n      and\n        /* \"fundme.sol\":779:823  address currentFunder = Funders[funderIndex] */\n      swap1\n      pop\n        /* \"fundme.sol\":873:874  0 */\n      0x00\n        /* \"fundme.sol\":837:855  AmountSentByFunder */\n      0x03\n        /* \"fundme.sol\":837:870  AmountSentByFunder[currentFunder] */\n      0x00\n        /* \"fundme.sol\":856:869  currentFunder */\n      dup4\n        /* \"fundme.sol\":837:870  AmountSentByFunder[currentFunder] */\n      0xffffffffffffffffffffffffffffffffffffffff\n      and\n      0xffffffffffffffffffffffffffffffffffffffff\n      and\n      dup2\n      mstore\n      0x20\n      add\n      swap1\n      dup2\n      mstore\n      0x20\n      add\n      0x00\n      keccak256\n        /* \"fundme.sol\":837:874  AmountSentByFunder[currentFunder] = 0 */\n      dup2\n      swap1\n      sstore\n      pop\n        /* \"fundme.sol\":765:885  {... */\n      pop\n        /* \"fundme.sol\":750:763  funderIndex++ */\n      dup1\n      dup1\n      0x01\n      add\n      swap2\n      pop\n      pop\n        /* \"fundme.sol\":690:885  for (uint256 funderIndex = 0; funderIndex < Funders.length; funderIndex++) {... */\n      jump(tag_35)\n    tag_36:\n      pop\n        /* \"fundme.sol\":918:919  0 */\n      0x00\n        /* \"fundme.sol\":904:920  new address[](0) */\n      0xffffffffffffffff\n      dup2\n      gt\n      iszero\n      tag_42\n      jumpi\n      tag_43\n      tag_44\n      jump\t// in\n    tag_43:\n    tag_42:\n      mload(0x40)\n      swap1\n      dup1\n      dup3\n      mstore\n      dup1\n      0x20\n      mul\n      0x20\n      add\n      dup3\n      add\n      0x40\n      mstore\n      dup1\n      iszero\n      tag_45\n      jumpi\n      dup2\n      0x20\n      add\n      0x20\n      dup3\n      mul\n      dup1\n      calldatasize\n      dup4\n      calldatacopy\n      dup1\n      dup3\n      add\n      swap2\n      pop\n      pop\n      swap1\n      pop\n    tag_45:\n      pop\n        /* \"fundme.sol\":894:901  Funders */\n      0x02\n        /* \"fundme.sol\":894:920  Funders = new address[](0) */\n      swap1\n      dup1\n      mload\n      swap1\n      0x20\n      add\n      swap1\n      tag_46\n      swap3\n      swap2\n      swap1\n      tag_47\n      jump\t// in\n    tag_46:\n      pop\n        /* \"fundme.sol\":1180:1196  bool callSuccess */\n      0x00\n        /* \"fundme.sol\":1202:1212  msg.sender */\n      caller\n        /* \"fundme.sol\":1202:1217  msg.sender.call */\n      0xffffffffffffffffffffffffffffffffffffffff\n      and\n        /* \"fundme.sol\":1225:1246  address(this).balance */\n      selfbalance\n        /* \"fundme.sol\":1202:1251  msg.sender.call{value: address(this).balance}(\"\") */\n      mload(0x40)\n      tag_48\n      swap1\n      tag_49\n      jump\t// in\n    tag_48:\n      0x00\n      mload(0x40)\n      dup1\n      dup4\n      sub\n      dup2\n      dup6\n      dup8\n      gas\n      call\n      swap3\n      pop\n      pop\n      pop\n      returndatasize\n      dup1\n      0x00\n      dup2\n      eq\n      tag_52\n      jumpi\n      mload(0x40)\n      swap2\n      pop\n      and(add(returndatasize, 0x3f), not(0x1f))\n      dup3\n      add\n      0x40\n      mstore\n      returndatasize\n      dup3\n      mstore\n      returndatasize\n      0x00\n      0x20\n      dup5\n      add\n      returndatacopy\n      jump(tag_51)\n    tag_52:\n      0x60\n      swap2\n      pop\n    tag_51:\n      pop\n        /* \"fundme.sol\":1179:1251  (bool callSuccess, ) = msg.sender.call{value: address(this).balance}(\"\") */\n      pop\n      swap1\n      pop\n        /* \"fundme.sol\":1269:1280  callSuccess */\n      dup1\n        /* \"fundme.sol\":1261:1296  require(callSuccess, \"call failed\") */\n      tag_53\n      jumpi\n      mload(0x40)\n      0x08c379a000000000000000000000000000000000000000000000000000000000\n      dup2\n      mstore\n      0x04\n      add\n      tag_54\n      swap1\n      tag_55\n      jump\t// in\n    tag_54:\n      mload(0x40)\n      dup1\n      swap2\n      sub\n      swap1\n      revert\n    tag_53:\n        /* \"fundme.sol\":680:1303  {... */\n      pop\n        /* \"fundme.sol\":643:1303  function Withdraw() public OnlyOwner {... */\n      jump\t// out\n        /* \"fundme.sol\":137:157  address public owner */\n    tag_24:\n      0x00\n      0x00\n      swap1\n      sload\n      swap1\n      0x0100\n      exp\n      swap1\n      div\n      0xffffffffffffffffffffffffffffffffffffffff\n      and\n      dup2\n      jump\t// out\n        /* \"fundme.sol\":396:637  function fund() public payable {... */\n    tag_27:\n        /* \"fundme.sol\":478:488  minimumUSD */\n      sload(0x01)\n        /* \"fundme.sol\":445:454  msg.value */\n      callvalue\n        /* \"fundme.sol\":445:472  msg.value.GetConversionRate */\n      linkerSymbol(\"458ba8e8d5bcc86ae3d345e3820b52114d5d30de2d0fe1fd148e1aa67c1cebce\")\n      0x793b233b\n      swap1\n      swap2\n        /* \"fundme.sol\":445:474  msg.value.GetConversionRate() */\n      mload(0x40)\n      dup3\n      0xffffffff\n      and\n      0xe0\n      shl\n      dup2\n      mstore\n      0x04\n      add\n      tag_57\n      swap2\n      swap1\n      tag_58\n      jump\t// in\n    tag_57:\n      0x20\n      mload(0x40)\n      dup1\n      dup4\n      sub\n      dup2\n      dup7\n      gas\n      delegatecall\n      iszero\n      dup1\n      iszero\n      tag_60\n      jumpi\n      returndatacopy(0x00, 0x00, returndatasize)\n      revert(0x00, returndatasize)\n    tag_60:\n      pop\n      pop\n      pop\n      pop\n      mload(0x40)\n      returndatasize\n      not(0x1f)\n      0x1f\n      dup3\n      add\n      and\n      dup3\n      add\n      dup1\n      0x40\n      mstore\n      pop\n      dup2\n      add\n      swap1\n      tag_61\n      swap2\n      swap1\n      tag_62\n      jump\t// in\n    tag_61:\n        /* \"fundme.sol\":445:488  msg.value.GetConversionRate() >= minimumUSD */\n      lt\n      iszero\n        /* \"fundme.sol\":437:511  require(msg.value.GetConversionRate() >= minimumUSD, \"didn't send enough\") */\n      tag_63\n      jumpi\n      mload(0x40)\n      0x08c379a000000000000000000000000000000000000000000000000000000000\n      dup2\n      mstore\n      0x04\n      add\n      tag_64\n      swap1\n      tag_65\n      jump\t// in\n    tag_64:\n      mload(0x40)\n      dup1\n      swap2\n      sub\n      swap1\n      revert\n    tag_63:\n        /* \"fundme.sol\":521:528  Funders */\n      0x02\n        /* \"fundme.sol\":534:544  msg.sender */\n      caller\n        /* \"fundme.sol\":521:545  Funders.push(msg.sender) */\n      swap1\n      dup1\n      0x01\n      dup2\n      sload\n      add\n      dup1\n      dup3\n      sstore\n      dup1\n      swap2\n      pop\n      pop\n      0x01\n      swap1\n      sub\n      swap1\n      0x00\n      mstore\n      keccak256(0x00, 0x20)\n      add\n      0x00\n      swap1\n      swap2\n      swap1\n      swap2\n      swap1\n      swap2\n      0x0100\n      exp\n      dup2\n      sload\n      dup2\n      0xffffffffffffffffffffffffffffffffffffffff\n      mul\n      not\n      and\n      swap1\n      dup4\n      0xffffffffffffffffffffffffffffffffffffffff\n      and\n      mul\n      or\n      swap1\n      sstore\n      pop\n        /* \"fundme.sol\":621:630  msg.value */\n      callvalue\n        /* \"fundme.sol\":588:606  AmountSentByFunder */\n      0x03\n        /* \"fundme.sol\":588:618  AmountSentByFunder[msg.sender] */\n      0x00\n        /* \"fundme.sol\":607:617  msg.sender */\n      caller\n        /* \"fundme.sol\":588:618  AmountSentByFunder[msg.sender] */\n      0xffffffffffffffffffffffffffffffffffffffff\n      and\n      0xffffffffffffffffffffffffffffffffffffffff\n      and\n      dup2\n      mstore\n      0x20\n      add\n      swap1\n      dup2\n      mstore\n      0x20\n      add\n      0x00\n      keccak256\n      sload\n        /* \"fundme.sol\":588:630  AmountSentByFunder[msg.sender] + msg.value */\n      tag_67\n      swap2\n      swap1\n      tag_68\n      jump\t// in\n    tag_67:\n        /* \"fundme.sol\":555:573  AmountSentByFunder */\n      0x03\n        /* \"fundme.sol\":555:585  AmountSentByFunder[msg.sender] */\n      0x00\n        /* \"fundme.sol\":574:584  msg.sender */\n      caller\n        /* \"fundme.sol\":555:585  AmountSentByFunder[msg.sender] */\n      0xffffffffffffffffffffffffffffffffffffffff\n      and\n      0xffffffffffffffffffffffffffffffffffffffff\n      and\n      dup2\n      mstore\n      0x20\n      add\n      swap1\n      dup2\n      mstore\n      0x20\n      add\n      0x00\n      keccak256\n        /* \"fundme.sol\":555:630  AmountSentByFunder[msg.sender] = AmountSentByFunder[msg.sender] + msg.value */\n      dup2\n      swap1\n      sstore\n      pop\n        /* \"fundme.sol\":396:637  function fund() public payable {... */\n      jump\t// out\n    tag_47:\n      dup3\n      dup1\n      sload\n      dup3\n      dup3\n      sstore\n      swap1\n      0x00\n      mstore\n      keccak256(0x00, 0x20)\n      swap1\n      dup2\n      add\n      swap3\n      dup3\n      iszero\n      tag_69\n      jumpi\n      swap2\n      0x20\n      mul\n      dup3\n      add\n    tag_70:\n      dup3\n      dup2\n      gt\n      iszero\n      tag_71\n      jumpi\n      dup3\n      mload\n      dup3\n      exp(0x0100, 0x00)\n      dup2\n      sload\n      dup2\n      0xffffffffffffffffffffffffffffffffffffffff\n      mul\n      not\n      and\n      swap1\n      dup4\n      0xffffffffffffffffffffffffffffffffffffffff\n      and\n      mul\n      or\n      swap1\n      sstore\n      pop\n      swap2\n      0x20\n      add\n      swap2\n      swap1\n      0x01\n      add\n      swap1\n      jump(tag_70)\n    tag_71:\n    tag_69:\n      pop\n      swap1\n      pop\n      tag_72\n      swap2\n      swap1\n      tag_73\n      jump\t// in\n    tag_72:\n      pop\n      swap1\n      jump\t// out\n    tag_73:\n    tag_74:\n      dup1\n      dup3\n      gt\n      iszero\n      tag_75\n      jumpi\n      0x00\n      dup2\n      0x00\n      swap1\n      sstore\n      pop\n      0x01\n      add\n      jump(tag_74)\n    tag_75:\n      pop\n      swap1\n      jump\t// out\n        /* \"#utility.yul\":7:84   */\n    tag_76:\n        /* \"#utility.yul\":44:51   */\n      0x00\n        /* \"#utility.yul\":73:78   */\n      dup2\n        /* \"#utility.yul\":62:78   */\n      swap1\n      pop\n        /* \"#utility.yul\":7:84   */\n      swap2\n      swap1\n      pop\n      jump\t// out\n        /* \"#utility.yul\":90:208   */\n    tag_77:\n        /* \"#utility.yul\":177:201   */\n      tag_102\n        /* \"#utility.yul\":195:200   */\n      dup2\n        /* \"#utility.yul\":177:201   */\n      tag_76\n      jump\t// in\n    tag_102:\n        /* \"#utility.yul\":172:175   */\n      dup3\n        /* \"#utility.yul\":165:202   */\n      mstore\n        /* \"#utility.yul\":90:208   */\n      pop\n      pop\n      jump\t// out\n        /* \"#utility.yul\":214:436   */\n    tag_11:\n        /* \"#utility.yul\":307:311   */\n      0x00\n        /* \"#utility.yul\":345:347   */\n      0x20\n        /* \"#utility.yul\":334:343   */\n      dup3\n        /* \"#utility.yul\":330:348   */\n      add\n        /* \"#utility.yul\":322:348   */\n      swap1\n      pop\n        /* \"#utility.yul\":358:429   */\n      tag_104\n        /* \"#utility.yul\":426:427   */\n      0x00\n        /* \"#utility.yul\":415:424   */\n      dup4\n        /* \"#utility.yul\":411:428   */\n      add\n        /* \"#utility.yul\":402:408   */\n      dup5\n        /* \"#utility.yul\":358:429   */\n      tag_77\n      jump\t// in\n    tag_104:\n        /* \"#utility.yul\":214:436   */\n      swap3\n      swap2\n      pop\n      pop\n      jump\t// out\n        /* \"#utility.yul\":523:640   */\n    tag_79:\n        /* \"#utility.yul\":632:633   */\n      0x00\n        /* \"#utility.yul\":629:630   */\n      0x00\n        /* \"#utility.yul\":622:634   */\n      revert\n        /* \"#utility.yul\":769:891   */\n    tag_81:\n        /* \"#utility.yul\":842:866   */\n      tag_109\n        /* \"#utility.yul\":860:865   */\n      dup2\n        /* \"#utility.yul\":842:866   */\n      tag_76\n      jump\t// in\n    tag_109:\n        /* \"#utility.yul\":835:840   */\n      dup2\n        /* \"#utility.yul\":832:867   */\n      eq\n        /* \"#utility.yul\":822:885   */\n      tag_110\n      jumpi\n        /* \"#utility.yul\":881:882   */\n      0x00\n        /* \"#utility.yul\":878:879   */\n      0x00\n        /* \"#utility.yul\":871:883   */\n      revert\n        /* \"#utility.yul\":822:885   */\n    tag_110:\n        /* \"#utility.yul\":769:891   */\n      pop\n      jump\t// out\n        /* \"#utility.yul\":897:1036   */\n    tag_82:\n        /* \"#utility.yul\":943:948   */\n      0x00\n        /* \"#utility.yul\":981:987   */\n      dup2\n        /* \"#utility.yul\":968:988   */\n      calldataload\n        /* \"#utility.yul\":959:988   */\n      swap1\n      pop\n        /* \"#utility.yul\":997:1030   */\n      tag_112\n        /* \"#utility.yul\":1024:1029   */\n      dup2\n        /* \"#utility.yul\":997:1030   */\n      tag_81\n      jump\t// in\n    tag_112:\n        /* \"#utility.yul\":897:1036   */\n      swap3\n      swap2\n      pop\n      pop\n      jump\t// out\n        /* \"#utility.yul\":1042:1371   */\n    tag_15:\n        /* \"#utility.yul\":1101:1107   */\n      0x00\n        /* \"#utility.yul\":1150:1152   */\n      0x20\n        /* \"#utility.yul\":1138:1147   */\n      dup3\n        /* \"#utility.yul\":1129:1136   */\n      dup5\n        /* \"#utility.yul\":1125:1148   */\n      sub\n        /* \"#utility.yul\":1121:1153   */\n      slt\n        /* \"#utility.yul\":1118:1237   */\n      iszero\n      tag_114\n      jumpi\n        /* \"#utility.yul\":1156:1235   */\n      tag_115\n      tag_79\n      jump\t// in\n    tag_115:\n        /* \"#utility.yul\":1118:1237   */\n    tag_114:\n        /* \"#utility.yul\":1276:1277   */\n      0x00\n        /* \"#utility.yul\":1301:1354   */\n      tag_116\n        /* \"#utility.yul\":1346:1353   */\n      dup5\n        /* \"#utility.yul\":1337:1343   */\n      dup3\n        /* \"#utility.yul\":1326:1335   */\n      dup6\n        /* \"#utility.yul\":1322:1344   */\n      add\n        /* \"#utility.yul\":1301:1354   */\n      tag_82\n      jump\t// in\n    tag_116:\n        /* \"#utility.yul\":1291:1354   */\n      swap2\n      pop\n        /* \"#utility.yul\":1247:1364   */\n      pop\n        /* \"#utility.yul\":1042:1371   */\n      swap3\n      swap2\n      pop\n      pop\n      jump\t// out\n        /* \"#utility.yul\":1377:1503   */\n    tag_83:\n        /* \"#utility.yul\":1414:1421   */\n      0x00\n        /* \"#utility.yul\":1454:1496   */\n      0xffffffffffffffffffffffffffffffffffffffff\n        /* \"#utility.yul\":1447:1452   */\n      dup3\n        /* \"#utility.yul\":1443:1497   */\n      and\n        /* \"#utility.yul\":1432:1497   */\n      swap1\n      pop\n        /* \"#utility.yul\":1377:1503   */\n      swap2\n      swap1\n      pop\n      jump\t// out\n        /* \"#utility.yul\":1509:1605   */\n    tag_84:\n        /* \"#utility.yul\":1546:1553   */\n      0x00\n        /* \"#utility.yul\":1575:1599   */\n      tag_119\n        /* \"#utility.yul\":1593:1598   */\n      dup3\n        /* \"#utility.yul\":1575:1599   */\n      tag_83\n      jump\t// in\n    tag_119:\n        /* \"#utility.yul\":1564:1599   */\n      swap1\n      pop\n        /* \"#utility.yul\":1509:1605   */\n      swap2\n      swap1\n      pop\n      jump\t// out\n        /* \"#utility.yul\":1611:1729   */\n    tag_85:\n        /* \"#utility.yul\":1698:1722   */\n      tag_121\n        /* \"#utility.yul\":1716:1721   */\n      dup2\n        /* \"#utility.yul\":1698:1722   */\n      tag_84\n      jump\t// in\n    tag_121:\n        /* \"#utility.yul\":1693:1696   */\n      dup3\n        /* \"#utility.yul\":1686:1723   */\n      mstore\n        /* \"#utility.yul\":1611:1729   */\n      pop\n      pop\n      jump\t// out\n        /* \"#utility.yul\":1735:1957   */\n    tag_18:\n        /* \"#utility.yul\":1828:1832   */\n      0x00\n        /* \"#utility.yul\":1866:1868   */\n      0x20\n        /* \"#utility.yul\":1855:1864   */\n      dup3\n        /* \"#utility.yul\":1851:1869   */\n      add\n        /* \"#utility.yul\":1843:1869   */\n      swap1\n      pop\n        /* \"#utility.yul\":1879:1950   */\n      tag_123\n        /* \"#utility.yul\":1947:1948   */\n      0x00\n        /* \"#utility.yul\":1936:1945   */\n      dup4\n        /* \"#utility.yul\":1932:1949   */\n      add\n        /* \"#utility.yul\":1923:1929   */\n      dup5\n        /* \"#utility.yul\":1879:1950   */\n      tag_85\n      jump\t// in\n    tag_123:\n        /* \"#utility.yul\":1735:1957   */\n      swap3\n      swap2\n      pop\n      pop\n      jump\t// out\n        /* \"#utility.yul\":1963:2132   */\n    tag_86:\n        /* \"#utility.yul\":2047:2058   */\n      0x00\n        /* \"#utility.yul\":2081:2087   */\n      dup3\n        /* \"#utility.yul\":2076:2079   */\n      dup3\n        /* \"#utility.yul\":2069:2088   */\n      mstore\n        /* \"#utility.yul\":2121:2125   */\n      0x20\n        /* \"#utility.yul\":2116:2119   */\n      dup3\n        /* \"#utility.yul\":2112:2126   */\n      add\n        /* \"#utility.yul\":2097:2126   */\n      swap1\n      pop\n        /* \"#utility.yul\":1963:2132   */\n      swap3\n      swap2\n      pop\n      pop\n      jump\t// out\n        /* \"#utility.yul\":2138:2307   */\n    tag_87:\n        /* \"#utility.yul\":2278:2299   */\n      0x73656e646572206973204e4f54204f6e77657200000000000000000000000000\n        /* \"#utility.yul\":2274:2275   */\n      0x00\n        /* \"#utility.yul\":2266:2272   */\n      dup3\n        /* \"#utility.yul\":2262:2276   */\n      add\n        /* \"#utility.yul\":2255:2300   */\n      mstore\n        /* \"#utility.yul\":2138:2307   */\n      pop\n      jump\t// out\n        /* \"#utility.yul\":2313:2679   */\n    tag_88:\n        /* \"#utility.yul\":2455:2458   */\n      0x00\n        /* \"#utility.yul\":2476:2543   */\n      tag_127\n        /* \"#utility.yul\":2540:2542   */\n      0x13\n        /* \"#utility.yul\":2535:2538   */\n      dup4\n        /* \"#utility.yul\":2476:2543   */\n      tag_86\n      jump\t// in\n    tag_127:\n        /* \"#utility.yul\":2469:2543   */\n      swap2\n      pop\n        /* \"#utility.yul\":2552:2645   */\n      tag_128\n        /* \"#utility.yul\":2641:2644   */\n      dup3\n        /* \"#utility.yul\":2552:2645   */\n      tag_87\n      jump\t// in\n    tag_128:\n        /* \"#utility.yul\":2670:2672   */\n      0x20\n        /* \"#utility.yul\":2665:2668   */\n      dup3\n        /* \"#utility.yul\":2661:2673   */\n      add\n        /* \"#utility.yul\":2654:2673   */\n      swap1\n      pop\n        /* \"#utility.yul\":2313:2679   */\n      swap2\n      swap1\n      pop\n      jump\t// out\n        /* \"#utility.yul\":2685:3104   */\n    tag_33:\n        /* \"#utility.yul\":2851:2855   */\n      0x00\n        /* \"#utility.yul\":2889:2891   */\n      0x20\n        /* \"#utility.yul\":2878:2887   */\n      dup3\n        /* \"#utility.yul\":2874:2892   */\n      add\n        /* \"#utility.yul\":2866:2892   */\n      swap1\n      pop\n        /* \"#utility.yul\":2938:2947   */\n      dup2\n        /* \"#utility.yul\":2932:2936   */\n      dup2\n        /* \"#utility.yul\":2928:2948   */\n      sub\n        /* \"#utility.yul\":2924:2925   */\n      0x00\n        /* \"#utility.yul\":2913:2922   */\n      dup4\n        /* \"#utility.yul\":2909:2926   */\n      add\n        /* \"#utility.yul\":2902:2949   */\n      mstore\n        /* \"#utility.yul\":2966:3097   */\n      tag_130\n        /* \"#utility.yul\":3092:3096   */\n      dup2\n        /* \"#utility.yul\":2966:3097   */\n      tag_88\n      jump\t// in\n    tag_130:\n        /* \"#utility.yul\":2958:3097   */\n      swap1\n      pop\n        /* \"#utility.yul\":2685:3104   */\n      swap2\n      swap1\n      pop\n      jump\t// out\n        /* \"#utility.yul\":3110:3290   */\n    tag_40:\n        /* \"#utility.yul\":3158:3235   */\n      0x4e487b7100000000000000000000000000000000000000000000000000000000\n        /* \"#utility.yul\":3155:3156   */\n      0x00\n        /* \"#utility.yul\":3148:3236   */\n      mstore\n        /* \"#utility.yul\":3255:3259   */\n      0x32\n        /* \"#utility.yul\":3252:3253   */\n      0x04\n        /* \"#utility.yul\":3245:3260   */\n      mstore\n        /* \"#utility.yul\":3279:3283   */\n      0x24\n        /* \"#utility.yul\":3276:3277   */\n      0x00\n        /* \"#utility.yul\":3269:3284   */\n      revert\n        /* \"#utility.yul\":3296:3476   */\n    tag_44:\n        /* \"#utility.yul\":3344:3421   */\n      0x4e487b7100000000000000000000000000000000000000000000000000000000\n        /* \"#utility.yul\":3341:3342   */\n      0x00\n        /* \"#utility.yul\":3334:3422   */\n      mstore\n        /* \"#utility.yul\":3441:3445   */\n      0x41\n        /* \"#utility.yul\":3438:3439   */\n      0x04\n        /* \"#utility.yul\":3431:3446   */\n      mstore\n        /* \"#utility.yul\":3465:3469   */\n      0x24\n        /* \"#utility.yul\":3462:3463   */\n      0x00\n        /* \"#utility.yul\":3455:3470   */\n      revert\n        /* \"#utility.yul\":3482:3629   */\n    tag_89:\n        /* \"#utility.yul\":3583:3594   */\n      0x00\n        /* \"#utility.yul\":3620:3623   */\n      dup2\n        /* \"#utility.yul\":3605:3623   */\n      swap1\n      pop\n        /* \"#utility.yul\":3482:3629   */\n      swap3\n      swap2\n      pop\n      pop\n      jump\t// out\n        /* \"#utility.yul\":3635:3749   */\n    tag_90:\n      pop\n      jump\t// out\n        /* \"#utility.yul\":3755:4153   */\n    tag_91:\n        /* \"#utility.yul\":3914:3917   */\n      0x00\n        /* \"#utility.yul\":3935:4018   */\n      tag_136\n        /* \"#utility.yul\":4016:4017   */\n      0x00\n        /* \"#utility.yul\":4011:4014   */\n      dup4\n        /* \"#utility.yul\":3935:4018   */\n      tag_89\n      jump\t// in\n    tag_136:\n        /* \"#utility.yul\":3928:4018   */\n      swap2\n      pop\n        /* \"#utility.yul\":4027:4120   */\n      tag_137\n        /* \"#utility.yul\":4116:4119   */\n      dup3\n        /* \"#utility.yul\":4027:4120   */\n      tag_90\n      jump\t// in\n    tag_137:\n        /* \"#utility.yul\":4145:4146   */\n      0x00\n        /* \"#utility.yul\":4140:4143   */\n      dup3\n        /* \"#utility.yul\":4136:4147   */\n      add\n        /* \"#utility.yul\":4129:4147   */\n      swap1\n      pop\n        /* \"#utility.yul\":3755:4153   */\n      swap2\n      swap1\n      pop\n      jump\t// out\n        /* \"#utility.yul\":4159:4538   */\n    tag_49:\n        /* \"#utility.yul\":4343:4346   */\n      0x00\n        /* \"#utility.yul\":4365:4512   */\n      tag_139\n        /* \"#utility.yul\":4508:4511   */\n      dup3\n        /* \"#utility.yul\":4365:4512   */\n      tag_91\n      jump\t// in\n    tag_139:\n        /* \"#utility.yul\":4358:4512   */\n      swap2\n      pop\n        /* \"#utility.yul\":4529:4532   */\n      dup2\n        /* \"#utility.yul\":4522:4532   */\n      swap1\n      pop\n        /* \"#utility.yul\":4159:4538   */\n      swap2\n      swap1\n      pop\n      jump\t// out\n        /* \"#utility.yul\":4544:4705   */\n    tag_92:\n        /* \"#utility.yul\":4684:4697   */\n      0x63616c6c206661696c6564000000000000000000000000000000000000000000\n        /* \"#utility.yul\":4680:4681   */\n      0x00\n        /* \"#utility.yul\":4672:4678   */\n      dup3\n        /* \"#utility.yul\":4668:4682   */\n      add\n        /* \"#utility.yul\":4661:4698   */\n      mstore\n        /* \"#utility.yul\":4544:4705   */\n      pop\n      jump\t// out\n        /* \"#utility.yul\":4711:5077   */\n    tag_93:\n        /* \"#utility.yul\":4853:4856   */\n      0x00\n        /* \"#utility.yul\":4874:4941   */\n      tag_142\n        /* \"#utility.yul\":4938:4940   */\n      0x0b\n        /* \"#utility.yul\":4933:4936   */\n      dup4\n        /* \"#utility.yul\":4874:4941   */\n      tag_86\n      jump\t// in\n    tag_142:\n        /* \"#utility.yul\":4867:4941   */\n      swap2\n      pop\n        /* \"#utility.yul\":4950:5043   */\n      tag_143\n        /* \"#utility.yul\":5039:5042   */\n      dup3\n        /* \"#utility.yul\":4950:5043   */\n      tag_92\n      jump\t// in\n    tag_143:\n        /* \"#utility.yul\":5068:5070   */\n      0x20\n        /* \"#utility.yul\":5063:5066   */\n      dup3\n        /* \"#utility.yul\":5059:5071   */\n      add\n        /* \"#utility.yul\":5052:5071   */\n      swap1\n      pop\n        /* \"#utility.yul\":4711:5077   */\n      swap2\n      swap1\n      pop\n      jump\t// out\n        /* \"#utility.yul\":5083:5502   */\n    tag_55:\n        /* \"#utility.yul\":5249:5253   */\n      0x00\n        /* \"#utility.yul\":5287:5289   */\n      0x20\n        /* \"#utility.yul\":5276:5285   */\n      dup3\n        /* \"#utility.yul\":5272:5290   */\n      add\n        /* \"#utility.yul\":5264:5290   */\n      swap1\n      pop\n        /* \"#utility.yul\":5336:5345   */\n      dup2\n        /* \"#utility.yul\":5330:5334   */\n      dup2\n        /* \"#utility.yul\":5326:5346   */\n      sub\n        /* \"#utility.yul\":5322:5323   */\n      0x00\n        /* \"#utility.yul\":5311:5320   */\n      dup4\n        /* \"#utility.yul\":5307:5324   */\n      add\n        /* \"#utility.yul\":5300:5347   */\n      mstore\n        /* \"#utility.yul\":5364:5495   */\n      tag_145\n        /* \"#utility.yul\":5490:5494   */\n      dup2\n        /* \"#utility.yul\":5364:5495   */\n      tag_93\n      jump\t// in\n    tag_145:\n        /* \"#utility.yul\":5356:5495   */\n      swap1\n      pop\n        /* \"#utility.yul\":5083:5502   */\n      swap2\n      swap1\n      pop\n      jump\t// out\n        /* \"#utility.yul\":5508:5634   */\n    tag_94:\n        /* \"#utility.yul\":5603:5627   */\n      tag_147\n        /* \"#utility.yul\":5621:5626   */\n      dup2\n        /* \"#utility.yul\":5603:5627   */\n      tag_76\n      jump\t// in\n    tag_147:\n        /* \"#utility.yul\":5598:5601   */\n      dup3\n        /* \"#utility.yul\":5591:5628   */\n      mstore\n        /* \"#utility.yul\":5508:5634   */\n      pop\n      pop\n      jump\t// out\n        /* \"#utility.yul\":5640:5878   */\n    tag_58:\n        /* \"#utility.yul\":5741:5745   */\n      0x00\n        /* \"#utility.yul\":5779:5781   */\n      0x20\n        /* \"#utility.yul\":5768:5777   */\n      dup3\n        /* \"#utility.yul\":5764:5782   */\n      add\n        /* \"#utility.yul\":5756:5782   */\n      swap1\n      pop\n        /* \"#utility.yul\":5792:5871   */\n      tag_149\n        /* \"#utility.yul\":5868:5869   */\n      0x00\n        /* \"#utility.yul\":5857:5866   */\n      dup4\n        /* \"#utility.yul\":5853:5870   */\n      add\n        /* \"#utility.yul\":5844:5850   */\n      dup5\n        /* \"#utility.yul\":5792:5871   */\n      tag_94\n      jump\t// in\n    tag_149:\n        /* \"#utility.yul\":5640:5878   */\n      swap3\n      swap2\n      pop\n      pop\n      jump\t// out\n        /* \"#utility.yul\":5884:6027   */\n    tag_95:\n        /* \"#utility.yul\":5941:5946   */\n      0x00\n        /* \"#utility.yul\":5972:5978   */\n      dup2\n        /* \"#utility.yul\":5966:5979   */\n      mload\n        /* \"#utility.yul\":5957:5979   */\n      swap1\n      pop\n        /* \"#utility.yul\":5988:6021   */\n      tag_151\n        /* \"#utility.yul\":6015:6020   */\n      dup2\n        /* \"#utility.yul\":5988:6021   */\n      tag_81\n      jump\t// in\n    tag_151:\n        /* \"#utility.yul\":5884:6027   */\n      swap3\n      swap2\n      pop\n      pop\n      jump\t// out\n        /* \"#utility.yul\":6033:6384   */\n    tag_62:\n        /* \"#utility.yul\":6103:6109   */\n      0x00\n        /* \"#utility.yul\":6152:6154   */\n      0x20\n        /* \"#utility.yul\":6140:6149   */\n      dup3\n        /* \"#utility.yul\":6131:6138   */\n      dup5\n        /* \"#utility.yul\":6127:6150   */\n      sub\n        /* \"#utility.yul\":6123:6155   */\n      slt\n        /* \"#utility.yul\":6120:6239   */\n      iszero\n      tag_153\n      jumpi\n        /* \"#utility.yul\":6158:6237   */\n      tag_154\n      tag_79\n      jump\t// in\n    tag_154:\n        /* \"#utility.yul\":6120:6239   */\n    tag_153:\n        /* \"#utility.yul\":6278:6279   */\n      0x00\n        /* \"#utility.yul\":6303:6367   */\n      tag_155\n        /* \"#utility.yul\":6359:6366   */\n      dup5\n        /* \"#utility.yul\":6350:6356   */\n      dup3\n        /* \"#utility.yul\":6339:6348   */\n      dup6\n        /* \"#utility.yul\":6335:6357   */\n      add\n        /* \"#utility.yul\":6303:6367   */\n      tag_95\n      jump\t// in\n    tag_155:\n        /* \"#utility.yul\":6293:6367   */\n      swap2\n      pop\n        /* \"#utility.yul\":6249:6377   */\n      pop\n        /* \"#utility.yul\":6033:6384   */\n      swap3\n      swap2\n      pop\n      pop\n      jump\t// out\n        /* \"#utility.yul\":6390:6558   */\n    tag_96:\n        /* \"#utility.yul\":6530:6550   */\n      0x6469646e27742073656e6420656e6f7567680000000000000000000000000000\n        /* \"#utility.yul\":6526:6527   */\n      0x00\n        /* \"#utility.yul\":6518:6524   */\n      dup3\n        /* \"#utility.yul\":6514:6528   */\n      add\n        /* \"#utility.yul\":6507:6551   */\n      mstore\n        /* \"#utility.yul\":6390:6558   */\n      pop\n      jump\t// out\n        /* \"#utility.yul\":6564:6930   */\n    tag_97:\n        /* \"#utility.yul\":6706:6709   */\n      0x00\n        /* \"#utility.yul\":6727:6794   */\n      tag_158\n        /* \"#utility.yul\":6791:6793   */\n      0x12\n        /* \"#utility.yul\":6786:6789   */\n      dup4\n        /* \"#utility.yul\":6727:6794   */\n      tag_86\n      jump\t// in\n    tag_158:\n        /* \"#utility.yul\":6720:6794   */\n      swap2\n      pop\n        /* \"#utility.yul\":6803:6896   */\n      tag_159\n        /* \"#utility.yul\":6892:6895   */\n      dup3\n        /* \"#utility.yul\":6803:6896   */\n      tag_96\n      jump\t// in\n    tag_159:\n        /* \"#utility.yul\":6921:6923   */\n      0x20\n        /* \"#utility.yul\":6916:6919   */\n      dup3\n        /* \"#utility.yul\":6912:6924   */\n      add\n        /* \"#utility.yul\":6905:6924   */\n      swap1\n      pop\n        /* \"#utility.yul\":6564:6930   */\n      swap2\n      swap1\n      pop\n      jump\t// out\n        /* \"#utility.yul\":6936:7355   */\n    tag_65:\n        /* \"#utility.yul\":7102:7106   */\n      0x00\n        /* \"#utility.yul\":7140:7142   */\n      0x20\n        /* \"#utility.yul\":7129:7138   */\n      dup3\n        /* \"#utility.yul\":7125:7143   */\n      add\n        /* \"#utility.yul\":7117:7143   */\n      swap1\n      pop\n        /* \"#utility.yul\":7189:7198   */\n      dup2\n        /* \"#utility.yul\":7183:7187   */\n      dup2\n        /* \"#utility.yul\":7179:7199   */\n      sub\n        /* \"#utility.yul\":7175:7176   */\n      0x00\n        /* \"#utility.yul\":7164:7173   */\n      dup4\n        /* \"#utility.yul\":7160:7177   */\n      add\n        /* \"#utility.yul\":7153:7200   */\n      mstore\n        /* \"#utility.yul\":7217:7348   */\n      tag_161\n        /* \"#utility.yul\":7343:7347   */\n      dup2\n        /* \"#utility.yul\":7217:7348   */\n      tag_97\n      jump\t// in\n    tag_161:\n        /* \"#utility.yul\":7209:7348   */\n      swap1\n      pop\n        /* \"#utility.yul\":6936:7355   */\n      swap2\n      swap1\n      pop\n      jump\t// out\n        /* \"#utility.yul\":7361:7541   */\n    tag_98:\n        /* \"#utility.yul\":7409:7486   */\n      0x4e487b7100000000000000000000000000000000000000000000000000000000\n        /* \"#utility.yul\":7406:7407   */\n      0x00\n        /* \"#utility.yul\":7399:7487   */\n      mstore\n        /* \"#utility.yul\":7506:7510   */\n      0x11\n        /* \"#utility.yul\":7503:7504   */\n      0x04\n        /* \"#utility.yul\":7496:7511   */\n      mstore\n        /* \"#utility.yul\":7530:7534   */\n      0x24\n        /* \"#utility.yul\":7527:7528   */\n      0x00\n        /* \"#utility.yul\":7520:7535   */\n      revert\n        /* \"#utility.yul\":7547:7738   */\n    tag_68:\n        /* \"#utility.yul\":7587:7590   */\n      0x00\n        /* \"#utility.yul\":7606:7626   */\n      tag_164\n        /* \"#utility.yul\":7624:7625   */\n      dup3\n        /* \"#utility.yul\":7606:7626   */\n      tag_76\n      jump\t// in\n    tag_164:\n        /* \"#utility.yul\":7601:7626   */\n      swap2\n      pop\n        /* \"#utility.yul\":7640:7660   */\n      tag_165\n        /* \"#utility.yul\":7658:7659   */\n      dup4\n        /* \"#utility.yul\":7640:7660   */\n      tag_76\n      jump\t// in\n    tag_165:\n        /* \"#utility.yul\":7635:7660   */\n      swap3\n      pop\n        /* \"#utility.yul\":7683:7684   */\n      dup3\n        /* \"#utility.yul\":7680:7681   */\n      dup3\n        /* \"#utility.yul\":7676:7685   */\n      add\n        /* \"#utility.yul\":7669:7685   */\n      swap1\n      pop\n        /* \"#utility.yul\":7704:7707   */\n      dup1\n        /* \"#utility.yul\":7701:7702   */\n      dup3\n        /* \"#utility.yul\":7698:7708   */\n      gt\n        /* \"#utility.yul\":7695:7731   */\n      iszero\n      tag_166\n      jumpi\n        /* \"#utility.yul\":7711:7729   */\n      tag_167\n      tag_98\n      jump\t// in\n    tag_167:\n        /* \"#utility.yul\":7695:7731   */\n    tag_166:\n        /* \"#utility.yul\":7547:7738   */\n      swap3\n      swap2\n      pop\n      pop\n      jump\t// out\n\n    auxdata: 0xa26469706673582212203415c654ca0d6e1d4fcf7c4b88bd12ba32c0c58b916a015f92e5be5c9a20f27164736f6c634300081c0033\n}\n",
				"bytecode": {
					"linkReferences": {
						"GetConversionRate.sol": {
							"PriceConverter": [
								{
									"length": 20,
									"start": 1033
								}
							]
						}
					},
					"object": "6080604052674563918244f40000600155348015601a575f5ffd5b50335f5f6101000a81548173ffffffffffffffffffffffffffffffffffffffff021916908373ffffffffffffffffffffffffffffffffffffffff1602179055506109a8806100675f395ff3fe608060405260043610610049575f3560e01c80633430a88c1461004d57806348e2f81b1461007757806357ea89b6146100b35780638da5cb5b146100c9578063b60d4288146100f3575b5f5ffd5b348015610058575f5ffd5b506100616100fd565b60405161006e91906105fe565b60405180910390f35b348015610082575f5ffd5b5061009d60048036038101906100989190610645565b610103565b6040516100aa91906106af565b60405180910390f35b3480156100be575f5ffd5b506100c761013e565b005b3480156100d4575f5ffd5b506100dd610378565b6040516100ea91906106af565b60405180910390f35b6100fb61039c565b005b60015481565b60028181548110610112575f80fd5b905f5260205f20015f915054906101000a900473ffffffffffffffffffffffffffffffffffffffff1681565b5f5f9054906101000a900473ffffffffffffffffffffffffffffffffffffffff1673ffffffffffffffffffffffffffffffffffffffff163373ffffffffffffffffffffffffffffffffffffffff16146101cc576040517f08c379a00000000000000000000000000000000000000000000000000000000081526004016101c390610722565b60405180910390fd5b5f5f90505b60028054905081101561026d575f600282815481106101f3576101f2610740565b5b905f5260205f20015f9054906101000a900473ffffffffffffffffffffffffffffffffffffffff1690505f60035f8373ffffffffffffffffffffffffffffffffffffffff1673ffffffffffffffffffffffffffffffffffffffff1681526020019081526020015f20819055505080806001019150506101d1565b505f67ffffffffffffffff8111156102885761028761076d565b5b6040519080825280602002602001820160405280156102b65781602001602082028036833780820191505090505b50600290805190602001906102cc929190610544565b505f3373ffffffffffffffffffffffffffffffffffffffff16476040516102f2906107c7565b5f6040518083038185875af1925050503d805f811461032c576040519150601f19603f3d011682016040523d82523d5f602084013e610331565b606091505b5050905080610375576040517f08c379a000000000000000000000000000000000000000000000000000000000815260040161036c90610825565b60405180910390fd5b50565b5f5f9054906101000a900473ffffffffffffffffffffffffffffffffffffffff1681565b6001543473__$458ba8e8d5bcc86ae3d345e3820b52114d$__63793b233b90916040518263ffffffff1660e01b81526004016103d89190610852565b602060405180830381865af41580156103f3573d5f5f3e3d5ffd5b505050506040513d601f19601f82011682018060405250810190610417919061087f565b1015610458576040517f08c379a000000000000000000000000000000000000000000000000000000000815260040161044f906108f4565b60405180910390fd5b600233908060018154018082558091505060019003905f5260205f20015f9091909190916101000a81548173ffffffffffffffffffffffffffffffffffffffff021916908373ffffffffffffffffffffffffffffffffffffffff1602179055503460035f3373ffffffffffffffffffffffffffffffffffffffff1673ffffffffffffffffffffffffffffffffffffffff1681526020019081526020015f2054610501919061093f565b60035f3373ffffffffffffffffffffffffffffffffffffffff1673ffffffffffffffffffffffffffffffffffffffff1681526020019081526020015f2081905550565b828054828255905f5260205f209081019282156105ba579160200282015b828111156105b9578251825f6101000a81548173ffffffffffffffffffffffffffffffffffffffff021916908373ffffffffffffffffffffffffffffffffffffffff16021790555091602001919060010190610562565b5b5090506105c791906105cb565b5090565b5b808211156105e2575f815f9055506001016105cc565b5090565b5f819050919050565b6105f8816105e6565b82525050565b5f6020820190506106115f8301846105ef565b92915050565b5f5ffd5b610624816105e6565b811461062e575f5ffd5b50565b5f8135905061063f8161061b565b92915050565b5f6020828403121561065a57610659610617565b5b5f61066784828501610631565b91505092915050565b5f73ffffffffffffffffffffffffffffffffffffffff82169050919050565b5f61069982610670565b9050919050565b6106a98161068f565b82525050565b5f6020820190506106c25f8301846106a0565b92915050565b5f82825260208201905092915050565b7f73656e646572206973204e4f54204f6e776572000000000000000000000000005f82015250565b5f61070c6013836106c8565b9150610717826106d8565b602082019050919050565b5f6020820190508181035f83015261073981610700565b9050919050565b7f4e487b71000000000000000000000000000000000000000000000000000000005f52603260045260245ffd5b7f4e487b71000000000000000000000000000000000000000000000000000000005f52604160045260245ffd5b5f81905092915050565b50565b5f6107b25f8361079a565b91506107bd826107a4565b5f82019050919050565b5f6107d1826107a7565b9150819050919050565b7f63616c6c206661696c65640000000000000000000000000000000000000000005f82015250565b5f61080f600b836106c8565b915061081a826107db565b602082019050919050565b5f6020820190508181035f83015261083c81610803565b9050919050565b61084c816105e6565b82525050565b5f6020820190506108655f830184610843565b92915050565b5f815190506108798161061b565b92915050565b5f6020828403121561089457610893610617565b5b5f6108a18482850161086b565b91505092915050565b7f6469646e27742073656e6420656e6f75676800000000000000000000000000005f82015250565b5f6108de6012836106c8565b91506108e9826108aa565b602082019050919050565b5f6020820190508181035f83015261090b816108d2565b9050919050565b7f4e487b71000000000000000000000000000000000000000000000000000000005f52601160045260245ffd5b5f610949826105e6565b9150610954836105e6565b925082820190508082111561096c5761096b610912565b5b9291505056fea26469706673582212203415c654ca0d6e1d4fcf7c4b88bd12ba32c0c58b916a015f92e5be5c9a20f27164736f6c634300081c0033",
					"opcodes": "PUSH1 0x80 PUSH1 0x40 MSTORE PUSH8 0x4563918244F40000 PUSH1 0x1 SSTORE CALLVALUE DUP1 ISZERO PUSH1 0x1A JUMPI PUSH0 PUSH0 REVERT JUMPDEST POP CALLER PUSH0 PUSH0 PUSH2 0x100 EXP DUP2 SLOAD DUP2 PUSH20 0xFFFFFFFFFFFFFFFFFFFFFFFFFFFFFFFFFFFFFFFF MUL NOT AND SWAP1 DUP4 PUSH20 0xFFFFFFFFFFFFFFFFFFFFFFFFFFFFFFFFFFFFFFFF AND MUL OR SWAP1 SSTORE POP PUSH2 0x9A8 DUP1 PUSH2 0x67 PUSH0 CODECOPY PUSH0 RETURN INVALID PUSH1 0x80 PUSH1 0x40 MSTORE PUSH1 0x4 CALLDATASIZE LT PUSH2 0x49 JUMPI PUSH0 CALLDATALOAD PUSH1 0xE0 SHR DUP1 PUSH4 0x3430A88C EQ PUSH2 0x4D JUMPI DUP1 PUSH4 0x48E2F81B EQ PUSH2 0x77 JUMPI DUP1 PUSH4 0x57EA89B6 EQ PUSH2 0xB3 JUMPI DUP1 PUSH4 0x8DA5CB5B EQ PUSH2 0xC9 JUMPI DUP1 PUSH4 0xB60D4288 EQ PUSH2 0xF3 JUMPI JUMPDEST PUSH0 PUSH0 REVERT JUMPDEST CALLVALUE DUP1 ISZERO PUSH2 0x58 JUMPI PUSH0 PUSH0 REVERT JUMPDEST POP PUSH2 0x61 PUSH2 0xFD JUMP JUMPDEST PUSH1 0x40 MLOAD PUSH2 0x6E SWAP2 SWAP1 PUSH2 0x5FE JUMP JUMPDEST PUSH1 0x40 MLOAD DUP1 SWAP2 SUB SWAP1 RETURN JUMPDEST CALLVALUE DUP1 ISZERO PUSH2 0x82 JUMPI PUSH0 PUSH0 REVERT JUMPDEST POP PUSH2 0x9D PUSH1 0x4 DUP1 CALLDATASIZE SUB DUP2 ADD SWAP1 PUSH2 0x98 SWAP2 SWAP1 PUSH2 0x645 JUMP JUMPDEST PUSH2 0x103 JUMP JUMPDEST PUSH1 0x40 MLOAD PUSH2 0xAA SWAP2 SWAP1 PUSH2 0x6AF JUMP JUMPDEST PUSH1 0x40 MLOAD DUP1 SWAP2 SUB SWAP1 RETURN JUMPDEST CALLVALUE DUP1 ISZERO PUSH2 0xBE JUMPI PUSH0 PUSH0 REVERT JUMPDEST POP PUSH2 0xC7 PUSH2 0x13E JUMP JUMPDEST STOP JUMPDEST CALLVALUE DUP1 ISZERO PUSH2 0xD4 JUMPI PUSH0 PUSH0 REVERT JUMPDEST POP PUSH2 0xDD PUSH2 0x378 JUMP JUMPDEST PUSH1 0x40 MLOAD PUSH2 0xEA SWAP2 SWAP1 PUSH2 0x6AF JUMP JUMPDEST PUSH1 0x40 MLOAD DUP1 SWAP2 SUB SWAP1 RETURN JUMPDEST PUSH2 0xFB PUSH2 0x39C JUMP JUMPDEST STOP JUMPDEST PUSH1 0x1 SLOAD DUP2 JUMP JUMPDEST PUSH1 0x2 DUP2 DUP2 SLOAD DUP2 LT PUSH2 0x112 JUMPI PUSH0 DUP1 REVERT JUMPDEST SWAP1 PUSH0 MSTORE PUSH1 0x20 PUSH0 KECCAK256 ADD PUSH0 SWAP2 POP SLOAD SWAP1 PUSH2 0x100 EXP SWAP1 DIV PUSH20 0xFFFFFFFFFFFFFFFFFFFFFFFFFFFFFFFFFFFFFFFF AND DUP2 JUMP JUMPDEST PUSH0 PUSH0 SWAP1 SLOAD SWAP1 PUSH2 0x100 EXP SWAP1 DIV PUSH20 0xFFFFFFFFFFFFFFFFFFFFFFFFFFFFFFFFFFFFFFFF AND PUSH20 0xFFFFFFFFFFFFFFFFFFFFFFFFFFFFFFFFFFFFFFFF AND CALLER PUSH20 0xFFFFFFFFFFFFFFFFFFFFFFFFFFFFFFFFFFFFFFFF AND EQ PUSH2 0x1CC JUMPI PUSH1 0x40 MLOAD PUSH32 0x8C379A000000000000000000000000000000000000000000000000000000000 DUP2 MSTORE PUSH1 0x4 ADD PUSH2 0x1C3 SWAP1 PUSH2 0x722 JUMP JUMPDEST PUSH1 0x40 MLOAD DUP1 SWAP2 SUB SWAP1 REVERT JUMPDEST PUSH0 PUSH0 SWAP1 POP JUMPDEST PUSH1 0x2 DUP1 SLOAD SWAP1 POP DUP2 LT ISZERO PUSH2 0x26D JUMPI PUSH0 PUSH1 0x2 DUP3 DUP2 SLOAD DUP2 LT PUSH2 0x1F3 JUMPI PUSH2 0x1F2 PUSH2 0x740 JUMP JUMPDEST JUMPDEST SWAP1 PUSH0 MSTORE PUSH1 0x20 PUSH0 KECCAK256 ADD PUSH0 SWAP1 SLOAD SWAP1 PUSH2 0x100 EXP SWAP1 DIV PUSH20 0xFFFFFFFFFFFFFFFFFFFFFFFFFFFFFFFFFFFFFFFF AND SWAP1 POP PUSH0 PUSH1 0x3 PUSH0 DUP4 PUSH20 0xFFFFFFFFFFFFFFFFFFFFFFFFFFFFFFFFFFFFFFFF AND PUSH20 0xFFFFFFFFFFFFFFFFFFFFFFFFFFFFFFFFFFFFFFFF AND DUP2 MSTORE PUSH1 0x20 ADD SWAP1 DUP2 MSTORE PUSH1 0x20 ADD PUSH0 KECCAK256 DUP2 SWAP1 SSTORE POP POP DUP1 DUP1 PUSH1 0x1 ADD SWAP2 POP POP PUSH2 0x1D1 JUMP JUMPDEST POP PUSH0 PUSH8 0xFFFFFFFFFFFFFFFF DUP2 GT ISZERO PUSH2 0x288 JUMPI PUSH2 0x287 PUSH2 0x76D JUMP JUMPDEST JUMPDEST PUSH1 0x40 MLOAD SWAP1 DUP1 DUP3 MSTORE DUP1 PUSH1 0x20 MUL PUSH1 0x20 ADD DUP3 ADD PUSH1 0x40 MSTORE DUP1 ISZERO PUSH2 0x2B6 JUMPI DUP2 PUSH1 0x20 ADD PUSH1 0x20 DUP3 MUL DUP1 CALLDATASIZE DUP4 CALLDATACOPY DUP1 DUP3 ADD SWAP2 POP POP SWAP1 POP JUMPDEST POP PUSH1 0x2 SWAP1 DUP1 MLOAD SWAP1 PUSH1 0x20 ADD SWAP1 PUSH2 0x2CC SWAP3 SWAP2 SWAP1 PUSH2 0x544 JUMP JUMPDEST POP PUSH0 CALLER PUSH20 0xFFFFFFFFFFFFFFFFFFFFFFFFFFFFFFFFFFFFFFFF AND SELFBALANCE PUSH1 0x40 MLOAD PUSH2 0x2F2 SWAP1 PUSH2 0x7C7 JUMP JUMPDEST PUSH0 PUSH1 0x40 MLOAD DUP1 DUP4 SUB DUP2 DUP6 DUP8 GAS CALL SWAP3 POP POP POP RETURNDATASIZE DUP1 PUSH0 DUP2 EQ PUSH2 0x32C JUMPI PUSH1 0x40 MLOAD SWAP2 POP PUSH1 0x1F NOT PUSH1 0x3F RETURNDATASIZE ADD AND DUP3 ADD PUSH1 0x40 MSTORE RETURNDATASIZE DUP3 MSTORE RETURNDATASIZE PUSH0 PUSH1 0x20 DUP5 ADD RETURNDATACOPY PUSH2 0x331 JUMP JUMPDEST PUSH1 0x60 SWAP2 POP JUMPDEST POP POP SWAP1 POP DUP1 PUSH2 0x375 JUMPI PUSH1 0x40 MLOAD PUSH32 0x8C379A000000000000000000000000000000000000000000000000000000000 DUP2 MSTORE PUSH1 0x4 ADD PUSH2 0x36C SWAP1 PUSH2 0x825 JUMP JUMPDEST PUSH1 0x40 MLOAD DUP1 SWAP2 SUB SWAP1 REVERT JUMPDEST POP JUMP JUMPDEST PUSH0 PUSH0 SWAP1 SLOAD SWAP1 PUSH2 0x100 EXP SWAP1 DIV PUSH20 0xFFFFFFFFFFFFFFFFFFFFFFFFFFFFFFFFFFFFFFFF AND DUP2 JUMP JUMPDEST PUSH1 0x1 SLOAD CALLVALUE PUSH20 0x0 PUSH4 0x793B233B SWAP1 SWAP2 PUSH1 0x40 MLOAD DUP3 PUSH4 0xFFFFFFFF AND PUSH1 0xE0 SHL DUP2 MSTORE PUSH1 0x4 ADD PUSH2 0x3D8 SWAP2 SWAP1 PUSH2 0x852 JUMP JUMPDEST PUSH1 0x20 PUSH1 0x40 MLOAD DUP1 DUP4 SUB DUP2 DUP7 GAS DELEGATECALL ISZERO DUP1 ISZERO PUSH2 0x3F3 JUMPI RETURNDATASIZE PUSH0 PUSH0 RETURNDATACOPY RETURNDATASIZE PUSH0 REVERT JUMPDEST POP POP POP POP PUSH1 0x40 MLOAD RETURNDATASIZE PUSH1 0x1F NOT PUSH1 0x1F DUP3 ADD AND DUP3 ADD DUP1 PUSH1 0x40 MSTORE POP DUP2 ADD SWAP1 PUSH2 0x417 SWAP2 SWAP1 PUSH2 0x87F JUMP JUMPDEST LT ISZERO PUSH2 0x458 JUMPI PUSH1 0x40 MLOAD PUSH32 0x8C379A000000000000000000000000000000000000000000000000000000000 DUP2 MSTORE PUSH1 0x4 ADD PUSH2 0x44F SWAP1 PUSH2 0x8F4 JUMP JUMPDEST PUSH1 0x40 MLOAD DUP1 SWAP2 SUB SWAP1 REVERT JUMPDEST PUSH1 0x2 CALLER SWAP1 DUP1 PUSH1 0x1 DUP2 SLOAD ADD DUP1 DUP3 SSTORE DUP1 SWAP2 POP POP PUSH1 0x1 SWAP1 SUB SWAP1 PUSH0 MSTORE PUSH1 0x20 PUSH0 KECCAK256 ADD PUSH0 SWAP1 SWAP2 SWAP1 SWAP2 SWAP1 SWAP2 PUSH2 0x100 EXP DUP2 SLOAD DUP2 PUSH20 0xFFFFFFFFFFFFFFFFFFFFFFFFFFFFFFFFFFFFFFFF MUL NOT AND SWAP1 DUP4 PUSH20 0xFFFFFFFFFFFFFFFFFFFFFFFFFFFFFFFFFFFFFFFF AND MUL OR SWAP1 SSTORE POP CALLVALUE PUSH1 0x3 PUSH0 CALLER PUSH20 0xFFFFFFFFFFFFFFFFFFFFFFFFFFFFFFFFFFFFFFFF AND PUSH20 0xFFFFFFFFFFFFFFFFFFFFFFFFFFFFFFFFFFFFFFFF AND DUP2 MSTORE PUSH1 0x20 ADD SWAP1 DUP2 MSTORE PUSH1 0x20 ADD PUSH0 KECCAK256 SLOAD PUSH2 0x501 SWAP2 SWAP1 PUSH2 0x93F JUMP JUMPDEST PUSH1 0x3 PUSH0 CALLER PUSH20 0xFFFFFFFFFFFFFFFFFFFFFFFFFFFFFFFFFFFFFFFF AND PUSH20 0xFFFFFFFFFFFFFFFFFFFFFFFFFFFFFFFFFFFFFFFF AND DUP2 MSTORE PUSH1 0x20 ADD SWAP1 DUP2 MSTORE PUSH1 0x20 ADD PUSH0 KECCAK256 DUP2 SWAP1 SSTORE POP JUMP JUMPDEST DUP3 DUP1 SLOAD DUP3 DUP3 SSTORE SWAP1 PUSH0 MSTORE PUSH1 0x20 PUSH0 KECCAK256 SWAP1 DUP2 ADD SWAP3 DUP3 ISZERO PUSH2 0x5BA JUMPI SWAP2 PUSH1 0x20 MUL DUP3 ADD JUMPDEST DUP3 DUP2 GT ISZERO PUSH2 0x5B9 JUMPI DUP3 MLOAD DUP3 PUSH0 PUSH2 0x100 EXP DUP2 SLOAD DUP2 PUSH20 0xFFFFFFFFFFFFFFFFFFFFFFFFFFFFFFFFFFFFFFFF MUL NOT AND SWAP1 DUP4 PUSH20 0xFFFFFFFFFFFFFFFFFFFFFFFFFFFFFFFFFFFFFFFF AND MUL OR SWAP1 SSTORE POP SWAP2 PUSH1 0x20 ADD SWAP2 SWAP1 PUSH1 0x1 ADD SWAP1 PUSH2 0x562 JUMP JUMPDEST JUMPDEST POP SWAP1 POP PUSH2 0x5C7 SWAP2 SWAP1 PUSH2 0x5CB JUMP JUMPDEST POP SWAP1 JUMP JUMPDEST JUMPDEST DUP1 DUP3 GT ISZERO PUSH2 0x5E2 JUMPI PUSH0 DUP2 PUSH0 SWAP1 SSTORE POP PUSH1 0x1 ADD PUSH2 0x5CC JUMP JUMPDEST POP SWAP1 JUMP JUMPDEST PUSH0 DUP2 SWAP1 POP SWAP2 SWAP1 POP JUMP JUMPDEST PUSH2 0x5F8 DUP2 PUSH2 0x5E6 JUMP JUMPDEST DUP3 MSTORE POP POP JUMP JUMPDEST PUSH0 PUSH1 0x20 DUP3 ADD SWAP1 POP PUSH2 0x611 PUSH0 DUP4 ADD DUP5 PUSH2 0x5EF JUMP JUMPDEST SWAP3 SWAP2 POP POP JUMP JUMPDEST PUSH0 PUSH0 REVERT JUMPDEST PUSH2 0x624 DUP2 PUSH2 0x5E6 JUMP JUMPDEST DUP2 EQ PUSH2 0x62E JUMPI PUSH0 PUSH0 REVERT JUMPDEST POP JUMP JUMPDEST PUSH0 DUP2 CALLDATALOAD SWAP1 POP PUSH2 0x63F DUP2 PUSH2 0x61B JUMP JUMPDEST SWAP3 SWAP2 POP POP JUMP JUMPDEST PUSH0 PUSH1 0x20 DUP3 DUP5 SUB SLT ISZERO PUSH2 0x65A JUMPI PUSH2 0x659 PUSH2 0x617 JUMP JUMPDEST JUMPDEST PUSH0 PUSH2 0x667 DUP5 DUP3 DUP6 ADD PUSH2 0x631 JUMP JUMPDEST SWAP2 POP POP SWAP3 SWAP2 POP POP JUMP JUMPDEST PUSH0 PUSH20 0xFFFFFFFFFFFFFFFFFFFFFFFFFFFFFFFFFFFFFFFF DUP3 AND SWAP1 POP SWAP2 SWAP1 POP JUMP JUMPDEST PUSH0 PUSH2 0x699 DUP3 PUSH2 0x670 JUMP JUMPDEST SWAP1 POP SWAP2 SWAP1 POP JUMP JUMPDEST PUSH2 0x6A9 DUP2 PUSH2 0x68F JUMP JUMPDEST DUP3 MSTORE POP POP JUMP JUMPDEST PUSH0 PUSH1 0x20 DUP3 ADD SWAP1 POP PUSH2 0x6C2 PUSH0 DUP4 ADD DUP5 PUSH2 0x6A0 JUMP JUMPDEST SWAP3 SWAP2 POP POP JUMP JUMPDEST PUSH0 DUP3 DUP3 MSTORE PUSH1 0x20 DUP3 ADD SWAP1 POP SWAP3 SWAP2 POP POP JUMP JUMPDEST PUSH32 0x73656E646572206973204E4F54204F6E77657200000000000000000000000000 PUSH0 DUP3 ADD MSTORE POP JUMP JUMPDEST PUSH0 PUSH2 0x70C PUSH1 0x13 DUP4 PUSH2 0x6C8 JUMP JUMPDEST SWAP2 POP PUSH2 0x717 DUP3 PUSH2 0x6D8 JUMP JUMPDEST PUSH1 0x20 DUP3 ADD SWAP1 POP SWAP2 SWAP1 POP JUMP JUMPDEST PUSH0 PUSH1 0x20 DUP3 ADD SWAP1 POP DUP2 DUP2 SUB PUSH0 DUP4 ADD MSTORE PUSH2 0x739 DUP2 PUSH2 0x700 JUMP JUMPDEST SWAP1 POP SWAP2 SWAP1 POP JUMP JUMPDEST PUSH32 0x4E487B7100000000000000000000000000000000000000000000000000000000 PUSH0 MSTORE PUSH1 0x32 PUSH1 0x4 MSTORE PUSH1 0x24 PUSH0 REVERT JUMPDEST PUSH32 0x4E487B7100000000000000000000000000000000000000000000000000000000 PUSH0 MSTORE PUSH1 0x41 PUSH1 0x4 MSTORE PUSH1 0x24 PUSH0 REVERT JUMPDEST PUSH0 DUP2 SWAP1 POP SWAP3 SWAP2 POP POP JUMP JUMPDEST POP JUMP JUMPDEST PUSH0 PUSH2 0x7B2 PUSH0 DUP4 PUSH2 0x79A JUMP JUMPDEST SWAP2 POP PUSH2 0x7BD DUP3 PUSH2 0x7A4 JUMP JUMPDEST PUSH0 DUP3 ADD SWAP1 POP SWAP2 SWAP1 POP JUMP JUMPDEST PUSH0 PUSH2 0x7D1 DUP3 PUSH2 0x7A7 JUMP JUMPDEST SWAP2 POP DUP2 SWAP1 POP SWAP2 SWAP1 POP JUMP JUMPDEST PUSH32 0x63616C6C206661696C6564000000000000000000000000000000000000000000 PUSH0 DUP3 ADD MSTORE POP JUMP JUMPDEST PUSH0 PUSH2 0x80F PUSH1 0xB DUP4 PUSH2 0x6C8 JUMP JUMPDEST SWAP2 POP PUSH2 0x81A DUP3 PUSH2 0x7DB JUMP JUMPDEST PUSH1 0x20 DUP3 ADD SWAP1 POP SWAP2 SWAP1 POP JUMP JUMPDEST PUSH0 PUSH1 0x20 DUP3 ADD SWAP1 POP DUP2 DUP2 SUB PUSH0 DUP4 ADD MSTORE PUSH2 0x83C DUP2 PUSH2 0x803 JUMP JUMPDEST SWAP1 POP SWAP2 SWAP1 POP JUMP JUMPDEST PUSH2 0x84C DUP2 PUSH2 0x5E6 JUMP JUMPDEST DUP3 MSTORE POP POP JUMP JUMPDEST PUSH0 PUSH1 0x20 DUP3 ADD SWAP1 POP PUSH2 0x865 PUSH0 DUP4 ADD DUP5 PUSH2 0x843 JUMP JUMPDEST SWAP3 SWAP2 POP POP JUMP JUMPDEST PUSH0 DUP2 MLOAD SWAP1 POP PUSH2 0x879 DUP2 PUSH2 0x61B JUMP JUMPDEST SWAP3 SWAP2 POP POP JUMP JUMPDEST PUSH0 PUSH1 0x20 DUP3 DUP5 SUB SLT ISZERO PUSH2 0x894 JUMPI PUSH2 0x893 PUSH2 0x617 JUMP JUMPDEST JUMPDEST PUSH0 PUSH2 0x8A1 DUP5 DUP3 DUP6 ADD PUSH2 0x86B JUMP JUMPDEST SWAP2 POP POP SWAP3 SWAP2 POP POP JUMP JUMPDEST PUSH32 0x6469646E27742073656E6420656E6F7567680000000000000000000000000000 PUSH0 DUP3 ADD MSTORE POP JUMP JUMPDEST PUSH0 PUSH2 0x8DE PUSH1 0x12 DUP4 PUSH2 0x6C8 JUMP JUMPDEST SWAP2 POP PUSH2 0x8E9 DUP3 PUSH2 0x8AA JUMP JUMPDEST PUSH1 0x20 DUP3 ADD SWAP1 POP SWAP2 SWAP1 POP JUMP JUMPDEST PUSH0 PUSH1 0x20 DUP3 ADD SWAP1 POP DUP2 DUP2 SUB PUSH0 DUP4 ADD MSTORE PUSH2 0x90B DUP2 PUSH2 0x8D2 JUMP JUMPDEST SWAP1 POP SWAP2 SWAP1 POP JUMP JUMPDEST PUSH32 0x4E487B7100000000000000000000000000000000000000000000000000000000 PUSH0 MSTORE PUSH1 0x11 PUSH1 0x4 MSTORE PUSH1 0x24 PUSH0 REVERT JUMPDEST PUSH0 PUSH2 0x949 DUP3 PUSH2 0x5E6 JUMP JUMPDEST SWAP2 POP PUSH2 0x954 DUP4 PUSH2 0x5E6 JUMP JUMPDEST SWAP3 POP DUP3 DUP3 ADD SWAP1 POP DUP1 DUP3 GT ISZERO PUSH2 0x96C JUMPI PUSH2 0x96B PUSH2 0x912 JUMP JUMPDEST JUMPDEST SWAP3 SWAP2 POP POP JUMP INVALID LOG2 PUSH5 0x6970667358 0x22 SLT KECCAK256 CALLVALUE ISZERO 0xC6 SLOAD 0xCA 0xD PUSH15 0x1D4FCF7C4B88BD12BA32C0C58B916A ADD PUSH0 SWAP3 0xE5 0xBE TLOAD SWAP11 KECCAK256 CALLCODE PUSH18 0x64736F6C634300081C003300000000000000 "
				},
				"gasEstimates": {
					"creation": {
						"codeDepositCost": "494400",
						"executionCost": "46898",
						"totalCost": "541298"
					},
					"external": {
						"Funders(uint256)": "4944",
						"Withdraw()": "infinite",
						"fund()": "infinite",
						"minimumUSD()": "2403",
						"owner()": "2551"
					}
				},
				"methodIdentifiers": {
					"Funders(uint256)": "48e2f81b",
					"Withdraw()": "57ea89b6",
					"fund()": "b60d4288",
					"minimumUSD()": "3430a88c",
					"owner()": "8da5cb5b"
				}
			},
			"storageLayout": {
				"storage": [
					{
						"astId": 118,
						"contract": "fundme.sol:Fundme",
						"label": "owner",
						"offset": 0,
						"slot": "0",
						"type": "t_address"
					},
					{
						"astId": 135,
						"contract": "fundme.sol:Fundme",
						"label": "minimumUSD",
						"offset": 0,
						"slot": "1",
						"type": "t_uint256"
					},
					{
						"astId": 138,
						"contract": "fundme.sol:Fundme",
						"label": "Funders",
						"offset": 0,
						"slot": "2",
						"type": "t_array(t_address)dyn_storage"
					},
					{
						"astId": 142,
						"contract": "fundme.sol:Fundme",
						"label": "AmountSentByFunder",
						"offset": 0,
						"slot": "3",
						"type": "t_mapping(t_address,t_uint256)"
					}
				],
				"types": {
					"t_address": {
						"encoding": "inplace",
						"label": "address",
						"numberOfBytes": "20"
					},
					"t_array(t_address)dyn_storage": {
						"base": "t_address",
						"encoding": "dynamic_array",
						"label": "address[]",
						"numberOfBytes": "32"
					},
					"t_mapping(t_address,t_uint256)": {
						"encoding": "mapping",
						"key": "t_address",
						"label": "mapping(address => uint256)",
						"numberOfBytes": "32",
						"value": "t_uint256"
					},
					"t_uint256": {
						"encoding": "inplace",
						"label": "uint256",
						"numberOfBytes": "32"
					}
				}
			},
			"userdoc": {
				"kind": "user",
				"methods": {},
				"version": 1
			}
		}
	}
}