{
	"contracts/SimpleStorage.sol": {
		"SimpleStorage": {
			"abi": [
				{
					"inputs": [
						{
							"internalType": "string",
							"name": "_Name",
							"type": "string"
						},
						{
							"internalType": "uint256",
							"name": "_favoriteNumber",
							"type": "uint256"
						}
					],
					"name": "AddPeople",
					"outputs": [],
					"stateMutability": "nonpayable",
					"type": "function"
				},
				{
					"inputs": [
						{
							"internalType": "uint256",
							"name": "",
							"type": "uint256"
						}
					],
					"name": "listOfPeople",
					"outputs": [
						{
							"internalType": "string",
							"name": "Name",
							"type": "string"
						},
						{
							"internalType": "uint256",
							"name": "favoriteNumber",
							"type": "uint256"
						}
					],
					"stateMutability": "view",
					"type": "function"
				},
				{
					"inputs": [
						{
							"internalType": "string",
							"name": "_Name",
							"type": "string"
						}
					],
					"name": "retreiveData",
					"outputs": [
						{
							"internalType": "uint256",
							"name": "",
							"type": "uint256"
						}
					],
					"stateMutability": "view",
					"type": "function"
				},
				{
					"inputs": [],
					"name": "seeMyFavoriteNumber",
					"outputs": [
						{
							"internalType": "uint256",
							"name": "",
							"type": "uint256"
						}
					],
					"stateMutability": "view",
					"type": "function"
				},
				{
					"inputs": [
						{
							"internalType": "uint256",
							"name": "_myFavoreiteNumber",
							"type": "uint256"
						}
					],
					"name": "store",
					"outputs": [],
					"stateMutability": "nonpayable",
					"type": "function"
				},
				{
					"inputs": [
						{
							"internalType": "string",
							"name": "",
							"type": "string"
						}
					],
					"name": "stringToFavoriteNumber",
					"outputs": [
						{
							"internalType": "uint256",
							"name": "",
							"type": "uint256"
						}
					],
					"stateMutability": "view",
					"type": "function"
				}
			],
			"devdoc": {
				"kind": "dev",
				"methods": {},
				"version": 1
			},
			"evm": {
				"assembly": "    /* \"contracts/SimpleStorage.sol\":142:1039  contract SimpleStorage {... */\n  mstore(0x40, 0x80)\n  callvalue\n  dup1\n  iszero\n  tag_1\n  jumpi\n  0x00\n  dup1\n  revert\ntag_1:\n  pop\n  dataSize(sub_0)\n  dup1\n  dataOffset(sub_0)\n  0x00\n  codecopy\n  0x00\n  return\nstop\n\nsub_0: assembly {\n        /* \"contracts/SimpleStorage.sol\":142:1039  contract SimpleStorage {... */\n      mstore(0x40, 0x80)\n      callvalue\n      dup1\n      iszero\n      tag_1\n      jumpi\n      0x00\n      dup1\n      revert\n    tag_1:\n      pop\n      jumpi(tag_2, lt(calldatasize, 0x04))\n      shr(0xe0, calldataload(0x00))\n      dup1\n      0x0d9843d4\n      eq\n      tag_3\n      jumpi\n      dup1\n      0x18b50f2d\n      eq\n      tag_4\n      jumpi\n      dup1\n      0x2ebce631\n      eq\n      tag_5\n      jumpi\n      dup1\n      0x35d0aac1\n      eq\n      tag_6\n      jumpi\n      dup1\n      0x6057361d\n      eq\n      tag_7\n      jumpi\n      dup1\n      0x635d743e\n      eq\n      tag_8\n      jumpi\n    tag_2:\n      0x00\n      dup1\n      revert\n        /* \"contracts/SimpleStorage.sol\":912:1037  function retreiveData(string memory _Name) public view returns(uint256) {... */\n    tag_3:\n      tag_9\n      0x04\n      dup1\n      calldatasize\n      sub\n      dup2\n      add\n      swap1\n      tag_10\n      swap2\n      swap1\n      tag_11\n      jump\t// in\n    tag_10:\n      tag_12\n      jump\t// in\n    tag_9:\n      mload(0x40)\n      tag_13\n      swap2\n      swap1\n      tag_14\n      jump\t// in\n    tag_13:\n      mload(0x40)\n      dup1\n      swap2\n      sub\n      swap1\n      return\n        /* \"contracts/SimpleStorage.sol\":502:558  mapping(string => uint256) public stringToFavoriteNumber */\n    tag_4:\n      tag_15\n      0x04\n      dup1\n      calldatasize\n      sub\n      dup2\n      add\n      swap1\n      tag_16\n      swap2\n      swap1\n      tag_11\n      jump\t// in\n    tag_16:\n      tag_17\n      jump\t// in\n    tag_15:\n      mload(0x40)\n      tag_18\n      swap2\n      swap1\n      tag_14\n      jump\t// in\n    tag_18:\n      mload(0x40)\n      dup1\n      swap2\n      sub\n      swap1\n      return\n        /* \"contracts/SimpleStorage.sol\":608:636  Person[] public listOfPeople */\n    tag_5:\n      tag_19\n      0x04\n      dup1\n      calldatasize\n      sub\n      dup2\n      add\n      swap1\n      tag_20\n      swap2\n      swap1\n      tag_21\n      jump\t// in\n    tag_20:\n      tag_22\n      jump\t// in\n    tag_19:\n      mload(0x40)\n      tag_23\n      swap3\n      swap2\n      swap1\n      tag_24\n      jump\t// in\n    tag_23:\n      mload(0x40)\n      dup1\n      swap2\n      sub\n      swap1\n      return\n        /* \"contracts/SimpleStorage.sol\":642:906  function AddPeople(string memory _Name, uint256 _favoriteNumber) public {... */\n    tag_6:\n      tag_25\n      0x04\n      dup1\n      calldatasize\n      sub\n      dup2\n      add\n      swap1\n      tag_26\n      swap2\n      swap1\n      tag_27\n      jump\t// in\n    tag_26:\n      tag_28\n      jump\t// in\n    tag_25:\n      stop\n        /* \"contracts/SimpleStorage.sol\":201:313  function store(uint256 _myFavoreiteNumber) public virtual {... */\n    tag_7:\n      tag_29\n      0x04\n      dup1\n      calldatasize\n      sub\n      dup2\n      add\n      swap1\n      tag_30\n      swap2\n      swap1\n      tag_21\n      jump\t// in\n    tag_30:\n      tag_31\n      jump\t// in\n    tag_29:\n      stop\n        /* \"contracts/SimpleStorage.sol\":318:418  function seeMyFavoriteNumber() public view returns (uint256){... */\n    tag_8:\n      tag_32\n      tag_33\n      jump\t// in\n    tag_32:\n      mload(0x40)\n      tag_34\n      swap2\n      swap1\n      tag_14\n      jump\t// in\n    tag_34:\n      mload(0x40)\n      dup1\n      swap2\n      sub\n      swap1\n      return\n        /* \"contracts/SimpleStorage.sol\":912:1037  function retreiveData(string memory _Name) public view returns(uint256) {... */\n    tag_12:\n        /* \"contracts/SimpleStorage.sol\":975:982  uint256 */\n      0x00\n        /* \"contracts/SimpleStorage.sol\":1001:1023  stringToFavoriteNumber */\n      0x01\n        /* \"contracts/SimpleStorage.sol\":1024:1029  _Name */\n      dup3\n        /* \"contracts/SimpleStorage.sol\":1001:1030  stringToFavoriteNumber[_Name] */\n      mload(0x40)\n      tag_36\n      swap2\n      swap1\n      tag_37\n      jump\t// in\n    tag_36:\n      swap1\n      dup2\n      mstore\n      0x20\n      add\n      mload(0x40)\n      dup1\n      swap2\n      sub\n      swap1\n      keccak256\n      sload\n        /* \"contracts/SimpleStorage.sol\":994:1030  return stringToFavoriteNumber[_Name] */\n      swap1\n      pop\n        /* \"contracts/SimpleStorage.sol\":912:1037  function retreiveData(string memory _Name) public view returns(uint256) {... */\n      swap2\n      swap1\n      pop\n      jump\t// out\n        /* \"contracts/SimpleStorage.sol\":502:558  mapping(string => uint256) public stringToFavoriteNumber */\n    tag_17:\n      0x01\n      dup2\n      dup1\n      mload\n      0x20\n      dup2\n      add\n      dup3\n      add\n      dup1\n      mload\n      dup5\n      dup3\n      mstore\n      0x20\n      dup4\n      add\n      0x20\n      dup6\n      add\n      keccak256\n      dup2\n      dup4\n      mstore\n      dup1\n      swap6\n      pop\n      pop\n      pop\n      pop\n      pop\n      pop\n      0x00\n      swap2\n      pop\n      swap1\n      pop\n      sload\n      dup2\n      jump\t// out\n        /* \"contracts/SimpleStorage.sol\":608:636  Person[] public listOfPeople */\n    tag_22:\n      0x02\n      dup2\n      dup2\n      sload\n      dup2\n      lt\n      tag_38\n      jumpi\n      0x00\n      dup1\n      revert\n    tag_38:\n      swap1\n      0x00\n      mstore\n      keccak256(0x00, 0x20)\n      swap1\n      0x02\n      mul\n      add\n      0x00\n      swap2\n      pop\n      swap1\n      pop\n      dup1\n      0x00\n      add\n      dup1\n      sload\n      tag_40\n      swap1\n      tag_41\n      jump\t// in\n    tag_40:\n      dup1\n      0x1f\n      add\n      0x20\n      dup1\n      swap2\n      div\n      mul\n      0x20\n      add\n      mload(0x40)\n      swap1\n      dup2\n      add\n      0x40\n      mstore\n      dup1\n      swap3\n      swap2\n      swap1\n      dup2\n      dup2\n      mstore\n      0x20\n      add\n      dup3\n      dup1\n      sload\n      tag_42\n      swap1\n      tag_41\n      jump\t// in\n    tag_42:\n      dup1\n      iszero\n      tag_43\n      jumpi\n      dup1\n      0x1f\n      lt\n      tag_44\n      jumpi\n      0x0100\n      dup1\n      dup4\n      sload\n      div\n      mul\n      dup4\n      mstore\n      swap2\n      0x20\n      add\n      swap2\n      jump(tag_43)\n    tag_44:\n      dup3\n      add\n      swap2\n      swap1\n      0x00\n      mstore\n      keccak256(0x00, 0x20)\n      swap1\n    tag_45:\n      dup2\n      sload\n      dup2\n      mstore\n      swap1\n      0x01\n      add\n      swap1\n      0x20\n      add\n      dup1\n      dup4\n      gt\n      tag_45\n      jumpi\n      dup3\n      swap1\n      sub\n      0x1f\n      and\n      dup3\n      add\n      swap2\n    tag_43:\n      pop\n      pop\n      pop\n      pop\n      pop\n      swap1\n      dup1\n      0x01\n      add\n      sload\n      swap1\n      pop\n      dup3\n      jump\t// out\n        /* \"contracts/SimpleStorage.sol\":642:906  function AddPeople(string memory _Name, uint256 _favoriteNumber) public {... */\n    tag_28:\n        /* \"contracts/SimpleStorage.sol\":724:747  Person memory Newperson */\n      0x00\n        /* \"contracts/SimpleStorage.sol\":750:804  Person({Name : _Name,favoriteNumber: _favoriteNumber}) */\n      mload(0x40)\n      dup1\n      0x40\n      add\n      0x40\n      mstore\n      dup1\n        /* \"contracts/SimpleStorage.sol\":765:770  _Name */\n      dup5\n        /* \"contracts/SimpleStorage.sol\":750:804  Person({Name : _Name,favoriteNumber: _favoriteNumber}) */\n      dup2\n      mstore\n      0x20\n      add\n        /* \"contracts/SimpleStorage.sol\":787:802  _favoriteNumber */\n      dup4\n        /* \"contracts/SimpleStorage.sol\":750:804  Person({Name : _Name,favoriteNumber: _favoriteNumber}) */\n      dup2\n      mstore\n      pop\n        /* \"contracts/SimpleStorage.sol\":724:804  Person memory Newperson = Person({Name : _Name,favoriteNumber: _favoriteNumber}) */\n      swap1\n      pop\n        /* \"contracts/SimpleStorage.sol\":814:826  listOfPeople */\n      0x02\n        /* \"contracts/SimpleStorage.sol\":832:841  Newperson */\n      dup2\n        /* \"contracts/SimpleStorage.sol\":814:842  listOfPeople.push(Newperson) */\n      swap1\n      dup1\n      0x01\n      dup2\n      sload\n      add\n      dup1\n      dup3\n      sstore\n      dup1\n      swap2\n      pop\n      pop\n      0x01\n      swap1\n      sub\n      swap1\n      0x00\n      mstore\n      keccak256(0x00, 0x20)\n      swap1\n      0x02\n      mul\n      add\n      0x00\n      swap1\n      swap2\n      swap1\n      swap2\n      swap1\n      swap2\n      pop\n      0x00\n      dup3\n      add\n      mload\n      dup2\n      0x00\n      add\n      swap1\n      dup2\n      tag_48\n      swap2\n      swap1\n      tag_49\n      jump\t// in\n    tag_48:\n      pop\n      0x20\n      dup3\n      add\n      mload\n      dup2\n      0x01\n      add\n      sstore\n      pop\n      pop\n        /* \"contracts/SimpleStorage.sol\":884:899  _favoriteNumber */\n      dup2\n        /* \"contracts/SimpleStorage.sol\":852:874  stringToFavoriteNumber */\n      0x01\n        /* \"contracts/SimpleStorage.sol\":875:880  _Name */\n      dup5\n        /* \"contracts/SimpleStorage.sol\":852:881  stringToFavoriteNumber[_Name] */\n      mload(0x40)\n      tag_50\n      swap2\n      swap1\n      tag_37\n      jump\t// in\n    tag_50:\n      swap1\n      dup2\n      mstore\n      0x20\n      add\n      mload(0x40)\n      dup1\n      swap2\n      sub\n      swap1\n      keccak256\n        /* \"contracts/SimpleStorage.sol\":852:899  stringToFavoriteNumber[_Name] = _favoriteNumber */\n      dup2\n      swap1\n      sstore\n      pop\n        /* \"contracts/SimpleStorage.sol\":714:906  {... */\n      pop\n        /* \"contracts/SimpleStorage.sol\":642:906  function AddPeople(string memory _Name, uint256 _favoriteNumber) public {... */\n      pop\n      pop\n      jump\t// out\n        /* \"contracts/SimpleStorage.sol\":201:313  function store(uint256 _myFavoreiteNumber) public virtual {... */\n    tag_31:\n        /* \"contracts/SimpleStorage.sol\":288:306  _myFavoreiteNumber */\n      dup1\n        /* \"contracts/SimpleStorage.sol\":269:285  myFavoriteNumber */\n      0x00\n        /* \"contracts/SimpleStorage.sol\":269:306  myFavoriteNumber = _myFavoreiteNumber */\n      dup2\n      swap1\n      sstore\n      pop\n        /* \"contracts/SimpleStorage.sol\":201:313  function store(uint256 _myFavoreiteNumber) public virtual {... */\n      pop\n      jump\t// out\n        /* \"contracts/SimpleStorage.sol\":318:418  function seeMyFavoriteNumber() public view returns (uint256){... */\n    tag_33:\n        /* \"contracts/SimpleStorage.sol\":370:377  uint256 */\n      0x00\n        /* \"contracts/SimpleStorage.sol\":395:411  myFavoriteNumber */\n      dup1\n      sload\n        /* \"contracts/SimpleStorage.sol\":388:411  return myFavoriteNumber */\n      swap1\n      pop\n        /* \"contracts/SimpleStorage.sol\":318:418  function seeMyFavoriteNumber() public view returns (uint256){... */\n      swap1\n      jump\t// out\n        /* \"#utility.yul\":7:82   */\n    tag_53:\n        /* \"#utility.yul\":40:46   */\n      0x00\n        /* \"#utility.yul\":73:75   */\n      0x40\n        /* \"#utility.yul\":67:76   */\n      mload\n        /* \"#utility.yul\":57:76   */\n      swap1\n      pop\n        /* \"#utility.yul\":7:82   */\n      swap1\n      jump\t// out\n        /* \"#utility.yul\":88:205   */\n    tag_54:\n        /* \"#utility.yul\":197:198   */\n      0x00\n        /* \"#utility.yul\":194:195   */\n      dup1\n        /* \"#utility.yul\":187:199   */\n      revert\n        /* \"#utility.yul\":211:328   */\n    tag_55:\n        /* \"#utility.yul\":320:321   */\n      0x00\n        /* \"#utility.yul\":317:318   */\n      dup1\n        /* \"#utility.yul\":310:322   */\n      revert\n        /* \"#utility.yul\":334:451   */\n    tag_56:\n        /* \"#utility.yul\":443:444   */\n      0x00\n        /* \"#utility.yul\":440:441   */\n      dup1\n        /* \"#utility.yul\":433:445   */\n      revert\n        /* \"#utility.yul\":457:574   */\n    tag_57:\n        /* \"#utility.yul\":566:567   */\n      0x00\n        /* \"#utility.yul\":563:564   */\n      dup1\n        /* \"#utility.yul\":556:568   */\n      revert\n        /* \"#utility.yul\":580:682   */\n    tag_58:\n        /* \"#utility.yul\":621:627   */\n      0x00\n        /* \"#utility.yul\":672:674   */\n      0x1f\n        /* \"#utility.yul\":668:675   */\n      not\n        /* \"#utility.yul\":663:665   */\n      0x1f\n        /* \"#utility.yul\":656:661   */\n      dup4\n        /* \"#utility.yul\":652:666   */\n      add\n        /* \"#utility.yul\":648:676   */\n      and\n        /* \"#utility.yul\":638:676   */\n      swap1\n      pop\n        /* \"#utility.yul\":580:682   */\n      swap2\n      swap1\n      pop\n      jump\t// out\n        /* \"#utility.yul\":688:868   */\n    tag_59:\n        /* \"#utility.yul\":736:813   */\n      0x4e487b7100000000000000000000000000000000000000000000000000000000\n        /* \"#utility.yul\":733:734   */\n      0x00\n        /* \"#utility.yul\":726:814   */\n      mstore\n        /* \"#utility.yul\":833:837   */\n      0x41\n        /* \"#utility.yul\":830:831   */\n      0x04\n        /* \"#utility.yul\":823:838   */\n      mstore\n        /* \"#utility.yul\":857:861   */\n      0x24\n        /* \"#utility.yul\":854:855   */\n      0x00\n        /* \"#utility.yul\":847:862   */\n      revert\n        /* \"#utility.yul\":874:1155   */\n    tag_60:\n        /* \"#utility.yul\":957:984   */\n      tag_101\n        /* \"#utility.yul\":979:983   */\n      dup3\n        /* \"#utility.yul\":957:984   */\n      tag_58\n      jump\t// in\n    tag_101:\n        /* \"#utility.yul\":949:955   */\n      dup2\n        /* \"#utility.yul\":945:985   */\n      add\n        /* \"#utility.yul\":1087:1093   */\n      dup2\n        /* \"#utility.yul\":1075:1085   */\n      dup2\n        /* \"#utility.yul\":1072:1094   */\n      lt\n        /* \"#utility.yul\":1051:1069   */\n      0xffffffffffffffff\n        /* \"#utility.yul\":1039:1049   */\n      dup3\n        /* \"#utility.yul\":1036:1070   */\n      gt\n        /* \"#utility.yul\":1033:1095   */\n      or\n        /* \"#utility.yul\":1030:1118   */\n      iszero\n      tag_102\n      jumpi\n        /* \"#utility.yul\":1098:1116   */\n      tag_103\n      tag_59\n      jump\t// in\n    tag_103:\n        /* \"#utility.yul\":1030:1118   */\n    tag_102:\n        /* \"#utility.yul\":1138:1148   */\n      dup1\n        /* \"#utility.yul\":1134:1136   */\n      0x40\n        /* \"#utility.yul\":1127:1149   */\n      mstore\n        /* \"#utility.yul\":917:1155   */\n      pop\n        /* \"#utility.yul\":874:1155   */\n      pop\n      pop\n      jump\t// out\n        /* \"#utility.yul\":1161:1290   */\n    tag_61:\n        /* \"#utility.yul\":1195:1201   */\n      0x00\n        /* \"#utility.yul\":1222:1242   */\n      tag_105\n      tag_53\n      jump\t// in\n    tag_105:\n        /* \"#utility.yul\":1212:1242   */\n      swap1\n      pop\n        /* \"#utility.yul\":1251:1284   */\n      tag_106\n        /* \"#utility.yul\":1279:1283   */\n      dup3\n        /* \"#utility.yul\":1271:1277   */\n      dup3\n        /* \"#utility.yul\":1251:1284   */\n      tag_60\n      jump\t// in\n    tag_106:\n        /* \"#utility.yul\":1161:1290   */\n      swap2\n      swap1\n      pop\n      jump\t// out\n        /* \"#utility.yul\":1296:1604   */\n    tag_62:\n        /* \"#utility.yul\":1358:1362   */\n      0x00\n        /* \"#utility.yul\":1448:1466   */\n      0xffffffffffffffff\n        /* \"#utility.yul\":1440:1446   */\n      dup3\n        /* \"#utility.yul\":1437:1467   */\n      gt\n        /* \"#utility.yul\":1434:1490   */\n      iszero\n      tag_108\n      jumpi\n        /* \"#utility.yul\":1470:1488   */\n      tag_109\n      tag_59\n      jump\t// in\n    tag_109:\n        /* \"#utility.yul\":1434:1490   */\n    tag_108:\n        /* \"#utility.yul\":1508:1537   */\n      tag_110\n        /* \"#utility.yul\":1530:1536   */\n      dup3\n        /* \"#utility.yul\":1508:1537   */\n      tag_58\n      jump\t// in\n    tag_110:\n        /* \"#utility.yul\":1500:1537   */\n      swap1\n      pop\n        /* \"#utility.yul\":1592:1596   */\n      0x20\n        /* \"#utility.yul\":1586:1590   */\n      dup2\n        /* \"#utility.yul\":1582:1597   */\n      add\n        /* \"#utility.yul\":1574:1597   */\n      swap1\n      pop\n        /* \"#utility.yul\":1296:1604   */\n      swap2\n      swap1\n      pop\n      jump\t// out\n        /* \"#utility.yul\":1610:1756   */\n    tag_63:\n        /* \"#utility.yul\":1707:1713   */\n      dup3\n        /* \"#utility.yul\":1702:1705   */\n      dup2\n        /* \"#utility.yul\":1697:1700   */\n      dup4\n        /* \"#utility.yul\":1684:1714   */\n      calldatacopy\n        /* \"#utility.yul\":1748:1749   */\n      0x00\n        /* \"#utility.yul\":1739:1745   */\n      dup4\n        /* \"#utility.yul\":1734:1737   */\n      dup4\n        /* \"#utility.yul\":1730:1746   */\n      add\n        /* \"#utility.yul\":1723:1750   */\n      mstore\n        /* \"#utility.yul\":1610:1756   */\n      pop\n      pop\n      pop\n      jump\t// out\n        /* \"#utility.yul\":1762:2187   */\n    tag_64:\n        /* \"#utility.yul\":1840:1845   */\n      0x00\n        /* \"#utility.yul\":1865:1931   */\n      tag_113\n        /* \"#utility.yul\":1881:1930   */\n      tag_114\n        /* \"#utility.yul\":1923:1929   */\n      dup5\n        /* \"#utility.yul\":1881:1930   */\n      tag_62\n      jump\t// in\n    tag_114:\n        /* \"#utility.yul\":1865:1931   */\n      tag_61\n      jump\t// in\n    tag_113:\n        /* \"#utility.yul\":1856:1931   */\n      swap1\n      pop\n        /* \"#utility.yul\":1954:1960   */\n      dup3\n        /* \"#utility.yul\":1947:1952   */\n      dup2\n        /* \"#utility.yul\":1940:1961   */\n      mstore\n        /* \"#utility.yul\":1992:1996   */\n      0x20\n        /* \"#utility.yul\":1985:1990   */\n      dup2\n        /* \"#utility.yul\":1981:1997   */\n      add\n        /* \"#utility.yul\":2030:2033   */\n      dup5\n        /* \"#utility.yul\":2021:2027   */\n      dup5\n        /* \"#utility.yul\":2016:2019   */\n      dup5\n        /* \"#utility.yul\":2012:2028   */\n      add\n        /* \"#utility.yul\":2009:2034   */\n      gt\n        /* \"#utility.yul\":2006:2118   */\n      iszero\n      tag_115\n      jumpi\n        /* \"#utility.yul\":2037:2116   */\n      tag_116\n      tag_57\n      jump\t// in\n    tag_116:\n        /* \"#utility.yul\":2006:2118   */\n    tag_115:\n        /* \"#utility.yul\":2127:2181   */\n      tag_117\n        /* \"#utility.yul\":2174:2180   */\n      dup5\n        /* \"#utility.yul\":2169:2172   */\n      dup3\n        /* \"#utility.yul\":2164:2167   */\n      dup6\n        /* \"#utility.yul\":2127:2181   */\n      tag_63\n      jump\t// in\n    tag_117:\n        /* \"#utility.yul\":1846:2187   */\n      pop\n        /* \"#utility.yul\":1762:2187   */\n      swap4\n      swap3\n      pop\n      pop\n      pop\n      jump\t// out\n        /* \"#utility.yul\":2207:2547   */\n    tag_65:\n        /* \"#utility.yul\":2263:2268   */\n      0x00\n        /* \"#utility.yul\":2312:2315   */\n      dup3\n        /* \"#utility.yul\":2305:2309   */\n      0x1f\n        /* \"#utility.yul\":2297:2303   */\n      dup4\n        /* \"#utility.yul\":2293:2310   */\n      add\n        /* \"#utility.yul\":2289:2316   */\n      slt\n        /* \"#utility.yul\":2279:2401   */\n      tag_119\n      jumpi\n        /* \"#utility.yul\":2320:2399   */\n      tag_120\n      tag_56\n      jump\t// in\n    tag_120:\n        /* \"#utility.yul\":2279:2401   */\n    tag_119:\n        /* \"#utility.yul\":2437:2443   */\n      dup2\n        /* \"#utility.yul\":2424:2444   */\n      calldataload\n        /* \"#utility.yul\":2462:2541   */\n      tag_121\n        /* \"#utility.yul\":2537:2540   */\n      dup5\n        /* \"#utility.yul\":2529:2535   */\n      dup3\n        /* \"#utility.yul\":2522:2526   */\n      0x20\n        /* \"#utility.yul\":2514:2520   */\n      dup7\n        /* \"#utility.yul\":2510:2527   */\n      add\n        /* \"#utility.yul\":2462:2541   */\n      tag_64\n      jump\t// in\n    tag_121:\n        /* \"#utility.yul\":2453:2541   */\n      swap2\n      pop\n        /* \"#utility.yul\":2269:2547   */\n      pop\n        /* \"#utility.yul\":2207:2547   */\n      swap3\n      swap2\n      pop\n      pop\n      jump\t// out\n        /* \"#utility.yul\":2553:3062   */\n    tag_11:\n        /* \"#utility.yul\":2622:2628   */\n      0x00\n        /* \"#utility.yul\":2671:2673   */\n      0x20\n        /* \"#utility.yul\":2659:2668   */\n      dup3\n        /* \"#utility.yul\":2650:2657   */\n      dup5\n        /* \"#utility.yul\":2646:2669   */\n      sub\n        /* \"#utility.yul\":2642:2674   */\n      slt\n        /* \"#utility.yul\":2639:2758   */\n      iszero\n      tag_123\n      jumpi\n        /* \"#utility.yul\":2677:2756   */\n      tag_124\n      tag_54\n      jump\t// in\n    tag_124:\n        /* \"#utility.yul\":2639:2758   */\n    tag_123:\n        /* \"#utility.yul\":2825:2826   */\n      0x00\n        /* \"#utility.yul\":2814:2823   */\n      dup3\n        /* \"#utility.yul\":2810:2827   */\n      add\n        /* \"#utility.yul\":2797:2828   */\n      calldataload\n        /* \"#utility.yul\":2855:2873   */\n      0xffffffffffffffff\n        /* \"#utility.yul\":2847:2853   */\n      dup2\n        /* \"#utility.yul\":2844:2874   */\n      gt\n        /* \"#utility.yul\":2841:2958   */\n      iszero\n      tag_125\n      jumpi\n        /* \"#utility.yul\":2877:2956   */\n      tag_126\n      tag_55\n      jump\t// in\n    tag_126:\n        /* \"#utility.yul\":2841:2958   */\n    tag_125:\n        /* \"#utility.yul\":2982:3045   */\n      tag_127\n        /* \"#utility.yul\":3037:3044   */\n      dup5\n        /* \"#utility.yul\":3028:3034   */\n      dup3\n        /* \"#utility.yul\":3017:3026   */\n      dup6\n        /* \"#utility.yul\":3013:3035   */\n      add\n        /* \"#utility.yul\":2982:3045   */\n      tag_65\n      jump\t// in\n    tag_127:\n        /* \"#utility.yul\":2972:3045   */\n      swap2\n      pop\n        /* \"#utility.yul\":2768:3055   */\n      pop\n        /* \"#utility.yul\":2553:3062   */\n      swap3\n      swap2\n      pop\n      pop\n      jump\t// out\n        /* \"#utility.yul\":3068:3145   */\n    tag_66:\n        /* \"#utility.yul\":3105:3112   */\n      0x00\n        /* \"#utility.yul\":3134:3139   */\n      dup2\n        /* \"#utility.yul\":3123:3139   */\n      swap1\n      pop\n        /* \"#utility.yul\":3068:3145   */\n      swap2\n      swap1\n      pop\n      jump\t// out\n        /* \"#utility.yul\":3151:3269   */\n    tag_67:\n        /* \"#utility.yul\":3238:3262   */\n      tag_130\n        /* \"#utility.yul\":3256:3261   */\n      dup2\n        /* \"#utility.yul\":3238:3262   */\n      tag_66\n      jump\t// in\n    tag_130:\n        /* \"#utility.yul\":3233:3236   */\n      dup3\n        /* \"#utility.yul\":3226:3263   */\n      mstore\n        /* \"#utility.yul\":3151:3269   */\n      pop\n      pop\n      jump\t// out\n        /* \"#utility.yul\":3275:3497   */\n    tag_14:\n        /* \"#utility.yul\":3368:3372   */\n      0x00\n        /* \"#utility.yul\":3406:3408   */\n      0x20\n        /* \"#utility.yul\":3395:3404   */\n      dup3\n        /* \"#utility.yul\":3391:3409   */\n      add\n        /* \"#utility.yul\":3383:3409   */\n      swap1\n      pop\n        /* \"#utility.yul\":3419:3490   */\n      tag_132\n        /* \"#utility.yul\":3487:3488   */\n      0x00\n        /* \"#utility.yul\":3476:3485   */\n      dup4\n        /* \"#utility.yul\":3472:3489   */\n      add\n        /* \"#utility.yul\":3463:3469   */\n      dup5\n        /* \"#utility.yul\":3419:3490   */\n      tag_67\n      jump\t// in\n    tag_132:\n        /* \"#utility.yul\":3275:3497   */\n      swap3\n      swap2\n      pop\n      pop\n      jump\t// out\n        /* \"#utility.yul\":3503:3625   */\n    tag_68:\n        /* \"#utility.yul\":3576:3600   */\n      tag_134\n        /* \"#utility.yul\":3594:3599   */\n      dup2\n        /* \"#utility.yul\":3576:3600   */\n      tag_66\n      jump\t// in\n    tag_134:\n        /* \"#utility.yul\":3569:3574   */\n      dup2\n        /* \"#utility.yul\":3566:3601   */\n      eq\n        /* \"#utility.yul\":3556:3619   */\n      tag_135\n      jumpi\n        /* \"#utility.yul\":3615:3616   */\n      0x00\n        /* \"#utility.yul\":3612:3613   */\n      dup1\n        /* \"#utility.yul\":3605:3617   */\n      revert\n        /* \"#utility.yul\":3556:3619   */\n    tag_135:\n        /* \"#utility.yul\":3503:3625   */\n      pop\n      jump\t// out\n        /* \"#utility.yul\":3631:3770   */\n    tag_69:\n        /* \"#utility.yul\":3677:3682   */\n      0x00\n        /* \"#utility.yul\":3715:3721   */\n      dup2\n        /* \"#utility.yul\":3702:3722   */\n      calldataload\n        /* \"#utility.yul\":3693:3722   */\n      swap1\n      pop\n        /* \"#utility.yul\":3731:3764   */\n      tag_137\n        /* \"#utility.yul\":3758:3763   */\n      dup2\n        /* \"#utility.yul\":3731:3764   */\n      tag_68\n      jump\t// in\n    tag_137:\n        /* \"#utility.yul\":3631:3770   */\n      swap3\n      swap2\n      pop\n      pop\n      jump\t// out\n        /* \"#utility.yul\":3776:4105   */\n    tag_21:\n        /* \"#utility.yul\":3835:3841   */\n      0x00\n        /* \"#utility.yul\":3884:3886   */\n      0x20\n        /* \"#utility.yul\":3872:3881   */\n      dup3\n        /* \"#utility.yul\":3863:3870   */\n      dup5\n        /* \"#utility.yul\":3859:3882   */\n      sub\n        /* \"#utility.yul\":3855:3887   */\n      slt\n        /* \"#utility.yul\":3852:3971   */\n      iszero\n      tag_139\n      jumpi\n        /* \"#utility.yul\":3890:3969   */\n      tag_140\n      tag_54\n      jump\t// in\n    tag_140:\n        /* \"#utility.yul\":3852:3971   */\n    tag_139:\n        /* \"#utility.yul\":4010:4011   */\n      0x00\n        /* \"#utility.yul\":4035:4088   */\n      tag_141\n        /* \"#utility.yul\":4080:4087   */\n      dup5\n        /* \"#utility.yul\":4071:4077   */\n      dup3\n        /* \"#utility.yul\":4060:4069   */\n      dup6\n        /* \"#utility.yul\":4056:4078   */\n      add\n        /* \"#utility.yul\":4035:4088   */\n      tag_69\n      jump\t// in\n    tag_141:\n        /* \"#utility.yul\":4025:4088   */\n      swap2\n      pop\n        /* \"#utility.yul\":3981:4098   */\n      pop\n        /* \"#utility.yul\":3776:4105   */\n      swap3\n      swap2\n      pop\n      pop\n      jump\t// out\n        /* \"#utility.yul\":4111:4210   */\n    tag_70:\n        /* \"#utility.yul\":4163:4169   */\n      0x00\n        /* \"#utility.yul\":4197:4202   */\n      dup2\n        /* \"#utility.yul\":4191:4203   */\n      mload\n        /* \"#utility.yul\":4181:4203   */\n      swap1\n      pop\n        /* \"#utility.yul\":4111:4210   */\n      swap2\n      swap1\n      pop\n      jump\t// out\n        /* \"#utility.yul\":4216:4385   */\n    tag_71:\n        /* \"#utility.yul\":4300:4311   */\n      0x00\n        /* \"#utility.yul\":4334:4340   */\n      dup3\n        /* \"#utility.yul\":4329:4332   */\n      dup3\n        /* \"#utility.yul\":4322:4341   */\n      mstore\n        /* \"#utility.yul\":4374:4378   */\n      0x20\n        /* \"#utility.yul\":4369:4372   */\n      dup3\n        /* \"#utility.yul\":4365:4379   */\n      add\n        /* \"#utility.yul\":4350:4379   */\n      swap1\n      pop\n        /* \"#utility.yul\":4216:4385   */\n      swap3\n      swap2\n      pop\n      pop\n      jump\t// out\n        /* \"#utility.yul\":4391:4637   */\n    tag_72:\n        /* \"#utility.yul\":4472:4473   */\n      0x00\n        /* \"#utility.yul\":4482:4595   */\n    tag_145:\n        /* \"#utility.yul\":4496:4502   */\n      dup4\n        /* \"#utility.yul\":4493:4494   */\n      dup2\n        /* \"#utility.yul\":4490:4503   */\n      lt\n        /* \"#utility.yul\":4482:4595   */\n      iszero\n      tag_147\n      jumpi\n        /* \"#utility.yul\":4581:4582   */\n      dup1\n        /* \"#utility.yul\":4576:4579   */\n      dup3\n        /* \"#utility.yul\":4572:4583   */\n      add\n        /* \"#utility.yul\":4566:4584   */\n      mload\n        /* \"#utility.yul\":4562:4563   */\n      dup2\n        /* \"#utility.yul\":4557:4560   */\n      dup5\n        /* \"#utility.yul\":4553:4564   */\n      add\n        /* \"#utility.yul\":4546:4585   */\n      mstore\n        /* \"#utility.yul\":4518:4520   */\n      0x20\n        /* \"#utility.yul\":4515:4516   */\n      dup2\n        /* \"#utility.yul\":4511:4521   */\n      add\n        /* \"#utility.yul\":4506:4521   */\n      swap1\n      pop\n        /* \"#utility.yul\":4482:4595   */\n      jump(tag_145)\n    tag_147:\n        /* \"#utility.yul\":4629:4630   */\n      0x00\n        /* \"#utility.yul\":4620:4626   */\n      dup5\n        /* \"#utility.yul\":4615:4618   */\n      dup5\n        /* \"#utility.yul\":4611:4627   */\n      add\n        /* \"#utility.yul\":4604:4631   */\n      mstore\n        /* \"#utility.yul\":4453:4637   */\n      pop\n        /* \"#utility.yul\":4391:4637   */\n      pop\n      pop\n      pop\n      jump\t// out\n        /* \"#utility.yul\":4643:5020   */\n    tag_73:\n        /* \"#utility.yul\":4731:4734   */\n      0x00\n        /* \"#utility.yul\":4759:4798   */\n      tag_149\n        /* \"#utility.yul\":4792:4797   */\n      dup3\n        /* \"#utility.yul\":4759:4798   */\n      tag_70\n      jump\t// in\n    tag_149:\n        /* \"#utility.yul\":4814:4885   */\n      tag_150\n        /* \"#utility.yul\":4878:4884   */\n      dup2\n        /* \"#utility.yul\":4873:4876   */\n      dup6\n        /* \"#utility.yul\":4814:4885   */\n      tag_71\n      jump\t// in\n    tag_150:\n        /* \"#utility.yul\":4807:4885   */\n      swap4\n      pop\n        /* \"#utility.yul\":4894:4959   */\n      tag_151\n        /* \"#utility.yul\":4952:4958   */\n      dup2\n        /* \"#utility.yul\":4947:4950   */\n      dup6\n        /* \"#utility.yul\":4940:4944   */\n      0x20\n        /* \"#utility.yul\":4933:4938   */\n      dup7\n        /* \"#utility.yul\":4929:4945   */\n      add\n        /* \"#utility.yul\":4894:4959   */\n      tag_72\n      jump\t// in\n    tag_151:\n        /* \"#utility.yul\":4984:5013   */\n      tag_152\n        /* \"#utility.yul\":5006:5012   */\n      dup2\n        /* \"#utility.yul\":4984:5013   */\n      tag_58\n      jump\t// in\n    tag_152:\n        /* \"#utility.yul\":4979:4982   */\n      dup5\n        /* \"#utility.yul\":4975:5014   */\n      add\n        /* \"#utility.yul\":4968:5014   */\n      swap2\n      pop\n        /* \"#utility.yul\":4735:5020   */\n      pop\n        /* \"#utility.yul\":4643:5020   */\n      swap3\n      swap2\n      pop\n      pop\n      jump\t// out\n        /* \"#utility.yul\":5026:5449   */\n    tag_24:\n        /* \"#utility.yul\":5167:5171   */\n      0x00\n        /* \"#utility.yul\":5205:5207   */\n      0x40\n        /* \"#utility.yul\":5194:5203   */\n      dup3\n        /* \"#utility.yul\":5190:5208   */\n      add\n        /* \"#utility.yul\":5182:5208   */\n      swap1\n      pop\n        /* \"#utility.yul\":5254:5263   */\n      dup2\n        /* \"#utility.yul\":5248:5252   */\n      dup2\n        /* \"#utility.yul\":5244:5264   */\n      sub\n        /* \"#utility.yul\":5240:5241   */\n      0x00\n        /* \"#utility.yul\":5229:5238   */\n      dup4\n        /* \"#utility.yul\":5225:5242   */\n      add\n        /* \"#utility.yul\":5218:5265   */\n      mstore\n        /* \"#utility.yul\":5282:5360   */\n      tag_154\n        /* \"#utility.yul\":5355:5359   */\n      dup2\n        /* \"#utility.yul\":5346:5352   */\n      dup6\n        /* \"#utility.yul\":5282:5360   */\n      tag_73\n      jump\t// in\n    tag_154:\n        /* \"#utility.yul\":5274:5360   */\n      swap1\n      pop\n        /* \"#utility.yul\":5370:5442   */\n      tag_155\n        /* \"#utility.yul\":5438:5440   */\n      0x20\n        /* \"#utility.yul\":5427:5436   */\n      dup4\n        /* \"#utility.yul\":5423:5441   */\n      add\n        /* \"#utility.yul\":5414:5420   */\n      dup5\n        /* \"#utility.yul\":5370:5442   */\n      tag_67\n      jump\t// in\n    tag_155:\n        /* \"#utility.yul\":5026:5449   */\n      swap4\n      swap3\n      pop\n      pop\n      pop\n      jump\t// out\n        /* \"#utility.yul\":5455:6109   */\n    tag_27:\n        /* \"#utility.yul\":5533:5539   */\n      0x00\n        /* \"#utility.yul\":5541:5547   */\n      dup1\n        /* \"#utility.yul\":5590:5592   */\n      0x40\n        /* \"#utility.yul\":5578:5587   */\n      dup4\n        /* \"#utility.yul\":5569:5576   */\n      dup6\n        /* \"#utility.yul\":5565:5588   */\n      sub\n        /* \"#utility.yul\":5561:5593   */\n      slt\n        /* \"#utility.yul\":5558:5677   */\n      iszero\n      tag_157\n      jumpi\n        /* \"#utility.yul\":5596:5675   */\n      tag_158\n      tag_54\n      jump\t// in\n    tag_158:\n        /* \"#utility.yul\":5558:5677   */\n    tag_157:\n        /* \"#utility.yul\":5744:5745   */\n      0x00\n        /* \"#utility.yul\":5733:5742   */\n      dup4\n        /* \"#utility.yul\":5729:5746   */\n      add\n        /* \"#utility.yul\":5716:5747   */\n      calldataload\n        /* \"#utility.yul\":5774:5792   */\n      0xffffffffffffffff\n        /* \"#utility.yul\":5766:5772   */\n      dup2\n        /* \"#utility.yul\":5763:5793   */\n      gt\n        /* \"#utility.yul\":5760:5877   */\n      iszero\n      tag_159\n      jumpi\n        /* \"#utility.yul\":5796:5875   */\n      tag_160\n      tag_55\n      jump\t// in\n    tag_160:\n        /* \"#utility.yul\":5760:5877   */\n    tag_159:\n        /* \"#utility.yul\":5901:5964   */\n      tag_161\n        /* \"#utility.yul\":5956:5963   */\n      dup6\n        /* \"#utility.yul\":5947:5953   */\n      dup3\n        /* \"#utility.yul\":5936:5945   */\n      dup7\n        /* \"#utility.yul\":5932:5954   */\n      add\n        /* \"#utility.yul\":5901:5964   */\n      tag_65\n      jump\t// in\n    tag_161:\n        /* \"#utility.yul\":5891:5964   */\n      swap3\n      pop\n        /* \"#utility.yul\":5687:5974   */\n      pop\n        /* \"#utility.yul\":6013:6015   */\n      0x20\n        /* \"#utility.yul\":6039:6092   */\n      tag_162\n        /* \"#utility.yul\":6084:6091   */\n      dup6\n        /* \"#utility.yul\":6075:6081   */\n      dup3\n        /* \"#utility.yul\":6064:6073   */\n      dup7\n        /* \"#utility.yul\":6060:6082   */\n      add\n        /* \"#utility.yul\":6039:6092   */\n      tag_69\n      jump\t// in\n    tag_162:\n        /* \"#utility.yul\":6029:6092   */\n      swap2\n      pop\n        /* \"#utility.yul\":5984:6102   */\n      pop\n        /* \"#utility.yul\":5455:6109   */\n      swap3\n      pop\n      swap3\n      swap1\n      pop\n      jump\t// out\n        /* \"#utility.yul\":6115:6263   */\n    tag_74:\n        /* \"#utility.yul\":6217:6228   */\n      0x00\n        /* \"#utility.yul\":6254:6257   */\n      dup2\n        /* \"#utility.yul\":6239:6257   */\n      swap1\n      pop\n        /* \"#utility.yul\":6115:6263   */\n      swap3\n      swap2\n      pop\n      pop\n      jump\t// out\n        /* \"#utility.yul\":6269:6659   */\n    tag_75:\n        /* \"#utility.yul\":6375:6378   */\n      0x00\n        /* \"#utility.yul\":6403:6442   */\n      tag_165\n        /* \"#utility.yul\":6436:6441   */\n      dup3\n        /* \"#utility.yul\":6403:6442   */\n      tag_70\n      jump\t// in\n    tag_165:\n        /* \"#utility.yul\":6458:6547   */\n      tag_166\n        /* \"#utility.yul\":6540:6546   */\n      dup2\n        /* \"#utility.yul\":6535:6538   */\n      dup6\n        /* \"#utility.yul\":6458:6547   */\n      tag_74\n      jump\t// in\n    tag_166:\n        /* \"#utility.yul\":6451:6547   */\n      swap4\n      pop\n        /* \"#utility.yul\":6556:6621   */\n      tag_167\n        /* \"#utility.yul\":6614:6620   */\n      dup2\n        /* \"#utility.yul\":6609:6612   */\n      dup6\n        /* \"#utility.yul\":6602:6606   */\n      0x20\n        /* \"#utility.yul\":6595:6600   */\n      dup7\n        /* \"#utility.yul\":6591:6607   */\n      add\n        /* \"#utility.yul\":6556:6621   */\n      tag_72\n      jump\t// in\n    tag_167:\n        /* \"#utility.yul\":6646:6652   */\n      dup1\n        /* \"#utility.yul\":6641:6644   */\n      dup5\n        /* \"#utility.yul\":6637:6653   */\n      add\n        /* \"#utility.yul\":6630:6653   */\n      swap2\n      pop\n        /* \"#utility.yul\":6379:6659   */\n      pop\n        /* \"#utility.yul\":6269:6659   */\n      swap3\n      swap2\n      pop\n      pop\n      jump\t// out\n        /* \"#utility.yul\":6665:6940   */\n    tag_37:\n        /* \"#utility.yul\":6797:6800   */\n      0x00\n        /* \"#utility.yul\":6819:6914   */\n      tag_169\n        /* \"#utility.yul\":6910:6913   */\n      dup3\n        /* \"#utility.yul\":6901:6907   */\n      dup5\n        /* \"#utility.yul\":6819:6914   */\n      tag_75\n      jump\t// in\n    tag_169:\n        /* \"#utility.yul\":6812:6914   */\n      swap2\n      pop\n        /* \"#utility.yul\":6931:6934   */\n      dup2\n        /* \"#utility.yul\":6924:6934   */\n      swap1\n      pop\n        /* \"#utility.yul\":6665:6940   */\n      swap3\n      swap2\n      pop\n      pop\n      jump\t// out\n        /* \"#utility.yul\":6946:7126   */\n    tag_76:\n        /* \"#utility.yul\":6994:7071   */\n      0x4e487b7100000000000000000000000000000000000000000000000000000000\n        /* \"#utility.yul\":6991:6992   */\n      0x00\n        /* \"#utility.yul\":6984:7072   */\n      mstore\n        /* \"#utility.yul\":7091:7095   */\n      0x22\n        /* \"#utility.yul\":7088:7089   */\n      0x04\n        /* \"#utility.yul\":7081:7096   */\n      mstore\n        /* \"#utility.yul\":7115:7119   */\n      0x24\n        /* \"#utility.yul\":7112:7113   */\n      0x00\n        /* \"#utility.yul\":7105:7120   */\n      revert\n        /* \"#utility.yul\":7132:7452   */\n    tag_41:\n        /* \"#utility.yul\":7176:7182   */\n      0x00\n        /* \"#utility.yul\":7213:7214   */\n      0x02\n        /* \"#utility.yul\":7207:7211   */\n      dup3\n        /* \"#utility.yul\":7203:7215   */\n      div\n        /* \"#utility.yul\":7193:7215   */\n      swap1\n      pop\n        /* \"#utility.yul\":7260:7261   */\n      0x01\n        /* \"#utility.yul\":7254:7258   */\n      dup3\n        /* \"#utility.yul\":7250:7262   */\n      and\n        /* \"#utility.yul\":7281:7299   */\n      dup1\n        /* \"#utility.yul\":7271:7352   */\n      tag_172\n      jumpi\n        /* \"#utility.yul\":7337:7341   */\n      0x7f\n        /* \"#utility.yul\":7329:7335   */\n      dup3\n        /* \"#utility.yul\":7325:7342   */\n      and\n        /* \"#utility.yul\":7315:7342   */\n      swap2\n      pop\n        /* \"#utility.yul\":7271:7352   */\n    tag_172:\n        /* \"#utility.yul\":7399:7401   */\n      0x20\n        /* \"#utility.yul\":7391:7397   */\n      dup3\n        /* \"#utility.yul\":7388:7402   */\n      lt\n        /* \"#utility.yul\":7368:7386   */\n      dup2\n        /* \"#utility.yul\":7365:7403   */\n      sub\n        /* \"#utility.yul\":7362:7446   */\n      tag_173\n      jumpi\n        /* \"#utility.yul\":7418:7436   */\n      tag_174\n      tag_76\n      jump\t// in\n    tag_174:\n        /* \"#utility.yul\":7362:7446   */\n    tag_173:\n        /* \"#utility.yul\":7183:7452   */\n      pop\n        /* \"#utility.yul\":7132:7452   */\n      swap2\n      swap1\n      pop\n      jump\t// out\n        /* \"#utility.yul\":7458:7599   */\n    tag_77:\n        /* \"#utility.yul\":7507:7511   */\n      0x00\n        /* \"#utility.yul\":7530:7533   */\n      dup2\n        /* \"#utility.yul\":7522:7533   */\n      swap1\n      pop\n        /* \"#utility.yul\":7553:7556   */\n      dup2\n        /* \"#utility.yul\":7550:7551   */\n      0x00\n        /* \"#utility.yul\":7543:7557   */\n      mstore\n        /* \"#utility.yul\":7587:7591   */\n      0x20\n        /* \"#utility.yul\":7584:7585   */\n      0x00\n        /* \"#utility.yul\":7574:7592   */\n      keccak256\n        /* \"#utility.yul\":7566:7592   */\n      swap1\n      pop\n        /* \"#utility.yul\":7458:7599   */\n      swap2\n      swap1\n      pop\n      jump\t// out\n        /* \"#utility.yul\":7605:7698   */\n    tag_78:\n        /* \"#utility.yul\":7642:7648   */\n      0x00\n        /* \"#utility.yul\":7689:7691   */\n      0x20\n        /* \"#utility.yul\":7684:7686   */\n      0x1f\n        /* \"#utility.yul\":7677:7682   */\n      dup4\n        /* \"#utility.yul\":7673:7687   */\n      add\n        /* \"#utility.yul\":7669:7692   */\n      div\n        /* \"#utility.yul\":7659:7692   */\n      swap1\n      pop\n        /* \"#utility.yul\":7605:7698   */\n      swap2\n      swap1\n      pop\n      jump\t// out\n        /* \"#utility.yul\":7704:7811   */\n    tag_79:\n        /* \"#utility.yul\":7748:7756   */\n      0x00\n        /* \"#utility.yul\":7798:7803   */\n      dup3\n        /* \"#utility.yul\":7792:7796   */\n      dup3\n        /* \"#utility.yul\":7788:7804   */\n      shl\n        /* \"#utility.yul\":7767:7804   */\n      swap1\n      pop\n        /* \"#utility.yul\":7704:7811   */\n      swap3\n      swap2\n      pop\n      pop\n      jump\t// out\n        /* \"#utility.yul\":7817:8210   */\n    tag_80:\n        /* \"#utility.yul\":7886:7892   */\n      0x00\n        /* \"#utility.yul\":7936:7937   */\n      0x08\n        /* \"#utility.yul\":7924:7934   */\n      dup4\n        /* \"#utility.yul\":7920:7938   */\n      mul\n        /* \"#utility.yul\":7959:8056   */\n      tag_179\n        /* \"#utility.yul\":7989:8055   */\n      0xffffffffffffffffffffffffffffffffffffffffffffffffffffffffffffffff\n        /* \"#utility.yul\":7978:7987   */\n      dup3\n        /* \"#utility.yul\":7959:8056   */\n      tag_79\n      jump\t// in\n    tag_179:\n        /* \"#utility.yul\":8077:8116   */\n      tag_180\n        /* \"#utility.yul\":8107:8115   */\n      dup7\n        /* \"#utility.yul\":8096:8105   */\n      dup4\n        /* \"#utility.yul\":8077:8116   */\n      tag_79\n      jump\t// in\n    tag_180:\n        /* \"#utility.yul\":8065:8116   */\n      swap6\n      pop\n        /* \"#utility.yul\":8149:8153   */\n      dup1\n        /* \"#utility.yul\":8145:8154   */\n      not\n        /* \"#utility.yul\":8138:8143   */\n      dup5\n        /* \"#utility.yul\":8134:8155   */\n      and\n        /* \"#utility.yul\":8125:8155   */\n      swap4\n      pop\n        /* \"#utility.yul\":8198:8202   */\n      dup1\n        /* \"#utility.yul\":8188:8196   */\n      dup7\n        /* \"#utility.yul\":8184:8203   */\n      and\n        /* \"#utility.yul\":8177:8182   */\n      dup5\n        /* \"#utility.yul\":8174:8204   */\n      or\n        /* \"#utility.yul\":8164:8204   */\n      swap3\n      pop\n        /* \"#utility.yul\":7893:8210   */\n      pop\n      pop\n        /* \"#utility.yul\":7817:8210   */\n      swap4\n      swap3\n      pop\n      pop\n      pop\n      jump\t// out\n        /* \"#utility.yul\":8216:8276   */\n    tag_81:\n        /* \"#utility.yul\":8244:8247   */\n      0x00\n        /* \"#utility.yul\":8265:8270   */\n      dup2\n        /* \"#utility.yul\":8258:8270   */\n      swap1\n      pop\n        /* \"#utility.yul\":8216:8276   */\n      swap2\n      swap1\n      pop\n      jump\t// out\n        /* \"#utility.yul\":8282:8424   */\n    tag_82:\n        /* \"#utility.yul\":8332:8341   */\n      0x00\n        /* \"#utility.yul\":8365:8418   */\n      tag_183\n        /* \"#utility.yul\":8383:8417   */\n      tag_184\n        /* \"#utility.yul\":8392:8416   */\n      tag_185\n        /* \"#utility.yul\":8410:8415   */\n      dup5\n        /* \"#utility.yul\":8392:8416   */\n      tag_66\n      jump\t// in\n    tag_185:\n        /* \"#utility.yul\":8383:8417   */\n      tag_81\n      jump\t// in\n    tag_184:\n        /* \"#utility.yul\":8365:8418   */\n      tag_66\n      jump\t// in\n    tag_183:\n        /* \"#utility.yul\":8352:8418   */\n      swap1\n      pop\n        /* \"#utility.yul\":8282:8424   */\n      swap2\n      swap1\n      pop\n      jump\t// out\n        /* \"#utility.yul\":8430:8505   */\n    tag_83:\n        /* \"#utility.yul\":8473:8476   */\n      0x00\n        /* \"#utility.yul\":8494:8499   */\n      dup2\n        /* \"#utility.yul\":8487:8499   */\n      swap1\n      pop\n        /* \"#utility.yul\":8430:8505   */\n      swap2\n      swap1\n      pop\n      jump\t// out\n        /* \"#utility.yul\":8511:8780   */\n    tag_84:\n        /* \"#utility.yul\":8621:8660   */\n      tag_188\n        /* \"#utility.yul\":8652:8659   */\n      dup4\n        /* \"#utility.yul\":8621:8660   */\n      tag_82\n      jump\t// in\n    tag_188:\n        /* \"#utility.yul\":8682:8773   */\n      tag_189\n        /* \"#utility.yul\":8731:8772   */\n      tag_190\n        /* \"#utility.yul\":8755:8771   */\n      dup3\n        /* \"#utility.yul\":8731:8772   */\n      tag_83\n      jump\t// in\n    tag_190:\n        /* \"#utility.yul\":8723:8729   */\n      dup5\n        /* \"#utility.yul\":8716:8720   */\n      dup5\n        /* \"#utility.yul\":8710:8721   */\n      sload\n        /* \"#utility.yul\":8682:8773   */\n      tag_80\n      jump\t// in\n    tag_189:\n        /* \"#utility.yul\":8676:8680   */\n      dup3\n        /* \"#utility.yul\":8669:8774   */\n      sstore\n        /* \"#utility.yul\":8587:8780   */\n      pop\n        /* \"#utility.yul\":8511:8780   */\n      pop\n      pop\n      pop\n      jump\t// out\n        /* \"#utility.yul\":8786:8859   */\n    tag_85:\n        /* \"#utility.yul\":8831:8834   */\n      0x00\n        /* \"#utility.yul\":8786:8859   */\n      swap1\n      jump\t// out\n        /* \"#utility.yul\":8865:9054   */\n    tag_86:\n        /* \"#utility.yul\":8942:8974   */\n      tag_193\n      tag_85\n      jump\t// in\n    tag_193:\n        /* \"#utility.yul\":8983:9048   */\n      tag_194\n        /* \"#utility.yul\":9041:9047   */\n      dup2\n        /* \"#utility.yul\":9033:9039   */\n      dup5\n        /* \"#utility.yul\":9027:9031   */\n      dup5\n        /* \"#utility.yul\":8983:9048   */\n      tag_84\n      jump\t// in\n    tag_194:\n        /* \"#utility.yul\":8918:9054   */\n      pop\n        /* \"#utility.yul\":8865:9054   */\n      pop\n      pop\n      jump\t// out\n        /* \"#utility.yul\":9060:9246   */\n    tag_87:\n        /* \"#utility.yul\":9120:9240   */\n    tag_196:\n        /* \"#utility.yul\":9137:9140   */\n      dup2\n        /* \"#utility.yul\":9130:9135   */\n      dup2\n        /* \"#utility.yul\":9127:9141   */\n      lt\n        /* \"#utility.yul\":9120:9240   */\n      iszero\n      tag_198\n      jumpi\n        /* \"#utility.yul\":9191:9230   */\n      tag_199\n        /* \"#utility.yul\":9228:9229   */\n      0x00\n        /* \"#utility.yul\":9221:9226   */\n      dup3\n        /* \"#utility.yul\":9191:9230   */\n      tag_86\n      jump\t// in\n    tag_199:\n        /* \"#utility.yul\":9164:9165   */\n      0x01\n        /* \"#utility.yul\":9157:9162   */\n      dup2\n        /* \"#utility.yul\":9153:9166   */\n      add\n        /* \"#utility.yul\":9144:9166   */\n      swap1\n      pop\n        /* \"#utility.yul\":9120:9240   */\n      jump(tag_196)\n    tag_198:\n        /* \"#utility.yul\":9060:9246   */\n      pop\n      pop\n      jump\t// out\n        /* \"#utility.yul\":9252:9795   */\n    tag_88:\n        /* \"#utility.yul\":9353:9355   */\n      0x1f\n        /* \"#utility.yul\":9348:9351   */\n      dup3\n        /* \"#utility.yul\":9345:9356   */\n      gt\n        /* \"#utility.yul\":9342:9788   */\n      iszero\n      tag_201\n      jumpi\n        /* \"#utility.yul\":9387:9425   */\n      tag_202\n        /* \"#utility.yul\":9419:9424   */\n      dup2\n        /* \"#utility.yul\":9387:9425   */\n      tag_77\n      jump\t// in\n    tag_202:\n        /* \"#utility.yul\":9471:9500   */\n      tag_203\n        /* \"#utility.yul\":9489:9499   */\n      dup5\n        /* \"#utility.yul\":9471:9500   */\n      tag_78\n      jump\t// in\n    tag_203:\n        /* \"#utility.yul\":9461:9469   */\n      dup2\n        /* \"#utility.yul\":9457:9501   */\n      add\n        /* \"#utility.yul\":9654:9656   */\n      0x20\n        /* \"#utility.yul\":9642:9652   */\n      dup6\n        /* \"#utility.yul\":9639:9657   */\n      lt\n        /* \"#utility.yul\":9636:9685   */\n      iszero\n      tag_204\n      jumpi\n        /* \"#utility.yul\":9675:9683   */\n      dup2\n        /* \"#utility.yul\":9660:9683   */\n      swap1\n      pop\n        /* \"#utility.yul\":9636:9685   */\n    tag_204:\n        /* \"#utility.yul\":9698:9778   */\n      tag_205\n        /* \"#utility.yul\":9754:9776   */\n      tag_206\n        /* \"#utility.yul\":9772:9775   */\n      dup6\n        /* \"#utility.yul\":9754:9776   */\n      tag_78\n      jump\t// in\n    tag_206:\n        /* \"#utility.yul\":9744:9752   */\n      dup4\n        /* \"#utility.yul\":9740:9777   */\n      add\n        /* \"#utility.yul\":9727:9738   */\n      dup3\n        /* \"#utility.yul\":9698:9778   */\n      tag_87\n      jump\t// in\n    tag_205:\n        /* \"#utility.yul\":9357:9788   */\n      pop\n      pop\n        /* \"#utility.yul\":9342:9788   */\n    tag_201:\n        /* \"#utility.yul\":9252:9795   */\n      pop\n      pop\n      pop\n      jump\t// out\n        /* \"#utility.yul\":9801:9918   */\n    tag_89:\n        /* \"#utility.yul\":9855:9863   */\n      0x00\n        /* \"#utility.yul\":9905:9910   */\n      dup3\n        /* \"#utility.yul\":9899:9903   */\n      dup3\n        /* \"#utility.yul\":9895:9911   */\n      shr\n        /* \"#utility.yul\":9874:9911   */\n      swap1\n      pop\n        /* \"#utility.yul\":9801:9918   */\n      swap3\n      swap2\n      pop\n      pop\n      jump\t// out\n        /* \"#utility.yul\":9924:10093   */\n    tag_90:\n        /* \"#utility.yul\":9968:9974   */\n      0x00\n        /* \"#utility.yul\":10001:10052   */\n      tag_209\n        /* \"#utility.yul\":10049:10050   */\n      0x00\n        /* \"#utility.yul\":10045:10051   */\n      not\n        /* \"#utility.yul\":10037:10042   */\n      dup5\n        /* \"#utility.yul\":10034:10035   */\n      0x08\n        /* \"#utility.yul\":10030:10043   */\n      mul\n        /* \"#utility.yul\":10001:10052   */\n      tag_89\n      jump\t// in\n    tag_209:\n        /* \"#utility.yul\":9997:10053   */\n      not\n        /* \"#utility.yul\":10082:10086   */\n      dup1\n        /* \"#utility.yul\":10076:10080   */\n      dup4\n        /* \"#utility.yul\":10072:10087   */\n      and\n        /* \"#utility.yul\":10062:10087   */\n      swap2\n      pop\n        /* \"#utility.yul\":9975:10093   */\n      pop\n        /* \"#utility.yul\":9924:10093   */\n      swap3\n      swap2\n      pop\n      pop\n      jump\t// out\n        /* \"#utility.yul\":10098:10393   */\n    tag_91:\n        /* \"#utility.yul\":10174:10178   */\n      0x00\n        /* \"#utility.yul\":10320:10349   */\n      tag_211\n        /* \"#utility.yul\":10345:10348   */\n      dup4\n        /* \"#utility.yul\":10339:10343   */\n      dup4\n        /* \"#utility.yul\":10320:10349   */\n      tag_90\n      jump\t// in\n    tag_211:\n        /* \"#utility.yul\":10312:10349   */\n      swap2\n      pop\n        /* \"#utility.yul\":10382:10385   */\n      dup3\n        /* \"#utility.yul\":10379:10380   */\n      0x02\n        /* \"#utility.yul\":10375:10386   */\n      mul\n        /* \"#utility.yul\":10369:10373   */\n      dup3\n        /* \"#utility.yul\":10366:10387   */\n      or\n        /* \"#utility.yul\":10358:10387   */\n      swap1\n      pop\n        /* \"#utility.yul\":10098:10393   */\n      swap3\n      swap2\n      pop\n      pop\n      jump\t// out\n        /* \"#utility.yul\":10398:11793   */\n    tag_49:\n        /* \"#utility.yul\":10515:10552   */\n      tag_213\n        /* \"#utility.yul\":10548:10551   */\n      dup3\n        /* \"#utility.yul\":10515:10552   */\n      tag_70\n      jump\t// in\n    tag_213:\n        /* \"#utility.yul\":10617:10635   */\n      0xffffffffffffffff\n        /* \"#utility.yul\":10609:10615   */\n      dup2\n        /* \"#utility.yul\":10606:10636   */\n      gt\n        /* \"#utility.yul\":10603:10659   */\n      iszero\n      tag_214\n      jumpi\n        /* \"#utility.yul\":10639:10657   */\n      tag_215\n      tag_59\n      jump\t// in\n    tag_215:\n        /* \"#utility.yul\":10603:10659   */\n    tag_214:\n        /* \"#utility.yul\":10683:10721   */\n      tag_216\n        /* \"#utility.yul\":10715:10719   */\n      dup3\n        /* \"#utility.yul\":10709:10720   */\n      sload\n        /* \"#utility.yul\":10683:10721   */\n      tag_41\n      jump\t// in\n    tag_216:\n        /* \"#utility.yul\":10768:10835   */\n      tag_217\n        /* \"#utility.yul\":10828:10834   */\n      dup3\n        /* \"#utility.yul\":10820:10826   */\n      dup3\n        /* \"#utility.yul\":10814:10818   */\n      dup6\n        /* \"#utility.yul\":10768:10835   */\n      tag_88\n      jump\t// in\n    tag_217:\n        /* \"#utility.yul\":10862:10863   */\n      0x00\n        /* \"#utility.yul\":10886:10890   */\n      0x20\n        /* \"#utility.yul\":10873:10890   */\n      swap1\n      pop\n        /* \"#utility.yul\":10918:10920   */\n      0x1f\n        /* \"#utility.yul\":10910:10916   */\n      dup4\n        /* \"#utility.yul\":10907:10921   */\n      gt\n        /* \"#utility.yul\":10935:10936   */\n      0x01\n        /* \"#utility.yul\":10930:11548   */\n      dup2\n      eq\n      tag_219\n      jumpi\n        /* \"#utility.yul\":11592:11593   */\n      0x00\n        /* \"#utility.yul\":11609:11615   */\n      dup5\n        /* \"#utility.yul\":11606:11683   */\n      iszero\n      tag_220\n      jumpi\n        /* \"#utility.yul\":11658:11667   */\n      dup3\n        /* \"#utility.yul\":11653:11656   */\n      dup8\n        /* \"#utility.yul\":11649:11668   */\n      add\n        /* \"#utility.yul\":11643:11669   */\n      mload\n        /* \"#utility.yul\":11634:11669   */\n      swap1\n      pop\n        /* \"#utility.yul\":11606:11683   */\n    tag_220:\n        /* \"#utility.yul\":11709:11776   */\n      tag_221\n        /* \"#utility.yul\":11769:11775   */\n      dup6\n        /* \"#utility.yul\":11762:11767   */\n      dup3\n        /* \"#utility.yul\":11709:11776   */\n      tag_91\n      jump\t// in\n    tag_221:\n        /* \"#utility.yul\":11703:11707   */\n      dup7\n        /* \"#utility.yul\":11696:11777   */\n      sstore\n        /* \"#utility.yul\":11565:11787   */\n      pop\n        /* \"#utility.yul\":10900:11787   */\n      jump(tag_218)\n        /* \"#utility.yul\":10930:11548   */\n    tag_219:\n        /* \"#utility.yul\":10982:10986   */\n      0x1f\n        /* \"#utility.yul\":10978:10987   */\n      not\n        /* \"#utility.yul\":10970:10976   */\n      dup5\n        /* \"#utility.yul\":10966:10988   */\n      and\n        /* \"#utility.yul\":11016:11053   */\n      tag_222\n        /* \"#utility.yul\":11048:11052   */\n      dup7\n        /* \"#utility.yul\":11016:11053   */\n      tag_77\n      jump\t// in\n    tag_222:\n        /* \"#utility.yul\":11075:11076   */\n      0x00\n        /* \"#utility.yul\":11089:11297   */\n    tag_223:\n        /* \"#utility.yul\":11103:11110   */\n      dup3\n        /* \"#utility.yul\":11100:11101   */\n      dup2\n        /* \"#utility.yul\":11097:11111   */\n      lt\n        /* \"#utility.yul\":11089:11297   */\n      iszero\n      tag_225\n      jumpi\n        /* \"#utility.yul\":11182:11191   */\n      dup5\n        /* \"#utility.yul\":11177:11180   */\n      dup10\n        /* \"#utility.yul\":11173:11192   */\n      add\n        /* \"#utility.yul\":11167:11193   */\n      mload\n        /* \"#utility.yul\":11159:11165   */\n      dup3\n        /* \"#utility.yul\":11152:11194   */\n      sstore\n        /* \"#utility.yul\":11233:11234   */\n      0x01\n        /* \"#utility.yul\":11225:11231   */\n      dup3\n        /* \"#utility.yul\":11221:11235   */\n      add\n        /* \"#utility.yul\":11211:11235   */\n      swap2\n      pop\n        /* \"#utility.yul\":11280:11282   */\n      0x20\n        /* \"#utility.yul\":11269:11278   */\n      dup6\n        /* \"#utility.yul\":11265:11283   */\n      add\n        /* \"#utility.yul\":11252:11283   */\n      swap5\n      pop\n        /* \"#utility.yul\":11126:11130   */\n      0x20\n        /* \"#utility.yul\":11123:11124   */\n      dup2\n        /* \"#utility.yul\":11119:11131   */\n      add\n        /* \"#utility.yul\":11114:11131   */\n      swap1\n      pop\n        /* \"#utility.yul\":11089:11297   */\n      jump(tag_223)\n    tag_225:\n        /* \"#utility.yul\":11325:11331   */\n      dup7\n        /* \"#utility.yul\":11316:11323   */\n      dup4\n        /* \"#utility.yul\":11313:11332   */\n      lt\n        /* \"#utility.yul\":11310:11489   */\n      iszero\n      tag_226\n      jumpi\n        /* \"#utility.yul\":11383:11392   */\n      dup5\n        /* \"#utility.yul\":11378:11381   */\n      dup10\n        /* \"#utility.yul\":11374:11393   */\n      add\n        /* \"#utility.yul\":11368:11394   */\n      mload\n        /* \"#utility.yul\":11426:11474   */\n      tag_227\n        /* \"#utility.yul\":11468:11472   */\n      0x1f\n        /* \"#utility.yul\":11460:11466   */\n      dup10\n        /* \"#utility.yul\":11456:11473   */\n      and\n        /* \"#utility.yul\":11445:11454   */\n      dup3\n        /* \"#utility.yul\":11426:11474   */\n      tag_90\n      jump\t// in\n    tag_227:\n        /* \"#utility.yul\":11418:11424   */\n      dup4\n        /* \"#utility.yul\":11411:11475   */\n      sstore\n        /* \"#utility.yul\":11333:11489   */\n      pop\n        /* \"#utility.yul\":11310:11489   */\n    tag_226:\n        /* \"#utility.yul\":11535:11536   */\n      0x01\n        /* \"#utility.yul\":11531:11532   */\n      0x02\n        /* \"#utility.yul\":11523:11529   */\n      dup9\n        /* \"#utility.yul\":11519:11533   */\n      mul\n        /* \"#utility.yul\":11515:11537   */\n      add\n        /* \"#utility.yul\":11509:11513   */\n      dup9\n        /* \"#utility.yul\":11502:11538   */\n      sstore\n        /* \"#utility.yul\":10937:11548   */\n      pop\n      pop\n      pop\n        /* \"#utility.yul\":10900:11787   */\n    tag_218:\n      pop\n        /* \"#utility.yul\":10490:11793   */\n      pop\n      pop\n      pop\n        /* \"#utility.yul\":10398:11793   */\n      pop\n      pop\n      jump\t// out\n\n    auxdata: 0xa264697066735822122052055726c853fb6a2459f3071176be1108f995bcf30a52246805aa9138500ebc64736f6c63430008180033\n}\n",
				"bytecode": {
					"linkReferences": {},
					"object": "608060405234801561000f575f80fd5b506109598061001d5f395ff3fe608060405234801561000f575f80fd5b5060043610610060575f3560e01c80630d9843d41461006457806318b50f2d146100945780632ebce631146100c457806335d0aac1146100f55780636057361d14610111578063635d743e1461012d575b5f80fd5b61007e6004803603810190610079919061043b565b61014b565b60405161008b919061049a565b60405180910390f35b6100ae60048036038101906100a9919061043b565b610172565b6040516100bb919061049a565b60405180910390f35b6100de60048036038101906100d991906104dd565b61019f565b6040516100ec929190610582565b60405180910390f35b61010f600480360381019061010a91906105b0565b610254565b005b61012b600480360381019061012691906104dd565b6102dd565b005b6101356102e6565b604051610142919061049a565b60405180910390f35b5f60018260405161015c9190610644565b9081526020016040518091039020549050919050565b6001818051602081018201805184825260208301602085012081835280955050505050505f915090505481565b600281815481106101ae575f80fd5b905f5260205f2090600202015f91509050805f0180546101cd90610687565b80601f01602080910402602001604051908101604052809291908181526020018280546101f990610687565b80156102445780601f1061021b57610100808354040283529160200191610244565b820191905f5260205f20905b81548152906001019060200180831161022757829003601f168201915b5050505050908060010154905082565b5f6040518060400160405280848152602001838152509050600281908060018154018082558091505060019003905f5260205f2090600202015f909190919091505f820151815f0190816102a89190610854565b50602082015181600101555050816001846040516102c69190610644565b908152602001604051809103902081905550505050565b805f8190555050565b5f8054905090565b5f604051905090565b5f80fd5b5f80fd5b5f80fd5b5f80fd5b5f601f19601f8301169050919050565b7f4e487b71000000000000000000000000000000000000000000000000000000005f52604160045260245ffd5b61034d82610307565b810181811067ffffffffffffffff8211171561036c5761036b610317565b5b80604052505050565b5f61037e6102ee565b905061038a8282610344565b919050565b5f67ffffffffffffffff8211156103a9576103a8610317565b5b6103b282610307565b9050602081019050919050565b828183375f83830152505050565b5f6103df6103da8461038f565b610375565b9050828152602081018484840111156103fb576103fa610303565b5b6104068482856103bf565b509392505050565b5f82601f830112610422576104216102ff565b5b81356104328482602086016103cd565b91505092915050565b5f602082840312156104505761044f6102f7565b5b5f82013567ffffffffffffffff81111561046d5761046c6102fb565b5b6104798482850161040e565b91505092915050565b5f819050919050565b61049481610482565b82525050565b5f6020820190506104ad5f83018461048b565b92915050565b6104bc81610482565b81146104c6575f80fd5b50565b5f813590506104d7816104b3565b92915050565b5f602082840312156104f2576104f16102f7565b5b5f6104ff848285016104c9565b91505092915050565b5f81519050919050565b5f82825260208201905092915050565b5f5b8381101561053f578082015181840152602081019050610524565b5f8484015250505050565b5f61055482610508565b61055e8185610512565b935061056e818560208601610522565b61057781610307565b840191505092915050565b5f6040820190508181035f83015261059a818561054a565b90506105a9602083018461048b565b9392505050565b5f80604083850312156105c6576105c56102f7565b5b5f83013567ffffffffffffffff8111156105e3576105e26102fb565b5b6105ef8582860161040e565b9250506020610600858286016104c9565b9150509250929050565b5f81905092915050565b5f61061e82610508565b610628818561060a565b9350610638818560208601610522565b80840191505092915050565b5f61064f8284610614565b915081905092915050565b7f4e487b71000000000000000000000000000000000000000000000000000000005f52602260045260245ffd5b5f600282049050600182168061069e57607f821691505b6020821081036106b1576106b061065a565b5b50919050565b5f819050815f5260205f209050919050565b5f6020601f8301049050919050565b5f82821b905092915050565b5f600883026107137fffffffffffffffffffffffffffffffffffffffffffffffffffffffffffffffff826106d8565b61071d86836106d8565b95508019841693508086168417925050509392505050565b5f819050919050565b5f61075861075361074e84610482565b610735565b610482565b9050919050565b5f819050919050565b6107718361073e565b61078561077d8261075f565b8484546106e4565b825550505050565b5f90565b61079961078d565b6107a4818484610768565b505050565b5b818110156107c7576107bc5f82610791565b6001810190506107aa565b5050565b601f82111561080c576107dd816106b7565b6107e6846106c9565b810160208510156107f5578190505b610809610801856106c9565b8301826107a9565b50505b505050565b5f82821c905092915050565b5f61082c5f1984600802610811565b1980831691505092915050565b5f610844838361081d565b9150826002028217905092915050565b61085d82610508565b67ffffffffffffffff81111561087657610875610317565b5b6108808254610687565b61088b8282856107cb565b5f60209050601f8311600181146108bc575f84156108aa578287015190505b6108b48582610839565b86555061091b565b601f1984166108ca866106b7565b5f5b828110156108f1578489015182556001820191506020850194506020810190506108cc565b8683101561090e578489015161090a601f89168261081d565b8355505b6001600288020188555050505b50505050505056fea264697066735822122052055726c853fb6a2459f3071176be1108f995bcf30a52246805aa9138500ebc64736f6c63430008180033",
					"opcodes": "PUSH1 0x80 PUSH1 0x40 MSTORE CALLVALUE DUP1 ISZERO PUSH2 0xF JUMPI PUSH0 DUP1 REVERT JUMPDEST POP PUSH2 0x959 DUP1 PUSH2 0x1D PUSH0 CODECOPY PUSH0 RETURN INVALID PUSH1 0x80 PUSH1 0x40 MSTORE CALLVALUE DUP1 ISZERO PUSH2 0xF JUMPI PUSH0 DUP1 REVERT JUMPDEST POP PUSH1 0x4 CALLDATASIZE LT PUSH2 0x60 JUMPI PUSH0 CALLDATALOAD PUSH1 0xE0 SHR DUP1 PUSH4 0xD9843D4 EQ PUSH2 0x64 JUMPI DUP1 PUSH4 0x18B50F2D EQ PUSH2 0x94 JUMPI DUP1 PUSH4 0x2EBCE631 EQ PUSH2 0xC4 JUMPI DUP1 PUSH4 0x35D0AAC1 EQ PUSH2 0xF5 JUMPI DUP1 PUSH4 0x6057361D EQ PUSH2 0x111 JUMPI DUP1 PUSH4 0x635D743E EQ PUSH2 0x12D JUMPI JUMPDEST PUSH0 DUP1 REVERT JUMPDEST PUSH2 0x7E PUSH1 0x4 DUP1 CALLDATASIZE SUB DUP2 ADD SWAP1 PUSH2 0x79 SWAP2 SWAP1 PUSH2 0x43B JUMP JUMPDEST PUSH2 0x14B JUMP JUMPDEST PUSH1 0x40 MLOAD PUSH2 0x8B SWAP2 SWAP1 PUSH2 0x49A JUMP JUMPDEST PUSH1 0x40 MLOAD DUP1 SWAP2 SUB SWAP1 RETURN JUMPDEST PUSH2 0xAE PUSH1 0x4 DUP1 CALLDATASIZE SUB DUP2 ADD SWAP1 PUSH2 0xA9 SWAP2 SWAP1 PUSH2 0x43B JUMP JUMPDEST PUSH2 0x172 JUMP JUMPDEST PUSH1 0x40 MLOAD PUSH2 0xBB SWAP2 SWAP1 PUSH2 0x49A JUMP JUMPDEST PUSH1 0x40 MLOAD DUP1 SWAP2 SUB SWAP1 RETURN JUMPDEST PUSH2 0xDE PUSH1 0x4 DUP1 CALLDATASIZE SUB DUP2 ADD SWAP1 PUSH2 0xD9 SWAP2 SWAP1 PUSH2 0x4DD JUMP JUMPDEST PUSH2 0x19F JUMP JUMPDEST PUSH1 0x40 MLOAD PUSH2 0xEC SWAP3 SWAP2 SWAP1 PUSH2 0x582 JUMP JUMPDEST PUSH1 0x40 MLOAD DUP1 SWAP2 SUB SWAP1 RETURN JUMPDEST PUSH2 0x10F PUSH1 0x4 DUP1 CALLDATASIZE SUB DUP2 ADD SWAP1 PUSH2 0x10A SWAP2 SWAP1 PUSH2 0x5B0 JUMP JUMPDEST PUSH2 0x254 JUMP JUMPDEST STOP JUMPDEST PUSH2 0x12B PUSH1 0x4 DUP1 CALLDATASIZE SUB DUP2 ADD SWAP1 PUSH2 0x126 SWAP2 SWAP1 PUSH2 0x4DD JUMP JUMPDEST PUSH2 0x2DD JUMP JUMPDEST STOP JUMPDEST PUSH2 0x135 PUSH2 0x2E6 JUMP JUMPDEST PUSH1 0x40 MLOAD PUSH2 0x142 SWAP2 SWAP1 PUSH2 0x49A JUMP JUMPDEST PUSH1 0x40 MLOAD DUP1 SWAP2 SUB SWAP1 RETURN JUMPDEST PUSH0 PUSH1 0x1 DUP3 PUSH1 0x40 MLOAD PUSH2 0x15C SWAP2 SWAP1 PUSH2 0x644 JUMP JUMPDEST SWAP1 DUP2 MSTORE PUSH1 0x20 ADD PUSH1 0x40 MLOAD DUP1 SWAP2 SUB SWAP1 KECCAK256 SLOAD SWAP1 POP SWAP2 SWAP1 POP JUMP JUMPDEST PUSH1 0x1 DUP2 DUP1 MLOAD PUSH1 0x20 DUP2 ADD DUP3 ADD DUP1 MLOAD DUP5 DUP3 MSTORE PUSH1 0x20 DUP4 ADD PUSH1 0x20 DUP6 ADD KECCAK256 DUP2 DUP4 MSTORE DUP1 SWAP6 POP POP POP POP POP POP PUSH0 SWAP2 POP SWAP1 POP SLOAD DUP2 JUMP JUMPDEST PUSH1 0x2 DUP2 DUP2 SLOAD DUP2 LT PUSH2 0x1AE JUMPI PUSH0 DUP1 REVERT JUMPDEST SWAP1 PUSH0 MSTORE PUSH1 0x20 PUSH0 KECCAK256 SWAP1 PUSH1 0x2 MUL ADD PUSH0 SWAP2 POP SWAP1 POP DUP1 PUSH0 ADD DUP1 SLOAD PUSH2 0x1CD SWAP1 PUSH2 0x687 JUMP JUMPDEST DUP1 PUSH1 0x1F ADD PUSH1 0x20 DUP1 SWAP2 DIV MUL PUSH1 0x20 ADD PUSH1 0x40 MLOAD SWAP1 DUP2 ADD PUSH1 0x40 MSTORE DUP1 SWAP3 SWAP2 SWAP1 DUP2 DUP2 MSTORE PUSH1 0x20 ADD DUP3 DUP1 SLOAD PUSH2 0x1F9 SWAP1 PUSH2 0x687 JUMP JUMPDEST DUP1 ISZERO PUSH2 0x244 JUMPI DUP1 PUSH1 0x1F LT PUSH2 0x21B JUMPI PUSH2 0x100 DUP1 DUP4 SLOAD DIV MUL DUP4 MSTORE SWAP2 PUSH1 0x20 ADD SWAP2 PUSH2 0x244 JUMP JUMPDEST DUP3 ADD SWAP2 SWAP1 PUSH0 MSTORE PUSH1 0x20 PUSH0 KECCAK256 SWAP1 JUMPDEST DUP2 SLOAD DUP2 MSTORE SWAP1 PUSH1 0x1 ADD SWAP1 PUSH1 0x20 ADD DUP1 DUP4 GT PUSH2 0x227 JUMPI DUP3 SWAP1 SUB PUSH1 0x1F AND DUP3 ADD SWAP2 JUMPDEST POP POP POP POP POP SWAP1 DUP1 PUSH1 0x1 ADD SLOAD SWAP1 POP DUP3 JUMP JUMPDEST PUSH0 PUSH1 0x40 MLOAD DUP1 PUSH1 0x40 ADD PUSH1 0x40 MSTORE DUP1 DUP5 DUP2 MSTORE PUSH1 0x20 ADD DUP4 DUP2 MSTORE POP SWAP1 POP PUSH1 0x2 DUP2 SWAP1 DUP1 PUSH1 0x1 DUP2 SLOAD ADD DUP1 DUP3 SSTORE DUP1 SWAP2 POP POP PUSH1 0x1 SWAP1 SUB SWAP1 PUSH0 MSTORE PUSH1 0x20 PUSH0 KECCAK256 SWAP1 PUSH1 0x2 MUL ADD PUSH0 SWAP1 SWAP2 SWAP1 SWAP2 SWAP1 SWAP2 POP PUSH0 DUP3 ADD MLOAD DUP2 PUSH0 ADD SWAP1 DUP2 PUSH2 0x2A8 SWAP2 SWAP1 PUSH2 0x854 JUMP JUMPDEST POP PUSH1 0x20 DUP3 ADD MLOAD DUP2 PUSH1 0x1 ADD SSTORE POP POP DUP2 PUSH1 0x1 DUP5 PUSH1 0x40 MLOAD PUSH2 0x2C6 SWAP2 SWAP1 PUSH2 0x644 JUMP JUMPDEST SWAP1 DUP2 MSTORE PUSH1 0x20 ADD PUSH1 0x40 MLOAD DUP1 SWAP2 SUB SWAP1 KECCAK256 DUP2 SWAP1 SSTORE POP POP POP POP JUMP JUMPDEST DUP1 PUSH0 DUP2 SWAP1 SSTORE POP POP JUMP JUMPDEST PUSH0 DUP1 SLOAD SWAP1 POP SWAP1 JUMP JUMPDEST PUSH0 PUSH1 0x40 MLOAD SWAP1 POP SWAP1 JUMP JUMPDEST PUSH0 DUP1 REVERT JUMPDEST PUSH0 DUP1 REVERT JUMPDEST PUSH0 DUP1 REVERT JUMPDEST PUSH0 DUP1 REVERT JUMPDEST PUSH0 PUSH1 0x1F NOT PUSH1 0x1F DUP4 ADD AND SWAP1 POP SWAP2 SWAP1 POP JUMP JUMPDEST PUSH32 0x4E487B7100000000000000000000000000000000000000000000000000000000 PUSH0 MSTORE PUSH1 0x41 PUSH1 0x4 MSTORE PUSH1 0x24 PUSH0 REVERT JUMPDEST PUSH2 0x34D DUP3 PUSH2 0x307 JUMP JUMPDEST DUP2 ADD DUP2 DUP2 LT PUSH8 0xFFFFFFFFFFFFFFFF DUP3 GT OR ISZERO PUSH2 0x36C JUMPI PUSH2 0x36B PUSH2 0x317 JUMP JUMPDEST JUMPDEST DUP1 PUSH1 0x40 MSTORE POP POP POP JUMP JUMPDEST PUSH0 PUSH2 0x37E PUSH2 0x2EE JUMP JUMPDEST SWAP1 POP PUSH2 0x38A DUP3 DUP3 PUSH2 0x344 JUMP JUMPDEST SWAP2 SWAP1 POP JUMP JUMPDEST PUSH0 PUSH8 0xFFFFFFFFFFFFFFFF DUP3 GT ISZERO PUSH2 0x3A9 JUMPI PUSH2 0x3A8 PUSH2 0x317 JUMP JUMPDEST JUMPDEST PUSH2 0x3B2 DUP3 PUSH2 0x307 JUMP JUMPDEST SWAP1 POP PUSH1 0x20 DUP2 ADD SWAP1 POP SWAP2 SWAP1 POP JUMP JUMPDEST DUP3 DUP2 DUP4 CALLDATACOPY PUSH0 DUP4 DUP4 ADD MSTORE POP POP POP JUMP JUMPDEST PUSH0 PUSH2 0x3DF PUSH2 0x3DA DUP5 PUSH2 0x38F JUMP JUMPDEST PUSH2 0x375 JUMP JUMPDEST SWAP1 POP DUP3 DUP2 MSTORE PUSH1 0x20 DUP2 ADD DUP5 DUP5 DUP5 ADD GT ISZERO PUSH2 0x3FB JUMPI PUSH2 0x3FA PUSH2 0x303 JUMP JUMPDEST JUMPDEST PUSH2 0x406 DUP5 DUP3 DUP6 PUSH2 0x3BF JUMP JUMPDEST POP SWAP4 SWAP3 POP POP POP JUMP JUMPDEST PUSH0 DUP3 PUSH1 0x1F DUP4 ADD SLT PUSH2 0x422 JUMPI PUSH2 0x421 PUSH2 0x2FF JUMP JUMPDEST JUMPDEST DUP2 CALLDATALOAD PUSH2 0x432 DUP5 DUP3 PUSH1 0x20 DUP7 ADD PUSH2 0x3CD JUMP JUMPDEST SWAP2 POP POP SWAP3 SWAP2 POP POP JUMP JUMPDEST PUSH0 PUSH1 0x20 DUP3 DUP5 SUB SLT ISZERO PUSH2 0x450 JUMPI PUSH2 0x44F PUSH2 0x2F7 JUMP JUMPDEST JUMPDEST PUSH0 DUP3 ADD CALLDATALOAD PUSH8 0xFFFFFFFFFFFFFFFF DUP2 GT ISZERO PUSH2 0x46D JUMPI PUSH2 0x46C PUSH2 0x2FB JUMP JUMPDEST JUMPDEST PUSH2 0x479 DUP5 DUP3 DUP6 ADD PUSH2 0x40E JUMP JUMPDEST SWAP2 POP POP SWAP3 SWAP2 POP POP JUMP JUMPDEST PUSH0 DUP2 SWAP1 POP SWAP2 SWAP1 POP JUMP JUMPDEST PUSH2 0x494 DUP2 PUSH2 0x482 JUMP JUMPDEST DUP3 MSTORE POP POP JUMP JUMPDEST PUSH0 PUSH1 0x20 DUP3 ADD SWAP1 POP PUSH2 0x4AD PUSH0 DUP4 ADD DUP5 PUSH2 0x48B JUMP JUMPDEST SWAP3 SWAP2 POP POP JUMP JUMPDEST PUSH2 0x4BC DUP2 PUSH2 0x482 JUMP JUMPDEST DUP2 EQ PUSH2 0x4C6 JUMPI PUSH0 DUP1 REVERT JUMPDEST POP JUMP JUMPDEST PUSH0 DUP2 CALLDATALOAD SWAP1 POP PUSH2 0x4D7 DUP2 PUSH2 0x4B3 JUMP JUMPDEST SWAP3 SWAP2 POP POP JUMP JUMPDEST PUSH0 PUSH1 0x20 DUP3 DUP5 SUB SLT ISZERO PUSH2 0x4F2 JUMPI PUSH2 0x4F1 PUSH2 0x2F7 JUMP JUMPDEST JUMPDEST PUSH0 PUSH2 0x4FF DUP5 DUP3 DUP6 ADD PUSH2 0x4C9 JUMP JUMPDEST SWAP2 POP POP SWAP3 SWAP2 POP POP JUMP JUMPDEST PUSH0 DUP2 MLOAD SWAP1 POP SWAP2 SWAP1 POP JUMP JUMPDEST PUSH0 DUP3 DUP3 MSTORE PUSH1 0x20 DUP3 ADD SWAP1 POP SWAP3 SWAP2 POP POP JUMP JUMPDEST PUSH0 JUMPDEST DUP4 DUP2 LT ISZERO PUSH2 0x53F JUMPI DUP1 DUP3 ADD MLOAD DUP2 DUP5 ADD MSTORE PUSH1 0x20 DUP2 ADD SWAP1 POP PUSH2 0x524 JUMP JUMPDEST PUSH0 DUP5 DUP5 ADD MSTORE POP POP POP POP JUMP JUMPDEST PUSH0 PUSH2 0x554 DUP3 PUSH2 0x508 JUMP JUMPDEST PUSH2 0x55E DUP2 DUP6 PUSH2 0x512 JUMP JUMPDEST SWAP4 POP PUSH2 0x56E DUP2 DUP6 PUSH1 0x20 DUP7 ADD PUSH2 0x522 JUMP JUMPDEST PUSH2 0x577 DUP2 PUSH2 0x307 JUMP JUMPDEST DUP5 ADD SWAP2 POP POP SWAP3 SWAP2 POP POP JUMP JUMPDEST PUSH0 PUSH1 0x40 DUP3 ADD SWAP1 POP DUP2 DUP2 SUB PUSH0 DUP4 ADD MSTORE PUSH2 0x59A DUP2 DUP6 PUSH2 0x54A JUMP JUMPDEST SWAP1 POP PUSH2 0x5A9 PUSH1 0x20 DUP4 ADD DUP5 PUSH2 0x48B JUMP JUMPDEST SWAP4 SWAP3 POP POP POP JUMP JUMPDEST PUSH0 DUP1 PUSH1 0x40 DUP4 DUP6 SUB SLT ISZERO PUSH2 0x5C6 JUMPI PUSH2 0x5C5 PUSH2 0x2F7 JUMP JUMPDEST JUMPDEST PUSH0 DUP4 ADD CALLDATALOAD PUSH8 0xFFFFFFFFFFFFFFFF DUP2 GT ISZERO PUSH2 0x5E3 JUMPI PUSH2 0x5E2 PUSH2 0x2FB JUMP JUMPDEST JUMPDEST PUSH2 0x5EF DUP6 DUP3 DUP7 ADD PUSH2 0x40E JUMP JUMPDEST SWAP3 POP POP PUSH1 0x20 PUSH2 0x600 DUP6 DUP3 DUP7 ADD PUSH2 0x4C9 JUMP JUMPDEST SWAP2 POP POP SWAP3 POP SWAP3 SWAP1 POP JUMP JUMPDEST PUSH0 DUP2 SWAP1 POP SWAP3 SWAP2 POP POP JUMP JUMPDEST PUSH0 PUSH2 0x61E DUP3 PUSH2 0x508 JUMP JUMPDEST PUSH2 0x628 DUP2 DUP6 PUSH2 0x60A JUMP JUMPDEST SWAP4 POP PUSH2 0x638 DUP2 DUP6 PUSH1 0x20 DUP7 ADD PUSH2 0x522 JUMP JUMPDEST DUP1 DUP5 ADD SWAP2 POP POP SWAP3 SWAP2 POP POP JUMP JUMPDEST PUSH0 PUSH2 0x64F DUP3 DUP5 PUSH2 0x614 JUMP JUMPDEST SWAP2 POP DUP2 SWAP1 POP SWAP3 SWAP2 POP POP JUMP JUMPDEST PUSH32 0x4E487B7100000000000000000000000000000000000000000000000000000000 PUSH0 MSTORE PUSH1 0x22 PUSH1 0x4 MSTORE PUSH1 0x24 PUSH0 REVERT JUMPDEST PUSH0 PUSH1 0x2 DUP3 DIV SWAP1 POP PUSH1 0x1 DUP3 AND DUP1 PUSH2 0x69E JUMPI PUSH1 0x7F DUP3 AND SWAP2 POP JUMPDEST PUSH1 0x20 DUP3 LT DUP2 SUB PUSH2 0x6B1 JUMPI PUSH2 0x6B0 PUSH2 0x65A JUMP JUMPDEST JUMPDEST POP SWAP2 SWAP1 POP JUMP JUMPDEST PUSH0 DUP2 SWAP1 POP DUP2 PUSH0 MSTORE PUSH1 0x20 PUSH0 KECCAK256 SWAP1 POP SWAP2 SWAP1 POP JUMP JUMPDEST PUSH0 PUSH1 0x20 PUSH1 0x1F DUP4 ADD DIV SWAP1 POP SWAP2 SWAP1 POP JUMP JUMPDEST PUSH0 DUP3 DUP3 SHL SWAP1 POP SWAP3 SWAP2 POP POP JUMP JUMPDEST PUSH0 PUSH1 0x8 DUP4 MUL PUSH2 0x713 PUSH32 0xFFFFFFFFFFFFFFFFFFFFFFFFFFFFFFFFFFFFFFFFFFFFFFFFFFFFFFFFFFFFFFFF DUP3 PUSH2 0x6D8 JUMP JUMPDEST PUSH2 0x71D DUP7 DUP4 PUSH2 0x6D8 JUMP JUMPDEST SWAP6 POP DUP1 NOT DUP5 AND SWAP4 POP DUP1 DUP7 AND DUP5 OR SWAP3 POP POP POP SWAP4 SWAP3 POP POP POP JUMP JUMPDEST PUSH0 DUP2 SWAP1 POP SWAP2 SWAP1 POP JUMP JUMPDEST PUSH0 PUSH2 0x758 PUSH2 0x753 PUSH2 0x74E DUP5 PUSH2 0x482 JUMP JUMPDEST PUSH2 0x735 JUMP JUMPDEST PUSH2 0x482 JUMP JUMPDEST SWAP1 POP SWAP2 SWAP1 POP JUMP JUMPDEST PUSH0 DUP2 SWAP1 POP SWAP2 SWAP1 POP JUMP JUMPDEST PUSH2 0x771 DUP4 PUSH2 0x73E JUMP JUMPDEST PUSH2 0x785 PUSH2 0x77D DUP3 PUSH2 0x75F JUMP JUMPDEST DUP5 DUP5 SLOAD PUSH2 0x6E4 JUMP JUMPDEST DUP3 SSTORE POP POP POP POP JUMP JUMPDEST PUSH0 SWAP1 JUMP JUMPDEST PUSH2 0x799 PUSH2 0x78D JUMP JUMPDEST PUSH2 0x7A4 DUP2 DUP5 DUP5 PUSH2 0x768 JUMP JUMPDEST POP POP POP JUMP JUMPDEST JUMPDEST DUP2 DUP2 LT ISZERO PUSH2 0x7C7 JUMPI PUSH2 0x7BC PUSH0 DUP3 PUSH2 0x791 JUMP JUMPDEST PUSH1 0x1 DUP2 ADD SWAP1 POP PUSH2 0x7AA JUMP JUMPDEST POP POP JUMP JUMPDEST PUSH1 0x1F DUP3 GT ISZERO PUSH2 0x80C JUMPI PUSH2 0x7DD DUP2 PUSH2 0x6B7 JUMP JUMPDEST PUSH2 0x7E6 DUP5 PUSH2 0x6C9 JUMP JUMPDEST DUP2 ADD PUSH1 0x20 DUP6 LT ISZERO PUSH2 0x7F5 JUMPI DUP2 SWAP1 POP JUMPDEST PUSH2 0x809 PUSH2 0x801 DUP6 PUSH2 0x6C9 JUMP JUMPDEST DUP4 ADD DUP3 PUSH2 0x7A9 JUMP JUMPDEST POP POP JUMPDEST POP POP POP JUMP JUMPDEST PUSH0 DUP3 DUP3 SHR SWAP1 POP SWAP3 SWAP2 POP POP JUMP JUMPDEST PUSH0 PUSH2 0x82C PUSH0 NOT DUP5 PUSH1 0x8 MUL PUSH2 0x811 JUMP JUMPDEST NOT DUP1 DUP4 AND SWAP2 POP POP SWAP3 SWAP2 POP POP JUMP JUMPDEST PUSH0 PUSH2 0x844 DUP4 DUP4 PUSH2 0x81D JUMP JUMPDEST SWAP2 POP DUP3 PUSH1 0x2 MUL DUP3 OR SWAP1 POP SWAP3 SWAP2 POP POP JUMP JUMPDEST PUSH2 0x85D DUP3 PUSH2 0x508 JUMP JUMPDEST PUSH8 0xFFFFFFFFFFFFFFFF DUP2 GT ISZERO PUSH2 0x876 JUMPI PUSH2 0x875 PUSH2 0x317 JUMP JUMPDEST JUMPDEST PUSH2 0x880 DUP3 SLOAD PUSH2 0x687 JUMP JUMPDEST PUSH2 0x88B DUP3 DUP3 DUP6 PUSH2 0x7CB JUMP JUMPDEST PUSH0 PUSH1 0x20 SWAP1 POP PUSH1 0x1F DUP4 GT PUSH1 0x1 DUP2 EQ PUSH2 0x8BC JUMPI PUSH0 DUP5 ISZERO PUSH2 0x8AA JUMPI DUP3 DUP8 ADD MLOAD SWAP1 POP JUMPDEST PUSH2 0x8B4 DUP6 DUP3 PUSH2 0x839 JUMP JUMPDEST DUP7 SSTORE POP PUSH2 0x91B JUMP JUMPDEST PUSH1 0x1F NOT DUP5 AND PUSH2 0x8CA DUP7 PUSH2 0x6B7 JUMP JUMPDEST PUSH0 JUMPDEST DUP3 DUP2 LT ISZERO PUSH2 0x8F1 JUMPI DUP5 DUP10 ADD MLOAD DUP3 SSTORE PUSH1 0x1 DUP3 ADD SWAP2 POP PUSH1 0x20 DUP6 ADD SWAP5 POP PUSH1 0x20 DUP2 ADD SWAP1 POP PUSH2 0x8CC JUMP JUMPDEST DUP7 DUP4 LT ISZERO PUSH2 0x90E JUMPI DUP5 DUP10 ADD MLOAD PUSH2 0x90A PUSH1 0x1F DUP10 AND DUP3 PUSH2 0x81D JUMP JUMPDEST DUP4 SSTORE POP JUMPDEST PUSH1 0x1 PUSH1 0x2 DUP9 MUL ADD DUP9 SSTORE POP POP POP JUMPDEST POP POP POP POP POP POP JUMP INVALID LOG2 PUSH5 0x6970667358 0x22 SLT KECCAK256 MSTORE SDIV JUMPI 0x26 0xC8 MSTORE8 0xFB PUSH11 0x2459F3071176BE1108F995 0xBC RETURN EXP MSTORE 0x24 PUSH9 0x5AA9138500EBC6473 PUSH16 0x6C634300081800330000000000000000 "
				},
				"gasEstimates": {
					"creation": {
						"codeDepositCost": "478600",
						"executionCost": "509",
						"totalCost": "479109"
					},
					"external": {
						"AddPeople(string,uint256)": "infinite",
						"listOfPeople(uint256)": "infinite",
						"retreiveData(string)": "infinite",
						"seeMyFavoriteNumber()": "2520",
						"store(uint256)": "22580",
						"stringToFavoriteNumber(string)": "infinite"
					}
				},
				"methodIdentifiers": {
					"AddPeople(string,uint256)": "35d0aac1",
					"listOfPeople(uint256)": "2ebce631",
					"retreiveData(string)": "0d9843d4",
					"seeMyFavoriteNumber()": "635d743e",
					"store(uint256)": "6057361d",
					"stringToFavoriteNumber(string)": "18b50f2d"
				}
			},
			"storageLayout": {
				"storage": [
					{
						"astId": 3,
						"contract": "contracts/SimpleStorage.sol:SimpleStorage",
						"label": "myFavoriteNumber",
						"offset": 0,
						"slot": "0",
						"type": "t_uint256"
					},
					{
						"astId": 30,
						"contract": "contracts/SimpleStorage.sol:SimpleStorage",
						"label": "stringToFavoriteNumber",
						"offset": 0,
						"slot": "1",
						"type": "t_mapping(t_string_memory_ptr,t_uint256)"
					},
					{
						"astId": 34,
						"contract": "contracts/SimpleStorage.sol:SimpleStorage",
						"label": "listOfPeople",
						"offset": 0,
						"slot": "2",
						"type": "t_array(t_struct(Person)26_storage)dyn_storage"
					}
				],
				"types": {
					"t_array(t_struct(Person)26_storage)dyn_storage": {
						"base": "t_struct(Person)26_storage",
						"encoding": "dynamic_array",
						"label": "struct SimpleStorage.Person[]",
						"numberOfBytes": "32"
					},
					"t_mapping(t_string_memory_ptr,t_uint256)": {
						"encoding": "mapping",
						"key": "t_string_memory_ptr",
						"label": "mapping(string => uint256)",
						"numberOfBytes": "32",
						"value": "t_uint256"
					},
					"t_string_memory_ptr": {
						"encoding": "bytes",
						"label": "string",
						"numberOfBytes": "32"
					},
					"t_string_storage": {
						"encoding": "bytes",
						"label": "string",
						"numberOfBytes": "32"
					},
					"t_struct(Person)26_storage": {
						"encoding": "inplace",
						"label": "struct SimpleStorage.Person",
						"members": [
							{
								"astId": 23,
								"contract": "contracts/SimpleStorage.sol:SimpleStorage",
								"label": "Name",
								"offset": 0,
								"slot": "0",
								"type": "t_string_storage"
							},
							{
								"astId": 25,
								"contract": "contracts/SimpleStorage.sol:SimpleStorage",
								"label": "favoriteNumber",
								"offset": 0,
								"slot": "1",
								"type": "t_uint256"
							}
						],
						"numberOfBytes": "64"
					},
					"t_uint256": {
						"encoding": "inplace",
						"label": "uint256",
						"numberOfBytes": "32"
					}
				}
			},
			"userdoc": {
				"kind": "user",
				"methods": {},
				"version": 1
			}
		}
	}
}