{
	"contracts/fundme.sol": {
		"Fundme": {
			"abi": [
				{
					"inputs": [],
					"stateMutability": "nonpayable",
					"type": "constructor"
				},
				{
					"inputs": [],
					"name": "NOTowner",
					"type": "error"
				},
				{
					"stateMutability": "payable",
					"type": "fallback"
				},
				{
					"inputs": [
						{
							"internalType": "uint256",
							"name": "",
							"type": "uint256"
						}
					],
					"name": "Funders",
					"outputs": [
						{
							"internalType": "address",
							"name": "",
							"type": "address"
						}
					],
					"stateMutability": "view",
					"type": "function"
				},
				{
					"inputs": [
						{
							"internalType": "uint256",
							"name": "ethAmount",
							"type": "uint256"
						}
					],
					"name": "GetConversionRate",
					"outputs": [
						{
							"internalType": "uint256",
							"name": "",
							"type": "uint256"
						}
					],
					"stateMutability": "view",
					"type": "function"
				},
				{
					"inputs": [],
					"name": "GetPrice",
					"outputs": [
						{
							"internalType": "uint256",
							"name": "",
							"type": "uint256"
						}
					],
					"stateMutability": "view",
					"type": "function"
				},
				{
					"inputs": [],
					"name": "GetVersion",
					"outputs": [
						{
							"internalType": "uint256",
							"name": "",
							"type": "uint256"
						}
					],
					"stateMutability": "view",
					"type": "function"
				},
				{
					"inputs": [],
					"name": "Withdraw",
					"outputs": [],
					"stateMutability": "nonpayable",
					"type": "function"
				},
				{
					"inputs": [],
					"name": "fund",
					"outputs": [],
					"stateMutability": "payable",
					"type": "function"
				},
				{
					"inputs": [],
					"name": "i_owner",
					"outputs": [
						{
							"internalType": "address",
							"name": "",
							"type": "address"
						}
					],
					"stateMutability": "view",
					"type": "function"
				},
				{
					"inputs": [],
					"name": "minimumUSD",
					"outputs": [
						{
							"internalType": "uint256",
							"name": "",
							"type": "uint256"
						}
					],
					"stateMutability": "view",
					"type": "function"
				},
				{
					"stateMutability": "payable",
					"type": "receive"
				}
			],
			"devdoc": {
				"kind": "dev",
				"methods": {},
				"version": 1
			},
			"evm": {
				"assembly": "    /* \"contracts/fundme.sol\":194:2320  contract Fundme {... */\n  mstore(0x40, 0xa0)\n    /* \"contracts/fundme.sol\":256:307  constructor() {... */\n  callvalue\n  dup1\n  iszero\n  tag_1\n  jumpi\n  0x00\n  dup1\n  revert\ntag_1:\n  pop\n    /* \"contracts/fundme.sol\":290:300  msg.sender */\n  caller\n    /* \"contracts/fundme.sol\":280:300  i_owner = msg.sender */\n  0xffffffffffffffffffffffffffffffffffffffff\n  and\n  0x80\n  dup2\n  0xffffffffffffffffffffffffffffffffffffffff\n  and\n  dup2\n  mstore\n  pop\n  pop\n    /* \"contracts/fundme.sol\":194:2320  contract Fundme {... */\n  mload(0x80)\n  codecopy(0x00, dataOffset(sub_0), dataSize(sub_0))\n  0x00\n  assignImmutable(\"0xbbd48b257be1b8216d144ef9be5734f8d11697959c9e0f7768bec89db74a63a3\")\n  return(0x00, dataSize(sub_0))\nstop\n\nsub_0: assembly {\n        /* \"contracts/fundme.sol\":194:2320  contract Fundme {... */\n      mstore(0x40, 0x80)\n      jumpi(tag_1, lt(calldatasize, 0x04))\n      shr(0xe0, calldataload(0x00))\n      dup1\n      0x793b233b\n      gt\n      tag_11\n      jumpi\n      dup1\n      0x793b233b\n      eq\n      tag_7\n      jumpi\n      dup1\n      0xb60d4288\n      eq\n      tag_8\n      jumpi\n      dup1\n      0xc6129a5a\n      eq\n      tag_9\n      jumpi\n      dup1\n      0xdba6335f\n      eq\n      tag_10\n      jumpi\n      jump(tag_2)\n    tag_11:\n      dup1\n      0x3430a88c\n      eq\n      tag_3\n      jumpi\n      dup1\n      0x48e2f81b\n      eq\n      tag_4\n      jumpi\n      dup1\n      0x57ea89b6\n      eq\n      tag_5\n      jumpi\n      dup1\n      0x6d90164e\n      eq\n      tag_6\n      jumpi\n      jump(tag_2)\n    tag_1:\n      jumpi(tag_2, calldatasize)\n        /* \"contracts/fundme.sol\":2242:2248  fund() */\n      tag_14\n        /* \"contracts/fundme.sol\":2242:2246  fund */\n      tag_15\n        /* \"contracts/fundme.sol\":2242:2248  fund() */\n      jump\t// in\n    tag_14:\n        /* \"contracts/fundme.sol\":194:2320  contract Fundme {... */\n      stop\n    tag_2:\n        /* \"contracts/fundme.sol\":2300:2306  fund() */\n      tag_18\n        /* \"contracts/fundme.sol\":2300:2304  fund */\n      tag_15\n        /* \"contracts/fundme.sol\":2300:2306  fund() */\n      jump\t// in\n    tag_18:\n        /* \"contracts/fundme.sol\":194:2320  contract Fundme {... */\n      stop\n        /* \"contracts/fundme.sol\":957:1002  uint256 public constant minimumUSD = 5 * 1e18 */\n    tag_3:\n      callvalue\n      dup1\n      iszero\n      tag_19\n      jumpi\n      0x00\n      dup1\n      revert\n    tag_19:\n      pop\n      tag_20\n      tag_21\n      jump\t// in\n    tag_20:\n      mload(0x40)\n      tag_22\n      swap2\n      swap1\n      tag_23\n      jump\t// in\n    tag_22:\n      mload(0x40)\n      dup1\n      swap2\n      sub\n      swap1\n      return\n        /* \"contracts/fundme.sol\":1008:1032  address[] public Funders */\n    tag_4:\n      callvalue\n      dup1\n      iszero\n      tag_24\n      jumpi\n      0x00\n      dup1\n      revert\n    tag_24:\n      pop\n      tag_25\n      0x04\n      dup1\n      calldatasize\n      sub\n      dup2\n      add\n      swap1\n      tag_26\n      swap2\n      swap1\n      tag_27\n      jump\t// in\n    tag_26:\n      tag_28\n      jump\t// in\n    tag_25:\n      mload(0x40)\n      tag_29\n      swap2\n      swap1\n      tag_30\n      jump\t// in\n    tag_29:\n      mload(0x40)\n      dup1\n      swap2\n      sub\n      swap1\n      return\n        /* \"contracts/fundme.sol\":1352:2012  function Withdraw() public OnlyOwner {... */\n    tag_5:\n      callvalue\n      dup1\n      iszero\n      tag_31\n      jumpi\n      0x00\n      dup1\n      revert\n    tag_31:\n      pop\n      tag_32\n      tag_33\n      jump\t// in\n    tag_32:\n      stop\n        /* \"contracts/fundme.sol\":312:576  function GetPrice() public view returns(uint256) {... */\n    tag_6:\n      callvalue\n      dup1\n      iszero\n      tag_34\n      jumpi\n      0x00\n      dup1\n      revert\n    tag_34:\n      pop\n      tag_35\n      tag_36\n      jump\t// in\n    tag_35:\n      mload(0x40)\n      tag_37\n      swap2\n      swap1\n      tag_23\n      jump\t// in\n    tag_37:\n      mload(0x40)\n      dup1\n      swap2\n      sub\n      swap1\n      return\n        /* \"contracts/fundme.sol\":582:796  function GetConversionRate(uint256 ethAmount) public view returns(uint256) {... */\n    tag_7:\n      callvalue\n      dup1\n      iszero\n      tag_38\n      jumpi\n      0x00\n      dup1\n      revert\n    tag_38:\n      pop\n      tag_39\n      0x04\n      dup1\n      calldatasize\n      sub\n      dup2\n      add\n      swap1\n      tag_40\n      swap2\n      swap1\n      tag_27\n      jump\t// in\n    tag_40:\n      tag_41\n      jump\t// in\n    tag_39:\n      mload(0x40)\n      tag_42\n      swap2\n      swap1\n      tag_23\n      jump\t// in\n    tag_42:\n      mload(0x40)\n      dup1\n      swap2\n      sub\n      swap1\n      return\n        /* \"contracts/fundme.sol\":1106:1346  function fund() public payable {... */\n    tag_8:\n      tag_43\n      tag_15\n      jump\t// in\n    tag_43:\n      stop\n        /* \"contracts/fundme.sol\":802:952  function GetVersion() public view returns(uint256) {... */\n    tag_9:\n      callvalue\n      dup1\n      iszero\n      tag_44\n      jumpi\n      0x00\n      dup1\n      revert\n    tag_44:\n      pop\n      tag_45\n      tag_46\n      jump\t// in\n    tag_45:\n      mload(0x40)\n      tag_47\n      swap2\n      swap1\n      tag_23\n      jump\t// in\n    tag_47:\n      mload(0x40)\n      dup1\n      swap2\n      sub\n      swap1\n      return\n        /* \"contracts/fundme.sol\":217:249  address public immutable i_owner */\n    tag_10:\n      callvalue\n      dup1\n      iszero\n      tag_48\n      jumpi\n      0x00\n      dup1\n      revert\n    tag_48:\n      pop\n      tag_49\n      tag_50\n      jump\t// in\n    tag_49:\n      mload(0x40)\n      tag_51\n      swap2\n      swap1\n      tag_30\n      jump\t// in\n    tag_51:\n      mload(0x40)\n      dup1\n      swap2\n      sub\n      swap1\n      return\n        /* \"contracts/fundme.sol\":1106:1346  function fund() public payable {... */\n    tag_15:\n        /* \"contracts/fundme.sol\":994:1002  5 * 1e18 */\n      0x4563918244f40000\n        /* \"contracts/fundme.sol\":1155:1183  GetConversionRate(msg.value) */\n      tag_53\n        /* \"contracts/fundme.sol\":1173:1182  msg.value */\n      callvalue\n        /* \"contracts/fundme.sol\":1155:1172  GetConversionRate */\n      tag_41\n        /* \"contracts/fundme.sol\":1155:1183  GetConversionRate(msg.value) */\n      jump\t// in\n    tag_53:\n        /* \"contracts/fundme.sol\":1155:1197  GetConversionRate(msg.value) >= minimumUSD */\n      lt\n      iszero\n        /* \"contracts/fundme.sol\":1147:1220  require(GetConversionRate(msg.value) >= minimumUSD, \"didn't send enough\") */\n      tag_54\n      jumpi\n      mload(0x40)\n      0x08c379a000000000000000000000000000000000000000000000000000000000\n      dup2\n      mstore\n      0x04\n      add\n      tag_55\n      swap1\n      tag_56\n      jump\t// in\n    tag_55:\n      mload(0x40)\n      dup1\n      swap2\n      sub\n      swap1\n      revert\n    tag_54:\n        /* \"contracts/fundme.sol\":1230:1237  Funders */\n      0x00\n        /* \"contracts/fundme.sol\":1243:1253  msg.sender */\n      caller\n        /* \"contracts/fundme.sol\":1230:1254  Funders.push(msg.sender) */\n      swap1\n      dup1\n      0x01\n      dup2\n      sload\n      add\n      dup1\n      dup3\n      sstore\n      dup1\n      swap2\n      pop\n      pop\n      0x01\n      swap1\n      sub\n      swap1\n      0x00\n      mstore\n      keccak256(0x00, 0x20)\n      add\n      0x00\n      swap1\n      swap2\n      swap1\n      swap2\n      swap1\n      swap2\n      0x0100\n      exp\n      dup2\n      sload\n      dup2\n      0xffffffffffffffffffffffffffffffffffffffff\n      mul\n      not\n      and\n      swap1\n      dup4\n      0xffffffffffffffffffffffffffffffffffffffff\n      and\n      mul\n      or\n      swap1\n      sstore\n      pop\n        /* \"contracts/fundme.sol\":1330:1339  msg.value */\n      callvalue\n        /* \"contracts/fundme.sol\":1297:1315  AmountSentByFunder */\n      0x01\n        /* \"contracts/fundme.sol\":1297:1327  AmountSentByFunder[msg.sender] */\n      0x00\n        /* \"contracts/fundme.sol\":1316:1326  msg.sender */\n      caller\n        /* \"contracts/fundme.sol\":1297:1327  AmountSentByFunder[msg.sender] */\n      0xffffffffffffffffffffffffffffffffffffffff\n      and\n      0xffffffffffffffffffffffffffffffffffffffff\n      and\n      dup2\n      mstore\n      0x20\n      add\n      swap1\n      dup2\n      mstore\n      0x20\n      add\n      0x00\n      keccak256\n      sload\n        /* \"contracts/fundme.sol\":1297:1339  AmountSentByFunder[msg.sender] + msg.value */\n      tag_58\n      swap2\n      swap1\n      tag_59\n      jump\t// in\n    tag_58:\n        /* \"contracts/fundme.sol\":1264:1282  AmountSentByFunder */\n      0x01\n        /* \"contracts/fundme.sol\":1264:1294  AmountSentByFunder[msg.sender] */\n      0x00\n        /* \"contracts/fundme.sol\":1283:1293  msg.sender */\n      caller\n        /* \"contracts/fundme.sol\":1264:1294  AmountSentByFunder[msg.sender] */\n      0xffffffffffffffffffffffffffffffffffffffff\n      and\n      0xffffffffffffffffffffffffffffffffffffffff\n      and\n      dup2\n      mstore\n      0x20\n      add\n      swap1\n      dup2\n      mstore\n      0x20\n      add\n      0x00\n      keccak256\n        /* \"contracts/fundme.sol\":1264:1339  AmountSentByFunder[msg.sender] = AmountSentByFunder[msg.sender] + msg.value */\n      dup2\n      swap1\n      sstore\n      pop\n        /* \"contracts/fundme.sol\":1106:1346  function fund() public payable {... */\n      jump\t// out\n        /* \"contracts/fundme.sol\":957:1002  uint256 public constant minimumUSD = 5 * 1e18 */\n    tag_21:\n        /* \"contracts/fundme.sol\":994:1002  5 * 1e18 */\n      0x4563918244f40000\n        /* \"contracts/fundme.sol\":957:1002  uint256 public constant minimumUSD = 5 * 1e18 */\n      dup2\n      jump\t// out\n        /* \"contracts/fundme.sol\":1008:1032  address[] public Funders */\n    tag_28:\n      0x00\n      dup2\n      dup2\n      sload\n      dup2\n      lt\n      tag_60\n      jumpi\n      0x00\n      dup1\n      revert\n    tag_60:\n      swap1\n      0x00\n      mstore\n      keccak256(0x00, 0x20)\n      add\n      0x00\n      swap2\n      pop\n      sload\n      swap1\n      0x0100\n      exp\n      swap1\n      div\n      0xffffffffffffffffffffffffffffffffffffffff\n      and\n      dup2\n      jump\t// out\n        /* \"contracts/fundme.sol\":1352:2012  function Withdraw() public OnlyOwner {... */\n    tag_33:\n        /* \"contracts/fundme.sol\":2131:2138  i_owner */\n      immutable(\"0xbbd48b257be1b8216d144ef9be5734f8d11697959c9e0f7768bec89db74a63a3\")\n        /* \"contracts/fundme.sol\":2117:2138  msg.sender != i_owner */\n      0xffffffffffffffffffffffffffffffffffffffff\n      and\n        /* \"contracts/fundme.sol\":2117:2127  msg.sender */\n      caller\n        /* \"contracts/fundme.sol\":2117:2138  msg.sender != i_owner */\n      0xffffffffffffffffffffffffffffffffffffffff\n      and\n      eq\n        /* \"contracts/fundme.sol\":2113:2182  if (msg.sender != i_owner) {... */\n      tag_63\n      jumpi\n        /* \"contracts/fundme.sol\":2161:2171  NOTowner() */\n      mload(0x40)\n      0x17b296f200000000000000000000000000000000000000000000000000000000\n      dup2\n      mstore\n      0x04\n      add\n      mload(0x40)\n      dup1\n      swap2\n      sub\n      swap1\n      revert\n        /* \"contracts/fundme.sol\":2113:2182  if (msg.sender != i_owner) {... */\n    tag_63:\n        /* \"contracts/fundme.sol\":1404:1423  uint256 funderIndex */\n      0x00\n        /* \"contracts/fundme.sol\":1399:1594  for (uint256 funderIndex = 0; funderIndex < Funders.length; funderIndex++) {... */\n    tag_65:\n        /* \"contracts/fundme.sol\":1443:1450  Funders */\n      0x00\n        /* \"contracts/fundme.sol\":1443:1457  Funders.length */\n      dup1\n      sload\n      swap1\n      pop\n        /* \"contracts/fundme.sol\":1429:1440  funderIndex */\n      dup2\n        /* \"contracts/fundme.sol\":1429:1457  funderIndex < Funders.length */\n      lt\n        /* \"contracts/fundme.sol\":1399:1594  for (uint256 funderIndex = 0; funderIndex < Funders.length; funderIndex++) {... */\n      iszero\n      tag_66\n      jumpi\n        /* \"contracts/fundme.sol\":1488:1509  address currentFunder */\n      0x00\n        /* \"contracts/fundme.sol\":1512:1519  Funders */\n      dup1\n        /* \"contracts/fundme.sol\":1520:1531  funderIndex */\n      dup3\n        /* \"contracts/fundme.sol\":1512:1532  Funders[funderIndex] */\n      dup2\n      sload\n      dup2\n      lt\n      tag_68\n      jumpi\n      tag_69\n      tag_70\n      jump\t// in\n    tag_69:\n    tag_68:\n      swap1\n      0x00\n      mstore\n      keccak256(0x00, 0x20)\n      add\n      0x00\n      swap1\n      sload\n      swap1\n      0x0100\n      exp\n      swap1\n      div\n      0xffffffffffffffffffffffffffffffffffffffff\n      and\n        /* \"contracts/fundme.sol\":1488:1532  address currentFunder = Funders[funderIndex] */\n      swap1\n      pop\n        /* \"contracts/fundme.sol\":1582:1583  0 */\n      0x00\n        /* \"contracts/fundme.sol\":1546:1564  AmountSentByFunder */\n      0x01\n        /* \"contracts/fundme.sol\":1546:1579  AmountSentByFunder[currentFunder] */\n      0x00\n        /* \"contracts/fundme.sol\":1565:1578  currentFunder */\n      dup4\n        /* \"contracts/fundme.sol\":1546:1579  AmountSentByFunder[currentFunder] */\n      0xffffffffffffffffffffffffffffffffffffffff\n      and\n      0xffffffffffffffffffffffffffffffffffffffff\n      and\n      dup2\n      mstore\n      0x20\n      add\n      swap1\n      dup2\n      mstore\n      0x20\n      add\n      0x00\n      keccak256\n        /* \"contracts/fundme.sol\":1546:1583  AmountSentByFunder[currentFunder] = 0 */\n      dup2\n      swap1\n      sstore\n      pop\n        /* \"contracts/fundme.sol\":1474:1594  {... */\n      pop\n        /* \"contracts/fundme.sol\":1459:1472  funderIndex++ */\n      dup1\n      dup1\n      0x01\n      add\n      swap2\n      pop\n      pop\n        /* \"contracts/fundme.sol\":1399:1594  for (uint256 funderIndex = 0; funderIndex < Funders.length; funderIndex++) {... */\n      jump(tag_65)\n    tag_66:\n      pop\n        /* \"contracts/fundme.sol\":1627:1628  0 */\n      0x00\n        /* \"contracts/fundme.sol\":1613:1629  new address[](0) */\n      0xffffffffffffffff\n      dup2\n      gt\n      iszero\n      tag_72\n      jumpi\n      tag_73\n      tag_74\n      jump\t// in\n    tag_73:\n    tag_72:\n      mload(0x40)\n      swap1\n      dup1\n      dup3\n      mstore\n      dup1\n      0x20\n      mul\n      0x20\n      add\n      dup3\n      add\n      0x40\n      mstore\n      dup1\n      iszero\n      tag_75\n      jumpi\n      dup2\n      0x20\n      add\n      0x20\n      dup3\n      mul\n      dup1\n      calldatasize\n      dup4\n      calldatacopy\n      dup1\n      dup3\n      add\n      swap2\n      pop\n      pop\n      swap1\n      pop\n    tag_75:\n      pop\n        /* \"contracts/fundme.sol\":1603:1610  Funders */\n      0x00\n        /* \"contracts/fundme.sol\":1603:1629  Funders = new address[](0) */\n      swap1\n      dup1\n      mload\n      swap1\n      0x20\n      add\n      swap1\n      tag_76\n      swap3\n      swap2\n      swap1\n      tag_77\n      jump\t// in\n    tag_76:\n      pop\n        /* \"contracts/fundme.sol\":1889:1905  bool callSuccess */\n      0x00\n        /* \"contracts/fundme.sol\":1911:1921  msg.sender */\n      caller\n        /* \"contracts/fundme.sol\":1911:1926  msg.sender.call */\n      0xffffffffffffffffffffffffffffffffffffffff\n      and\n        /* \"contracts/fundme.sol\":1934:1955  address(this).balance */\n      selfbalance\n        /* \"contracts/fundme.sol\":1911:1960  msg.sender.call{value: address(this).balance}(\"\") */\n      mload(0x40)\n      tag_78\n      swap1\n      tag_79\n      jump\t// in\n    tag_78:\n      0x00\n      mload(0x40)\n      dup1\n      dup4\n      sub\n      dup2\n      dup6\n      dup8\n      gas\n      call\n      swap3\n      pop\n      pop\n      pop\n      returndatasize\n      dup1\n      0x00\n      dup2\n      eq\n      tag_82\n      jumpi\n      mload(0x40)\n      swap2\n      pop\n      and(add(returndatasize, 0x3f), not(0x1f))\n      dup3\n      add\n      0x40\n      mstore\n      returndatasize\n      dup3\n      mstore\n      returndatasize\n      0x00\n      0x20\n      dup5\n      add\n      returndatacopy\n      jump(tag_81)\n    tag_82:\n      0x60\n      swap2\n      pop\n    tag_81:\n      pop\n        /* \"contracts/fundme.sol\":1888:1960  (bool callSuccess, ) = msg.sender.call{value: address(this).balance}(\"\") */\n      pop\n      swap1\n      pop\n        /* \"contracts/fundme.sol\":1978:1989  callSuccess */\n      dup1\n        /* \"contracts/fundme.sol\":1970:2005  require(callSuccess, \"call failed\") */\n      tag_83\n      jumpi\n      mload(0x40)\n      0x08c379a000000000000000000000000000000000000000000000000000000000\n      dup2\n      mstore\n      0x04\n      add\n      tag_84\n      swap1\n      tag_85\n      jump\t// in\n    tag_84:\n      mload(0x40)\n      dup1\n      swap2\n      sub\n      swap1\n      revert\n    tag_83:\n        /* \"contracts/fundme.sol\":1389:2012  {... */\n      pop\n        /* \"contracts/fundme.sol\":1352:2012  function Withdraw() public OnlyOwner {... */\n      jump\t// out\n        /* \"contracts/fundme.sol\":312:576  function GetPrice() public view returns(uint256) {... */\n    tag_36:\n        /* \"contracts/fundme.sol\":352:359  uint256 */\n      0x00\n        /* \"contracts/fundme.sol\":371:402  AggregatorV3Interface PriceFeed */\n      dup1\n        /* \"contracts/fundme.sol\":427:469  0xfEefF7c3fB57d18C5C6Cdd71e45D2D0b4F9377bF */\n      0xfeeff7c3fb57d18c5c6cdd71e45d2d0b4f9377bf\n        /* \"contracts/fundme.sol\":371:470  AggregatorV3Interface PriceFeed = AggregatorV3Interface(0xfEefF7c3fB57d18C5C6Cdd71e45D2D0b4F9377bF) */\n      swap1\n      pop\n        /* \"contracts/fundme.sol\":483:495  int256 price */\n      0x00\n        /* \"contracts/fundme.sol\":504:513  PriceFeed */\n      dup2\n        /* \"contracts/fundme.sol\":504:529  PriceFeed.latestRoundData */\n      0xffffffffffffffffffffffffffffffffffffffff\n      and\n      0xfeaf968c\n        /* \"contracts/fundme.sol\":504:531  PriceFeed.latestRoundData() */\n      mload(0x40)\n      dup2\n      0xffffffff\n      and\n      0xe0\n      shl\n      dup2\n      mstore\n      0x04\n      add\n      0xa0\n      mload(0x40)\n      dup1\n      dup4\n      sub\n      dup2\n      dup7\n      gas\n      staticcall\n      iszero\n      dup1\n      iszero\n      tag_88\n      jumpi\n      returndatasize\n      0x00\n      dup1\n      returndatacopy\n      revert(0x00, returndatasize)\n    tag_88:\n      pop\n      pop\n      pop\n      pop\n      mload(0x40)\n      returndatasize\n      not(0x1f)\n      0x1f\n      dup3\n      add\n      and\n      dup3\n      add\n      dup1\n      0x40\n      mstore\n      pop\n      dup2\n      add\n      swap1\n      tag_89\n      swap2\n      swap1\n      tag_90\n      jump\t// in\n    tag_89:\n        /* \"contracts/fundme.sol\":480:531  (, int256 price, , ,) = PriceFeed.latestRoundData() */\n      pop\n      pop\n      pop\n      swap2\n      pop\n      pop\n        /* \"contracts/fundme.sol\":564:568  1e10 */\n      0x02540be400\n        /* \"contracts/fundme.sol\":556:561  price */\n      dup2\n        /* \"contracts/fundme.sol\":556:568  price * 1e10 */\n      tag_91\n      swap2\n      swap1\n      tag_92\n      jump\t// in\n    tag_91:\n        /* \"contracts/fundme.sol\":541:569  return uint256(price * 1e10) */\n      swap3\n      pop\n      pop\n      pop\n        /* \"contracts/fundme.sol\":312:576  function GetPrice() public view returns(uint256) {... */\n      swap1\n      jump\t// out\n        /* \"contracts/fundme.sol\":582:796  function GetConversionRate(uint256 ethAmount) public view returns(uint256) {... */\n    tag_41:\n        /* \"contracts/fundme.sol\":648:655  uint256 */\n      0x00\n        /* \"contracts/fundme.sol\":667:683  uint256 ethPrice */\n      dup1\n        /* \"contracts/fundme.sol\":686:696  GetPrice() */\n      tag_94\n        /* \"contracts/fundme.sol\":686:694  GetPrice */\n      tag_36\n        /* \"contracts/fundme.sol\":686:696  GetPrice() */\n      jump\t// in\n    tag_94:\n        /* \"contracts/fundme.sol\":667:696  uint256 ethPrice = GetPrice() */\n      swap1\n      pop\n        /* \"contracts/fundme.sol\":706:727  uint256 ethPriceinUSD */\n      0x00\n        /* \"contracts/fundme.sol\":755:759  1e18 */\n      0x0de0b6b3a7640000\n        /* \"contracts/fundme.sol\":742:751  ethAmount */\n      dup5\n        /* \"contracts/fundme.sol\":731:739  ethPrice */\n      dup4\n        /* \"contracts/fundme.sol\":731:751  ethPrice * ethAmount */\n      tag_95\n      swap2\n      swap1\n      tag_96\n      jump\t// in\n    tag_95:\n        /* \"contracts/fundme.sol\":730:759  (ethPrice * ethAmount) / 1e18 */\n      tag_97\n      swap2\n      swap1\n      tag_98\n      jump\t// in\n    tag_97:\n        /* \"contracts/fundme.sol\":706:759  uint256 ethPriceinUSD = (ethPrice * ethAmount) / 1e18 */\n      swap1\n      pop\n        /* \"contracts/fundme.sol\":776:789  ethPriceinUSD */\n      dup1\n        /* \"contracts/fundme.sol\":769:789  return ethPriceinUSD */\n      swap3\n      pop\n      pop\n      pop\n        /* \"contracts/fundme.sol\":582:796  function GetConversionRate(uint256 ethAmount) public view returns(uint256) {... */\n      swap2\n      swap1\n      pop\n      jump\t// out\n        /* \"contracts/fundme.sol\":802:952  function GetVersion() public view returns(uint256) {... */\n    tag_46:\n        /* \"contracts/fundme.sol\":844:851  uint256 */\n      0x00\n        /* \"contracts/fundme.sol\":892:934  0xfEefF7c3fB57d18C5C6Cdd71e45D2D0b4F9377bF */\n      0xfeeff7c3fb57d18c5c6cdd71e45d2d0b4f9377bf\n        /* \"contracts/fundme.sol\":870:943  AggregatorV3Interface(0xfEefF7c3fB57d18C5C6Cdd71e45D2D0b4F9377bF).version */\n      0xffffffffffffffffffffffffffffffffffffffff\n      and\n      0x54fd4d50\n        /* \"contracts/fundme.sol\":870:945  AggregatorV3Interface(0xfEefF7c3fB57d18C5C6Cdd71e45D2D0b4F9377bF).version() */\n      mload(0x40)\n      dup2\n      0xffffffff\n      and\n      0xe0\n      shl\n      dup2\n      mstore\n      0x04\n      add\n      0x20\n      mload(0x40)\n      dup1\n      dup4\n      sub\n      dup2\n      dup7\n      gas\n      staticcall\n      iszero\n      dup1\n      iszero\n      tag_101\n      jumpi\n      returndatasize\n      0x00\n      dup1\n      returndatacopy\n      revert(0x00, returndatasize)\n    tag_101:\n      pop\n      pop\n      pop\n      pop\n      mload(0x40)\n      returndatasize\n      not(0x1f)\n      0x1f\n      dup3\n      add\n      and\n      dup3\n      add\n      dup1\n      0x40\n      mstore\n      pop\n      dup2\n      add\n      swap1\n      tag_102\n      swap2\n      swap1\n      tag_103\n      jump\t// in\n    tag_102:\n        /* \"contracts/fundme.sol\":863:945  return AggregatorV3Interface(0xfEefF7c3fB57d18C5C6Cdd71e45D2D0b4F9377bF).version() */\n      swap1\n      pop\n        /* \"contracts/fundme.sol\":802:952  function GetVersion() public view returns(uint256) {... */\n      swap1\n      jump\t// out\n        /* \"contracts/fundme.sol\":217:249  address public immutable i_owner */\n    tag_50:\n      immutable(\"0xbbd48b257be1b8216d144ef9be5734f8d11697959c9e0f7768bec89db74a63a3\")\n      dup2\n      jump\t// out\n    tag_77:\n      dup3\n      dup1\n      sload\n      dup3\n      dup3\n      sstore\n      swap1\n      0x00\n      mstore\n      keccak256(0x00, 0x20)\n      swap1\n      dup2\n      add\n      swap3\n      dup3\n      iszero\n      tag_104\n      jumpi\n      swap2\n      0x20\n      mul\n      dup3\n      add\n    tag_105:\n      dup3\n      dup2\n      gt\n      iszero\n      tag_106\n      jumpi\n      dup3\n      mload\n      dup3\n      exp(0x0100, 0x00)\n      dup2\n      sload\n      dup2\n      0xffffffffffffffffffffffffffffffffffffffff\n      mul\n      not\n      and\n      swap1\n      dup4\n      0xffffffffffffffffffffffffffffffffffffffff\n      and\n      mul\n      or\n      swap1\n      sstore\n      pop\n      swap2\n      0x20\n      add\n      swap2\n      swap1\n      0x01\n      add\n      swap1\n      jump(tag_105)\n    tag_106:\n    tag_104:\n      pop\n      swap1\n      pop\n      tag_107\n      swap2\n      swap1\n      tag_108\n      jump\t// in\n    tag_107:\n      pop\n      swap1\n      jump\t// out\n    tag_108:\n    tag_109:\n      dup1\n      dup3\n      gt\n      iszero\n      tag_110\n      jumpi\n      0x00\n      dup2\n      0x00\n      swap1\n      sstore\n      pop\n      0x01\n      add\n      jump(tag_109)\n    tag_110:\n      pop\n      swap1\n      jump\t// out\n        /* \"#utility.yul\":7:84   */\n    tag_111:\n        /* \"#utility.yul\":44:51   */\n      0x00\n        /* \"#utility.yul\":73:78   */\n      dup2\n        /* \"#utility.yul\":62:78   */\n      swap1\n      pop\n        /* \"#utility.yul\":7:84   */\n      swap2\n      swap1\n      pop\n      jump\t// out\n        /* \"#utility.yul\":90:208   */\n    tag_112:\n        /* \"#utility.yul\":177:201   */\n      tag_141\n        /* \"#utility.yul\":195:200   */\n      dup2\n        /* \"#utility.yul\":177:201   */\n      tag_111\n      jump\t// in\n    tag_141:\n        /* \"#utility.yul\":172:175   */\n      dup3\n        /* \"#utility.yul\":165:202   */\n      mstore\n        /* \"#utility.yul\":90:208   */\n      pop\n      pop\n      jump\t// out\n        /* \"#utility.yul\":214:436   */\n    tag_23:\n        /* \"#utility.yul\":307:311   */\n      0x00\n        /* \"#utility.yul\":345:347   */\n      0x20\n        /* \"#utility.yul\":334:343   */\n      dup3\n        /* \"#utility.yul\":330:348   */\n      add\n        /* \"#utility.yul\":322:348   */\n      swap1\n      pop\n        /* \"#utility.yul\":358:429   */\n      tag_143\n        /* \"#utility.yul\":426:427   */\n      0x00\n        /* \"#utility.yul\":415:424   */\n      dup4\n        /* \"#utility.yul\":411:428   */\n      add\n        /* \"#utility.yul\":402:408   */\n      dup5\n        /* \"#utility.yul\":358:429   */\n      tag_112\n      jump\t// in\n    tag_143:\n        /* \"#utility.yul\":214:436   */\n      swap3\n      swap2\n      pop\n      pop\n      jump\t// out\n        /* \"#utility.yul\":523:640   */\n    tag_114:\n        /* \"#utility.yul\":632:633   */\n      0x00\n        /* \"#utility.yul\":629:630   */\n      dup1\n        /* \"#utility.yul\":622:634   */\n      revert\n        /* \"#utility.yul\":769:891   */\n    tag_116:\n        /* \"#utility.yul\":842:866   */\n      tag_148\n        /* \"#utility.yul\":860:865   */\n      dup2\n        /* \"#utility.yul\":842:866   */\n      tag_111\n      jump\t// in\n    tag_148:\n        /* \"#utility.yul\":835:840   */\n      dup2\n        /* \"#utility.yul\":832:867   */\n      eq\n        /* \"#utility.yul\":822:885   */\n      tag_149\n      jumpi\n        /* \"#utility.yul\":881:882   */\n      0x00\n        /* \"#utility.yul\":878:879   */\n      dup1\n        /* \"#utility.yul\":871:883   */\n      revert\n        /* \"#utility.yul\":822:885   */\n    tag_149:\n        /* \"#utility.yul\":769:891   */\n      pop\n      jump\t// out\n        /* \"#utility.yul\":897:1036   */\n    tag_117:\n        /* \"#utility.yul\":943:948   */\n      0x00\n        /* \"#utility.yul\":981:987   */\n      dup2\n        /* \"#utility.yul\":968:988   */\n      calldataload\n        /* \"#utility.yul\":959:988   */\n      swap1\n      pop\n        /* \"#utility.yul\":997:1030   */\n      tag_151\n        /* \"#utility.yul\":1024:1029   */\n      dup2\n        /* \"#utility.yul\":997:1030   */\n      tag_116\n      jump\t// in\n    tag_151:\n        /* \"#utility.yul\":897:1036   */\n      swap3\n      swap2\n      pop\n      pop\n      jump\t// out\n        /* \"#utility.yul\":1042:1371   */\n    tag_27:\n        /* \"#utility.yul\":1101:1107   */\n      0x00\n        /* \"#utility.yul\":1150:1152   */\n      0x20\n        /* \"#utility.yul\":1138:1147   */\n      dup3\n        /* \"#utility.yul\":1129:1136   */\n      dup5\n        /* \"#utility.yul\":1125:1148   */\n      sub\n        /* \"#utility.yul\":1121:1153   */\n      slt\n        /* \"#utility.yul\":1118:1237   */\n      iszero\n      tag_153\n      jumpi\n        /* \"#utility.yul\":1156:1235   */\n      tag_154\n      tag_114\n      jump\t// in\n    tag_154:\n        /* \"#utility.yul\":1118:1237   */\n    tag_153:\n        /* \"#utility.yul\":1276:1277   */\n      0x00\n        /* \"#utility.yul\":1301:1354   */\n      tag_155\n        /* \"#utility.yul\":1346:1353   */\n      dup5\n        /* \"#utility.yul\":1337:1343   */\n      dup3\n        /* \"#utility.yul\":1326:1335   */\n      dup6\n        /* \"#utility.yul\":1322:1344   */\n      add\n        /* \"#utility.yul\":1301:1354   */\n      tag_117\n      jump\t// in\n    tag_155:\n        /* \"#utility.yul\":1291:1354   */\n      swap2\n      pop\n        /* \"#utility.yul\":1247:1364   */\n      pop\n        /* \"#utility.yul\":1042:1371   */\n      swap3\n      swap2\n      pop\n      pop\n      jump\t// out\n        /* \"#utility.yul\":1377:1503   */\n    tag_118:\n        /* \"#utility.yul\":1414:1421   */\n      0x00\n        /* \"#utility.yul\":1454:1496   */\n      0xffffffffffffffffffffffffffffffffffffffff\n        /* \"#utility.yul\":1447:1452   */\n      dup3\n        /* \"#utility.yul\":1443:1497   */\n      and\n        /* \"#utility.yul\":1432:1497   */\n      swap1\n      pop\n        /* \"#utility.yul\":1377:1503   */\n      swap2\n      swap1\n      pop\n      jump\t// out\n        /* \"#utility.yul\":1509:1605   */\n    tag_119:\n        /* \"#utility.yul\":1546:1553   */\n      0x00\n        /* \"#utility.yul\":1575:1599   */\n      tag_158\n        /* \"#utility.yul\":1593:1598   */\n      dup3\n        /* \"#utility.yul\":1575:1599   */\n      tag_118\n      jump\t// in\n    tag_158:\n        /* \"#utility.yul\":1564:1599   */\n      swap1\n      pop\n        /* \"#utility.yul\":1509:1605   */\n      swap2\n      swap1\n      pop\n      jump\t// out\n        /* \"#utility.yul\":1611:1729   */\n    tag_120:\n        /* \"#utility.yul\":1698:1722   */\n      tag_160\n        /* \"#utility.yul\":1716:1721   */\n      dup2\n        /* \"#utility.yul\":1698:1722   */\n      tag_119\n      jump\t// in\n    tag_160:\n        /* \"#utility.yul\":1693:1696   */\n      dup3\n        /* \"#utility.yul\":1686:1723   */\n      mstore\n        /* \"#utility.yul\":1611:1729   */\n      pop\n      pop\n      jump\t// out\n        /* \"#utility.yul\":1735:1957   */\n    tag_30:\n        /* \"#utility.yul\":1828:1832   */\n      0x00\n        /* \"#utility.yul\":1866:1868   */\n      0x20\n        /* \"#utility.yul\":1855:1864   */\n      dup3\n        /* \"#utility.yul\":1851:1869   */\n      add\n        /* \"#utility.yul\":1843:1869   */\n      swap1\n      pop\n        /* \"#utility.yul\":1879:1950   */\n      tag_162\n        /* \"#utility.yul\":1947:1948   */\n      0x00\n        /* \"#utility.yul\":1936:1945   */\n      dup4\n        /* \"#utility.yul\":1932:1949   */\n      add\n        /* \"#utility.yul\":1923:1929   */\n      dup5\n        /* \"#utility.yul\":1879:1950   */\n      tag_120\n      jump\t// in\n    tag_162:\n        /* \"#utility.yul\":1735:1957   */\n      swap3\n      swap2\n      pop\n      pop\n      jump\t// out\n        /* \"#utility.yul\":1963:2132   */\n    tag_121:\n        /* \"#utility.yul\":2047:2058   */\n      0x00\n        /* \"#utility.yul\":2081:2087   */\n      dup3\n        /* \"#utility.yul\":2076:2079   */\n      dup3\n        /* \"#utility.yul\":2069:2088   */\n      mstore\n        /* \"#utility.yul\":2121:2125   */\n      0x20\n        /* \"#utility.yul\":2116:2119   */\n      dup3\n        /* \"#utility.yul\":2112:2126   */\n      add\n        /* \"#utility.yul\":2097:2126   */\n      swap1\n      pop\n        /* \"#utility.yul\":1963:2132   */\n      swap3\n      swap2\n      pop\n      pop\n      jump\t// out\n        /* \"#utility.yul\":2138:2306   */\n    tag_122:\n        /* \"#utility.yul\":2278:2298   */\n      0x6469646e27742073656e6420656e6f7567680000000000000000000000000000\n        /* \"#utility.yul\":2274:2275   */\n      0x00\n        /* \"#utility.yul\":2266:2272   */\n      dup3\n        /* \"#utility.yul\":2262:2276   */\n      add\n        /* \"#utility.yul\":2255:2299   */\n      mstore\n        /* \"#utility.yul\":2138:2306   */\n      pop\n      jump\t// out\n        /* \"#utility.yul\":2312:2678   */\n    tag_123:\n        /* \"#utility.yul\":2454:2457   */\n      0x00\n        /* \"#utility.yul\":2475:2542   */\n      tag_166\n        /* \"#utility.yul\":2539:2541   */\n      0x12\n        /* \"#utility.yul\":2534:2537   */\n      dup4\n        /* \"#utility.yul\":2475:2542   */\n      tag_121\n      jump\t// in\n    tag_166:\n        /* \"#utility.yul\":2468:2542   */\n      swap2\n      pop\n        /* \"#utility.yul\":2551:2644   */\n      tag_167\n        /* \"#utility.yul\":2640:2643   */\n      dup3\n        /* \"#utility.yul\":2551:2644   */\n      tag_122\n      jump\t// in\n    tag_167:\n        /* \"#utility.yul\":2669:2671   */\n      0x20\n        /* \"#utility.yul\":2664:2667   */\n      dup3\n        /* \"#utility.yul\":2660:2672   */\n      add\n        /* \"#utility.yul\":2653:2672   */\n      swap1\n      pop\n        /* \"#utility.yul\":2312:2678   */\n      swap2\n      swap1\n      pop\n      jump\t// out\n        /* \"#utility.yul\":2684:3103   */\n    tag_56:\n        /* \"#utility.yul\":2850:2854   */\n      0x00\n        /* \"#utility.yul\":2888:2890   */\n      0x20\n        /* \"#utility.yul\":2877:2886   */\n      dup3\n        /* \"#utility.yul\":2873:2891   */\n      add\n        /* \"#utility.yul\":2865:2891   */\n      swap1\n      pop\n        /* \"#utility.yul\":2937:2946   */\n      dup2\n        /* \"#utility.yul\":2931:2935   */\n      dup2\n        /* \"#utility.yul\":2927:2947   */\n      sub\n        /* \"#utility.yul\":2923:2924   */\n      0x00\n        /* \"#utility.yul\":2912:2921   */\n      dup4\n        /* \"#utility.yul\":2908:2925   */\n      add\n        /* \"#utility.yul\":2901:2948   */\n      mstore\n        /* \"#utility.yul\":2965:3096   */\n      tag_169\n        /* \"#utility.yul\":3091:3095   */\n      dup2\n        /* \"#utility.yul\":2965:3096   */\n      tag_123\n      jump\t// in\n    tag_169:\n        /* \"#utility.yul\":2957:3096   */\n      swap1\n      pop\n        /* \"#utility.yul\":2684:3103   */\n      swap2\n      swap1\n      pop\n      jump\t// out\n        /* \"#utility.yul\":3109:3289   */\n    tag_124:\n        /* \"#utility.yul\":3157:3234   */\n      0x4e487b7100000000000000000000000000000000000000000000000000000000\n        /* \"#utility.yul\":3154:3155   */\n      0x00\n        /* \"#utility.yul\":3147:3235   */\n      mstore\n        /* \"#utility.yul\":3254:3258   */\n      0x11\n        /* \"#utility.yul\":3251:3252   */\n      0x04\n        /* \"#utility.yul\":3244:3259   */\n      mstore\n        /* \"#utility.yul\":3278:3282   */\n      0x24\n        /* \"#utility.yul\":3275:3276   */\n      0x00\n        /* \"#utility.yul\":3268:3283   */\n      revert\n        /* \"#utility.yul\":3295:3486   */\n    tag_59:\n        /* \"#utility.yul\":3335:3338   */\n      0x00\n        /* \"#utility.yul\":3354:3374   */\n      tag_172\n        /* \"#utility.yul\":3372:3373   */\n      dup3\n        /* \"#utility.yul\":3354:3374   */\n      tag_111\n      jump\t// in\n    tag_172:\n        /* \"#utility.yul\":3349:3374   */\n      swap2\n      pop\n        /* \"#utility.yul\":3388:3408   */\n      tag_173\n        /* \"#utility.yul\":3406:3407   */\n      dup4\n        /* \"#utility.yul\":3388:3408   */\n      tag_111\n      jump\t// in\n    tag_173:\n        /* \"#utility.yul\":3383:3408   */\n      swap3\n      pop\n        /* \"#utility.yul\":3431:3432   */\n      dup3\n        /* \"#utility.yul\":3428:3429   */\n      dup3\n        /* \"#utility.yul\":3424:3433   */\n      add\n        /* \"#utility.yul\":3417:3433   */\n      swap1\n      pop\n        /* \"#utility.yul\":3452:3455   */\n      dup1\n        /* \"#utility.yul\":3449:3450   */\n      dup3\n        /* \"#utility.yul\":3446:3456   */\n      gt\n        /* \"#utility.yul\":3443:3479   */\n      iszero\n      tag_174\n      jumpi\n        /* \"#utility.yul\":3459:3477   */\n      tag_175\n      tag_124\n      jump\t// in\n    tag_175:\n        /* \"#utility.yul\":3443:3479   */\n    tag_174:\n        /* \"#utility.yul\":3295:3486   */\n      swap3\n      swap2\n      pop\n      pop\n      jump\t// out\n        /* \"#utility.yul\":3492:3672   */\n    tag_70:\n        /* \"#utility.yul\":3540:3617   */\n      0x4e487b7100000000000000000000000000000000000000000000000000000000\n        /* \"#utility.yul\":3537:3538   */\n      0x00\n        /* \"#utility.yul\":3530:3618   */\n      mstore\n        /* \"#utility.yul\":3637:3641   */\n      0x32\n        /* \"#utility.yul\":3634:3635   */\n      0x04\n        /* \"#utility.yul\":3627:3642   */\n      mstore\n        /* \"#utility.yul\":3661:3665   */\n      0x24\n        /* \"#utility.yul\":3658:3659   */\n      0x00\n        /* \"#utility.yul\":3651:3666   */\n      revert\n        /* \"#utility.yul\":3678:3858   */\n    tag_74:\n        /* \"#utility.yul\":3726:3803   */\n      0x4e487b7100000000000000000000000000000000000000000000000000000000\n        /* \"#utility.yul\":3723:3724   */\n      0x00\n        /* \"#utility.yul\":3716:3804   */\n      mstore\n        /* \"#utility.yul\":3823:3827   */\n      0x41\n        /* \"#utility.yul\":3820:3821   */\n      0x04\n        /* \"#utility.yul\":3813:3828   */\n      mstore\n        /* \"#utility.yul\":3847:3851   */\n      0x24\n        /* \"#utility.yul\":3844:3845   */\n      0x00\n        /* \"#utility.yul\":3837:3852   */\n      revert\n        /* \"#utility.yul\":3864:4011   */\n    tag_125:\n        /* \"#utility.yul\":3965:3976   */\n      0x00\n        /* \"#utility.yul\":4002:4005   */\n      dup2\n        /* \"#utility.yul\":3987:4005   */\n      swap1\n      pop\n        /* \"#utility.yul\":3864:4011   */\n      swap3\n      swap2\n      pop\n      pop\n      jump\t// out\n        /* \"#utility.yul\":4017:4131   */\n    tag_126:\n      pop\n      jump\t// out\n        /* \"#utility.yul\":4137:4535   */\n    tag_127:\n        /* \"#utility.yul\":4296:4299   */\n      0x00\n        /* \"#utility.yul\":4317:4400   */\n      tag_181\n        /* \"#utility.yul\":4398:4399   */\n      0x00\n        /* \"#utility.yul\":4393:4396   */\n      dup4\n        /* \"#utility.yul\":4317:4400   */\n      tag_125\n      jump\t// in\n    tag_181:\n        /* \"#utility.yul\":4310:4400   */\n      swap2\n      pop\n        /* \"#utility.yul\":4409:4502   */\n      tag_182\n        /* \"#utility.yul\":4498:4501   */\n      dup3\n        /* \"#utility.yul\":4409:4502   */\n      tag_126\n      jump\t// in\n    tag_182:\n        /* \"#utility.yul\":4527:4528   */\n      0x00\n        /* \"#utility.yul\":4522:4525   */\n      dup3\n        /* \"#utility.yul\":4518:4529   */\n      add\n        /* \"#utility.yul\":4511:4529   */\n      swap1\n      pop\n        /* \"#utility.yul\":4137:4535   */\n      swap2\n      swap1\n      pop\n      jump\t// out\n        /* \"#utility.yul\":4541:4920   */\n    tag_79:\n        /* \"#utility.yul\":4725:4728   */\n      0x00\n        /* \"#utility.yul\":4747:4894   */\n      tag_184\n        /* \"#utility.yul\":4890:4893   */\n      dup3\n        /* \"#utility.yul\":4747:4894   */\n      tag_127\n      jump\t// in\n    tag_184:\n        /* \"#utility.yul\":4740:4894   */\n      swap2\n      pop\n        /* \"#utility.yul\":4911:4914   */\n      dup2\n        /* \"#utility.yul\":4904:4914   */\n      swap1\n      pop\n        /* \"#utility.yul\":4541:4920   */\n      swap2\n      swap1\n      pop\n      jump\t// out\n        /* \"#utility.yul\":4926:5087   */\n    tag_128:\n        /* \"#utility.yul\":5066:5079   */\n      0x63616c6c206661696c6564000000000000000000000000000000000000000000\n        /* \"#utility.yul\":5062:5063   */\n      0x00\n        /* \"#utility.yul\":5054:5060   */\n      dup3\n        /* \"#utility.yul\":5050:5064   */\n      add\n        /* \"#utility.yul\":5043:5080   */\n      mstore\n        /* \"#utility.yul\":4926:5087   */\n      pop\n      jump\t// out\n        /* \"#utility.yul\":5093:5459   */\n    tag_129:\n        /* \"#utility.yul\":5235:5238   */\n      0x00\n        /* \"#utility.yul\":5256:5323   */\n      tag_187\n        /* \"#utility.yul\":5320:5322   */\n      0x0b\n        /* \"#utility.yul\":5315:5318   */\n      dup4\n        /* \"#utility.yul\":5256:5323   */\n      tag_121\n      jump\t// in\n    tag_187:\n        /* \"#utility.yul\":5249:5323   */\n      swap2\n      pop\n        /* \"#utility.yul\":5332:5425   */\n      tag_188\n        /* \"#utility.yul\":5421:5424   */\n      dup3\n        /* \"#utility.yul\":5332:5425   */\n      tag_128\n      jump\t// in\n    tag_188:\n        /* \"#utility.yul\":5450:5452   */\n      0x20\n        /* \"#utility.yul\":5445:5448   */\n      dup3\n        /* \"#utility.yul\":5441:5453   */\n      add\n        /* \"#utility.yul\":5434:5453   */\n      swap1\n      pop\n        /* \"#utility.yul\":5093:5459   */\n      swap2\n      swap1\n      pop\n      jump\t// out\n        /* \"#utility.yul\":5465:5884   */\n    tag_85:\n        /* \"#utility.yul\":5631:5635   */\n      0x00\n        /* \"#utility.yul\":5669:5671   */\n      0x20\n        /* \"#utility.yul\":5658:5667   */\n      dup3\n        /* \"#utility.yul\":5654:5672   */\n      add\n        /* \"#utility.yul\":5646:5672   */\n      swap1\n      pop\n        /* \"#utility.yul\":5718:5727   */\n      dup2\n        /* \"#utility.yul\":5712:5716   */\n      dup2\n        /* \"#utility.yul\":5708:5728   */\n      sub\n        /* \"#utility.yul\":5704:5705   */\n      0x00\n        /* \"#utility.yul\":5693:5702   */\n      dup4\n        /* \"#utility.yul\":5689:5706   */\n      add\n        /* \"#utility.yul\":5682:5729   */\n      mstore\n        /* \"#utility.yul\":5746:5877   */\n      tag_190\n        /* \"#utility.yul\":5872:5876   */\n      dup2\n        /* \"#utility.yul\":5746:5877   */\n      tag_129\n      jump\t// in\n    tag_190:\n        /* \"#utility.yul\":5738:5877   */\n      swap1\n      pop\n        /* \"#utility.yul\":5465:5884   */\n      swap2\n      swap1\n      pop\n      jump\t// out\n        /* \"#utility.yul\":5890:5995   */\n    tag_130:\n        /* \"#utility.yul\":5926:5933   */\n      0x00\n        /* \"#utility.yul\":5966:5988   */\n      0xffffffffffffffffffff\n        /* \"#utility.yul\":5959:5964   */\n      dup3\n        /* \"#utility.yul\":5955:5989   */\n      and\n        /* \"#utility.yul\":5944:5989   */\n      swap1\n      pop\n        /* \"#utility.yul\":5890:5995   */\n      swap2\n      swap1\n      pop\n      jump\t// out\n        /* \"#utility.yul\":6001:6121   */\n    tag_131:\n        /* \"#utility.yul\":6073:6096   */\n      tag_193\n        /* \"#utility.yul\":6090:6095   */\n      dup2\n        /* \"#utility.yul\":6073:6096   */\n      tag_130\n      jump\t// in\n    tag_193:\n        /* \"#utility.yul\":6066:6071   */\n      dup2\n        /* \"#utility.yul\":6063:6097   */\n      eq\n        /* \"#utility.yul\":6053:6115   */\n      tag_194\n      jumpi\n        /* \"#utility.yul\":6111:6112   */\n      0x00\n        /* \"#utility.yul\":6108:6109   */\n      dup1\n        /* \"#utility.yul\":6101:6113   */\n      revert\n        /* \"#utility.yul\":6053:6115   */\n    tag_194:\n        /* \"#utility.yul\":6001:6121   */\n      pop\n      jump\t// out\n        /* \"#utility.yul\":6127:6268   */\n    tag_132:\n        /* \"#utility.yul\":6183:6188   */\n      0x00\n        /* \"#utility.yul\":6214:6220   */\n      dup2\n        /* \"#utility.yul\":6208:6221   */\n      mload\n        /* \"#utility.yul\":6199:6221   */\n      swap1\n      pop\n        /* \"#utility.yul\":6230:6262   */\n      tag_196\n        /* \"#utility.yul\":6256:6261   */\n      dup2\n        /* \"#utility.yul\":6230:6262   */\n      tag_131\n      jump\t// in\n    tag_196:\n        /* \"#utility.yul\":6127:6268   */\n      swap3\n      swap2\n      pop\n      pop\n      jump\t// out\n        /* \"#utility.yul\":6274:6350   */\n    tag_133:\n        /* \"#utility.yul\":6310:6317   */\n      0x00\n        /* \"#utility.yul\":6339:6344   */\n      dup2\n        /* \"#utility.yul\":6328:6344   */\n      swap1\n      pop\n        /* \"#utility.yul\":6274:6350   */\n      swap2\n      swap1\n      pop\n      jump\t// out\n        /* \"#utility.yul\":6356:6476   */\n    tag_134:\n        /* \"#utility.yul\":6428:6451   */\n      tag_199\n        /* \"#utility.yul\":6445:6450   */\n      dup2\n        /* \"#utility.yul\":6428:6451   */\n      tag_133\n      jump\t// in\n    tag_199:\n        /* \"#utility.yul\":6421:6426   */\n      dup2\n        /* \"#utility.yul\":6418:6452   */\n      eq\n        /* \"#utility.yul\":6408:6470   */\n      tag_200\n      jumpi\n        /* \"#utility.yul\":6466:6467   */\n      0x00\n        /* \"#utility.yul\":6463:6464   */\n      dup1\n        /* \"#utility.yul\":6456:6468   */\n      revert\n        /* \"#utility.yul\":6408:6470   */\n    tag_200:\n        /* \"#utility.yul\":6356:6476   */\n      pop\n      jump\t// out\n        /* \"#utility.yul\":6482:6623   */\n    tag_135:\n        /* \"#utility.yul\":6538:6543   */\n      0x00\n        /* \"#utility.yul\":6569:6575   */\n      dup2\n        /* \"#utility.yul\":6563:6576   */\n      mload\n        /* \"#utility.yul\":6554:6576   */\n      swap1\n      pop\n        /* \"#utility.yul\":6585:6617   */\n      tag_202\n        /* \"#utility.yul\":6611:6616   */\n      dup2\n        /* \"#utility.yul\":6585:6617   */\n      tag_134\n      jump\t// in\n    tag_202:\n        /* \"#utility.yul\":6482:6623   */\n      swap3\n      swap2\n      pop\n      pop\n      jump\t// out\n        /* \"#utility.yul\":6629:6772   */\n    tag_136:\n        /* \"#utility.yul\":6686:6691   */\n      0x00\n        /* \"#utility.yul\":6717:6723   */\n      dup2\n        /* \"#utility.yul\":6711:6724   */\n      mload\n        /* \"#utility.yul\":6702:6724   */\n      swap1\n      pop\n        /* \"#utility.yul\":6733:6766   */\n      tag_204\n        /* \"#utility.yul\":6760:6765   */\n      dup2\n        /* \"#utility.yul\":6733:6766   */\n      tag_116\n      jump\t// in\n    tag_204:\n        /* \"#utility.yul\":6629:6772   */\n      swap3\n      swap2\n      pop\n      pop\n      jump\t// out\n        /* \"#utility.yul\":6778:7749   */\n    tag_90:\n        /* \"#utility.yul\":6881:6887   */\n      0x00\n        /* \"#utility.yul\":6889:6895   */\n      dup1\n        /* \"#utility.yul\":6897:6903   */\n      0x00\n        /* \"#utility.yul\":6905:6911   */\n      dup1\n        /* \"#utility.yul\":6913:6919   */\n      0x00\n        /* \"#utility.yul\":6962:6965   */\n      0xa0\n        /* \"#utility.yul\":6950:6959   */\n      dup7\n        /* \"#utility.yul\":6941:6948   */\n      dup9\n        /* \"#utility.yul\":6937:6960   */\n      sub\n        /* \"#utility.yul\":6933:6966   */\n      slt\n        /* \"#utility.yul\":6930:7050   */\n      iszero\n      tag_206\n      jumpi\n        /* \"#utility.yul\":6969:7048   */\n      tag_207\n      tag_114\n      jump\t// in\n    tag_207:\n        /* \"#utility.yul\":6930:7050   */\n    tag_206:\n        /* \"#utility.yul\":7089:7090   */\n      0x00\n        /* \"#utility.yul\":7114:7177   */\n      tag_208\n        /* \"#utility.yul\":7169:7176   */\n      dup9\n        /* \"#utility.yul\":7160:7166   */\n      dup3\n        /* \"#utility.yul\":7149:7158   */\n      dup10\n        /* \"#utility.yul\":7145:7167   */\n      add\n        /* \"#utility.yul\":7114:7177   */\n      tag_132\n      jump\t// in\n    tag_208:\n        /* \"#utility.yul\":7104:7177   */\n      swap6\n      pop\n        /* \"#utility.yul\":7060:7187   */\n      pop\n        /* \"#utility.yul\":7226:7228   */\n      0x20\n        /* \"#utility.yul\":7252:7315   */\n      tag_209\n        /* \"#utility.yul\":7307:7314   */\n      dup9\n        /* \"#utility.yul\":7298:7304   */\n      dup3\n        /* \"#utility.yul\":7287:7296   */\n      dup10\n        /* \"#utility.yul\":7283:7305   */\n      add\n        /* \"#utility.yul\":7252:7315   */\n      tag_135\n      jump\t// in\n    tag_209:\n        /* \"#utility.yul\":7242:7315   */\n      swap5\n      pop\n        /* \"#utility.yul\":7197:7325   */\n      pop\n        /* \"#utility.yul\":7364:7366   */\n      0x40\n        /* \"#utility.yul\":7390:7454   */\n      tag_210\n        /* \"#utility.yul\":7446:7453   */\n      dup9\n        /* \"#utility.yul\":7437:7443   */\n      dup3\n        /* \"#utility.yul\":7426:7435   */\n      dup10\n        /* \"#utility.yul\":7422:7444   */\n      add\n        /* \"#utility.yul\":7390:7454   */\n      tag_136\n      jump\t// in\n    tag_210:\n        /* \"#utility.yul\":7380:7454   */\n      swap4\n      pop\n        /* \"#utility.yul\":7335:7464   */\n      pop\n        /* \"#utility.yul\":7503:7505   */\n      0x60\n        /* \"#utility.yul\":7529:7593   */\n      tag_211\n        /* \"#utility.yul\":7585:7592   */\n      dup9\n        /* \"#utility.yul\":7576:7582   */\n      dup3\n        /* \"#utility.yul\":7565:7574   */\n      dup10\n        /* \"#utility.yul\":7561:7583   */\n      add\n        /* \"#utility.yul\":7529:7593   */\n      tag_136\n      jump\t// in\n    tag_211:\n        /* \"#utility.yul\":7519:7593   */\n      swap3\n      pop\n        /* \"#utility.yul\":7474:7603   */\n      pop\n        /* \"#utility.yul\":7642:7645   */\n      0x80\n        /* \"#utility.yul\":7669:7732   */\n      tag_212\n        /* \"#utility.yul\":7724:7731   */\n      dup9\n        /* \"#utility.yul\":7715:7721   */\n      dup3\n        /* \"#utility.yul\":7704:7713   */\n      dup10\n        /* \"#utility.yul\":7700:7722   */\n      add\n        /* \"#utility.yul\":7669:7732   */\n      tag_132\n      jump\t// in\n    tag_212:\n        /* \"#utility.yul\":7659:7732   */\n      swap2\n      pop\n        /* \"#utility.yul\":7613:7742   */\n      pop\n        /* \"#utility.yul\":6778:7749   */\n      swap3\n      swap6\n      pop\n      swap3\n      swap6\n      swap1\n      swap4\n      pop\n      jump\t// out\n        /* \"#utility.yul\":7755:8311   */\n    tag_92:\n        /* \"#utility.yul\":7794:7801   */\n      0x00\n        /* \"#utility.yul\":7817:7836   */\n      tag_214\n        /* \"#utility.yul\":7834:7835   */\n      dup3\n        /* \"#utility.yul\":7817:7836   */\n      tag_133\n      jump\t// in\n    tag_214:\n        /* \"#utility.yul\":7812:7836   */\n      swap2\n      pop\n        /* \"#utility.yul\":7850:7869   */\n      tag_215\n        /* \"#utility.yul\":7867:7868   */\n      dup4\n        /* \"#utility.yul\":7850:7869   */\n      tag_133\n      jump\t// in\n    tag_215:\n        /* \"#utility.yul\":7845:7869   */\n      swap3\n      pop\n        /* \"#utility.yul\":7904:7905   */\n      dup3\n        /* \"#utility.yul\":7901:7902   */\n      dup3\n        /* \"#utility.yul\":7897:7906   */\n      mul\n        /* \"#utility.yul\":7926:7955   */\n      tag_216\n        /* \"#utility.yul\":7943:7954   */\n      dup2\n        /* \"#utility.yul\":7926:7955   */\n      tag_133\n      jump\t// in\n    tag_216:\n        /* \"#utility.yul\":7915:7955   */\n      swap2\n      pop\n        /* \"#utility.yul\":8013:8079   */\n      0x8000000000000000000000000000000000000000000000000000000000000000\n        /* \"#utility.yul\":8010:8011   */\n      dup5\n        /* \"#utility.yul\":8007:8080   */\n      eq\n        /* \"#utility.yul\":8003:8004   */\n      0x00\n        /* \"#utility.yul\":8000:8001   */\n      dup5\n        /* \"#utility.yul\":7996:8005   */\n      slt\n        /* \"#utility.yul\":7992:8081   */\n      and\n        /* \"#utility.yul\":7989:8104   */\n      iszero\n      tag_217\n      jumpi\n        /* \"#utility.yul\":8084:8102   */\n      tag_218\n      tag_124\n      jump\t// in\n    tag_218:\n        /* \"#utility.yul\":7989:8104   */\n    tag_217:\n        /* \"#utility.yul\":8254:8255   */\n      dup3\n        /* \"#utility.yul\":8245:8252   */\n      dup3\n        /* \"#utility.yul\":8240:8256   */\n      sdiv\n        /* \"#utility.yul\":8237:8238   */\n      dup5\n        /* \"#utility.yul\":8234:8257   */\n      eq\n        /* \"#utility.yul\":8214:8215   */\n      dup4\n        /* \"#utility.yul\":8207:8216   */\n      iszero\n        /* \"#utility.yul\":8187:8271   */\n      or\n        /* \"#utility.yul\":8164:8304   */\n      tag_219\n      jumpi\n        /* \"#utility.yul\":8284:8302   */\n      tag_220\n      tag_124\n      jump\t// in\n    tag_220:\n        /* \"#utility.yul\":8164:8304   */\n    tag_219:\n        /* \"#utility.yul\":7802:8311   */\n      pop\n        /* \"#utility.yul\":7755:8311   */\n      swap3\n      swap2\n      pop\n      pop\n      jump\t// out\n        /* \"#utility.yul\":8317:8727   */\n    tag_96:\n        /* \"#utility.yul\":8357:8364   */\n      0x00\n        /* \"#utility.yul\":8380:8400   */\n      tag_222\n        /* \"#utility.yul\":8398:8399   */\n      dup3\n        /* \"#utility.yul\":8380:8400   */\n      tag_111\n      jump\t// in\n    tag_222:\n        /* \"#utility.yul\":8375:8400   */\n      swap2\n      pop\n        /* \"#utility.yul\":8414:8434   */\n      tag_223\n        /* \"#utility.yul\":8432:8433   */\n      dup4\n        /* \"#utility.yul\":8414:8434   */\n      tag_111\n      jump\t// in\n    tag_223:\n        /* \"#utility.yul\":8409:8434   */\n      swap3\n      pop\n        /* \"#utility.yul\":8469:8470   */\n      dup3\n        /* \"#utility.yul\":8466:8467   */\n      dup3\n        /* \"#utility.yul\":8462:8471   */\n      mul\n        /* \"#utility.yul\":8491:8521   */\n      tag_224\n        /* \"#utility.yul\":8509:8520   */\n      dup2\n        /* \"#utility.yul\":8491:8521   */\n      tag_111\n      jump\t// in\n    tag_224:\n        /* \"#utility.yul\":8480:8521   */\n      swap2\n      pop\n        /* \"#utility.yul\":8670:8671   */\n      dup3\n        /* \"#utility.yul\":8661:8668   */\n      dup3\n        /* \"#utility.yul\":8657:8672   */\n      div\n        /* \"#utility.yul\":8654:8655   */\n      dup5\n        /* \"#utility.yul\":8651:8673   */\n      eq\n        /* \"#utility.yul\":8631:8632   */\n      dup4\n        /* \"#utility.yul\":8624:8633   */\n      iszero\n        /* \"#utility.yul\":8604:8687   */\n      or\n        /* \"#utility.yul\":8581:8720   */\n      tag_225\n      jumpi\n        /* \"#utility.yul\":8700:8718   */\n      tag_226\n      tag_124\n      jump\t// in\n    tag_226:\n        /* \"#utility.yul\":8581:8720   */\n    tag_225:\n        /* \"#utility.yul\":8365:8727   */\n      pop\n        /* \"#utility.yul\":8317:8727   */\n      swap3\n      swap2\n      pop\n      pop\n      jump\t// out\n        /* \"#utility.yul\":8733:8913   */\n    tag_137:\n        /* \"#utility.yul\":8781:8858   */\n      0x4e487b7100000000000000000000000000000000000000000000000000000000\n        /* \"#utility.yul\":8778:8779   */\n      0x00\n        /* \"#utility.yul\":8771:8859   */\n      mstore\n        /* \"#utility.yul\":8878:8882   */\n      0x12\n        /* \"#utility.yul\":8875:8876   */\n      0x04\n        /* \"#utility.yul\":8868:8883   */\n      mstore\n        /* \"#utility.yul\":8902:8906   */\n      0x24\n        /* \"#utility.yul\":8899:8900   */\n      0x00\n        /* \"#utility.yul\":8892:8907   */\n      revert\n        /* \"#utility.yul\":8919:9104   */\n    tag_98:\n        /* \"#utility.yul\":8959:8960   */\n      0x00\n        /* \"#utility.yul\":8976:8996   */\n      tag_229\n        /* \"#utility.yul\":8994:8995   */\n      dup3\n        /* \"#utility.yul\":8976:8996   */\n      tag_111\n      jump\t// in\n    tag_229:\n        /* \"#utility.yul\":8971:8996   */\n      swap2\n      pop\n        /* \"#utility.yul\":9010:9030   */\n      tag_230\n        /* \"#utility.yul\":9028:9029   */\n      dup4\n        /* \"#utility.yul\":9010:9030   */\n      tag_111\n      jump\t// in\n    tag_230:\n        /* \"#utility.yul\":9005:9030   */\n      swap3\n      pop\n        /* \"#utility.yul\":9049:9050   */\n      dup3\n        /* \"#utility.yul\":9039:9074   */\n      tag_231\n      jumpi\n        /* \"#utility.yul\":9054:9072   */\n      tag_232\n      tag_137\n      jump\t// in\n    tag_232:\n        /* \"#utility.yul\":9039:9074   */\n    tag_231:\n        /* \"#utility.yul\":9096:9097   */\n      dup3\n        /* \"#utility.yul\":9093:9094   */\n      dup3\n        /* \"#utility.yul\":9089:9098   */\n      div\n        /* \"#utility.yul\":9084:9098   */\n      swap1\n      pop\n        /* \"#utility.yul\":8919:9104   */\n      swap3\n      swap2\n      pop\n      pop\n      jump\t// out\n        /* \"#utility.yul\":9110:9461   */\n    tag_103:\n        /* \"#utility.yul\":9180:9186   */\n      0x00\n        /* \"#utility.yul\":9229:9231   */\n      0x20\n        /* \"#utility.yul\":9217:9226   */\n      dup3\n        /* \"#utility.yul\":9208:9215   */\n      dup5\n        /* \"#utility.yul\":9204:9227   */\n      sub\n        /* \"#utility.yul\":9200:9232   */\n      slt\n        /* \"#utility.yul\":9197:9316   */\n      iszero\n      tag_234\n      jumpi\n        /* \"#utility.yul\":9235:9314   */\n      tag_235\n      tag_114\n      jump\t// in\n    tag_235:\n        /* \"#utility.yul\":9197:9316   */\n    tag_234:\n        /* \"#utility.yul\":9355:9356   */\n      0x00\n        /* \"#utility.yul\":9380:9444   */\n      tag_236\n        /* \"#utility.yul\":9436:9443   */\n      dup5\n        /* \"#utility.yul\":9427:9433   */\n      dup3\n        /* \"#utility.yul\":9416:9425   */\n      dup6\n        /* \"#utility.yul\":9412:9434   */\n      add\n        /* \"#utility.yul\":9380:9444   */\n      tag_136\n      jump\t// in\n    tag_236:\n        /* \"#utility.yul\":9370:9444   */\n      swap2\n      pop\n        /* \"#utility.yul\":9326:9454   */\n      pop\n        /* \"#utility.yul\":9110:9461   */\n      swap3\n      swap2\n      pop\n      pop\n      jump\t// out\n\n    auxdata: 0xa264697066735822122074ca2f4efedcc5fdd38a0e0c62bd1a67b95ba66a8f9f921eb8433e8a271047c564736f6c63430008180033\n}\n",
				"bytecode": {
					"linkReferences": {},
					"object": "60a060405234801561000f575f80fd5b503373ffffffffffffffffffffffffffffffffffffffff1660808173ffffffffffffffffffffffffffffffffffffffff1681525050608051610cdf6100635f395f818161035d01526106ec0152610cdf5ff3fe60806040526004361061007e575f3560e01c8063793b233b1161004d578063793b233b1461013d578063b60d428814610179578063c6129a5a14610183578063dba6335f146101ad5761008d565b80633430a88c1461009757806348e2f81b146100c157806357ea89b6146100fd5780636d90164e146101135761008d565b3661008d5761008b6101d7565b005b6100956101d7565b005b3480156100a2575f80fd5b506100ab610315565b6040516100b891906107c8565b60405180910390f35b3480156100cc575f80fd5b506100e760048036038101906100e2919061080f565b610321565b6040516100f49190610879565b60405180910390f35b348015610108575f80fd5b5061011161035b565b005b34801561011e575f80fd5b50610127610586565b60405161013491906107c8565b60405180910390f35b348015610148575f80fd5b50610163600480360381019061015e919061080f565b61062b565b60405161017091906107c8565b60405180910390f35b6101816101d7565b005b34801561018e575f80fd5b50610197610663565b6040516101a491906107c8565b60405180910390f35b3480156101b8575f80fd5b506101c16106ea565b6040516101ce9190610879565b60405180910390f35b674563918244f400006101e93461062b565b101561022a576040517f08c379a0000000000000000000000000000000000000000000000000000000008152600401610221906108ec565b60405180910390fd5b5f33908060018154018082558091505060019003905f5260205f20015f9091909190916101000a81548173ffffffffffffffffffffffffffffffffffffffff021916908373ffffffffffffffffffffffffffffffffffffffff1602179055503460015f3373ffffffffffffffffffffffffffffffffffffffff1673ffffffffffffffffffffffffffffffffffffffff1681526020019081526020015f20546102d29190610937565b60015f3373ffffffffffffffffffffffffffffffffffffffff1673ffffffffffffffffffffffffffffffffffffffff1681526020019081526020015f2081905550565b674563918244f4000081565b5f818154811061032f575f80fd5b905f5260205f20015f915054906101000a900473ffffffffffffffffffffffffffffffffffffffff1681565b7f000000000000000000000000000000000000000000000000000000000000000073ffffffffffffffffffffffffffffffffffffffff163373ffffffffffffffffffffffffffffffffffffffff16146103e0576040517f17b296f200000000000000000000000000000000000000000000000000000000815260040160405180910390fd5b5f5b5f8054905081101561047c575f8082815481106104025761040161096a565b5b905f5260205f20015f9054906101000a900473ffffffffffffffffffffffffffffffffffffffff1690505f60015f8373ffffffffffffffffffffffffffffffffffffffff1673ffffffffffffffffffffffffffffffffffffffff1681526020019081526020015f20819055505080806001019150506103e2565b505f67ffffffffffffffff81111561049757610496610997565b5b6040519080825280602002602001820160405280156104c55781602001602082028036833780820191505090505b505f90805190602001906104da92919061070e565b505f3373ffffffffffffffffffffffffffffffffffffffff1647604051610500906109f1565b5f6040518083038185875af1925050503d805f811461053a576040519150601f19603f3d011682016040523d82523d5f602084013e61053f565b606091505b5050905080610583576040517f08c379a000000000000000000000000000000000000000000000000000000000815260040161057a90610a4f565b60405180910390fd5b50565b5f8073feeff7c3fb57d18c5c6cdd71e45d2d0b4f9377bf90505f8173ffffffffffffffffffffffffffffffffffffffff1663feaf968c6040518163ffffffff1660e01b815260040160a060405180830381865afa1580156105e9573d5f803e3d5ffd5b505050506040513d601f19601f8201168201806040525081019061060d9190610af3565b5050509150506402540be400816106249190610b6a565b9250505090565b5f80610635610586565b90505f670de0b6b3a7640000848361064d9190610be0565b6106579190610c4e565b90508092505050919050565b5f73feeff7c3fb57d18c5c6cdd71e45d2d0b4f9377bf73ffffffffffffffffffffffffffffffffffffffff166354fd4d506040518163ffffffff1660e01b8152600401602060405180830381865afa1580156106c1573d5f803e3d5ffd5b505050506040513d601f19601f820116820180604052508101906106e59190610c7e565b905090565b7f000000000000000000000000000000000000000000000000000000000000000081565b828054828255905f5260205f20908101928215610784579160200282015b82811115610783578251825f6101000a81548173ffffffffffffffffffffffffffffffffffffffff021916908373ffffffffffffffffffffffffffffffffffffffff1602179055509160200191906001019061072c565b5b5090506107919190610795565b5090565b5b808211156107ac575f815f905550600101610796565b5090565b5f819050919050565b6107c2816107b0565b82525050565b5f6020820190506107db5f8301846107b9565b92915050565b5f80fd5b6107ee816107b0565b81146107f8575f80fd5b50565b5f81359050610809816107e5565b92915050565b5f60208284031215610824576108236107e1565b5b5f610831848285016107fb565b91505092915050565b5f73ffffffffffffffffffffffffffffffffffffffff82169050919050565b5f6108638261083a565b9050919050565b61087381610859565b82525050565b5f60208201905061088c5f83018461086a565b92915050565b5f82825260208201905092915050565b7f6469646e27742073656e6420656e6f75676800000000000000000000000000005f82015250565b5f6108d6601283610892565b91506108e1826108a2565b602082019050919050565b5f6020820190508181035f830152610903816108ca565b9050919050565b7f4e487b71000000000000000000000000000000000000000000000000000000005f52601160045260245ffd5b5f610941826107b0565b915061094c836107b0565b92508282019050808211156109645761096361090a565b5b92915050565b7f4e487b71000000000000000000000000000000000000000000000000000000005f52603260045260245ffd5b7f4e487b71000000000000000000000000000000000000000000000000000000005f52604160045260245ffd5b5f81905092915050565b50565b5f6109dc5f836109c4565b91506109e7826109ce565b5f82019050919050565b5f6109fb826109d1565b9150819050919050565b7f63616c6c206661696c65640000000000000000000000000000000000000000005f82015250565b5f610a39600b83610892565b9150610a4482610a05565b602082019050919050565b5f6020820190508181035f830152610a6681610a2d565b9050919050565b5f69ffffffffffffffffffff82169050919050565b610a8b81610a6d565b8114610a95575f80fd5b50565b5f81519050610aa681610a82565b92915050565b5f819050919050565b610abe81610aac565b8114610ac8575f80fd5b50565b5f81519050610ad981610ab5565b92915050565b5f81519050610aed816107e5565b92915050565b5f805f805f60a08688031215610b0c57610b0b6107e1565b5b5f610b1988828901610a98565b9550506020610b2a88828901610acb565b9450506040610b3b88828901610adf565b9350506060610b4c88828901610adf565b9250506080610b5d88828901610a98565b9150509295509295909350565b5f610b7482610aac565b9150610b7f83610aac565b9250828202610b8d81610aac565b91507f800000000000000000000000000000000000000000000000000000000000000084145f84121615610bc457610bc361090a565b5b8282058414831517610bd957610bd861090a565b5b5092915050565b5f610bea826107b0565b9150610bf5836107b0565b9250828202610c03816107b0565b91508282048414831517610c1a57610c1961090a565b5b5092915050565b7f4e487b71000000000000000000000000000000000000000000000000000000005f52601260045260245ffd5b5f610c58826107b0565b9150610c63836107b0565b925082610c7357610c72610c21565b5b828204905092915050565b5f60208284031215610c9357610c926107e1565b5b5f610ca084828501610adf565b9150509291505056fea264697066735822122074ca2f4efedcc5fdd38a0e0c62bd1a67b95ba66a8f9f921eb8433e8a271047c564736f6c63430008180033",
					"opcodes": "PUSH1 0xA0 PUSH1 0x40 MSTORE CALLVALUE DUP1 ISZERO PUSH2 0xF JUMPI PUSH0 DUP1 REVERT JUMPDEST POP CALLER PUSH20 0xFFFFFFFFFFFFFFFFFFFFFFFFFFFFFFFFFFFFFFFF AND PUSH1 0x80 DUP2 PUSH20 0xFFFFFFFFFFFFFFFFFFFFFFFFFFFFFFFFFFFFFFFF AND DUP2 MSTORE POP POP PUSH1 0x80 MLOAD PUSH2 0xCDF PUSH2 0x63 PUSH0 CODECOPY PUSH0 DUP2 DUP2 PUSH2 0x35D ADD MSTORE PUSH2 0x6EC ADD MSTORE PUSH2 0xCDF PUSH0 RETURN INVALID PUSH1 0x80 PUSH1 0x40 MSTORE PUSH1 0x4 CALLDATASIZE LT PUSH2 0x7E JUMPI PUSH0 CALLDATALOAD PUSH1 0xE0 SHR DUP1 PUSH4 0x793B233B GT PUSH2 0x4D JUMPI DUP1 PUSH4 0x793B233B EQ PUSH2 0x13D JUMPI DUP1 PUSH4 0xB60D4288 EQ PUSH2 0x179 JUMPI DUP1 PUSH4 0xC6129A5A EQ PUSH2 0x183 JUMPI DUP1 PUSH4 0xDBA6335F EQ PUSH2 0x1AD JUMPI PUSH2 0x8D JUMP JUMPDEST DUP1 PUSH4 0x3430A88C EQ PUSH2 0x97 JUMPI DUP1 PUSH4 0x48E2F81B EQ PUSH2 0xC1 JUMPI DUP1 PUSH4 0x57EA89B6 EQ PUSH2 0xFD JUMPI DUP1 PUSH4 0x6D90164E EQ PUSH2 0x113 JUMPI PUSH2 0x8D JUMP JUMPDEST CALLDATASIZE PUSH2 0x8D JUMPI PUSH2 0x8B PUSH2 0x1D7 JUMP JUMPDEST STOP JUMPDEST PUSH2 0x95 PUSH2 0x1D7 JUMP JUMPDEST STOP JUMPDEST CALLVALUE DUP1 ISZERO PUSH2 0xA2 JUMPI PUSH0 DUP1 REVERT JUMPDEST POP PUSH2 0xAB PUSH2 0x315 JUMP JUMPDEST PUSH1 0x40 MLOAD PUSH2 0xB8 SWAP2 SWAP1 PUSH2 0x7C8 JUMP JUMPDEST PUSH1 0x40 MLOAD DUP1 SWAP2 SUB SWAP1 RETURN JUMPDEST CALLVALUE DUP1 ISZERO PUSH2 0xCC JUMPI PUSH0 DUP1 REVERT JUMPDEST POP PUSH2 0xE7 PUSH1 0x4 DUP1 CALLDATASIZE SUB DUP2 ADD SWAP1 PUSH2 0xE2 SWAP2 SWAP1 PUSH2 0x80F JUMP JUMPDEST PUSH2 0x321 JUMP JUMPDEST PUSH1 0x40 MLOAD PUSH2 0xF4 SWAP2 SWAP1 PUSH2 0x879 JUMP JUMPDEST PUSH1 0x40 MLOAD DUP1 SWAP2 SUB SWAP1 RETURN JUMPDEST CALLVALUE DUP1 ISZERO PUSH2 0x108 JUMPI PUSH0 DUP1 REVERT JUMPDEST POP PUSH2 0x111 PUSH2 0x35B JUMP JUMPDEST STOP JUMPDEST CALLVALUE DUP1 ISZERO PUSH2 0x11E JUMPI PUSH0 DUP1 REVERT JUMPDEST POP PUSH2 0x127 PUSH2 0x586 JUMP JUMPDEST PUSH1 0x40 MLOAD PUSH2 0x134 SWAP2 SWAP1 PUSH2 0x7C8 JUMP JUMPDEST PUSH1 0x40 MLOAD DUP1 SWAP2 SUB SWAP1 RETURN JUMPDEST CALLVALUE DUP1 ISZERO PUSH2 0x148 JUMPI PUSH0 DUP1 REVERT JUMPDEST POP PUSH2 0x163 PUSH1 0x4 DUP1 CALLDATASIZE SUB DUP2 ADD SWAP1 PUSH2 0x15E SWAP2 SWAP1 PUSH2 0x80F JUMP JUMPDEST PUSH2 0x62B JUMP JUMPDEST PUSH1 0x40 MLOAD PUSH2 0x170 SWAP2 SWAP1 PUSH2 0x7C8 JUMP JUMPDEST PUSH1 0x40 MLOAD DUP1 SWAP2 SUB SWAP1 RETURN JUMPDEST PUSH2 0x181 PUSH2 0x1D7 JUMP JUMPDEST STOP JUMPDEST CALLVALUE DUP1 ISZERO PUSH2 0x18E JUMPI PUSH0 DUP1 REVERT JUMPDEST POP PUSH2 0x197 PUSH2 0x663 JUMP JUMPDEST PUSH1 0x40 MLOAD PUSH2 0x1A4 SWAP2 SWAP1 PUSH2 0x7C8 JUMP JUMPDEST PUSH1 0x40 MLOAD DUP1 SWAP2 SUB SWAP1 RETURN JUMPDEST CALLVALUE DUP1 ISZERO PUSH2 0x1B8 JUMPI PUSH0 DUP1 REVERT JUMPDEST POP PUSH2 0x1C1 PUSH2 0x6EA JUMP JUMPDEST PUSH1 0x40 MLOAD PUSH2 0x1CE SWAP2 SWAP1 PUSH2 0x879 JUMP JUMPDEST PUSH1 0x40 MLOAD DUP1 SWAP2 SUB SWAP1 RETURN JUMPDEST PUSH8 0x4563918244F40000 PUSH2 0x1E9 CALLVALUE PUSH2 0x62B JUMP JUMPDEST LT ISZERO PUSH2 0x22A JUMPI PUSH1 0x40 MLOAD PUSH32 0x8C379A000000000000000000000000000000000000000000000000000000000 DUP2 MSTORE PUSH1 0x4 ADD PUSH2 0x221 SWAP1 PUSH2 0x8EC JUMP JUMPDEST PUSH1 0x40 MLOAD DUP1 SWAP2 SUB SWAP1 REVERT JUMPDEST PUSH0 CALLER SWAP1 DUP1 PUSH1 0x1 DUP2 SLOAD ADD DUP1 DUP3 SSTORE DUP1 SWAP2 POP POP PUSH1 0x1 SWAP1 SUB SWAP1 PUSH0 MSTORE PUSH1 0x20 PUSH0 KECCAK256 ADD PUSH0 SWAP1 SWAP2 SWAP1 SWAP2 SWAP1 SWAP2 PUSH2 0x100 EXP DUP2 SLOAD DUP2 PUSH20 0xFFFFFFFFFFFFFFFFFFFFFFFFFFFFFFFFFFFFFFFF MUL NOT AND SWAP1 DUP4 PUSH20 0xFFFFFFFFFFFFFFFFFFFFFFFFFFFFFFFFFFFFFFFF AND MUL OR SWAP1 SSTORE POP CALLVALUE PUSH1 0x1 PUSH0 CALLER PUSH20 0xFFFFFFFFFFFFFFFFFFFFFFFFFFFFFFFFFFFFFFFF AND PUSH20 0xFFFFFFFFFFFFFFFFFFFFFFFFFFFFFFFFFFFFFFFF AND DUP2 MSTORE PUSH1 0x20 ADD SWAP1 DUP2 MSTORE PUSH1 0x20 ADD PUSH0 KECCAK256 SLOAD PUSH2 0x2D2 SWAP2 SWAP1 PUSH2 0x937 JUMP JUMPDEST PUSH1 0x1 PUSH0 CALLER PUSH20 0xFFFFFFFFFFFFFFFFFFFFFFFFFFFFFFFFFFFFFFFF AND PUSH20 0xFFFFFFFFFFFFFFFFFFFFFFFFFFFFFFFFFFFFFFFF AND DUP2 MSTORE PUSH1 0x20 ADD SWAP1 DUP2 MSTORE PUSH1 0x20 ADD PUSH0 KECCAK256 DUP2 SWAP1 SSTORE POP JUMP JUMPDEST PUSH8 0x4563918244F40000 DUP2 JUMP JUMPDEST PUSH0 DUP2 DUP2 SLOAD DUP2 LT PUSH2 0x32F JUMPI PUSH0 DUP1 REVERT JUMPDEST SWAP1 PUSH0 MSTORE PUSH1 0x20 PUSH0 KECCAK256 ADD PUSH0 SWAP2 POP SLOAD SWAP1 PUSH2 0x100 EXP SWAP1 DIV PUSH20 0xFFFFFFFFFFFFFFFFFFFFFFFFFFFFFFFFFFFFFFFF AND DUP2 JUMP JUMPDEST PUSH32 0x0 PUSH20 0xFFFFFFFFFFFFFFFFFFFFFFFFFFFFFFFFFFFFFFFF AND CALLER PUSH20 0xFFFFFFFFFFFFFFFFFFFFFFFFFFFFFFFFFFFFFFFF AND EQ PUSH2 0x3E0 JUMPI PUSH1 0x40 MLOAD PUSH32 0x17B296F200000000000000000000000000000000000000000000000000000000 DUP2 MSTORE PUSH1 0x4 ADD PUSH1 0x40 MLOAD DUP1 SWAP2 SUB SWAP1 REVERT JUMPDEST PUSH0 JUMPDEST PUSH0 DUP1 SLOAD SWAP1 POP DUP2 LT ISZERO PUSH2 0x47C JUMPI PUSH0 DUP1 DUP3 DUP2 SLOAD DUP2 LT PUSH2 0x402 JUMPI PUSH2 0x401 PUSH2 0x96A JUMP JUMPDEST JUMPDEST SWAP1 PUSH0 MSTORE PUSH1 0x20 PUSH0 KECCAK256 ADD PUSH0 SWAP1 SLOAD SWAP1 PUSH2 0x100 EXP SWAP1 DIV PUSH20 0xFFFFFFFFFFFFFFFFFFFFFFFFFFFFFFFFFFFFFFFF AND SWAP1 POP PUSH0 PUSH1 0x1 PUSH0 DUP4 PUSH20 0xFFFFFFFFFFFFFFFFFFFFFFFFFFFFFFFFFFFFFFFF AND PUSH20 0xFFFFFFFFFFFFFFFFFFFFFFFFFFFFFFFFFFFFFFFF AND DUP2 MSTORE PUSH1 0x20 ADD SWAP1 DUP2 MSTORE PUSH1 0x20 ADD PUSH0 KECCAK256 DUP2 SWAP1 SSTORE POP POP DUP1 DUP1 PUSH1 0x1 ADD SWAP2 POP POP PUSH2 0x3E2 JUMP JUMPDEST POP PUSH0 PUSH8 0xFFFFFFFFFFFFFFFF DUP2 GT ISZERO PUSH2 0x497 JUMPI PUSH2 0x496 PUSH2 0x997 JUMP JUMPDEST JUMPDEST PUSH1 0x40 MLOAD SWAP1 DUP1 DUP3 MSTORE DUP1 PUSH1 0x20 MUL PUSH1 0x20 ADD DUP3 ADD PUSH1 0x40 MSTORE DUP1 ISZERO PUSH2 0x4C5 JUMPI DUP2 PUSH1 0x20 ADD PUSH1 0x20 DUP3 MUL DUP1 CALLDATASIZE DUP4 CALLDATACOPY DUP1 DUP3 ADD SWAP2 POP POP SWAP1 POP JUMPDEST POP PUSH0 SWAP1 DUP1 MLOAD SWAP1 PUSH1 0x20 ADD SWAP1 PUSH2 0x4DA SWAP3 SWAP2 SWAP1 PUSH2 0x70E JUMP JUMPDEST POP PUSH0 CALLER PUSH20 0xFFFFFFFFFFFFFFFFFFFFFFFFFFFFFFFFFFFFFFFF AND SELFBALANCE PUSH1 0x40 MLOAD PUSH2 0x500 SWAP1 PUSH2 0x9F1 JUMP JUMPDEST PUSH0 PUSH1 0x40 MLOAD DUP1 DUP4 SUB DUP2 DUP6 DUP8 GAS CALL SWAP3 POP POP POP RETURNDATASIZE DUP1 PUSH0 DUP2 EQ PUSH2 0x53A JUMPI PUSH1 0x40 MLOAD SWAP2 POP PUSH1 0x1F NOT PUSH1 0x3F RETURNDATASIZE ADD AND DUP3 ADD PUSH1 0x40 MSTORE RETURNDATASIZE DUP3 MSTORE RETURNDATASIZE PUSH0 PUSH1 0x20 DUP5 ADD RETURNDATACOPY PUSH2 0x53F JUMP JUMPDEST PUSH1 0x60 SWAP2 POP JUMPDEST POP POP SWAP1 POP DUP1 PUSH2 0x583 JUMPI PUSH1 0x40 MLOAD PUSH32 0x8C379A000000000000000000000000000000000000000000000000000000000 DUP2 MSTORE PUSH1 0x4 ADD PUSH2 0x57A SWAP1 PUSH2 0xA4F JUMP JUMPDEST PUSH1 0x40 MLOAD DUP1 SWAP2 SUB SWAP1 REVERT JUMPDEST POP JUMP JUMPDEST PUSH0 DUP1 PUSH20 0xFEEFF7C3FB57D18C5C6CDD71E45D2D0B4F9377BF SWAP1 POP PUSH0 DUP2 PUSH20 0xFFFFFFFFFFFFFFFFFFFFFFFFFFFFFFFFFFFFFFFF AND PUSH4 0xFEAF968C PUSH1 0x40 MLOAD DUP2 PUSH4 0xFFFFFFFF AND PUSH1 0xE0 SHL DUP2 MSTORE PUSH1 0x4 ADD PUSH1 0xA0 PUSH1 0x40 MLOAD DUP1 DUP4 SUB DUP2 DUP7 GAS STATICCALL ISZERO DUP1 ISZERO PUSH2 0x5E9 JUMPI RETURNDATASIZE PUSH0 DUP1 RETURNDATACOPY RETURNDATASIZE PUSH0 REVERT JUMPDEST POP POP POP POP PUSH1 0x40 MLOAD RETURNDATASIZE PUSH1 0x1F NOT PUSH1 0x1F DUP3 ADD AND DUP3 ADD DUP1 PUSH1 0x40 MSTORE POP DUP2 ADD SWAP1 PUSH2 0x60D SWAP2 SWAP1 PUSH2 0xAF3 JUMP JUMPDEST POP POP POP SWAP2 POP POP PUSH5 0x2540BE400 DUP2 PUSH2 0x624 SWAP2 SWAP1 PUSH2 0xB6A JUMP JUMPDEST SWAP3 POP POP POP SWAP1 JUMP JUMPDEST PUSH0 DUP1 PUSH2 0x635 PUSH2 0x586 JUMP JUMPDEST SWAP1 POP PUSH0 PUSH8 0xDE0B6B3A7640000 DUP5 DUP4 PUSH2 0x64D SWAP2 SWAP1 PUSH2 0xBE0 JUMP JUMPDEST PUSH2 0x657 SWAP2 SWAP1 PUSH2 0xC4E JUMP JUMPDEST SWAP1 POP DUP1 SWAP3 POP POP POP SWAP2 SWAP1 POP JUMP JUMPDEST PUSH0 PUSH20 0xFEEFF7C3FB57D18C5C6CDD71E45D2D0B4F9377BF PUSH20 0xFFFFFFFFFFFFFFFFFFFFFFFFFFFFFFFFFFFFFFFF AND PUSH4 0x54FD4D50 PUSH1 0x40 MLOAD DUP2 PUSH4 0xFFFFFFFF AND PUSH1 0xE0 SHL DUP2 MSTORE PUSH1 0x4 ADD PUSH1 0x20 PUSH1 0x40 MLOAD DUP1 DUP4 SUB DUP2 DUP7 GAS STATICCALL ISZERO DUP1 ISZERO PUSH2 0x6C1 JUMPI RETURNDATASIZE PUSH0 DUP1 RETURNDATACOPY RETURNDATASIZE PUSH0 REVERT JUMPDEST POP POP POP POP PUSH1 0x40 MLOAD RETURNDATASIZE PUSH1 0x1F NOT PUSH1 0x1F DUP3 ADD AND DUP3 ADD DUP1 PUSH1 0x40 MSTORE POP DUP2 ADD SWAP1 PUSH2 0x6E5 SWAP2 SWAP1 PUSH2 0xC7E JUMP JUMPDEST SWAP1 POP SWAP1 JUMP JUMPDEST PUSH32 0x0 DUP2 JUMP JUMPDEST DUP3 DUP1 SLOAD DUP3 DUP3 SSTORE SWAP1 PUSH0 MSTORE PUSH1 0x20 PUSH0 KECCAK256 SWAP1 DUP2 ADD SWAP3 DUP3 ISZERO PUSH2 0x784 JUMPI SWAP2 PUSH1 0x20 MUL DUP3 ADD JUMPDEST DUP3 DUP2 GT ISZERO PUSH2 0x783 JUMPI DUP3 MLOAD DUP3 PUSH0 PUSH2 0x100 EXP DUP2 SLOAD DUP2 PUSH20 0xFFFFFFFFFFFFFFFFFFFFFFFFFFFFFFFFFFFFFFFF MUL NOT AND SWAP1 DUP4 PUSH20 0xFFFFFFFFFFFFFFFFFFFFFFFFFFFFFFFFFFFFFFFF AND MUL OR SWAP1 SSTORE POP SWAP2 PUSH1 0x20 ADD SWAP2 SWAP1 PUSH1 0x1 ADD SWAP1 PUSH2 0x72C JUMP JUMPDEST JUMPDEST POP SWAP1 POP PUSH2 0x791 SWAP2 SWAP1 PUSH2 0x795 JUMP JUMPDEST POP SWAP1 JUMP JUMPDEST JUMPDEST DUP1 DUP3 GT ISZERO PUSH2 0x7AC JUMPI PUSH0 DUP2 PUSH0 SWAP1 SSTORE POP PUSH1 0x1 ADD PUSH2 0x796 JUMP JUMPDEST POP SWAP1 JUMP JUMPDEST PUSH0 DUP2 SWAP1 POP SWAP2 SWAP1 POP JUMP JUMPDEST PUSH2 0x7C2 DUP2 PUSH2 0x7B0 JUMP JUMPDEST DUP3 MSTORE POP POP JUMP JUMPDEST PUSH0 PUSH1 0x20 DUP3 ADD SWAP1 POP PUSH2 0x7DB PUSH0 DUP4 ADD DUP5 PUSH2 0x7B9 JUMP JUMPDEST SWAP3 SWAP2 POP POP JUMP JUMPDEST PUSH0 DUP1 REVERT JUMPDEST PUSH2 0x7EE DUP2 PUSH2 0x7B0 JUMP JUMPDEST DUP2 EQ PUSH2 0x7F8 JUMPI PUSH0 DUP1 REVERT JUMPDEST POP JUMP JUMPDEST PUSH0 DUP2 CALLDATALOAD SWAP1 POP PUSH2 0x809 DUP2 PUSH2 0x7E5 JUMP JUMPDEST SWAP3 SWAP2 POP POP JUMP JUMPDEST PUSH0 PUSH1 0x20 DUP3 DUP5 SUB SLT ISZERO PUSH2 0x824 JUMPI PUSH2 0x823 PUSH2 0x7E1 JUMP JUMPDEST JUMPDEST PUSH0 PUSH2 0x831 DUP5 DUP3 DUP6 ADD PUSH2 0x7FB JUMP JUMPDEST SWAP2 POP POP SWAP3 SWAP2 POP POP JUMP JUMPDEST PUSH0 PUSH20 0xFFFFFFFFFFFFFFFFFFFFFFFFFFFFFFFFFFFFFFFF DUP3 AND SWAP1 POP SWAP2 SWAP1 POP JUMP JUMPDEST PUSH0 PUSH2 0x863 DUP3 PUSH2 0x83A JUMP JUMPDEST SWAP1 POP SWAP2 SWAP1 POP JUMP JUMPDEST PUSH2 0x873 DUP2 PUSH2 0x859 JUMP JUMPDEST DUP3 MSTORE POP POP JUMP JUMPDEST PUSH0 PUSH1 0x20 DUP3 ADD SWAP1 POP PUSH2 0x88C PUSH0 DUP4 ADD DUP5 PUSH2 0x86A JUMP JUMPDEST SWAP3 SWAP2 POP POP JUMP JUMPDEST PUSH0 DUP3 DUP3 MSTORE PUSH1 0x20 DUP3 ADD SWAP1 POP SWAP3 SWAP2 POP POP JUMP JUMPDEST PUSH32 0x6469646E27742073656E6420656E6F7567680000000000000000000000000000 PUSH0 DUP3 ADD MSTORE POP JUMP JUMPDEST PUSH0 PUSH2 0x8D6 PUSH1 0x12 DUP4 PUSH2 0x892 JUMP JUMPDEST SWAP2 POP PUSH2 0x8E1 DUP3 PUSH2 0x8A2 JUMP JUMPDEST PUSH1 0x20 DUP3 ADD SWAP1 POP SWAP2 SWAP1 POP JUMP JUMPDEST PUSH0 PUSH1 0x20 DUP3 ADD SWAP1 POP DUP2 DUP2 SUB PUSH0 DUP4 ADD MSTORE PUSH2 0x903 DUP2 PUSH2 0x8CA JUMP JUMPDEST SWAP1 POP SWAP2 SWAP1 POP JUMP JUMPDEST PUSH32 0x4E487B7100000000000000000000000000000000000000000000000000000000 PUSH0 MSTORE PUSH1 0x11 PUSH1 0x4 MSTORE PUSH1 0x24 PUSH0 REVERT JUMPDEST PUSH0 PUSH2 0x941 DUP3 PUSH2 0x7B0 JUMP JUMPDEST SWAP2 POP PUSH2 0x94C DUP4 PUSH2 0x7B0 JUMP JUMPDEST SWAP3 POP DUP3 DUP3 ADD SWAP1 POP DUP1 DUP3 GT ISZERO PUSH2 0x964 JUMPI PUSH2 0x963 PUSH2 0x90A JUMP JUMPDEST JUMPDEST SWAP3 SWAP2 POP POP JUMP JUMPDEST PUSH32 0x4E487B7100000000000000000000000000000000000000000000000000000000 PUSH0 MSTORE PUSH1 0x32 PUSH1 0x4 MSTORE PUSH1 0x24 PUSH0 REVERT JUMPDEST PUSH32 0x4E487B7100000000000000000000000000000000000000000000000000000000 PUSH0 MSTORE PUSH1 0x41 PUSH1 0x4 MSTORE PUSH1 0x24 PUSH0 REVERT JUMPDEST PUSH0 DUP2 SWAP1 POP SWAP3 SWAP2 POP POP JUMP JUMPDEST POP JUMP JUMPDEST PUSH0 PUSH2 0x9DC PUSH0 DUP4 PUSH2 0x9C4 JUMP JUMPDEST SWAP2 POP PUSH2 0x9E7 DUP3 PUSH2 0x9CE JUMP JUMPDEST PUSH0 DUP3 ADD SWAP1 POP SWAP2 SWAP1 POP JUMP JUMPDEST PUSH0 PUSH2 0x9FB DUP3 PUSH2 0x9D1 JUMP JUMPDEST SWAP2 POP DUP2 SWAP1 POP SWAP2 SWAP1 POP JUMP JUMPDEST PUSH32 0x63616C6C206661696C6564000000000000000000000000000000000000000000 PUSH0 DUP3 ADD MSTORE POP JUMP JUMPDEST PUSH0 PUSH2 0xA39 PUSH1 0xB DUP4 PUSH2 0x892 JUMP JUMPDEST SWAP2 POP PUSH2 0xA44 DUP3 PUSH2 0xA05 JUMP JUMPDEST PUSH1 0x20 DUP3 ADD SWAP1 POP SWAP2 SWAP1 POP JUMP JUMPDEST PUSH0 PUSH1 0x20 DUP3 ADD SWAP1 POP DUP2 DUP2 SUB PUSH0 DUP4 ADD MSTORE PUSH2 0xA66 DUP2 PUSH2 0xA2D JUMP JUMPDEST SWAP1 POP SWAP2 SWAP1 POP JUMP JUMPDEST PUSH0 PUSH10 0xFFFFFFFFFFFFFFFFFFFF DUP3 AND SWAP1 POP SWAP2 SWAP1 POP JUMP JUMPDEST PUSH2 0xA8B DUP2 PUSH2 0xA6D JUMP JUMPDEST DUP2 EQ PUSH2 0xA95 JUMPI PUSH0 DUP1 REVERT JUMPDEST POP JUMP JUMPDEST PUSH0 DUP2 MLOAD SWAP1 POP PUSH2 0xAA6 DUP2 PUSH2 0xA82 JUMP JUMPDEST SWAP3 SWAP2 POP POP JUMP JUMPDEST PUSH0 DUP2 SWAP1 POP SWAP2 SWAP1 POP JUMP JUMPDEST PUSH2 0xABE DUP2 PUSH2 0xAAC JUMP JUMPDEST DUP2 EQ PUSH2 0xAC8 JUMPI PUSH0 DUP1 REVERT JUMPDEST POP JUMP JUMPDEST PUSH0 DUP2 MLOAD SWAP1 POP PUSH2 0xAD9 DUP2 PUSH2 0xAB5 JUMP JUMPDEST SWAP3 SWAP2 POP POP JUMP JUMPDEST PUSH0 DUP2 MLOAD SWAP1 POP PUSH2 0xAED DUP2 PUSH2 0x7E5 JUMP JUMPDEST SWAP3 SWAP2 POP POP JUMP JUMPDEST PUSH0 DUP1 PUSH0 DUP1 PUSH0 PUSH1 0xA0 DUP7 DUP9 SUB SLT ISZERO PUSH2 0xB0C JUMPI PUSH2 0xB0B PUSH2 0x7E1 JUMP JUMPDEST JUMPDEST PUSH0 PUSH2 0xB19 DUP9 DUP3 DUP10 ADD PUSH2 0xA98 JUMP JUMPDEST SWAP6 POP POP PUSH1 0x20 PUSH2 0xB2A DUP9 DUP3 DUP10 ADD PUSH2 0xACB JUMP JUMPDEST SWAP5 POP POP PUSH1 0x40 PUSH2 0xB3B DUP9 DUP3 DUP10 ADD PUSH2 0xADF JUMP JUMPDEST SWAP4 POP POP PUSH1 0x60 PUSH2 0xB4C DUP9 DUP3 DUP10 ADD PUSH2 0xADF JUMP JUMPDEST SWAP3 POP POP PUSH1 0x80 PUSH2 0xB5D DUP9 DUP3 DUP10 ADD PUSH2 0xA98 JUMP JUMPDEST SWAP2 POP POP SWAP3 SWAP6 POP SWAP3 SWAP6 SWAP1 SWAP4 POP JUMP JUMPDEST PUSH0 PUSH2 0xB74 DUP3 PUSH2 0xAAC JUMP JUMPDEST SWAP2 POP PUSH2 0xB7F DUP4 PUSH2 0xAAC JUMP JUMPDEST SWAP3 POP DUP3 DUP3 MUL PUSH2 0xB8D DUP2 PUSH2 0xAAC JUMP JUMPDEST SWAP2 POP PUSH32 0x8000000000000000000000000000000000000000000000000000000000000000 DUP5 EQ PUSH0 DUP5 SLT AND ISZERO PUSH2 0xBC4 JUMPI PUSH2 0xBC3 PUSH2 0x90A JUMP JUMPDEST JUMPDEST DUP3 DUP3 SDIV DUP5 EQ DUP4 ISZERO OR PUSH2 0xBD9 JUMPI PUSH2 0xBD8 PUSH2 0x90A JUMP JUMPDEST JUMPDEST POP SWAP3 SWAP2 POP POP JUMP JUMPDEST PUSH0 PUSH2 0xBEA DUP3 PUSH2 0x7B0 JUMP JUMPDEST SWAP2 POP PUSH2 0xBF5 DUP4 PUSH2 0x7B0 JUMP JUMPDEST SWAP3 POP DUP3 DUP3 MUL PUSH2 0xC03 DUP2 PUSH2 0x7B0 JUMP JUMPDEST SWAP2 POP DUP3 DUP3 DIV DUP5 EQ DUP4 ISZERO OR PUSH2 0xC1A JUMPI PUSH2 0xC19 PUSH2 0x90A JUMP JUMPDEST JUMPDEST POP SWAP3 SWAP2 POP POP JUMP JUMPDEST PUSH32 0x4E487B7100000000000000000000000000000000000000000000000000000000 PUSH0 MSTORE PUSH1 0x12 PUSH1 0x4 MSTORE PUSH1 0x24 PUSH0 REVERT JUMPDEST PUSH0 PUSH2 0xC58 DUP3 PUSH2 0x7B0 JUMP JUMPDEST SWAP2 POP PUSH2 0xC63 DUP4 PUSH2 0x7B0 JUMP JUMPDEST SWAP3 POP DUP3 PUSH2 0xC73 JUMPI PUSH2 0xC72 PUSH2 0xC21 JUMP JUMPDEST JUMPDEST DUP3 DUP3 DIV SWAP1 POP SWAP3 SWAP2 POP POP JUMP JUMPDEST PUSH0 PUSH1 0x20 DUP3 DUP5 SUB SLT ISZERO PUSH2 0xC93 JUMPI PUSH2 0xC92 PUSH2 0x7E1 JUMP JUMPDEST JUMPDEST PUSH0 PUSH2 0xCA0 DUP5 DUP3 DUP6 ADD PUSH2 0xADF JUMP JUMPDEST SWAP2 POP POP SWAP3 SWAP2 POP POP JUMP INVALID LOG2 PUSH5 0x6970667358 0x22 SLT KECCAK256 PUSH21 0xCA2F4EFEDCC5FDD38A0E0C62BD1A67B95BA66A8F9F SWAP3 0x1E 0xB8 NUMBER RETURNDATACOPY DUP11 0x27 LT SELFBALANCE 0xC5 PUSH5 0x736F6C6343 STOP ADDMOD XOR STOP CALLER "
				},
				"gasEstimates": {
					"creation": {
						"codeDepositCost": "659000",
						"executionCost": "infinite",
						"totalCost": "infinite"
					},
					"external": {
						"": "infinite",
						"Funders(uint256)": "4966",
						"GetConversionRate(uint256)": "infinite",
						"GetPrice()": "infinite",
						"GetVersion()": "infinite",
						"Withdraw()": "infinite",
						"fund()": "infinite",
						"i_owner()": "infinite",
						"minimumUSD()": "326"
					}
				},
				"methodIdentifiers": {
					"Funders(uint256)": "48e2f81b",
					"GetConversionRate(uint256)": "793b233b",
					"GetPrice()": "6d90164e",
					"GetVersion()": "c6129a5a",
					"Withdraw()": "57ea89b6",
					"fund()": "b60d4288",
					"i_owner()": "dba6335f",
					"minimumUSD()": "3430a88c"
				}
			},
			"storageLayout": {
				"storage": [
					{
						"astId": 132,
						"contract": "contracts/fundme.sol:Fundme",
						"label": "Funders",
						"offset": 0,
						"slot": "0",
						"type": "t_array(t_address)dyn_storage"
					},
					{
						"astId": 136,
						"contract": "contracts/fundme.sol:Fundme",
						"label": "AmountSentByFunder",
						"offset": 0,
						"slot": "1",
						"type": "t_mapping(t_address,t_uint256)"
					}
				],
				"types": {
					"t_address": {
						"encoding": "inplace",
						"label": "address",
						"numberOfBytes": "20"
					},
					"t_array(t_address)dyn_storage": {
						"base": "t_address",
						"encoding": "dynamic_array",
						"label": "address[]",
						"numberOfBytes": "32"
					},
					"t_mapping(t_address,t_uint256)": {
						"encoding": "mapping",
						"key": "t_address",
						"label": "mapping(address => uint256)",
						"numberOfBytes": "32",
						"value": "t_uint256"
					},
					"t_uint256": {
						"encoding": "inplace",
						"label": "uint256",
						"numberOfBytes": "32"
					}
				}
			},
			"userdoc": {
				"kind": "user",
				"methods": {},
				"version": 1
			}
		}
	}
}