{
	"data": {
		"bytecode": {
			"linkReferences": {},
			"object": "6080604052348015600e575f5ffd5b506109ae8061001c5f395ff3fe608060405234801561000f575f5ffd5b5060043610610060575f3560e01c80630d9843d41461006457806318b50f2d146100945780632ebce631146100c457806335d0aac1146100f55780636057361d14610111578063635d743e1461012d575b5f5ffd5b61007e60048036038101906100799190610447565b61014b565b60405161008b91906104a6565b60405180910390f35b6100ae60048036038101906100a99190610447565b610172565b6040516100bb91906104a6565b60405180910390f35b6100de60048036038101906100d991906104e9565b61019f565b6040516100ec929190610574565b60405180910390f35b61010f600480360381019061010a91906105a2565b610254565b005b61012b600480360381019061012691906104e9565b6102dd565b005b6101356102f2565b60405161014291906104a6565b60405180910390f35b5f60018260405161015c9190610636565b9081526020016040518091039020549050919050565b6001818051602081018201805184825260208301602085012081835280955050505050505f915090505481565b600281815481106101ae575f80fd5b905f5260205f2090600202015f91509050805f0180546101cd90610679565b80601f01602080910402602001604051908101604052809291908181526020018280546101f990610679565b80156102445780601f1061021b57610100808354040283529160200191610244565b820191905f5260205f20905b81548152906001019060200180831161022757829003601f168201915b5050505050908060010154905082565b5f6040518060400160405280848152602001838152509050600281908060018154018082558091505060019003905f5260205f2090600202015f909190919091505f820151815f0190816102a89190610849565b50602082015181600101555050816001846040516102c69190610636565b908152602001604051809103902081905550505050565b6007816102ea9190610945565b5f8190555050565b5f5f54905090565b5f604051905090565b5f5ffd5b5f5ffd5b5f5ffd5b5f5ffd5b5f601f19601f8301169050919050565b7f4e487b71000000000000000000000000000000000000000000000000000000005f52604160045260245ffd5b61035982610313565b810181811067ffffffffffffffff8211171561037857610377610323565b5b80604052505050565b5f61038a6102fa565b90506103968282610350565b919050565b5f67ffffffffffffffff8211156103b5576103b4610323565b5b6103be82610313565b9050602081019050919050565b828183375f83830152505050565b5f6103eb6103e68461039b565b610381565b9050828152602081018484840111156104075761040661030f565b5b6104128482856103cb565b509392505050565b5f82601f83011261042e5761042d61030b565b5b813561043e8482602086016103d9565b91505092915050565b5f6020828403121561045c5761045b610303565b5b5f82013567ffffffffffffffff81111561047957610478610307565b5b6104858482850161041a565b91505092915050565b5f819050919050565b6104a08161048e565b82525050565b5f6020820190506104b95f830184610497565b92915050565b6104c88161048e565b81146104d2575f5ffd5b50565b5f813590506104e3816104bf565b92915050565b5f602082840312156104fe576104fd610303565b5b5f61050b848285016104d5565b91505092915050565b5f81519050919050565b5f82825260208201905092915050565b8281835e5f83830152505050565b5f61054682610514565b610550818561051e565b935061056081856020860161052e565b61056981610313565b840191505092915050565b5f6040820190508181035f83015261058c818561053c565b905061059b6020830184610497565b9392505050565b5f5f604083850312156105b8576105b7610303565b5b5f83013567ffffffffffffffff8111156105d5576105d4610307565b5b6105e18582860161041a565b92505060206105f2858286016104d5565b9150509250929050565b5f81905092915050565b5f61061082610514565b61061a81856105fc565b935061062a81856020860161052e565b80840191505092915050565b5f6106418284610606565b915081905092915050565b7f4e487b71000000000000000000000000000000000000000000000000000000005f52602260045260245ffd5b5f600282049050600182168061069057607f821691505b6020821081036106a3576106a261064c565b5b50919050565b5f819050815f5260205f209050919050565b5f6020601f8301049050919050565b5f82821b905092915050565b5f600883026107057fffffffffffffffffffffffffffffffffffffffffffffffffffffffffffffffff826106ca565b61070f86836106ca565b95508019841693508086168417925050509392505050565b5f819050919050565b5f61074a6107456107408461048e565b610727565b61048e565b9050919050565b5f819050919050565b61076383610730565b61077761076f82610751565b8484546106d6565b825550505050565b5f5f905090565b61078e61077f565b61079981848461075a565b505050565b5b818110156107bc576107b15f82610786565b60018101905061079f565b5050565b601f821115610801576107d2816106a9565b6107db846106bb565b810160208510156107ea578190505b6107fe6107f6856106bb565b83018261079e565b50505b505050565b5f82821c905092915050565b5f6108215f1984600802610806565b1980831691505092915050565b5f6108398383610812565b9150826002028217905092915050565b61085282610514565b67ffffffffffffffff81111561086b5761086a610323565b5b6108758254610679565b6108808282856107c0565b5f60209050601f8311600181146108b1575f841561089f578287015190505b6108a9858261082e565b865550610910565b601f1984166108bf866106a9565b5f5b828110156108e6578489015182556001820191506020850194506020810190506108c1565b8683101561090357848901516108ff601f891682610812565b8355505b6001600288020188555050505b505050505050565b7f4e487b71000000000000000000000000000000000000000000000000000000005f52601160045260245ffd5b5f61094f8261048e565b915061095a8361048e565b925082820190508082111561097257610971610918565b5b9291505056fea2646970667358221220f6c0b3aadd4ea7a9f0e2ed72c3c2beea5550e79a8ac4f2d1856d595256ce13b164736f6c634300081c0033",
			"opcodes": "PUSH1 0x80 PUSH1 0x40 MSTORE CALLVALUE DUP1 ISZERO PUSH1 0xE JUMPI PUSH0 PUSH0 REVERT JUMPDEST POP PUSH2 0x9AE DUP1 PUSH2 0x1C PUSH0 CODECOPY PUSH0 RETURN INVALID PUSH1 0x80 PUSH1 0x40 MSTORE CALLVALUE DUP1 ISZERO PUSH2 0xF JUMPI PUSH0 PUSH0 REVERT JUMPDEST POP PUSH1 0x4 CALLDATASIZE LT PUSH2 0x60 JUMPI PUSH0 CALLDATALOAD PUSH1 0xE0 SHR DUP1 PUSH4 0xD9843D4 EQ PUSH2 0x64 JUMPI DUP1 PUSH4 0x18B50F2D EQ PUSH2 0x94 JUMPI DUP1 PUSH4 0x2EBCE631 EQ PUSH2 0xC4 JUMPI DUP1 PUSH4 0x35D0AAC1 EQ PUSH2 0xF5 JUMPI DUP1 PUSH4 0x6057361D EQ PUSH2 0x111 JUMPI DUP1 PUSH4 0x635D743E EQ PUSH2 0x12D JUMPI JUMPDEST PUSH0 PUSH0 REVERT JUMPDEST PUSH2 0x7E PUSH1 0x4 DUP1 CALLDATASIZE SUB DUP2 ADD SWAP1 PUSH2 0x79 SWAP2 SWAP1 PUSH2 0x447 JUMP JUMPDEST PUSH2 0x14B JUMP JUMPDEST PUSH1 0x40 MLOAD PUSH2 0x8B SWAP2 SWAP1 PUSH2 0x4A6 JUMP JUMPDEST PUSH1 0x40 MLOAD DUP1 SWAP2 SUB SWAP1 RETURN JUMPDEST PUSH2 0xAE PUSH1 0x4 DUP1 CALLDATASIZE SUB DUP2 ADD SWAP1 PUSH2 0xA9 SWAP2 SWAP1 PUSH2 0x447 JUMP JUMPDEST PUSH2 0x172 JUMP JUMPDEST PUSH1 0x40 MLOAD PUSH2 0xBB SWAP2 SWAP1 PUSH2 0x4A6 JUMP JUMPDEST PUSH1 0x40 MLOAD DUP1 SWAP2 SUB SWAP1 RETURN JUMPDEST PUSH2 0xDE PUSH1 0x4 DUP1 CALLDATASIZE SUB DUP2 ADD SWAP1 PUSH2 0xD9 SWAP2 SWAP1 PUSH2 0x4E9 JUMP JUMPDEST PUSH2 0x19F JUMP JUMPDEST PUSH1 0x40 MLOAD PUSH2 0xEC SWAP3 SWAP2 SWAP1 PUSH2 0x574 JUMP JUMPDEST PUSH1 0x40 MLOAD DUP1 SWAP2 SUB SWAP1 RETURN JUMPDEST PUSH2 0x10F PUSH1 0x4 DUP1 CALLDATASIZE SUB DUP2 ADD SWAP1 PUSH2 0x10A SWAP2 SWAP1 PUSH2 0x5A2 JUMP JUMPDEST PUSH2 0x254 JUMP JUMPDEST STOP JUMPDEST PUSH2 0x12B PUSH1 0x4 DUP1 CALLDATASIZE SUB DUP2 ADD SWAP1 PUSH2 0x126 SWAP2 SWAP1 PUSH2 0x4E9 JUMP JUMPDEST PUSH2 0x2DD JUMP JUMPDEST STOP JUMPDEST PUSH2 0x135 PUSH2 0x2F2 JUMP JUMPDEST PUSH1 0x40 MLOAD PUSH2 0x142 SWAP2 SWAP1 PUSH2 0x4A6 JUMP JUMPDEST PUSH1 0x40 MLOAD DUP1 SWAP2 SUB SWAP1 RETURN JUMPDEST PUSH0 PUSH1 0x1 DUP3 PUSH1 0x40 MLOAD PUSH2 0x15C SWAP2 SWAP1 PUSH2 0x636 JUMP JUMPDEST SWAP1 DUP2 MSTORE PUSH1 0x20 ADD PUSH1 0x40 MLOAD DUP1 SWAP2 SUB SWAP1 KECCAK256 SLOAD SWAP1 POP SWAP2 SWAP1 POP JUMP JUMPDEST PUSH1 0x1 DUP2 DUP1 MLOAD PUSH1 0x20 DUP2 ADD DUP3 ADD DUP1 MLOAD DUP5 DUP3 MSTORE PUSH1 0x20 DUP4 ADD PUSH1 0x20 DUP6 ADD KECCAK256 DUP2 DUP4 MSTORE DUP1 SWAP6 POP POP POP POP POP POP PUSH0 SWAP2 POP SWAP1 POP SLOAD DUP2 JUMP JUMPDEST PUSH1 0x2 DUP2 DUP2 SLOAD DUP2 LT PUSH2 0x1AE JUMPI PUSH0 DUP1 REVERT JUMPDEST SWAP1 PUSH0 MSTORE PUSH1 0x20 PUSH0 KECCAK256 SWAP1 PUSH1 0x2 MUL ADD PUSH0 SWAP2 POP SWAP1 POP DUP1 PUSH0 ADD DUP1 SLOAD PUSH2 0x1CD SWAP1 PUSH2 0x679 JUMP JUMPDEST DUP1 PUSH1 0x1F ADD PUSH1 0x20 DUP1 SWAP2 DIV MUL PUSH1 0x20 ADD PUSH1 0x40 MLOAD SWAP1 DUP2 ADD PUSH1 0x40 MSTORE DUP1 SWAP3 SWAP2 SWAP1 DUP2 DUP2 MSTORE PUSH1 0x20 ADD DUP3 DUP1 SLOAD PUSH2 0x1F9 SWAP1 PUSH2 0x679 JUMP JUMPDEST DUP1 ISZERO PUSH2 0x244 JUMPI DUP1 PUSH1 0x1F LT PUSH2 0x21B JUMPI PUSH2 0x100 DUP1 DUP4 SLOAD DIV MUL DUP4 MSTORE SWAP2 PUSH1 0x20 ADD SWAP2 PUSH2 0x244 JUMP JUMPDEST DUP3 ADD SWAP2 SWAP1 PUSH0 MSTORE PUSH1 0x20 PUSH0 KECCAK256 SWAP1 JUMPDEST DUP2 SLOAD DUP2 MSTORE SWAP1 PUSH1 0x1 ADD SWAP1 PUSH1 0x20 ADD DUP1 DUP4 GT PUSH2 0x227 JUMPI DUP3 SWAP1 SUB PUSH1 0x1F AND DUP3 ADD SWAP2 JUMPDEST POP POP POP POP POP SWAP1 DUP1 PUSH1 0x1 ADD SLOAD SWAP1 POP DUP3 JUMP JUMPDEST PUSH0 PUSH1 0x40 MLOAD DUP1 PUSH1 0x40 ADD PUSH1 0x40 MSTORE DUP1 DUP5 DUP2 MSTORE PUSH1 0x20 ADD DUP4 DUP2 MSTORE POP SWAP1 POP PUSH1 0x2 DUP2 SWAP1 DUP1 PUSH1 0x1 DUP2 SLOAD ADD DUP1 DUP3 SSTORE DUP1 SWAP2 POP POP PUSH1 0x1 SWAP1 SUB SWAP1 PUSH0 MSTORE PUSH1 0x20 PUSH0 KECCAK256 SWAP1 PUSH1 0x2 MUL ADD PUSH0 SWAP1 SWAP2 SWAP1 SWAP2 SWAP1 SWAP2 POP PUSH0 DUP3 ADD MLOAD DUP2 PUSH0 ADD SWAP1 DUP2 PUSH2 0x2A8 SWAP2 SWAP1 PUSH2 0x849 JUMP JUMPDEST POP PUSH1 0x20 DUP3 ADD MLOAD DUP2 PUSH1 0x1 ADD SSTORE POP POP DUP2 PUSH1 0x1 DUP5 PUSH1 0x40 MLOAD PUSH2 0x2C6 SWAP2 SWAP1 PUSH2 0x636 JUMP JUMPDEST SWAP1 DUP2 MSTORE PUSH1 0x20 ADD PUSH1 0x40 MLOAD DUP1 SWAP2 SUB SWAP1 KECCAK256 DUP2 SWAP1 SSTORE POP POP POP POP JUMP JUMPDEST PUSH1 0x7 DUP2 PUSH2 0x2EA SWAP2 SWAP1 PUSH2 0x945 JUMP JUMPDEST PUSH0 DUP2 SWAP1 SSTORE POP POP JUMP JUMPDEST PUSH0 PUSH0 SLOAD SWAP1 POP SWAP1 JUMP JUMPDEST PUSH0 PUSH1 0x40 MLOAD SWAP1 POP SWAP1 JUMP JUMPDEST PUSH0 PUSH0 REVERT JUMPDEST PUSH0 PUSH0 REVERT JUMPDEST PUSH0 PUSH0 REVERT JUMPDEST PUSH0 PUSH0 REVERT JUMPDEST PUSH0 PUSH1 0x1F NOT PUSH1 0x1F DUP4 ADD AND SWAP1 POP SWAP2 SWAP1 POP JUMP JUMPDEST PUSH32 0x4E487B7100000000000000000000000000000000000000000000000000000000 PUSH0 MSTORE PUSH1 0x41 PUSH1 0x4 MSTORE PUSH1 0x24 PUSH0 REVERT JUMPDEST PUSH2 0x359 DUP3 PUSH2 0x313 JUMP JUMPDEST DUP2 ADD DUP2 DUP2 LT PUSH8 0xFFFFFFFFFFFFFFFF DUP3 GT OR ISZERO PUSH2 0x378 JUMPI PUSH2 0x377 PUSH2 0x323 JUMP JUMPDEST JUMPDEST DUP1 PUSH1 0x40 MSTORE POP POP POP JUMP JUMPDEST PUSH0 PUSH2 0x38A PUSH2 0x2FA JUMP JUMPDEST SWAP1 POP PUSH2 0x396 DUP3 DUP3 PUSH2 0x350 JUMP JUMPDEST SWAP2 SWAP1 POP JUMP JUMPDEST PUSH0 PUSH8 0xFFFFFFFFFFFFFFFF DUP3 GT ISZERO PUSH2 0x3B5 JUMPI PUSH2 0x3B4 PUSH2 0x323 JUMP JUMPDEST JUMPDEST PUSH2 0x3BE DUP3 PUSH2 0x313 JUMP JUMPDEST SWAP1 POP PUSH1 0x20 DUP2 ADD SWAP1 POP SWAP2 SWAP1 POP JUMP JUMPDEST DUP3 DUP2 DUP4 CALLDATACOPY PUSH0 DUP4 DUP4 ADD MSTORE POP POP POP JUMP JUMPDEST PUSH0 PUSH2 0x3EB PUSH2 0x3E6 DUP5 PUSH2 0x39B JUMP JUMPDEST PUSH2 0x381 JUMP JUMPDEST SWAP1 POP DUP3 DUP2 MSTORE PUSH1 0x20 DUP2 ADD DUP5 DUP5 DUP5 ADD GT ISZERO PUSH2 0x407 JUMPI PUSH2 0x406 PUSH2 0x30F JUMP JUMPDEST JUMPDEST PUSH2 0x412 DUP5 DUP3 DUP6 PUSH2 0x3CB JUMP JUMPDEST POP SWAP4 SWAP3 POP POP POP JUMP JUMPDEST PUSH0 DUP3 PUSH1 0x1F DUP4 ADD SLT PUSH2 0x42E JUMPI PUSH2 0x42D PUSH2 0x30B JUMP JUMPDEST JUMPDEST DUP2 CALLDATALOAD PUSH2 0x43E DUP5 DUP3 PUSH1 0x20 DUP7 ADD PUSH2 0x3D9 JUMP JUMPDEST SWAP2 POP POP SWAP3 SWAP2 POP POP JUMP JUMPDEST PUSH0 PUSH1 0x20 DUP3 DUP5 SUB SLT ISZERO PUSH2 0x45C JUMPI PUSH2 0x45B PUSH2 0x303 JUMP JUMPDEST JUMPDEST PUSH0 DUP3 ADD CALLDATALOAD PUSH8 0xFFFFFFFFFFFFFFFF DUP2 GT ISZERO PUSH2 0x479 JUMPI PUSH2 0x478 PUSH2 0x307 JUMP JUMPDEST JUMPDEST PUSH2 0x485 DUP5 DUP3 DUP6 ADD PUSH2 0x41A JUMP JUMPDEST SWAP2 POP POP SWAP3 SWAP2 POP POP JUMP JUMPDEST PUSH0 DUP2 SWAP1 POP SWAP2 SWAP1 POP JUMP JUMPDEST PUSH2 0x4A0 DUP2 PUSH2 0x48E JUMP JUMPDEST DUP3 MSTORE POP POP JUMP JUMPDEST PUSH0 PUSH1 0x20 DUP3 ADD SWAP1 POP PUSH2 0x4B9 PUSH0 DUP4 ADD DUP5 PUSH2 0x497 JUMP JUMPDEST SWAP3 SWAP2 POP POP JUMP JUMPDEST PUSH2 0x4C8 DUP2 PUSH2 0x48E JUMP JUMPDEST DUP2 EQ PUSH2 0x4D2 JUMPI PUSH0 PUSH0 REVERT JUMPDEST POP JUMP JUMPDEST PUSH0 DUP2 CALLDATALOAD SWAP1 POP PUSH2 0x4E3 DUP2 PUSH2 0x4BF JUMP JUMPDEST SWAP3 SWAP2 POP POP JUMP JUMPDEST PUSH0 PUSH1 0x20 DUP3 DUP5 SUB SLT ISZERO PUSH2 0x4FE JUMPI PUSH2 0x4FD PUSH2 0x303 JUMP JUMPDEST JUMPDEST PUSH0 PUSH2 0x50B DUP5 DUP3 DUP6 ADD PUSH2 0x4D5 JUMP JUMPDEST SWAP2 POP POP SWAP3 SWAP2 POP POP JUMP JUMPDEST PUSH0 DUP2 MLOAD SWAP1 POP SWAP2 SWAP1 POP JUMP JUMPDEST PUSH0 DUP3 DUP3 MSTORE PUSH1 0x20 DUP3 ADD SWAP1 POP SWAP3 SWAP2 POP POP JUMP JUMPDEST DUP3 DUP2 DUP4 MCOPY PUSH0 DUP4 DUP4 ADD MSTORE POP POP POP JUMP JUMPDEST PUSH0 PUSH2 0x546 DUP3 PUSH2 0x514 JUMP JUMPDEST PUSH2 0x550 DUP2 DUP6 PUSH2 0x51E JUMP JUMPDEST SWAP4 POP PUSH2 0x560 DUP2 DUP6 PUSH1 0x20 DUP7 ADD PUSH2 0x52E JUMP JUMPDEST PUSH2 0x569 DUP2 PUSH2 0x313 JUMP JUMPDEST DUP5 ADD SWAP2 POP POP SWAP3 SWAP2 POP POP JUMP JUMPDEST PUSH0 PUSH1 0x40 DUP3 ADD SWAP1 POP DUP2 DUP2 SUB PUSH0 DUP4 ADD MSTORE PUSH2 0x58C DUP2 DUP6 PUSH2 0x53C JUMP JUMPDEST SWAP1 POP PUSH2 0x59B PUSH1 0x20 DUP4 ADD DUP5 PUSH2 0x497 JUMP JUMPDEST SWAP4 SWAP3 POP POP POP JUMP JUMPDEST PUSH0 PUSH0 PUSH1 0x40 DUP4 DUP6 SUB SLT ISZERO PUSH2 0x5B8 JUMPI PUSH2 0x5B7 PUSH2 0x303 JUMP JUMPDEST JUMPDEST PUSH0 DUP4 ADD CALLDATALOAD PUSH8 0xFFFFFFFFFFFFFFFF DUP2 GT ISZERO PUSH2 0x5D5 JUMPI PUSH2 0x5D4 PUSH2 0x307 JUMP JUMPDEST JUMPDEST PUSH2 0x5E1 DUP6 DUP3 DUP7 ADD PUSH2 0x41A JUMP JUMPDEST SWAP3 POP POP PUSH1 0x20 PUSH2 0x5F2 DUP6 DUP3 DUP7 ADD PUSH2 0x4D5 JUMP JUMPDEST SWAP2 POP POP SWAP3 POP SWAP3 SWAP1 POP JUMP JUMPDEST PUSH0 DUP2 SWAP1 POP SWAP3 SWAP2 POP POP JUMP JUMPDEST PUSH0 PUSH2 0x610 DUP3 PUSH2 0x514 JUMP JUMPDEST PUSH2 0x61A DUP2 DUP6 PUSH2 0x5FC JUMP JUMPDEST SWAP4 POP PUSH2 0x62A DUP2 DUP6 PUSH1 0x20 DUP7 ADD PUSH2 0x52E JUMP JUMPDEST DUP1 DUP5 ADD SWAP2 POP POP SWAP3 SWAP2 POP POP JUMP JUMPDEST PUSH0 PUSH2 0x641 DUP3 DUP5 PUSH2 0x606 JUMP JUMPDEST SWAP2 POP DUP2 SWAP1 POP SWAP3 SWAP2 POP POP JUMP JUMPDEST PUSH32 0x4E487B7100000000000000000000000000000000000000000000000000000000 PUSH0 MSTORE PUSH1 0x22 PUSH1 0x4 MSTORE PUSH1 0x24 PUSH0 REVERT JUMPDEST PUSH0 PUSH1 0x2 DUP3 DIV SWAP1 POP PUSH1 0x1 DUP3 AND DUP1 PUSH2 0x690 JUMPI PUSH1 0x7F DUP3 AND SWAP2 POP JUMPDEST PUSH1 0x20 DUP3 LT DUP2 SUB PUSH2 0x6A3 JUMPI PUSH2 0x6A2 PUSH2 0x64C JUMP JUMPDEST JUMPDEST POP SWAP2 SWAP1 POP JUMP JUMPDEST PUSH0 DUP2 SWAP1 POP DUP2 PUSH0 MSTORE PUSH1 0x20 PUSH0 KECCAK256 SWAP1 POP SWAP2 SWAP1 POP JUMP JUMPDEST PUSH0 PUSH1 0x20 PUSH1 0x1F DUP4 ADD DIV SWAP1 POP SWAP2 SWAP1 POP JUMP JUMPDEST PUSH0 DUP3 DUP3 SHL SWAP1 POP SWAP3 SWAP2 POP POP JUMP JUMPDEST PUSH0 PUSH1 0x8 DUP4 MUL PUSH2 0x705 PUSH32 0xFFFFFFFFFFFFFFFFFFFFFFFFFFFFFFFFFFFFFFFFFFFFFFFFFFFFFFFFFFFFFFFF DUP3 PUSH2 0x6CA JUMP JUMPDEST PUSH2 0x70F DUP7 DUP4 PUSH2 0x6CA JUMP JUMPDEST SWAP6 POP DUP1 NOT DUP5 AND SWAP4 POP DUP1 DUP7 AND DUP5 OR SWAP3 POP POP POP SWAP4 SWAP3 POP POP POP JUMP JUMPDEST PUSH0 DUP2 SWAP1 POP SWAP2 SWAP1 POP JUMP JUMPDEST PUSH0 PUSH2 0x74A PUSH2 0x745 PUSH2 0x740 DUP5 PUSH2 0x48E JUMP JUMPDEST PUSH2 0x727 JUMP JUMPDEST PUSH2 0x48E JUMP JUMPDEST SWAP1 POP SWAP2 SWAP1 POP JUMP JUMPDEST PUSH0 DUP2 SWAP1 POP SWAP2 SWAP1 POP JUMP JUMPDEST PUSH2 0x763 DUP4 PUSH2 0x730 JUMP JUMPDEST PUSH2 0x777 PUSH2 0x76F DUP3 PUSH2 0x751 JUMP JUMPDEST DUP5 DUP5 SLOAD PUSH2 0x6D6 JUMP JUMPDEST DUP3 SSTORE POP POP POP POP JUMP JUMPDEST PUSH0 PUSH0 SWAP1 POP SWAP1 JUMP JUMPDEST PUSH2 0x78E PUSH2 0x77F JUMP JUMPDEST PUSH2 0x799 DUP2 DUP5 DUP5 PUSH2 0x75A JUMP JUMPDEST POP POP POP JUMP JUMPDEST JUMPDEST DUP2 DUP2 LT ISZERO PUSH2 0x7BC JUMPI PUSH2 0x7B1 PUSH0 DUP3 PUSH2 0x786 JUMP JUMPDEST PUSH1 0x1 DUP2 ADD SWAP1 POP PUSH2 0x79F JUMP JUMPDEST POP POP JUMP JUMPDEST PUSH1 0x1F DUP3 GT ISZERO PUSH2 0x801 JUMPI PUSH2 0x7D2 DUP2 PUSH2 0x6A9 JUMP JUMPDEST PUSH2 0x7DB DUP5 PUSH2 0x6BB JUMP JUMPDEST DUP2 ADD PUSH1 0x20 DUP6 LT ISZERO PUSH2 0x7EA JUMPI DUP2 SWAP1 POP JUMPDEST PUSH2 0x7FE PUSH2 0x7F6 DUP6 PUSH2 0x6BB JUMP JUMPDEST DUP4 ADD DUP3 PUSH2 0x79E JUMP JUMPDEST POP POP JUMPDEST POP POP POP JUMP JUMPDEST PUSH0 DUP3 DUP3 SHR SWAP1 POP SWAP3 SWAP2 POP POP JUMP JUMPDEST PUSH0 PUSH2 0x821 PUSH0 NOT DUP5 PUSH1 0x8 MUL PUSH2 0x806 JUMP JUMPDEST NOT DUP1 DUP4 AND SWAP2 POP POP SWAP3 SWAP2 POP POP JUMP JUMPDEST PUSH0 PUSH2 0x839 DUP4 DUP4 PUSH2 0x812 JUMP JUMPDEST SWAP2 POP DUP3 PUSH1 0x2 MUL DUP3 OR SWAP1 POP SWAP3 SWAP2 POP POP JUMP JUMPDEST PUSH2 0x852 DUP3 PUSH2 0x514 JUMP JUMPDEST PUSH8 0xFFFFFFFFFFFFFFFF DUP2 GT ISZERO PUSH2 0x86B JUMPI PUSH2 0x86A PUSH2 0x323 JUMP JUMPDEST JUMPDEST PUSH2 0x875 DUP3 SLOAD PUSH2 0x679 JUMP JUMPDEST PUSH2 0x880 DUP3 DUP3 DUP6 PUSH2 0x7C0 JUMP JUMPDEST PUSH0 PUSH1 0x20 SWAP1 POP PUSH1 0x1F DUP4 GT PUSH1 0x1 DUP2 EQ PUSH2 0x8B1 JUMPI PUSH0 DUP5 ISZERO PUSH2 0x89F JUMPI DUP3 DUP8 ADD MLOAD SWAP1 POP JUMPDEST PUSH2 0x8A9 DUP6 DUP3 PUSH2 0x82E JUMP JUMPDEST DUP7 SSTORE POP PUSH2 0x910 JUMP JUMPDEST PUSH1 0x1F NOT DUP5 AND PUSH2 0x8BF DUP7 PUSH2 0x6A9 JUMP JUMPDEST PUSH0 JUMPDEST DUP3 DUP2 LT ISZERO PUSH2 0x8E6 JUMPI DUP5 DUP10 ADD MLOAD DUP3 SSTORE PUSH1 0x1 DUP3 ADD SWAP2 POP PUSH1 0x20 DUP6 ADD SWAP5 POP PUSH1 0x20 DUP2 ADD SWAP1 POP PUSH2 0x8C1 JUMP JUMPDEST DUP7 DUP4 LT ISZERO PUSH2 0x903 JUMPI DUP5 DUP10 ADD MLOAD PUSH2 0x8FF PUSH1 0x1F DUP10 AND DUP3 PUSH2 0x812 JUMP JUMPDEST DUP4 SSTORE POP JUMPDEST PUSH1 0x1 PUSH1 0x2 DUP9 MUL ADD DUP9 SSTORE POP POP POP JUMPDEST POP POP POP POP POP POP JUMP JUMPDEST PUSH32 0x4E487B7100000000000000000000000000000000000000000000000000000000 PUSH0 MSTORE PUSH1 0x11 PUSH1 0x4 MSTORE PUSH1 0x24 PUSH0 REVERT JUMPDEST PUSH0 PUSH2 0x94F DUP3 PUSH2 0x48E JUMP JUMPDEST SWAP2 POP PUSH2 0x95A DUP4 PUSH2 0x48E JUMP JUMPDEST SWAP3 POP DUP3 DUP3 ADD SWAP1 POP DUP1 DUP3 GT ISZERO PUSH2 0x972 JUMPI PUSH2 0x971 PUSH2 0x918 JUMP JUMPDEST JUMPDEST SWAP3 SWAP2 POP POP JUMP INVALID LOG2 PUSH5 0x6970667358 0x22 SLT KECCAK256 0xF6 0xC0 0xB3 0xAA 0xDD 0x4E 0xA7 0xA9 CREATE 0xE2 0xED PUSH19 0xC3C2BEEA5550E79A8AC4F2D1856D595256CE13 0xB1 PUSH5 0x736F6C6343 STOP ADDMOD SHR STOP CALLER "
		},
		"gasEstimates": {
			"creation": {
				"codeDepositCost": "495600",
				"executionCost": "528",
				"totalCost": "496128"
			},
			"external": {
				"AddPeople(string,uint256)": "infinite",
				"listOfPeople(uint256)": "infinite",
				"retreiveData(string)": "infinite",
				"seeMyFavoriteNumber()": "2519",
				"store(uint256)": "infinite",
				"stringToFavoriteNumber(string)": "infinite"
			}
		},
		"methodIdentifiers": {
			"AddPeople(string,uint256)": "35d0aac1",
			"listOfPeople(uint256)": "2ebce631",
			"retreiveData(string)": "0d9843d4",
			"seeMyFavoriteNumber()": "635d743e",
			"store(uint256)": "6057361d",
			"stringToFavoriteNumber(string)": "18b50f2d"
		}
	},
	"abi": [
		{
			"inputs": [
				{
					"internalType": "string",
					"name": "_Name",
					"type": "string"
				},
				{
					"internalType": "uint256",
					"name": "_favoriteNumber",
					"type": "uint256"
				}
			],
			"name": "AddPeople",
			"outputs": [],
			"stateMutability": "nonpayable",
			"type": "function"
		},
		{
			"inputs": [
				{
					"internalType": "uint256",
					"name": "",
					"type": "uint256"
				}
			],
			"name": "listOfPeople",
			"outputs": [
				{
					"internalType": "string",
					"name": "Name",
					"type": "string"
				},
				{
					"internalType": "uint256",
					"name": "favoriteNumber",
					"type": "uint256"
				}
			],
			"stateMutability": "view",
			"type": "function"
		},
		{
			"inputs": [
				{
					"internalType": "string",
					"name": "_Name",
					"type": "string"
				}
			],
			"name": "retreiveData",
			"outputs": [
				{
					"internalType": "uint256",
					"name": "",
					"type": "uint256"
				}
			],
			"stateMutability": "view",
			"type": "function"
		},
		{
			"inputs": [],
			"name": "seeMyFavoriteNumber",
			"outputs": [
				{
					"internalType": "uint256",
					"name": "",
					"type": "uint256"
				}
			],
			"stateMutability": "view",
			"type": "function"
		},
		{
			"inputs": [
				{
					"internalType": "uint256",
					"name": "_myFavoreiteNumber",
					"type": "uint256"
				}
			],
			"name": "store",
			"outputs": [],
			"stateMutability": "nonpayable",
			"type": "function"
		},
		{
			"inputs": [
				{
					"internalType": "string",
					"name": "",
					"type": "string"
				}
			],
			"name": "stringToFavoriteNumber",
			"outputs": [
				{
					"internalType": "uint256",
					"name": "",
					"type": "uint256"
				}
			],
			"stateMutability": "view",
			"type": "function"
		}
	]
}