{
	"data": {
		"bytecode": {
			"linkReferences": {},
			"object": "61054761004d600b8282823980515f1a6073146041577f4e487b71000000000000000000000000000000000000000000000000000000005f525f60045260245ffd5b305f52607381538281f3fe730000000000000000000000000000000000000000301460806040526004361061004a575f3560e01c80636d90164e1461004e578063793b233b1461006c578063c6129a5a1461009c575b5f5ffd5b6100566100ba565b6040516100639190610236565b60405180910390f35b6100866004803603810190610081919061027d565b61015f565b6040516100939190610236565b60405180910390f35b6100a4610197565b6040516100b19190610236565b60405180910390f35b5f5f73feeff7c3fb57d18c5c6cdd71e45d2d0b4f9377bf90505f8173ffffffffffffffffffffffffffffffffffffffff1663feaf968c6040518163ffffffff1660e01b815260040160a060405180830381865afa15801561011d573d5f5f3e3d5ffd5b505050506040513d601f19601f82011682018060405250810190610141919061032e565b5050509150506402540be4008161015891906103d2565b9250505090565b5f5f6101696100ba565b90505f670de0b6b3a764000084836101819190610448565b61018b91906104b6565b90508092505050919050565b5f73feeff7c3fb57d18c5c6cdd71e45d2d0b4f9377bf73ffffffffffffffffffffffffffffffffffffffff166354fd4d506040518163ffffffff1660e01b8152600401602060405180830381865afa1580156101f5573d5f5f3e3d5ffd5b505050506040513d601f19601f8201168201806040525081019061021991906104e6565b905090565b5f819050919050565b6102308161021e565b82525050565b5f6020820190506102495f830184610227565b92915050565b5f5ffd5b61025c8161021e565b8114610266575f5ffd5b50565b5f8135905061027781610253565b92915050565b5f602082840312156102925761029161024f565b5b5f61029f84828501610269565b91505092915050565b5f69ffffffffffffffffffff82169050919050565b6102c6816102a8565b81146102d0575f5ffd5b50565b5f815190506102e1816102bd565b92915050565b5f819050919050565b6102f9816102e7565b8114610303575f5ffd5b50565b5f81519050610314816102f0565b92915050565b5f8151905061032881610253565b92915050565b5f5f5f5f5f60a086880312156103475761034661024f565b5b5f610354888289016102d3565b955050602061036588828901610306565b94505060406103768882890161031a565b93505060606103878882890161031a565b9250506080610398888289016102d3565b9150509295509295909350565b7f4e487b71000000000000000000000000000000000000000000000000000000005f52601160045260245ffd5b5f6103dc826102e7565b91506103e7836102e7565b92508282026103f5816102e7565b91507f800000000000000000000000000000000000000000000000000000000000000084145f8412161561042c5761042b6103a5565b5b8282058414831517610441576104406103a5565b5b5092915050565b5f6104528261021e565b915061045d8361021e565b925082820261046b8161021e565b91508282048414831517610482576104816103a5565b5b5092915050565b7f4e487b71000000000000000000000000000000000000000000000000000000005f52601260045260245ffd5b5f6104c08261021e565b91506104cb8361021e565b9250826104db576104da610489565b5b828204905092915050565b5f602082840312156104fb576104fa61024f565b5b5f6105088482850161031a565b9150509291505056fea264697066735822122038ed18003b669ae3f2e71c1ce4f9c190cfc64abca6465abcb4cb8e6e9971824c64736f6c634300081c0033",
			"opcodes": "PUSH2 0x547 PUSH2 0x4D PUSH1 0xB DUP3 DUP3 DUP3 CODECOPY DUP1 MLOAD PUSH0 BYTE PUSH1 0x73 EQ PUSH1 0x41 JUMPI PUSH32 0x4E487B7100000000000000000000000000000000000000000000000000000000 PUSH0 MSTORE PUSH0 PUSH1 0x4 MSTORE PUSH1 0x24 PUSH0 REVERT JUMPDEST ADDRESS PUSH0 MSTORE PUSH1 0x73 DUP2 MSTORE8 DUP3 DUP2 RETURN INVALID PUSH20 0x0 ADDRESS EQ PUSH1 0x80 PUSH1 0x40 MSTORE PUSH1 0x4 CALLDATASIZE LT PUSH2 0x4A JUMPI PUSH0 CALLDATALOAD PUSH1 0xE0 SHR DUP1 PUSH4 0x6D90164E EQ PUSH2 0x4E JUMPI DUP1 PUSH4 0x793B233B EQ PUSH2 0x6C JUMPI DUP1 PUSH4 0xC6129A5A EQ PUSH2 0x9C JUMPI JUMPDEST PUSH0 PUSH0 REVERT JUMPDEST PUSH2 0x56 PUSH2 0xBA JUMP JUMPDEST PUSH1 0x40 MLOAD PUSH2 0x63 SWAP2 SWAP1 PUSH2 0x236 JUMP JUMPDEST PUSH1 0x40 MLOAD DUP1 SWAP2 SUB SWAP1 RETURN JUMPDEST PUSH2 0x86 PUSH1 0x4 DUP1 CALLDATASIZE SUB DUP2 ADD SWAP1 PUSH2 0x81 SWAP2 SWAP1 PUSH2 0x27D JUMP JUMPDEST PUSH2 0x15F JUMP JUMPDEST PUSH1 0x40 MLOAD PUSH2 0x93 SWAP2 SWAP1 PUSH2 0x236 JUMP JUMPDEST PUSH1 0x40 MLOAD DUP1 SWAP2 SUB SWAP1 RETURN JUMPDEST PUSH2 0xA4 PUSH2 0x197 JUMP JUMPDEST PUSH1 0x40 MLOAD PUSH2 0xB1 SWAP2 SWAP1 PUSH2 0x236 JUMP JUMPDEST PUSH1 0x40 MLOAD DUP1 SWAP2 SUB SWAP1 RETURN JUMPDEST PUSH0 PUSH0 PUSH20 0xFEEFF7C3FB57D18C5C6CDD71E45D2D0B4F9377BF SWAP1 POP PUSH0 DUP2 PUSH20 0xFFFFFFFFFFFFFFFFFFFFFFFFFFFFFFFFFFFFFFFF AND PUSH4 0xFEAF968C PUSH1 0x40 MLOAD DUP2 PUSH4 0xFFFFFFFF AND PUSH1 0xE0 SHL DUP2 MSTORE PUSH1 0x4 ADD PUSH1 0xA0 PUSH1 0x40 MLOAD DUP1 DUP4 SUB DUP2 DUP7 GAS STATICCALL ISZERO DUP1 ISZERO PUSH2 0x11D JUMPI RETURNDATASIZE PUSH0 PUSH0 RETURNDATACOPY RETURNDATASIZE PUSH0 REVERT JUMPDEST POP POP POP POP PUSH1 0x40 MLOAD RETURNDATASIZE PUSH1 0x1F NOT PUSH1 0x1F DUP3 ADD AND DUP3 ADD DUP1 PUSH1 0x40 MSTORE POP DUP2 ADD SWAP1 PUSH2 0x141 SWAP2 SWAP1 PUSH2 0x32E JUMP JUMPDEST POP POP POP SWAP2 POP POP PUSH5 0x2540BE400 DUP2 PUSH2 0x158 SWAP2 SWAP1 PUSH2 0x3D2 JUMP JUMPDEST SWAP3 POP POP POP SWAP1 JUMP JUMPDEST PUSH0 PUSH0 PUSH2 0x169 PUSH2 0xBA JUMP JUMPDEST SWAP1 POP PUSH0 PUSH8 0xDE0B6B3A7640000 DUP5 DUP4 PUSH2 0x181 SWAP2 SWAP1 PUSH2 0x448 JUMP JUMPDEST PUSH2 0x18B SWAP2 SWAP1 PUSH2 0x4B6 JUMP JUMPDEST SWAP1 POP DUP1 SWAP3 POP POP POP SWAP2 SWAP1 POP JUMP JUMPDEST PUSH0 PUSH20 0xFEEFF7C3FB57D18C5C6CDD71E45D2D0B4F9377BF PUSH20 0xFFFFFFFFFFFFFFFFFFFFFFFFFFFFFFFFFFFFFFFF AND PUSH4 0x54FD4D50 PUSH1 0x40 MLOAD DUP2 PUSH4 0xFFFFFFFF AND PUSH1 0xE0 SHL DUP2 MSTORE PUSH1 0x4 ADD PUSH1 0x20 PUSH1 0x40 MLOAD DUP1 DUP4 SUB DUP2 DUP7 GAS STATICCALL ISZERO DUP1 ISZERO PUSH2 0x1F5 JUMPI RETURNDATASIZE PUSH0 PUSH0 RETURNDATACOPY RETURNDATASIZE PUSH0 REVERT JUMPDEST POP POP POP POP PUSH1 0x40 MLOAD RETURNDATASIZE PUSH1 0x1F NOT PUSH1 0x1F DUP3 ADD AND DUP3 ADD DUP1 PUSH1 0x40 MSTORE POP DUP2 ADD SWAP1 PUSH2 0x219 SWAP2 SWAP1 PUSH2 0x4E6 JUMP JUMPDEST SWAP1 POP SWAP1 JUMP JUMPDEST PUSH0 DUP2 SWAP1 POP SWAP2 SWAP1 POP JUMP JUMPDEST PUSH2 0x230 DUP2 PUSH2 0x21E JUMP JUMPDEST DUP3 MSTORE POP POP JUMP JUMPDEST PUSH0 PUSH1 0x20 DUP3 ADD SWAP1 POP PUSH2 0x249 PUSH0 DUP4 ADD DUP5 PUSH2 0x227 JUMP JUMPDEST SWAP3 SWAP2 POP POP JUMP JUMPDEST PUSH0 PUSH0 REVERT JUMPDEST PUSH2 0x25C DUP2 PUSH2 0x21E JUMP JUMPDEST DUP2 EQ PUSH2 0x266 JUMPI PUSH0 PUSH0 REVERT JUMPDEST POP JUMP JUMPDEST PUSH0 DUP2 CALLDATALOAD SWAP1 POP PUSH2 0x277 DUP2 PUSH2 0x253 JUMP JUMPDEST SWAP3 SWAP2 POP POP JUMP JUMPDEST PUSH0 PUSH1 0x20 DUP3 DUP5 SUB SLT ISZERO PUSH2 0x292 JUMPI PUSH2 0x291 PUSH2 0x24F JUMP JUMPDEST JUMPDEST PUSH0 PUSH2 0x29F DUP5 DUP3 DUP6 ADD PUSH2 0x269 JUMP JUMPDEST SWAP2 POP POP SWAP3 SWAP2 POP POP JUMP JUMPDEST PUSH0 PUSH10 0xFFFFFFFFFFFFFFFFFFFF DUP3 AND SWAP1 POP SWAP2 SWAP1 POP JUMP JUMPDEST PUSH2 0x2C6 DUP2 PUSH2 0x2A8 JUMP JUMPDEST DUP2 EQ PUSH2 0x2D0 JUMPI PUSH0 PUSH0 REVERT JUMPDEST POP JUMP JUMPDEST PUSH0 DUP2 MLOAD SWAP1 POP PUSH2 0x2E1 DUP2 PUSH2 0x2BD JUMP JUMPDEST SWAP3 SWAP2 POP POP JUMP JUMPDEST PUSH0 DUP2 SWAP1 POP SWAP2 SWAP1 POP JUMP JUMPDEST PUSH2 0x2F9 DUP2 PUSH2 0x2E7 JUMP JUMPDEST DUP2 EQ PUSH2 0x303 JUMPI PUSH0 PUSH0 REVERT JUMPDEST POP JUMP JUMPDEST PUSH0 DUP2 MLOAD SWAP1 POP PUSH2 0x314 DUP2 PUSH2 0x2F0 JUMP JUMPDEST SWAP3 SWAP2 POP POP JUMP JUMPDEST PUSH0 DUP2 MLOAD SWAP1 POP PUSH2 0x328 DUP2 PUSH2 0x253 JUMP JUMPDEST SWAP3 SWAP2 POP POP JUMP JUMPDEST PUSH0 PUSH0 PUSH0 PUSH0 PUSH0 PUSH1 0xA0 DUP7 DUP9 SUB SLT ISZERO PUSH2 0x347 JUMPI PUSH2 0x346 PUSH2 0x24F JUMP JUMPDEST JUMPDEST PUSH0 PUSH2 0x354 DUP9 DUP3 DUP10 ADD PUSH2 0x2D3 JUMP JUMPDEST SWAP6 POP POP PUSH1 0x20 PUSH2 0x365 DUP9 DUP3 DUP10 ADD PUSH2 0x306 JUMP JUMPDEST SWAP5 POP POP PUSH1 0x40 PUSH2 0x376 DUP9 DUP3 DUP10 ADD PUSH2 0x31A JUMP JUMPDEST SWAP4 POP POP PUSH1 0x60 PUSH2 0x387 DUP9 DUP3 DUP10 ADD PUSH2 0x31A JUMP JUMPDEST SWAP3 POP POP PUSH1 0x80 PUSH2 0x398 DUP9 DUP3 DUP10 ADD PUSH2 0x2D3 JUMP JUMPDEST SWAP2 POP POP SWAP3 SWAP6 POP SWAP3 SWAP6 SWAP1 SWAP4 POP JUMP JUMPDEST PUSH32 0x4E487B7100000000000000000000000000000000000000000000000000000000 PUSH0 MSTORE PUSH1 0x11 PUSH1 0x4 MSTORE PUSH1 0x24 PUSH0 REVERT JUMPDEST PUSH0 PUSH2 0x3DC DUP3 PUSH2 0x2E7 JUMP JUMPDEST SWAP2 POP PUSH2 0x3E7 DUP4 PUSH2 0x2E7 JUMP JUMPDEST SWAP3 POP DUP3 DUP3 MUL PUSH2 0x3F5 DUP2 PUSH2 0x2E7 JUMP JUMPDEST SWAP2 POP PUSH32 0x8000000000000000000000000000000000000000000000000000000000000000 DUP5 EQ PUSH0 DUP5 SLT AND ISZERO PUSH2 0x42C JUMPI PUSH2 0x42B PUSH2 0x3A5 JUMP JUMPDEST JUMPDEST DUP3 DUP3 SDIV DUP5 EQ DUP4 ISZERO OR PUSH2 0x441 JUMPI PUSH2 0x440 PUSH2 0x3A5 JUMP JUMPDEST JUMPDEST POP SWAP3 SWAP2 POP POP JUMP JUMPDEST PUSH0 PUSH2 0x452 DUP3 PUSH2 0x21E JUMP JUMPDEST SWAP2 POP PUSH2 0x45D DUP4 PUSH2 0x21E JUMP JUMPDEST SWAP3 POP DUP3 DUP3 MUL PUSH2 0x46B DUP2 PUSH2 0x21E JUMP JUMPDEST SWAP2 POP DUP3 DUP3 DIV DUP5 EQ DUP4 ISZERO OR PUSH2 0x482 JUMPI PUSH2 0x481 PUSH2 0x3A5 JUMP JUMPDEST JUMPDEST POP SWAP3 SWAP2 POP POP JUMP JUMPDEST PUSH32 0x4E487B7100000000000000000000000000000000000000000000000000000000 PUSH0 MSTORE PUSH1 0x12 PUSH1 0x4 MSTORE PUSH1 0x24 PUSH0 REVERT JUMPDEST PUSH0 PUSH2 0x4C0 DUP3 PUSH2 0x21E JUMP JUMPDEST SWAP2 POP PUSH2 0x4CB DUP4 PUSH2 0x21E JUMP JUMPDEST SWAP3 POP DUP3 PUSH2 0x4DB JUMPI PUSH2 0x4DA PUSH2 0x489 JUMP JUMPDEST JUMPDEST DUP3 DUP3 DIV SWAP1 POP SWAP3 SWAP2 POP POP JUMP JUMPDEST PUSH0 PUSH1 0x20 DUP3 DUP5 SUB SLT ISZERO PUSH2 0x4FB JUMPI PUSH2 0x4FA PUSH2 0x24F JUMP JUMPDEST JUMPDEST PUSH0 PUSH2 0x508 DUP5 DUP3 DUP6 ADD PUSH2 0x31A JUMP JUMPDEST SWAP2 POP POP SWAP3 SWAP2 POP POP JUMP INVALID LOG2 PUSH5 0x6970667358 0x22 SLT KECCAK256 CODESIZE 0xED XOR STOP EXTCODESIZE PUSH7 0x9AE3F2E71C1CE4 0xF9 0xC1 SWAP1 0xCF 0xC6 BLOBBASEFEE 0xBC 0xA6 CHAINID GAS 0xBC 0xB4 0xCB DUP15 PUSH15 0x9971824C64736F6C634300081C0033 "
		},
		"gasEstimates": {
			"creation": {
				"codeDepositCost": "270200",
				"executionCost": "335",
				"totalCost": "270535"
			},
			"external": {
				"GetConversionRate(uint256)": "infinite",
				"GetPrice()": "infinite",
				"GetVersion()": "infinite"
			}
		},
		"methodIdentifiers": {
			"GetConversionRate(uint256)": "793b233b",
			"GetPrice()": "6d90164e",
			"GetVersion()": "c6129a5a"
		}
	},
	"abi": [
		{
			"inputs": [
				{
					"internalType": "uint256",
					"name": "ethAmount",
					"type": "uint256"
				}
			],
			"name": "GetConversionRate",
			"outputs": [
				{
					"internalType": "uint256",
					"name": "",
					"type": "uint256"
				}
			],
			"stateMutability": "view",
			"type": "function"
		},
		{
			"inputs": [],
			"name": "GetPrice",
			"outputs": [
				{
					"internalType": "uint256",
					"name": "",
					"type": "uint256"
				}
			],
			"stateMutability": "view",
			"type": "function"
		},
		{
			"inputs": [],
			"name": "GetVersion",
			"outputs": [
				{
					"internalType": "uint256",
					"name": "",
					"type": "uint256"
				}
			],
			"stateMutability": "view",
			"type": "function"
		}
	]
}